{
  "contracts/src/Node.sol": {
    "Node": {
      "abi": [
        {
          "inputs": [],
          "stateMutability": "nonpayable",
          "type": "constructor"
        },
        {
          "anonymous": false,
          "inputs": [
            {
              "indexed": true,
              "internalType": "address",
              "name": "owner",
              "type": "address"
            },
            {
              "indexed": true,
              "internalType": "address",
              "name": "approved",
              "type": "address"
            },
            {
              "indexed": true,
              "internalType": "uint256",
              "name": "tokenId",
              "type": "uint256"
            }
          ],
          "name": "Approval",
          "type": "event"
        },
        {
          "anonymous": false,
          "inputs": [
            {
              "indexed": true,
              "internalType": "address",
              "name": "owner",
              "type": "address"
            },
            {
              "indexed": true,
              "internalType": "address",
              "name": "operator",
              "type": "address"
            },
            {
              "indexed": false,
              "internalType": "bool",
              "name": "approved",
              "type": "bool"
            }
          ],
          "name": "ApprovalForAll",
          "type": "event"
        },
        {
          "anonymous": false,
          "inputs": [
            {
              "indexed": false,
              "internalType": "uint256",
              "name": "tokenId",
              "type": "uint256"
            },
            {
              "indexed": true,
              "internalType": "uint256",
              "name": "timestamp",
              "type": "uint256"
            },
            {
              "indexed": true,
              "internalType": "string",
              "name": "hash",
              "type": "string"
            },
            {
              "indexed": true,
              "internalType": "address",
              "name": "sender",
              "type": "address"
            }
          ],
          "name": "RevisionMade",
          "type": "event"
        },
        {
          "anonymous": false,
          "inputs": [
            {
              "indexed": false,
              "internalType": "uint256",
              "name": "tokenId",
              "type": "uint256"
            },
            {
              "indexed": true,
              "internalType": "uint256",
              "name": "role",
              "type": "uint256"
            },
            {
              "indexed": true,
              "internalType": "address",
              "name": "account",
              "type": "address"
            },
            {
              "indexed": true,
              "internalType": "address",
              "name": "sender",
              "type": "address"
            }
          ],
          "name": "RoleGranted",
          "type": "event"
        },
        {
          "anonymous": false,
          "inputs": [
            {
              "indexed": false,
              "internalType": "uint256",
              "name": "tokenId",
              "type": "uint256"
            },
            {
              "indexed": true,
              "internalType": "uint256",
              "name": "role",
              "type": "uint256"
            },
            {
              "indexed": true,
              "internalType": "address",
              "name": "account",
              "type": "address"
            },
            {
              "indexed": true,
              "internalType": "address",
              "name": "sender",
              "type": "address"
            }
          ],
          "name": "RoleRevoked",
          "type": "event"
        },
        {
          "anonymous": false,
          "inputs": [
            {
              "indexed": true,
              "internalType": "address",
              "name": "from",
              "type": "address"
            },
            {
              "indexed": true,
              "internalType": "address",
              "name": "to",
              "type": "address"
            },
            {
              "indexed": true,
              "internalType": "uint256",
              "name": "tokenId",
              "type": "uint256"
            }
          ],
          "name": "Transfer",
          "type": "event"
        },
        {
          "inputs": [],
          "name": "ADMIN_ROLE",
          "outputs": [
            {
              "internalType": "uint256",
              "name": "",
              "type": "uint256"
            }
          ],
          "stateMutability": "view",
          "type": "function"
        },
        {
          "inputs": [],
          "name": "EDITOR_ROLE",
          "outputs": [
            {
              "internalType": "uint256",
              "name": "",
              "type": "uint256"
            }
          ],
          "stateMutability": "view",
          "type": "function"
        },
        {
          "inputs": [
            {
              "internalType": "address",
              "name": "to",
              "type": "address"
            },
            {
              "internalType": "uint256",
              "name": "tokenId",
              "type": "uint256"
            }
          ],
          "name": "approve",
          "outputs": [],
          "stateMutability": "nonpayable",
          "type": "function"
        },
        {
          "inputs": [
            {
              "internalType": "address",
              "name": "owner",
              "type": "address"
            }
          ],
          "name": "balanceOf",
          "outputs": [
            {
              "internalType": "uint256",
              "name": "",
              "type": "uint256"
            }
          ],
          "stateMutability": "view",
          "type": "function"
        },
        {
          "inputs": [
            {
              "internalType": "uint256",
              "name": "tokenId",
              "type": "uint256"
            }
          ],
          "name": "burn",
          "outputs": [],
          "stateMutability": "nonpayable",
          "type": "function"
        },
        {
          "inputs": [
            {
              "internalType": "uint256",
              "name": "tokenId",
              "type": "uint256"
            },
            {
              "internalType": "address",
              "name": "account",
              "type": "address"
            }
          ],
          "name": "canEdit",
          "outputs": [
            {
              "internalType": "bool",
              "name": "",
              "type": "bool"
            }
          ],
          "stateMutability": "view",
          "type": "function"
        },
        {
          "inputs": [
            {
              "internalType": "uint256",
              "name": "from",
              "type": "uint256"
            },
            {
              "internalType": "uint256",
              "name": "to",
              "type": "uint256"
            }
          ],
          "name": "connectNodes",
          "outputs": [],
          "stateMutability": "nonpayable",
          "type": "function"
        },
        {
          "inputs": [
            {
              "internalType": "uint256",
              "name": "from",
              "type": "uint256"
            },
            {
              "internalType": "uint256",
              "name": "to",
              "type": "uint256"
            }
          ],
          "name": "disconnectNodes",
          "outputs": [],
          "stateMutability": "nonpayable",
          "type": "function"
        },
        {
          "inputs": [
            {
              "internalType": "uint256",
              "name": "tokenId",
              "type": "uint256"
            }
          ],
          "name": "exists",
          "outputs": [
            {
              "internalType": "bool",
              "name": "",
              "type": "bool"
            }
          ],
          "stateMutability": "view",
          "type": "function"
        },
        {
          "inputs": [
            {
              "internalType": "uint256",
              "name": "tokenId",
              "type": "uint256"
            }
          ],
          "name": "getApproved",
          "outputs": [
            {
              "internalType": "address",
              "name": "",
              "type": "address"
            }
          ],
          "stateMutability": "view",
          "type": "function"
        },
        {
          "inputs": [
            {
              "internalType": "uint256",
              "name": "tokenId",
              "type": "uint256"
            },
            {
              "internalType": "string",
              "name": "label",
              "type": "string"
            }
          ],
          "name": "getBacklinkedNodeCountForNodeByLabel",
          "outputs": [
            {
              "internalType": "uint256",
              "name": "",
              "type": "uint256"
            }
          ],
          "stateMutability": "view",
          "type": "function"
        },
        {
          "inputs": [
            {
              "internalType": "uint256",
              "name": "tokenId",
              "type": "uint256"
            },
            {
              "internalType": "string",
              "name": "label",
              "type": "string"
            },
            {
              "internalType": "uint256",
              "name": "index",
              "type": "uint256"
            }
          ],
          "name": "getBacklinkedNodeForNodeByLabelAndIndex",
          "outputs": [
            {
              "internalType": "uint256",
              "name": "",
              "type": "uint256"
            }
          ],
          "stateMutability": "view",
          "type": "function"
        },
        {
          "inputs": [
            {
              "internalType": "uint256",
              "name": "tokenId",
              "type": "uint256"
            },
            {
              "internalType": "string",
              "name": "label",
              "type": "string"
            }
          ],
          "name": "getConnectedNodeCountForNodeByLabel",
          "outputs": [
            {
              "internalType": "uint256",
              "name": "",
              "type": "uint256"
            }
          ],
          "stateMutability": "view",
          "type": "function"
        },
        {
          "inputs": [
            {
              "internalType": "uint256",
              "name": "tokenId",
              "type": "uint256"
            },
            {
              "internalType": "string",
              "name": "label",
              "type": "string"
            },
            {
              "internalType": "uint256",
              "name": "index",
              "type": "uint256"
            }
          ],
          "name": "getConnectedNodeForNodeByLabelAndIndex",
          "outputs": [
            {
              "internalType": "uint256",
              "name": "",
              "type": "uint256"
            }
          ],
          "stateMutability": "view",
          "type": "function"
        },
        {
          "inputs": [
            {
              "internalType": "string",
              "name": "label",
              "type": "string"
            }
          ],
          "name": "getNodeCountForLabel",
          "outputs": [
            {
              "internalType": "uint256",
              "name": "",
              "type": "uint256"
            }
          ],
          "stateMutability": "view",
          "type": "function"
        },
        {
          "inputs": [
            {
              "internalType": "string",
              "name": "label",
              "type": "string"
            },
            {
              "internalType": "uint256",
              "name": "index",
              "type": "uint256"
            }
          ],
          "name": "getNodeForLabelAtIndex",
          "outputs": [
            {
              "internalType": "uint256",
              "name": "",
              "type": "uint256"
            }
          ],
          "stateMutability": "view",
          "type": "function"
        },
        {
          "inputs": [
            {
              "internalType": "uint256",
              "name": "tokenId",
              "type": "uint256"
            },
            {
              "internalType": "uint256",
              "name": "index",
              "type": "uint256"
            }
          ],
          "name": "getRevision",
          "outputs": [
            {
              "components": [
                {
                  "internalType": "uint256",
                  "name": "timestamp",
                  "type": "uint256"
                },
                {
                  "internalType": "string",
                  "name": "hash",
                  "type": "string"
                },
                {
                  "internalType": "address",
                  "name": "revisor",
                  "type": "address"
                }
              ],
              "internalType": "struct Node.Revision",
              "name": "",
              "type": "tuple"
            }
          ],
          "stateMutability": "view",
          "type": "function"
        },
        {
          "inputs": [
            {
              "internalType": "uint256",
              "name": "tokenId",
              "type": "uint256"
            }
          ],
          "name": "getRevisionCount",
          "outputs": [
            {
              "internalType": "uint256",
              "name": "",
              "type": "uint256"
            }
          ],
          "stateMutability": "view",
          "type": "function"
        },
        {
          "inputs": [
            {
              "internalType": "uint256",
              "name": "tokenId",
              "type": "uint256"
            },
            {
              "internalType": "uint256",
              "name": "role",
              "type": "uint256"
            },
            {
              "internalType": "uint256",
              "name": "index",
              "type": "uint256"
            }
          ],
          "name": "getRoleMember",
          "outputs": [
            {
              "internalType": "address",
              "name": "",
              "type": "address"
            }
          ],
          "stateMutability": "view",
          "type": "function"
        },
        {
          "inputs": [
            {
              "internalType": "uint256",
              "name": "tokenId",
              "type": "uint256"
            },
            {
              "internalType": "uint256",
              "name": "role",
              "type": "uint256"
            }
          ],
          "name": "getRoleMemberCount",
          "outputs": [
            {
              "internalType": "uint256",
              "name": "",
              "type": "uint256"
            }
          ],
          "stateMutability": "view",
          "type": "function"
        },
        {
          "inputs": [
            {
              "internalType": "uint256",
              "name": "tokenId",
              "type": "uint256"
            },
            {
              "internalType": "uint256",
              "name": "role",
              "type": "uint256"
            },
            {
              "internalType": "address",
              "name": "account",
              "type": "address"
            }
          ],
          "name": "grantRole",
          "outputs": [],
          "stateMutability": "nonpayable",
          "type": "function"
        },
        {
          "inputs": [
            {
              "internalType": "uint256",
              "name": "tokenId",
              "type": "uint256"
            },
            {
              "internalType": "uint256",
              "name": "role",
              "type": "uint256"
            },
            {
              "internalType": "address",
              "name": "account",
              "type": "address"
            }
          ],
          "name": "hasRole",
          "outputs": [
            {
              "internalType": "bool",
              "name": "",
              "type": "bool"
            }
          ],
          "stateMutability": "view",
          "type": "function"
        },
        {
          "inputs": [
            {
              "internalType": "address",
              "name": "owner",
              "type": "address"
            },
            {
              "internalType": "address",
              "name": "operator",
              "type": "address"
            }
          ],
          "name": "isApprovedForAll",
          "outputs": [
            {
              "internalType": "bool",
              "name": "",
              "type": "bool"
            }
          ],
          "stateMutability": "view",
          "type": "function"
        },
        {
          "inputs": [
            {
              "internalType": "uint256",
              "name": "tokenId",
              "type": "uint256"
            }
          ],
          "name": "labelFor",
          "outputs": [
            {
              "internalType": "string",
              "name": "",
              "type": "string"
            }
          ],
          "stateMutability": "view",
          "type": "function"
        },
        {
          "inputs": [
            {
              "internalType": "uint256",
              "name": "tokenId",
              "type": "uint256"
            },
            {
              "internalType": "string",
              "name": "hash",
              "type": "string"
            }
          ],
          "name": "makeRevision",
          "outputs": [],
          "stateMutability": "nonpayable",
          "type": "function"
        },
        {
          "inputs": [
            {
              "internalType": "string",
              "name": "label",
              "type": "string"
            },
            {
              "internalType": "string",
              "name": "hash",
              "type": "string"
            },
            {
              "internalType": "uint256[]",
              "name": "fromConnections",
              "type": "uint256[]"
            },
            {
              "internalType": "uint256[]",
              "name": "toConnections",
              "type": "uint256[]"
            }
          ],
          "name": "mintNode",
          "outputs": [],
          "stateMutability": "nonpayable",
          "type": "function"
        },
        {
          "inputs": [],
          "name": "name",
          "outputs": [
            {
              "internalType": "string",
              "name": "",
              "type": "string"
            }
          ],
          "stateMutability": "view",
          "type": "function"
        },
        {
          "inputs": [
            {
              "internalType": "uint256",
              "name": "tokenId",
              "type": "uint256"
            }
          ],
          "name": "ownerOf",
          "outputs": [
            {
              "internalType": "address",
              "name": "",
              "type": "address"
            }
          ],
          "stateMutability": "view",
          "type": "function"
        },
        {
          "inputs": [
            {
              "internalType": "uint256",
              "name": "tokenId",
              "type": "uint256"
            },
            {
              "internalType": "uint256",
              "name": "role",
              "type": "uint256"
            }
          ],
          "name": "renounceRole",
          "outputs": [],
          "stateMutability": "nonpayable",
          "type": "function"
        },
        {
          "inputs": [
            {
              "internalType": "uint256",
              "name": "",
              "type": "uint256"
            },
            {
              "internalType": "uint256",
              "name": "",
              "type": "uint256"
            }
          ],
          "name": "revisions",
          "outputs": [
            {
              "internalType": "uint256",
              "name": "timestamp",
              "type": "uint256"
            },
            {
              "internalType": "string",
              "name": "hash",
              "type": "string"
            },
            {
              "internalType": "address",
              "name": "revisor",
              "type": "address"
            }
          ],
          "stateMutability": "view",
          "type": "function"
        },
        {
          "inputs": [
            {
              "internalType": "uint256",
              "name": "tokenId",
              "type": "uint256"
            },
            {
              "internalType": "uint256",
              "name": "role",
              "type": "uint256"
            },
            {
              "internalType": "address",
              "name": "account",
              "type": "address"
            }
          ],
          "name": "revokeRole",
          "outputs": [],
          "stateMutability": "nonpayable",
          "type": "function"
        },
        {
          "inputs": [
            {
              "internalType": "address",
              "name": "from",
              "type": "address"
            },
            {
              "internalType": "address",
              "name": "to",
              "type": "address"
            },
            {
              "internalType": "uint256",
              "name": "tokenId",
              "type": "uint256"
            }
          ],
          "name": "safeTransferFrom",
          "outputs": [],
          "stateMutability": "nonpayable",
          "type": "function"
        },
        {
          "inputs": [
            {
              "internalType": "address",
              "name": "from",
              "type": "address"
            },
            {
              "internalType": "address",
              "name": "to",
              "type": "address"
            },
            {
              "internalType": "uint256",
              "name": "tokenId",
              "type": "uint256"
            },
            {
              "internalType": "bytes",
              "name": "_data",
              "type": "bytes"
            }
          ],
          "name": "safeTransferFrom",
          "outputs": [],
          "stateMutability": "nonpayable",
          "type": "function"
        },
        {
          "inputs": [
            {
              "internalType": "address",
              "name": "operator",
              "type": "address"
            },
            {
              "internalType": "bool",
              "name": "approved",
              "type": "bool"
            }
          ],
          "name": "setApprovalForAll",
          "outputs": [],
          "stateMutability": "nonpayable",
          "type": "function"
        },
        {
          "inputs": [
            {
              "internalType": "bytes4",
              "name": "interfaceId",
              "type": "bytes4"
            }
          ],
          "name": "supportsInterface",
          "outputs": [
            {
              "internalType": "bool",
              "name": "",
              "type": "bool"
            }
          ],
          "stateMutability": "view",
          "type": "function"
        },
        {
          "inputs": [],
          "name": "symbol",
          "outputs": [
            {
              "internalType": "string",
              "name": "",
              "type": "string"
            }
          ],
          "stateMutability": "view",
          "type": "function"
        },
        {
          "inputs": [
            {
              "internalType": "uint256",
              "name": "index",
              "type": "uint256"
            }
          ],
          "name": "tokenByIndex",
          "outputs": [
            {
              "internalType": "uint256",
              "name": "",
              "type": "uint256"
            }
          ],
          "stateMutability": "view",
          "type": "function"
        },
        {
          "inputs": [
            {
              "internalType": "address",
              "name": "owner",
              "type": "address"
            },
            {
              "internalType": "uint256",
              "name": "index",
              "type": "uint256"
            }
          ],
          "name": "tokenOfOwnerByIndex",
          "outputs": [
            {
              "internalType": "uint256",
              "name": "",
              "type": "uint256"
            }
          ],
          "stateMutability": "view",
          "type": "function"
        },
        {
          "inputs": [
            {
              "internalType": "uint256",
              "name": "tokenId",
              "type": "uint256"
            }
          ],
          "name": "tokenURI",
          "outputs": [
            {
              "internalType": "string",
              "name": "",
              "type": "string"
            }
          ],
          "stateMutability": "view",
          "type": "function"
        },
        {
          "inputs": [],
          "name": "totalSupply",
          "outputs": [
            {
              "internalType": "uint256",
              "name": "",
              "type": "uint256"
            }
          ],
          "stateMutability": "view",
          "type": "function"
        },
        {
          "inputs": [
            {
              "internalType": "address",
              "name": "from",
              "type": "address"
            },
            {
              "internalType": "address",
              "name": "to",
              "type": "address"
            },
            {
              "internalType": "uint256",
              "name": "tokenId",
              "type": "uint256"
            }
          ],
          "name": "transferFrom",
          "outputs": [],
          "stateMutability": "nonpayable",
          "type": "function"
        }
      ],
      "evm": {
        "bytecode": {
          "linkReferences": {},
          "object": "60806040523480156200001157600080fd5b50604051806040016040528060048152602001634e6f646560e01b815250604051806040016040528060048152602001634e4f444560e01b81525081600090805190602001906200006492919062000083565b5080516200007a90600190602084019062000083565b50505062000166565b828054620000919062000129565b90600052602060002090601f016020900481019282620000b5576000855562000100565b82601f10620000d057805160ff191683800117855562000100565b8280016001018555821562000100579182015b8281111562000100578251825591602001919060010190620000e3565b506200010e92915062000112565b5090565b5b808211156200010e576000815560010162000113565b600181811c908216806200013e57607f821691505b602082108114156200016057634e487b7160e01b600052602260045260246000fd5b50919050565b6130ec80620001766000396000f3fe608060405234801561001057600080fd5b50600436106102535760003560e01c80636352211e11610146578063b88d4fde116100c3578063e985e9c511610087578063e985e9c514610529578063ea559dc214610565578063eb31f4c514610578578063f18efc0f1461058b578063f9f5d7d41461059e578063ff0810c7146105b157600080fd5b8063b88d4fde146104ca578063c87b56dd146104dd578063d2eefc58146104f0578063dbe552d614610503578063dd33ce5d1461051657600080fd5b80639cb99aba1161010a5780639cb99aba14610467578063a22cb4651461047a578063a853211a1461048d578063aadf7e1614610495578063b2dcc623146104a857600080fd5b80636352211e1461041157806370a082311461042457806375b238fc14610437578063959249f31461043f57806395d89b411461045f57600080fd5b80633af7a723116101d45780634b1d6a90116101985780634b1d6a90146103a55780634f558e79146103b85780634f6ccce7146103cb5780635ca7d7f4146103de5780636192e3e8146103f157600080fd5b80633af7a723146103465780633f83c6731461035957806342842e0e1461036c57806342966c681461037f5780634ab37a821461039257600080fd5b806318160ddd1161021b57806318160ddd146102e85780631aa720b1146102fa57806323b872dd1461030d5780632f745c59146103205780633aa817cc1461033357600080fd5b806301ffc9a71461025857806306fdde0314610280578063081812fc14610295578063095ea7b3146102c057806316b3a087146102d5575b600080fd5b61026b61026636600461279e565b6105c4565b60405190151581526020015b60405180910390f35b6102886105d5565b6040516102779190612813565b6102a86102a3366004612826565b610667565b6040516001600160a01b039091168152602001610277565b6102d36102ce36600461285b565b6106f4565b005b6102886102e3366004612826565b61080a565b6008545b604051908152602001610277565b6102d36103083660046129c4565b6108ac565b6102d361031b366004612a71565b610a1d565b6102ec61032e36600461285b565b610a4f565b6102d3610341366004612aad565b610ae5565b61026b610354366004612acf565b610b78565b6102ec610367366004612afb565b610b9f565b6102d361037a366004612a71565b610bd3565b6102d361038d366004612826565b610bee565b6102d36103a0366004612aad565b610c68565b6102d36103b3366004612afb565b610d3e565b61026b6103c6366004612826565b610e95565b6102ec6103d9366004612826565b610ea0565b6102ec6103ec366004612b42565b610f33565b6104046103ff366004612aad565b610f72565b6040516102779190612b92565b6102a861041f366004612826565b611090565b6102ec610432366004612bd9565b611107565b6102ec600081565b6102ec61044d366004612826565b60009081526012602052604090205490565b61028861118e565b6102d3610475366004612bf4565b61119d565b6102d3610488366004612c29565b611264565b6102ec600181565b6102ec6104a3366004612c65565b611273565b6104bb6104b6366004612aad565b611288565b60405161027793929190612c9a565b6102d36104d8366004612ccb565b611360565b6102886104eb366004612826565b611398565b6102d36104fe366004612aad565b6113c9565b6102ec610511366004612b42565b6114b4565b6102ec610524366004612d3b565b6114d6565b61026b610537366004612d80565b6001600160a01b03918216600090815260056020908152604080832093909416825291909152205460ff1690565b61026b610573366004612bf4565b6114ec565b6102d3610586366004612bf4565b61151e565b6102ec610599366004612afb565b611604565b6102ec6105ac366004612aad565b611625565b6102a86105bf366004612daa565b611647565b60006105cf8261166a565b92915050565b6060600080546105e490612dd6565b80601f016020809104026020016040519081016040528092919081815260200182805461061090612dd6565b801561065d5780601f106106325761010080835404028352916020019161065d565b820191906000526020600020905b81548152906001019060200180831161064057829003601f168201915b5050505050905090565b60006106728261168f565b6106d85760405162461bcd60e51b815260206004820152602c60248201527f4552433732313a20617070726f76656420717565727920666f72206e6f6e657860448201526b34b9ba32b73a103a37b5b2b760a11b60648201526084015b60405180910390fd5b506000908152600460205260409020546001600160a01b031690565b60006106ff82611090565b9050806001600160a01b0316836001600160a01b0316141561076d5760405162461bcd60e51b815260206004820152602160248201527f4552433732313a20617070726f76616c20746f2063757272656e74206f776e656044820152603960f91b60648201526084016106cf565b336001600160a01b038216148061078957506107898133610537565b6107fb5760405162461bcd60e51b815260206004820152603860248201527f4552433732313a20617070726f76652063616c6c6572206973206e6f74206f7760448201527f6e6572206e6f7220617070726f76656420666f7220616c6c000000000000000060648201526084016106cf565b61080583836116ac565b505050565b6000818152600c6020526040902080546060919061082790612dd6565b80601f016020809104026020016040519081016040528092919081815260200182805461085390612dd6565b80156108a05780601f10610875576101008083540402835291602001916108a0565b820191906000526020600020905b81548152906001019060200180831161088357829003601f168201915b50505050509050919050565b6108b58461171a565b60006108c0600b5490565b90506108d0600b80546001019055565b6108da338261175c565b61090381600d876040516108ee9190612e11565b90815260405190819003602001902090611776565b506000818152600c602090815260409091208651610923928801906126b9565b506000818152601060209081526040808320838052825280832033808552908352818420805460ff1916600117905590518481529092839290917f3f9759be566576e968397b016ea9843c3e1d19bf1f59ae53cdfbd3b1a6914070910160405180910390a46109928185610d3e565b60005b83518110156109d3576109c18482815181106109b3576109b3612e2d565b602002602001015183610c68565b806109cb81612e59565b915050610995565b5060005b8251811015610a1557610a03828483815181106109f6576109f6612e2d565b6020026020010151610c68565b80610a0d81612e59565b9150506109d7565b505050505050565b610a28335b82611782565b610a445760405162461bcd60e51b81526004016106cf90612e74565b610805838383611868565b6000610a5a83611107565b8210610abc5760405162461bcd60e51b815260206004820152602b60248201527f455243373231456e756d657261626c653a206f776e657220696e646578206f7560448201526a74206f6620626f756e647360a81b60648201526084016106cf565b506001600160a01b03919091166000908152600660209081526040808320938352929052205490565b610af08282336114ec565b15610b5557600082815260106020908152604080832084845282528083203380855290835292819020805460ff1916905551848152829184917f743dd6de0118c934baddbf165685269ac4f51fe0780281fdb64ea7ca8746ceff910160405180910390a45b610805336000848152601160209081526040808320868452909152902090611a0f565b6000610b86836000846114ec565b80610b985750610b98836001846114ec565b9392505050565b6000828152600f60205260408082209051610b989190610bc0908590612e11565b9081526020016040518091039020611a24565b61080583838360405180602001604052806000815250611360565b610bf733610a22565b610c5c5760405162461bcd60e51b815260206004820152603060248201527f4552433732314275726e61626c653a2063616c6c6572206973206e6f74206f7760448201526f1b995c881b9bdc88185c1c1c9bdd995960821b60648201526084016106cf565b610c6581611a2e565b50565b80610c738133610b78565b610c8f5760405162461bcd60e51b81526004016106cf90612ec5565b610c988361168f565b610cb45760405162461bcd60e51b81526004016106cf90612efc565b610cbd8261168f565b610cd95760405162461bcd60e51b81526004016106cf90612efc565b6000610ce48461080a565b90506000610cf18461080a565b9050610d1885600e6000878152602001908152602001600020846040516108ee9190612e11565b50610a1584600f6000888152602001908152602001600020836040516108ee9190612e11565b81610d498133610b78565b610d655760405162461bcd60e51b81526004016106cf90612ec5565b610d6e8361168f565b610d8a5760405162461bcd60e51b81526004016106cf90612efc565b610d938261171a565b601260008481526020019081526020016000206040518060600160405280428152602001848152602001610dc43390565b6001600160a01b031690528154600181810184556000938452602093849020835160039093020191825583830151805193949293610e0a939285019291909101906126b9565b5060409190910151600290910180546001600160a01b0319166001600160a01b03909216919091179055610e3e8383611a37565b6040513390610e4e908490612e11565b6040518091039020427f87e2bd723d2071701a8612fe3afcc134df220caad0d2a34e64c02b79569a2f9386604051610e8891815260200190565b60405180910390a4505050565b60006105cf8261168f565b6000610eab60085490565b8210610f0e5760405162461bcd60e51b815260206004820152602c60248201527f455243373231456e756d657261626c653a20676c6f62616c20696e646578206f60448201526b7574206f6620626f756e647360a01b60648201526084016106cf565b60088281548110610f2157610f21612e2d565b90600052602060002001549050919050565b6000838152600e60205260408082209051610f6a918491610f55908790612e11565b90815260405190819003602001902090611ac2565b949350505050565b610f9f6040518060600160405280600081526020016060815260200160006001600160a01b031681525090565b6000838152601260205260409020805483908110610fbf57610fbf612e2d565b906000526020600020906003020160405180606001604052908160008201548152602001600182018054610ff290612dd6565b80601f016020809104026020016040519081016040528092919081815260200182805461101e90612dd6565b801561106b5780601f106110405761010080835404028352916020019161106b565b820191906000526020600020905b81548152906001019060200180831161104e57829003601f168201915b5050509183525050600291909101546001600160a01b03166020909101529392505050565b6000818152600260205260408120546001600160a01b0316806105cf5760405162461bcd60e51b815260206004820152602960248201527f4552433732313a206f776e657220717565727920666f72206e6f6e657869737460448201526832b73a103a37b5b2b760b91b60648201526084016106cf565b60006001600160a01b0382166111725760405162461bcd60e51b815260206004820152602a60248201527f4552433732313a2062616c616e636520717565727920666f7220746865207a65604482015269726f206164647265737360b01b60648201526084016106cf565b506001600160a01b031660009081526003602052604090205490565b6060600180546105e490612dd6565b8260006111ab8282336114ec565b6111c75760405162461bcd60e51b81526004016106cf90612ec5565b6111d28585856114ec565b1561124157600085815260106020908152604080832087845282528083206001600160a01b03871680855290835292819020805460ff191690555187815233929187917f743dd6de0118c934baddbf165685269ac4f51fe0780281fdb64ea7ca8746ceff910160405180910390a45b60008581526011602090815260408083208784529091529020610a159084611a0f565b61126f338383611ace565b5050565b60006105cf600d83604051610bc09190612e11565b601260205281600052604060002081815481106112a457600080fd5b9060005260206000209060030201600091509150508060000154908060010180546112ce90612dd6565b80601f01602080910402602001604051908101604052809291908181526020018280546112fa90612dd6565b80156113475780601f1061131c57610100808354040283529160200191611347565b820191906000526020600020905b81548152906001019060200180831161132a57829003601f168201915b505050600290930154919250506001600160a01b031683565b61136a3383611782565b6113865760405162461bcd60e51b81526004016106cf90612e74565b61139284848484611b9d565b50505050565b60606113a382611bd0565b6040516020016113b39190612f26565b6040516020818303038152906040529050919050565b806113d48133610b78565b6113f05760405162461bcd60e51b81526004016106cf90612ec5565b6113f98361168f565b6114155760405162461bcd60e51b81526004016106cf90612efc565b61141e8261168f565b61143a5760405162461bcd60e51b81526004016106cf90612efc565b60006114458461080a565b905060006114528461080a565b905061148e85600e6000878152602001908152602001600020846040516114799190612e11565b90815260405190819003602001902090611d4e565b50610a1584600f6000888152602001908152602001600020836040516114799190612e11565b6000838152600f60205260408082209051610f6a918491610f55908790612e11565b6000610b9882600d85604051610f559190612e11565b60009283526010602090815260408085209385529281528284206001600160a01b039290921684525290205460ff1690565b82600061152c8282336114ec565b6115485760405162461bcd60e51b81526004016106cf90612ec5565b6115538585856114ec565b6115e157600085815260106020908152604080832087845282528083206001600160a01b03871684529091529020805460ff191660011790556115933390565b6001600160a01b0316836001600160a01b0316857f3f9759be566576e968397b016ea9843c3e1d19bf1f59ae53cdfbd3b1a6914070886040516115d891815260200190565b60405180910390a45b60008581526011602090815260408083208784529091529020610a159084611d5a565b6000828152600e60205260408082209051610b989190610bc0908590612e11565b60008281526011602090815260408083208484529091528120610b9890611a24565b60008381526011602090815260408083208584529091528120610f6a9083611ac2565b60006001600160e01b0319821663780e9d6360e01b14806105cf57506105cf82611d6f565b6000908152600260205260409020546001600160a01b0316151590565b600081815260046020526040902080546001600160a01b0319166001600160a01b03841690811790915581906116e182611090565b6001600160a01b03167f8c5be1e5ebec7d5bd14f71427d1e84f3dd0314c0f7b2291e5b200ac8c7c3b92560405160405180910390a45050565b6000815111610c655760405162461bcd60e51b815260206004820152600e60248201526d696e76616c69645f737472696e6760901b60448201526064016106cf565b61126f828260405180602001604052806000815250611dbf565b6000610b988383611df2565b600061178d8261168f565b6117ee5760405162461bcd60e51b815260206004820152602c60248201527f4552433732313a206f70657261746f7220717565727920666f72206e6f6e657860448201526b34b9ba32b73a103a37b5b2b760a11b60648201526084016106cf565b60006117f983611090565b9050806001600160a01b0316846001600160a01b031614806118345750836001600160a01b031661182984610667565b6001600160a01b0316145b80610f6a57506001600160a01b0380821660009081526005602090815260408083209388168352929052205460ff16610f6a565b826001600160a01b031661187b82611090565b6001600160a01b0316146118df5760405162461bcd60e51b815260206004820152602560248201527f4552433732313a207472616e736665722066726f6d20696e636f72726563742060448201526437bbb732b960d91b60648201526084016106cf565b6001600160a01b0382166119415760405162461bcd60e51b8152602060048201526024808201527f4552433732313a207472616e7366657220746f20746865207a65726f206164646044820152637265737360e01b60648201526084016106cf565b61194c838383611e41565b6119576000826116ac565b6001600160a01b0383166000908152600360205260408120805460019290611980908490612f58565b90915550506001600160a01b03821660009081526003602052604081208054600192906119ae908490612f6f565b909155505060008181526002602052604080822080546001600160a01b0319166001600160a01b0386811691821790925591518493918716917fddf252ad1be2c89b69c2b068fc378daa952ba7f163c4a11628f55a4df523b3ef91a4505050565b6000610b98836001600160a01b038416611e4c565b60006105cf825490565b610c6581611f3f565b611a408261168f565b611aa35760405162461bcd60e51b815260206004820152602e60248201527f45524337323155524953746f726167653a2055524920736574206f66206e6f6e60448201526d32bc34b9ba32b73a103a37b5b2b760911b60648201526084016106cf565b6000828152600a602090815260409091208251610805928401906126b9565b6000610b988383611f7f565b816001600160a01b0316836001600160a01b03161415611b305760405162461bcd60e51b815260206004820152601960248201527f4552433732313a20617070726f766520746f2063616c6c65720000000000000060448201526064016106cf565b6001600160a01b03838116600081815260056020908152604080832094871680845294825291829020805460ff191686151590811790915591519182527f17307eab39ab6107e8899845ad3d59bd9653f200f220920489ca2b5937696c31910160405180910390a3505050565b611ba8848484611868565b611bb484848484611fa9565b6113925760405162461bcd60e51b81526004016106cf90612f87565b6060611bdb8261168f565b611c415760405162461bcd60e51b815260206004820152603160248201527f45524337323155524953746f726167653a2055524920717565727920666f72206044820152703737b732bc34b9ba32b73a103a37b5b2b760791b60648201526084016106cf565b6000828152600a602052604081208054611c5a90612dd6565b80601f0160208091040260200160405190810160405280929190818152602001828054611c8690612dd6565b8015611cd35780601f10611ca857610100808354040283529160200191611cd3565b820191906000526020600020905b815481529060010190602001808311611cb657829003601f168201915b505050505090506000611d00604080518082019091526007815266697066733a2f2f60c81b602082015290565b9050805160001415611d13575092915050565b815115611d45578082604051602001611d2d929190612fd9565b60405160208183030381529060405292505050919050565b610f6a846120a7565b6000610b988383611e4c565b6000610b98836001600160a01b038416611df2565b60006001600160e01b031982166380ac58cd60e01b1480611da057506001600160e01b03198216635b5e139f60e01b145b806105cf57506301ffc9a760e01b6001600160e01b03198316146105cf565b611dc9838361218d565b611dd66000848484611fa9565b6108055760405162461bcd60e51b81526004016106cf90612f87565b6000818152600183016020526040812054611e39575081546001818101845560008481526020808220909301849055845484825282860190935260409020919091556105cf565b5060006105cf565b6108058383836122cc565b60008181526001830160205260408120548015611f35576000611e70600183612f58565b8554909150600090611e8490600190612f58565b9050818114611ee9576000866000018281548110611ea457611ea4612e2d565b9060005260206000200154905080876000018481548110611ec757611ec7612e2d565b6000918252602080832090910192909255918252600188019052604090208390555b8554869080611efa57611efa613008565b6001900381819060005260206000200160009055905585600101600086815260200190815260200160002060009055600193505050506105cf565b60009150506105cf565b611f4881612384565b6000818152600a602052604090208054611f6190612dd6565b159050610c65576000818152600a60205260408120610c659161273d565b6000826000018281548110611f9657611f96612e2d565b9060005260206000200154905092915050565b60006001600160a01b0384163b1561209c57604051630a85bd0160e11b81526001600160a01b0385169063150b7a0290611fed90339089908890889060040161301e565b6020604051808303816000875af1925050508015612028575060408051601f3d908101601f191682019092526120259181019061305b565b60015b612082573d808015612056576040519150601f19603f3d011682016040523d82523d6000602084013e61205b565b606091505b50805161207a5760405162461bcd60e51b81526004016106cf90612f87565b805181602001fd5b6001600160e01b031916630a85bd0160e11b149050610f6a565b506001949350505050565b60606120b28261168f565b6121165760405162461bcd60e51b815260206004820152602f60248201527f4552433732314d657461646174613a2055524920717565727920666f72206e6f60448201526e3732bc34b9ba32b73a103a37b5b2b760891b60648201526084016106cf565b600061213c604080518082019091526007815266697066733a2f2f60c81b602082015290565b9050600081511161215c5760405180602001604052806000815250610b98565b806121668461242b565b604051602001612177929190612fd9565b6040516020818303038152906040529392505050565b6001600160a01b0382166121e35760405162461bcd60e51b815260206004820181905260248201527f4552433732313a206d696e7420746f20746865207a65726f206164647265737360448201526064016106cf565b6121ec8161168f565b156122395760405162461bcd60e51b815260206004820152601c60248201527f4552433732313a20746f6b656e20616c7265616479206d696e7465640000000060448201526064016106cf565b61224560008383611e41565b6001600160a01b038216600090815260036020526040812080546001929061226e908490612f6f565b909155505060008181526002602052604080822080546001600160a01b0319166001600160a01b03861690811790915590518392907fddf252ad1be2c89b69c2b068fc378daa952ba7f163c4a11628f55a4df523b3ef908290a45050565b6001600160a01b0383166123275761232281600880546000838152600960205260408120829055600182018355919091527ff3f7a9fe364faab93b216da50a3214154f22a0a2b415b23a84c8169e8b636ee30155565b61234a565b816001600160a01b0316836001600160a01b03161461234a5761234a8382612529565b6001600160a01b03821661236157610805816125c6565b826001600160a01b0316826001600160a01b031614610805576108058282612675565b600061238f82611090565b905061239d81600084611e41565b6123a86000836116ac565b6001600160a01b03811660009081526003602052604081208054600192906123d1908490612f58565b909155505060008281526002602052604080822080546001600160a01b0319169055518391906001600160a01b038416907fddf252ad1be2c89b69c2b068fc378daa952ba7f163c4a11628f55a4df523b3ef908390a45050565b60608161244f5750506040805180820190915260018152600360fc1b602082015290565b8160005b8115612479578061246381612e59565b91506124729050600a8361308e565b9150612453565b60008167ffffffffffffffff81111561249457612494612885565b6040519080825280601f01601f1916602001820160405280156124be576020820181803683370190505b5090505b8415610f6a576124d3600183612f58565b91506124e0600a866130a2565b6124eb906030612f6f565b60f81b81838151811061250057612500612e2d565b60200101906001600160f81b031916908160001a905350612522600a8661308e565b94506124c2565b6000600161253684611107565b6125409190612f58565b600083815260076020526040902054909150808214612593576001600160a01b03841660009081526006602090815260408083208584528252808320548484528184208190558352600790915290208190555b5060009182526007602090815260408084208490556001600160a01b039094168352600681528383209183525290812055565b6008546000906125d890600190612f58565b6000838152600960205260408120546008805493945090928490811061260057612600612e2d565b90600052602060002001549050806008838154811061262157612621612e2d565b600091825260208083209091019290925582815260099091526040808220849055858252812055600880548061265957612659613008565b6001900381819060005260206000200160009055905550505050565b600061268083611107565b6001600160a01b039093166000908152600660209081526040808320868452825280832085905593825260079052919091209190915550565b8280546126c590612dd6565b90600052602060002090601f0160209004810192826126e7576000855561272d565b82601f1061270057805160ff191683800117855561272d565b8280016001018555821561272d579182015b8281111561272d578251825591602001919060010190612712565b50612739929150612773565b5090565b50805461274990612dd6565b6000825580601f10612759575050565b601f016020900490600052602060002090810190610c6591905b5b808211156127395760008155600101612774565b6001600160e01b031981168114610c6557600080fd5b6000602082840312156127b057600080fd5b8135610b9881612788565b60005b838110156127d65781810151838201526020016127be565b838111156113925750506000910152565b600081518084526127ff8160208601602086016127bb565b601f01601f19169290920160200192915050565b602081526000610b9860208301846127e7565b60006020828403121561283857600080fd5b5035919050565b80356001600160a01b038116811461285657600080fd5b919050565b6000806040838503121561286e57600080fd5b6128778361283f565b946020939093013593505050565b634e487b7160e01b600052604160045260246000fd5b604051601f8201601f1916810167ffffffffffffffff811182821017156128c4576128c4612885565b604052919050565b600067ffffffffffffffff8311156128e6576128e6612885565b6128f9601f8401601f191660200161289b565b905082815283838301111561290d57600080fd5b828260208301376000602084830101529392505050565b600082601f83011261293557600080fd5b610b98838335602085016128cc565b600082601f83011261295557600080fd5b8135602067ffffffffffffffff82111561297157612971612885565b8160051b61298082820161289b565b928352848101820192828101908785111561299a57600080fd5b83870192505b848310156129b9578235825291830191908301906129a0565b979650505050505050565b600080600080608085870312156129da57600080fd5b843567ffffffffffffffff808211156129f257600080fd5b6129fe88838901612924565b95506020870135915080821115612a1457600080fd5b612a2088838901612924565b94506040870135915080821115612a3657600080fd5b612a4288838901612944565b93506060870135915080821115612a5857600080fd5b50612a6587828801612944565b91505092959194509250565b600080600060608486031215612a8657600080fd5b612a8f8461283f565b9250612a9d6020850161283f565b9150604084013590509250925092565b60008060408385031215612ac057600080fd5b50508035926020909101359150565b60008060408385031215612ae257600080fd5b82359150612af26020840161283f565b90509250929050565b60008060408385031215612b0e57600080fd5b82359150602083013567ffffffffffffffff811115612b2c57600080fd5b612b3885828601612924565b9150509250929050565b600080600060608486031215612b5757600080fd5b83359250602084013567ffffffffffffffff811115612b7557600080fd5b612b8186828701612924565b925050604084013590509250925092565b60208152815160208201526000602083015160606040840152612bb860808401826127e7565b604094909401516001600160a01b0316606093909301929092525090919050565b600060208284031215612beb57600080fd5b610b988261283f565b600080600060608486031215612c0957600080fd5b8335925060208401359150612c206040850161283f565b90509250925092565b60008060408385031215612c3c57600080fd5b612c458361283f565b915060208301358015158114612c5a57600080fd5b809150509250929050565b600060208284031215612c7757600080fd5b813567ffffffffffffffff811115612c8e57600080fd5b610f6a84828501612924565b838152606060208201526000612cb360608301856127e7565b905060018060a01b0383166040830152949350505050565b60008060008060808587031215612ce157600080fd5b612cea8561283f565b9350612cf86020860161283f565b925060408501359150606085013567ffffffffffffffff811115612d1b57600080fd5b8501601f81018713612d2c57600080fd5b612a65878235602084016128cc565b60008060408385031215612d4e57600080fd5b823567ffffffffffffffff811115612d6557600080fd5b612d7185828601612924565b95602094909401359450505050565b60008060408385031215612d9357600080fd5b612d9c8361283f565b9150612af26020840161283f565b600080600060608486031215612dbf57600080fd5b505081359360208301359350604090920135919050565b600181811c90821680612dea57607f821691505b60208210811415612e0b57634e487b7160e01b600052602260045260246000fd5b50919050565b60008251612e238184602087016127bb565b9190910192915050565b634e487b7160e01b600052603260045260246000fd5b634e487b7160e01b600052601160045260246000fd5b6000600019821415612e6d57612e6d612e43565b5060010190565b60208082526031908201527f4552433732313a207472616e736665722063616c6c6572206973206e6f74206f6040820152701ddb995c881b9bdc88185c1c1c9bdd9959607a1b606082015260800190565b60208082526018908201527f696e73756666696369656e745f7065726d697373696f6e730000000000000000604082015260600190565b60208082526010908201526f1b9bd91957db9bdb995e1a5cdd195b9d60821b604082015260600190565b60008251612f388184602087016127bb565b6d17b6b2ba30b230ba30973539b7b760911b920191825250600e01919050565b600082821015612f6a57612f6a612e43565b500390565b60008219821115612f8257612f82612e43565b500190565b60208082526032908201527f4552433732313a207472616e7366657220746f206e6f6e20455243373231526560408201527131b2b4bb32b91034b6b83632b6b2b73a32b960711b606082015260800190565b60008351612feb8184602088016127bb565b835190830190612fff8183602088016127bb565b01949350505050565b634e487b7160e01b600052603160045260246000fd5b6001600160a01b0385811682528416602082015260408101839052608060608201819052600090613051908301846127e7565b9695505050505050565b60006020828403121561306d57600080fd5b8151610b9881612788565b634e487b7160e01b600052601260045260246000fd5b60008261309d5761309d613078565b500490565b6000826130b1576130b1613078565b50069056fea2646970667358221220f6c0fd29361eaea174bfddd37f35b1f083ee3d47052e051e3e5c693bf0387b9f64736f6c634300080c0033",
          "opcodes": "PUSH1 0x80 PUSH1 0x40 MSTORE CALLVALUE DUP1 ISZERO PUSH3 0x11 JUMPI PUSH1 0x0 DUP1 REVERT JUMPDEST POP PUSH1 0x40 MLOAD DUP1 PUSH1 0x40 ADD PUSH1 0x40 MSTORE DUP1 PUSH1 0x4 DUP2 MSTORE PUSH1 0x20 ADD PUSH4 0x4E6F6465 PUSH1 0xE0 SHL DUP2 MSTORE POP PUSH1 0x40 MLOAD DUP1 PUSH1 0x40 ADD PUSH1 0x40 MSTORE DUP1 PUSH1 0x4 DUP2 MSTORE PUSH1 0x20 ADD PUSH4 0x4E4F4445 PUSH1 0xE0 SHL DUP2 MSTORE POP DUP2 PUSH1 0x0 SWAP1 DUP1 MLOAD SWAP1 PUSH1 0x20 ADD SWAP1 PUSH3 0x64 SWAP3 SWAP2 SWAP1 PUSH3 0x83 JUMP JUMPDEST POP DUP1 MLOAD PUSH3 0x7A SWAP1 PUSH1 0x1 SWAP1 PUSH1 0x20 DUP5 ADD SWAP1 PUSH3 0x83 JUMP JUMPDEST POP POP POP PUSH3 0x166 JUMP JUMPDEST DUP3 DUP1 SLOAD PUSH3 0x91 SWAP1 PUSH3 0x129 JUMP JUMPDEST SWAP1 PUSH1 0x0 MSTORE PUSH1 0x20 PUSH1 0x0 KECCAK256 SWAP1 PUSH1 0x1F ADD PUSH1 0x20 SWAP1 DIV DUP2 ADD SWAP3 DUP3 PUSH3 0xB5 JUMPI PUSH1 0x0 DUP6 SSTORE PUSH3 0x100 JUMP JUMPDEST DUP3 PUSH1 0x1F LT PUSH3 0xD0 JUMPI DUP1 MLOAD PUSH1 0xFF NOT AND DUP4 DUP1 ADD OR DUP6 SSTORE PUSH3 0x100 JUMP JUMPDEST DUP3 DUP1 ADD PUSH1 0x1 ADD DUP6 SSTORE DUP3 ISZERO PUSH3 0x100 JUMPI SWAP2 DUP3 ADD JUMPDEST DUP3 DUP2 GT ISZERO PUSH3 0x100 JUMPI DUP3 MLOAD DUP3 SSTORE SWAP2 PUSH1 0x20 ADD SWAP2 SWAP1 PUSH1 0x1 ADD SWAP1 PUSH3 0xE3 JUMP JUMPDEST POP PUSH3 0x10E SWAP3 SWAP2 POP PUSH3 0x112 JUMP JUMPDEST POP SWAP1 JUMP JUMPDEST JUMPDEST DUP1 DUP3 GT ISZERO PUSH3 0x10E JUMPI PUSH1 0x0 DUP2 SSTORE PUSH1 0x1 ADD PUSH3 0x113 JUMP JUMPDEST PUSH1 0x1 DUP2 DUP2 SHR SWAP1 DUP3 AND DUP1 PUSH3 0x13E JUMPI PUSH1 0x7F DUP3 AND SWAP2 POP JUMPDEST PUSH1 0x20 DUP3 LT DUP2 EQ ISZERO PUSH3 0x160 JUMPI PUSH4 0x4E487B71 PUSH1 0xE0 SHL PUSH1 0x0 MSTORE PUSH1 0x22 PUSH1 0x4 MSTORE PUSH1 0x24 PUSH1 0x0 REVERT JUMPDEST POP SWAP2 SWAP1 POP JUMP JUMPDEST PUSH2 0x30EC DUP1 PUSH3 0x176 PUSH1 0x0 CODECOPY PUSH1 0x0 RETURN INVALID PUSH1 0x80 PUSH1 0x40 MSTORE CALLVALUE DUP1 ISZERO PUSH2 0x10 JUMPI PUSH1 0x0 DUP1 REVERT JUMPDEST POP PUSH1 0x4 CALLDATASIZE LT PUSH2 0x253 JUMPI PUSH1 0x0 CALLDATALOAD PUSH1 0xE0 SHR DUP1 PUSH4 0x6352211E GT PUSH2 0x146 JUMPI DUP1 PUSH4 0xB88D4FDE GT PUSH2 0xC3 JUMPI DUP1 PUSH4 0xE985E9C5 GT PUSH2 0x87 JUMPI DUP1 PUSH4 0xE985E9C5 EQ PUSH2 0x529 JUMPI DUP1 PUSH4 0xEA559DC2 EQ PUSH2 0x565 JUMPI DUP1 PUSH4 0xEB31F4C5 EQ PUSH2 0x578 JUMPI DUP1 PUSH4 0xF18EFC0F EQ PUSH2 0x58B JUMPI DUP1 PUSH4 0xF9F5D7D4 EQ PUSH2 0x59E JUMPI DUP1 PUSH4 0xFF0810C7 EQ PUSH2 0x5B1 JUMPI PUSH1 0x0 DUP1 REVERT JUMPDEST DUP1 PUSH4 0xB88D4FDE EQ PUSH2 0x4CA JUMPI DUP1 PUSH4 0xC87B56DD EQ PUSH2 0x4DD JUMPI DUP1 PUSH4 0xD2EEFC58 EQ PUSH2 0x4F0 JUMPI DUP1 PUSH4 0xDBE552D6 EQ PUSH2 0x503 JUMPI DUP1 PUSH4 0xDD33CE5D EQ PUSH2 0x516 JUMPI PUSH1 0x0 DUP1 REVERT JUMPDEST DUP1 PUSH4 0x9CB99ABA GT PUSH2 0x10A JUMPI DUP1 PUSH4 0x9CB99ABA EQ PUSH2 0x467 JUMPI DUP1 PUSH4 0xA22CB465 EQ PUSH2 0x47A JUMPI DUP1 PUSH4 0xA853211A EQ PUSH2 0x48D JUMPI DUP1 PUSH4 0xAADF7E16 EQ PUSH2 0x495 JUMPI DUP1 PUSH4 0xB2DCC623 EQ PUSH2 0x4A8 JUMPI PUSH1 0x0 DUP1 REVERT JUMPDEST DUP1 PUSH4 0x6352211E EQ PUSH2 0x411 JUMPI DUP1 PUSH4 0x70A08231 EQ PUSH2 0x424 JUMPI DUP1 PUSH4 0x75B238FC EQ PUSH2 0x437 JUMPI DUP1 PUSH4 0x959249F3 EQ PUSH2 0x43F JUMPI DUP1 PUSH4 0x95D89B41 EQ PUSH2 0x45F JUMPI PUSH1 0x0 DUP1 REVERT JUMPDEST DUP1 PUSH4 0x3AF7A723 GT PUSH2 0x1D4 JUMPI DUP1 PUSH4 0x4B1D6A90 GT PUSH2 0x198 JUMPI DUP1 PUSH4 0x4B1D6A90 EQ PUSH2 0x3A5 JUMPI DUP1 PUSH4 0x4F558E79 EQ PUSH2 0x3B8 JUMPI DUP1 PUSH4 0x4F6CCCE7 EQ PUSH2 0x3CB JUMPI DUP1 PUSH4 0x5CA7D7F4 EQ PUSH2 0x3DE JUMPI DUP1 PUSH4 0x6192E3E8 EQ PUSH2 0x3F1 JUMPI PUSH1 0x0 DUP1 REVERT JUMPDEST DUP1 PUSH4 0x3AF7A723 EQ PUSH2 0x346 JUMPI DUP1 PUSH4 0x3F83C673 EQ PUSH2 0x359 JUMPI DUP1 PUSH4 0x42842E0E EQ PUSH2 0x36C JUMPI DUP1 PUSH4 0x42966C68 EQ PUSH2 0x37F JUMPI DUP1 PUSH4 0x4AB37A82 EQ PUSH2 0x392 JUMPI PUSH1 0x0 DUP1 REVERT JUMPDEST DUP1 PUSH4 0x18160DDD GT PUSH2 0x21B JUMPI DUP1 PUSH4 0x18160DDD EQ PUSH2 0x2E8 JUMPI DUP1 PUSH4 0x1AA720B1 EQ PUSH2 0x2FA JUMPI DUP1 PUSH4 0x23B872DD EQ PUSH2 0x30D JUMPI DUP1 PUSH4 0x2F745C59 EQ PUSH2 0x320 JUMPI DUP1 PUSH4 0x3AA817CC EQ PUSH2 0x333 JUMPI PUSH1 0x0 DUP1 REVERT JUMPDEST DUP1 PUSH4 0x1FFC9A7 EQ PUSH2 0x258 JUMPI DUP1 PUSH4 0x6FDDE03 EQ PUSH2 0x280 JUMPI DUP1 PUSH4 0x81812FC EQ PUSH2 0x295 JUMPI DUP1 PUSH4 0x95EA7B3 EQ PUSH2 0x2C0 JUMPI DUP1 PUSH4 0x16B3A087 EQ PUSH2 0x2D5 JUMPI JUMPDEST PUSH1 0x0 DUP1 REVERT JUMPDEST PUSH2 0x26B PUSH2 0x266 CALLDATASIZE PUSH1 0x4 PUSH2 0x279E JUMP JUMPDEST PUSH2 0x5C4 JUMP JUMPDEST PUSH1 0x40 MLOAD SWAP1 ISZERO ISZERO DUP2 MSTORE PUSH1 0x20 ADD JUMPDEST PUSH1 0x40 MLOAD DUP1 SWAP2 SUB SWAP1 RETURN JUMPDEST PUSH2 0x288 PUSH2 0x5D5 JUMP JUMPDEST PUSH1 0x40 MLOAD PUSH2 0x277 SWAP2 SWAP1 PUSH2 0x2813 JUMP JUMPDEST PUSH2 0x2A8 PUSH2 0x2A3 CALLDATASIZE PUSH1 0x4 PUSH2 0x2826 JUMP JUMPDEST PUSH2 0x667 JUMP JUMPDEST PUSH1 0x40 MLOAD PUSH1 0x1 PUSH1 0x1 PUSH1 0xA0 SHL SUB SWAP1 SWAP2 AND DUP2 MSTORE PUSH1 0x20 ADD PUSH2 0x277 JUMP JUMPDEST PUSH2 0x2D3 PUSH2 0x2CE CALLDATASIZE PUSH1 0x4 PUSH2 0x285B JUMP JUMPDEST PUSH2 0x6F4 JUMP JUMPDEST STOP JUMPDEST PUSH2 0x288 PUSH2 0x2E3 CALLDATASIZE PUSH1 0x4 PUSH2 0x2826 JUMP JUMPDEST PUSH2 0x80A JUMP JUMPDEST PUSH1 0x8 SLOAD JUMPDEST PUSH1 0x40 MLOAD SWAP1 DUP2 MSTORE PUSH1 0x20 ADD PUSH2 0x277 JUMP JUMPDEST PUSH2 0x2D3 PUSH2 0x308 CALLDATASIZE PUSH1 0x4 PUSH2 0x29C4 JUMP JUMPDEST PUSH2 0x8AC JUMP JUMPDEST PUSH2 0x2D3 PUSH2 0x31B CALLDATASIZE PUSH1 0x4 PUSH2 0x2A71 JUMP JUMPDEST PUSH2 0xA1D JUMP JUMPDEST PUSH2 0x2EC PUSH2 0x32E CALLDATASIZE PUSH1 0x4 PUSH2 0x285B JUMP JUMPDEST PUSH2 0xA4F JUMP JUMPDEST PUSH2 0x2D3 PUSH2 0x341 CALLDATASIZE PUSH1 0x4 PUSH2 0x2AAD JUMP JUMPDEST PUSH2 0xAE5 JUMP JUMPDEST PUSH2 0x26B PUSH2 0x354 CALLDATASIZE PUSH1 0x4 PUSH2 0x2ACF JUMP JUMPDEST PUSH2 0xB78 JUMP JUMPDEST PUSH2 0x2EC PUSH2 0x367 CALLDATASIZE PUSH1 0x4 PUSH2 0x2AFB JUMP JUMPDEST PUSH2 0xB9F JUMP JUMPDEST PUSH2 0x2D3 PUSH2 0x37A CALLDATASIZE PUSH1 0x4 PUSH2 0x2A71 JUMP JUMPDEST PUSH2 0xBD3 JUMP JUMPDEST PUSH2 0x2D3 PUSH2 0x38D CALLDATASIZE PUSH1 0x4 PUSH2 0x2826 JUMP JUMPDEST PUSH2 0xBEE JUMP JUMPDEST PUSH2 0x2D3 PUSH2 0x3A0 CALLDATASIZE PUSH1 0x4 PUSH2 0x2AAD JUMP JUMPDEST PUSH2 0xC68 JUMP JUMPDEST PUSH2 0x2D3 PUSH2 0x3B3 CALLDATASIZE PUSH1 0x4 PUSH2 0x2AFB JUMP JUMPDEST PUSH2 0xD3E JUMP JUMPDEST PUSH2 0x26B PUSH2 0x3C6 CALLDATASIZE PUSH1 0x4 PUSH2 0x2826 JUMP JUMPDEST PUSH2 0xE95 JUMP JUMPDEST PUSH2 0x2EC PUSH2 0x3D9 CALLDATASIZE PUSH1 0x4 PUSH2 0x2826 JUMP JUMPDEST PUSH2 0xEA0 JUMP JUMPDEST PUSH2 0x2EC PUSH2 0x3EC CALLDATASIZE PUSH1 0x4 PUSH2 0x2B42 JUMP JUMPDEST PUSH2 0xF33 JUMP JUMPDEST PUSH2 0x404 PUSH2 0x3FF CALLDATASIZE PUSH1 0x4 PUSH2 0x2AAD JUMP JUMPDEST PUSH2 0xF72 JUMP JUMPDEST PUSH1 0x40 MLOAD PUSH2 0x277 SWAP2 SWAP1 PUSH2 0x2B92 JUMP JUMPDEST PUSH2 0x2A8 PUSH2 0x41F CALLDATASIZE PUSH1 0x4 PUSH2 0x2826 JUMP JUMPDEST PUSH2 0x1090 JUMP JUMPDEST PUSH2 0x2EC PUSH2 0x432 CALLDATASIZE PUSH1 0x4 PUSH2 0x2BD9 JUMP JUMPDEST PUSH2 0x1107 JUMP JUMPDEST PUSH2 0x2EC PUSH1 0x0 DUP2 JUMP JUMPDEST PUSH2 0x2EC PUSH2 0x44D CALLDATASIZE PUSH1 0x4 PUSH2 0x2826 JUMP JUMPDEST PUSH1 0x0 SWAP1 DUP2 MSTORE PUSH1 0x12 PUSH1 0x20 MSTORE PUSH1 0x40 SWAP1 KECCAK256 SLOAD SWAP1 JUMP JUMPDEST PUSH2 0x288 PUSH2 0x118E JUMP JUMPDEST PUSH2 0x2D3 PUSH2 0x475 CALLDATASIZE PUSH1 0x4 PUSH2 0x2BF4 JUMP JUMPDEST PUSH2 0x119D JUMP JUMPDEST PUSH2 0x2D3 PUSH2 0x488 CALLDATASIZE PUSH1 0x4 PUSH2 0x2C29 JUMP JUMPDEST PUSH2 0x1264 JUMP JUMPDEST PUSH2 0x2EC PUSH1 0x1 DUP2 JUMP JUMPDEST PUSH2 0x2EC PUSH2 0x4A3 CALLDATASIZE PUSH1 0x4 PUSH2 0x2C65 JUMP JUMPDEST PUSH2 0x1273 JUMP JUMPDEST PUSH2 0x4BB PUSH2 0x4B6 CALLDATASIZE PUSH1 0x4 PUSH2 0x2AAD JUMP JUMPDEST PUSH2 0x1288 JUMP JUMPDEST PUSH1 0x40 MLOAD PUSH2 0x277 SWAP4 SWAP3 SWAP2 SWAP1 PUSH2 0x2C9A JUMP JUMPDEST PUSH2 0x2D3 PUSH2 0x4D8 CALLDATASIZE PUSH1 0x4 PUSH2 0x2CCB JUMP JUMPDEST PUSH2 0x1360 JUMP JUMPDEST PUSH2 0x288 PUSH2 0x4EB CALLDATASIZE PUSH1 0x4 PUSH2 0x2826 JUMP JUMPDEST PUSH2 0x1398 JUMP JUMPDEST PUSH2 0x2D3 PUSH2 0x4FE CALLDATASIZE PUSH1 0x4 PUSH2 0x2AAD JUMP JUMPDEST PUSH2 0x13C9 JUMP JUMPDEST PUSH2 0x2EC PUSH2 0x511 CALLDATASIZE PUSH1 0x4 PUSH2 0x2B42 JUMP JUMPDEST PUSH2 0x14B4 JUMP JUMPDEST PUSH2 0x2EC PUSH2 0x524 CALLDATASIZE PUSH1 0x4 PUSH2 0x2D3B JUMP JUMPDEST PUSH2 0x14D6 JUMP JUMPDEST PUSH2 0x26B PUSH2 0x537 CALLDATASIZE PUSH1 0x4 PUSH2 0x2D80 JUMP JUMPDEST PUSH1 0x1 PUSH1 0x1 PUSH1 0xA0 SHL SUB SWAP2 DUP3 AND PUSH1 0x0 SWAP1 DUP2 MSTORE PUSH1 0x5 PUSH1 0x20 SWAP1 DUP2 MSTORE PUSH1 0x40 DUP1 DUP4 KECCAK256 SWAP4 SWAP1 SWAP5 AND DUP3 MSTORE SWAP2 SWAP1 SWAP2 MSTORE KECCAK256 SLOAD PUSH1 0xFF AND SWAP1 JUMP JUMPDEST PUSH2 0x26B PUSH2 0x573 CALLDATASIZE PUSH1 0x4 PUSH2 0x2BF4 JUMP JUMPDEST PUSH2 0x14EC JUMP JUMPDEST PUSH2 0x2D3 PUSH2 0x586 CALLDATASIZE PUSH1 0x4 PUSH2 0x2BF4 JUMP JUMPDEST PUSH2 0x151E JUMP JUMPDEST PUSH2 0x2EC PUSH2 0x599 CALLDATASIZE PUSH1 0x4 PUSH2 0x2AFB JUMP JUMPDEST PUSH2 0x1604 JUMP JUMPDEST PUSH2 0x2EC PUSH2 0x5AC CALLDATASIZE PUSH1 0x4 PUSH2 0x2AAD JUMP JUMPDEST PUSH2 0x1625 JUMP JUMPDEST PUSH2 0x2A8 PUSH2 0x5BF CALLDATASIZE PUSH1 0x4 PUSH2 0x2DAA JUMP JUMPDEST PUSH2 0x1647 JUMP JUMPDEST PUSH1 0x0 PUSH2 0x5CF DUP3 PUSH2 0x166A JUMP JUMPDEST SWAP3 SWAP2 POP POP JUMP JUMPDEST PUSH1 0x60 PUSH1 0x0 DUP1 SLOAD PUSH2 0x5E4 SWAP1 PUSH2 0x2DD6 JUMP JUMPDEST DUP1 PUSH1 0x1F ADD PUSH1 0x20 DUP1 SWAP2 DIV MUL PUSH1 0x20 ADD PUSH1 0x40 MLOAD SWAP1 DUP2 ADD PUSH1 0x40 MSTORE DUP1 SWAP3 SWAP2 SWAP1 DUP2 DUP2 MSTORE PUSH1 0x20 ADD DUP3 DUP1 SLOAD PUSH2 0x610 SWAP1 PUSH2 0x2DD6 JUMP JUMPDEST DUP1 ISZERO PUSH2 0x65D JUMPI DUP1 PUSH1 0x1F LT PUSH2 0x632 JUMPI PUSH2 0x100 DUP1 DUP4 SLOAD DIV MUL DUP4 MSTORE SWAP2 PUSH1 0x20 ADD SWAP2 PUSH2 0x65D JUMP JUMPDEST DUP3 ADD SWAP2 SWAP1 PUSH1 0x0 MSTORE PUSH1 0x20 PUSH1 0x0 KECCAK256 SWAP1 JUMPDEST DUP2 SLOAD DUP2 MSTORE SWAP1 PUSH1 0x1 ADD SWAP1 PUSH1 0x20 ADD DUP1 DUP4 GT PUSH2 0x640 JUMPI DUP3 SWAP1 SUB PUSH1 0x1F AND DUP3 ADD SWAP2 JUMPDEST POP POP POP POP POP SWAP1 POP SWAP1 JUMP JUMPDEST PUSH1 0x0 PUSH2 0x672 DUP3 PUSH2 0x168F JUMP JUMPDEST PUSH2 0x6D8 JUMPI PUSH1 0x40 MLOAD PUSH3 0x461BCD PUSH1 0xE5 SHL DUP2 MSTORE PUSH1 0x20 PUSH1 0x4 DUP3 ADD MSTORE PUSH1 0x2C PUSH1 0x24 DUP3 ADD MSTORE PUSH32 0x4552433732313A20617070726F76656420717565727920666F72206E6F6E6578 PUSH1 0x44 DUP3 ADD MSTORE PUSH12 0x34B9BA32B73A103A37B5B2B7 PUSH1 0xA1 SHL PUSH1 0x64 DUP3 ADD MSTORE PUSH1 0x84 ADD JUMPDEST PUSH1 0x40 MLOAD DUP1 SWAP2 SUB SWAP1 REVERT JUMPDEST POP PUSH1 0x0 SWAP1 DUP2 MSTORE PUSH1 0x4 PUSH1 0x20 MSTORE PUSH1 0x40 SWAP1 KECCAK256 SLOAD PUSH1 0x1 PUSH1 0x1 PUSH1 0xA0 SHL SUB AND SWAP1 JUMP JUMPDEST PUSH1 0x0 PUSH2 0x6FF DUP3 PUSH2 0x1090 JUMP JUMPDEST SWAP1 POP DUP1 PUSH1 0x1 PUSH1 0x1 PUSH1 0xA0 SHL SUB AND DUP4 PUSH1 0x1 PUSH1 0x1 PUSH1 0xA0 SHL SUB AND EQ ISZERO PUSH2 0x76D JUMPI PUSH1 0x40 MLOAD PUSH3 0x461BCD PUSH1 0xE5 SHL DUP2 MSTORE PUSH1 0x20 PUSH1 0x4 DUP3 ADD MSTORE PUSH1 0x21 PUSH1 0x24 DUP3 ADD MSTORE PUSH32 0x4552433732313A20617070726F76616C20746F2063757272656E74206F776E65 PUSH1 0x44 DUP3 ADD MSTORE PUSH1 0x39 PUSH1 0xF9 SHL PUSH1 0x64 DUP3 ADD MSTORE PUSH1 0x84 ADD PUSH2 0x6CF JUMP JUMPDEST CALLER PUSH1 0x1 PUSH1 0x1 PUSH1 0xA0 SHL SUB DUP3 AND EQ DUP1 PUSH2 0x789 JUMPI POP PUSH2 0x789 DUP2 CALLER PUSH2 0x537 JUMP JUMPDEST PUSH2 0x7FB JUMPI PUSH1 0x40 MLOAD PUSH3 0x461BCD PUSH1 0xE5 SHL DUP2 MSTORE PUSH1 0x20 PUSH1 0x4 DUP3 ADD MSTORE PUSH1 0x38 PUSH1 0x24 DUP3 ADD MSTORE PUSH32 0x4552433732313A20617070726F76652063616C6C6572206973206E6F74206F77 PUSH1 0x44 DUP3 ADD MSTORE PUSH32 0x6E6572206E6F7220617070726F76656420666F7220616C6C0000000000000000 PUSH1 0x64 DUP3 ADD MSTORE PUSH1 0x84 ADD PUSH2 0x6CF JUMP JUMPDEST PUSH2 0x805 DUP4 DUP4 PUSH2 0x16AC JUMP JUMPDEST POP POP POP JUMP JUMPDEST PUSH1 0x0 DUP2 DUP2 MSTORE PUSH1 0xC PUSH1 0x20 MSTORE PUSH1 0x40 SWAP1 KECCAK256 DUP1 SLOAD PUSH1 0x60 SWAP2 SWAP1 PUSH2 0x827 SWAP1 PUSH2 0x2DD6 JUMP JUMPDEST DUP1 PUSH1 0x1F ADD PUSH1 0x20 DUP1 SWAP2 DIV MUL PUSH1 0x20 ADD PUSH1 0x40 MLOAD SWAP1 DUP2 ADD PUSH1 0x40 MSTORE DUP1 SWAP3 SWAP2 SWAP1 DUP2 DUP2 MSTORE PUSH1 0x20 ADD DUP3 DUP1 SLOAD PUSH2 0x853 SWAP1 PUSH2 0x2DD6 JUMP JUMPDEST DUP1 ISZERO PUSH2 0x8A0 JUMPI DUP1 PUSH1 0x1F LT PUSH2 0x875 JUMPI PUSH2 0x100 DUP1 DUP4 SLOAD DIV MUL DUP4 MSTORE SWAP2 PUSH1 0x20 ADD SWAP2 PUSH2 0x8A0 JUMP JUMPDEST DUP3 ADD SWAP2 SWAP1 PUSH1 0x0 MSTORE PUSH1 0x20 PUSH1 0x0 KECCAK256 SWAP1 JUMPDEST DUP2 SLOAD DUP2 MSTORE SWAP1 PUSH1 0x1 ADD SWAP1 PUSH1 0x20 ADD DUP1 DUP4 GT PUSH2 0x883 JUMPI DUP3 SWAP1 SUB PUSH1 0x1F AND DUP3 ADD SWAP2 JUMPDEST POP POP POP POP POP SWAP1 POP SWAP2 SWAP1 POP JUMP JUMPDEST PUSH2 0x8B5 DUP5 PUSH2 0x171A JUMP JUMPDEST PUSH1 0x0 PUSH2 0x8C0 PUSH1 0xB SLOAD SWAP1 JUMP JUMPDEST SWAP1 POP PUSH2 0x8D0 PUSH1 0xB DUP1 SLOAD PUSH1 0x1 ADD SWAP1 SSTORE JUMP JUMPDEST PUSH2 0x8DA CALLER DUP3 PUSH2 0x175C JUMP JUMPDEST PUSH2 0x903 DUP2 PUSH1 0xD DUP8 PUSH1 0x40 MLOAD PUSH2 0x8EE SWAP2 SWAP1 PUSH2 0x2E11 JUMP JUMPDEST SWAP1 DUP2 MSTORE PUSH1 0x40 MLOAD SWAP1 DUP2 SWAP1 SUB PUSH1 0x20 ADD SWAP1 KECCAK256 SWAP1 PUSH2 0x1776 JUMP JUMPDEST POP PUSH1 0x0 DUP2 DUP2 MSTORE PUSH1 0xC PUSH1 0x20 SWAP1 DUP2 MSTORE PUSH1 0x40 SWAP1 SWAP2 KECCAK256 DUP7 MLOAD PUSH2 0x923 SWAP3 DUP9 ADD SWAP1 PUSH2 0x26B9 JUMP JUMPDEST POP PUSH1 0x0 DUP2 DUP2 MSTORE PUSH1 0x10 PUSH1 0x20 SWAP1 DUP2 MSTORE PUSH1 0x40 DUP1 DUP4 KECCAK256 DUP4 DUP1 MSTORE DUP3 MSTORE DUP1 DUP4 KECCAK256 CALLER DUP1 DUP6 MSTORE SWAP1 DUP4 MSTORE DUP2 DUP5 KECCAK256 DUP1 SLOAD PUSH1 0xFF NOT AND PUSH1 0x1 OR SWAP1 SSTORE SWAP1 MLOAD DUP5 DUP2 MSTORE SWAP1 SWAP3 DUP4 SWAP3 SWAP1 SWAP2 PUSH32 0x3F9759BE566576E968397B016EA9843C3E1D19BF1F59AE53CDFBD3B1A6914070 SWAP2 ADD PUSH1 0x40 MLOAD DUP1 SWAP2 SUB SWAP1 LOG4 PUSH2 0x992 DUP2 DUP6 PUSH2 0xD3E JUMP JUMPDEST PUSH1 0x0 JUMPDEST DUP4 MLOAD DUP2 LT ISZERO PUSH2 0x9D3 JUMPI PUSH2 0x9C1 DUP5 DUP3 DUP2 MLOAD DUP2 LT PUSH2 0x9B3 JUMPI PUSH2 0x9B3 PUSH2 0x2E2D JUMP JUMPDEST PUSH1 0x20 MUL PUSH1 0x20 ADD ADD MLOAD DUP4 PUSH2 0xC68 JUMP JUMPDEST DUP1 PUSH2 0x9CB DUP2 PUSH2 0x2E59 JUMP JUMPDEST SWAP2 POP POP PUSH2 0x995 JUMP JUMPDEST POP PUSH1 0x0 JUMPDEST DUP3 MLOAD DUP2 LT ISZERO PUSH2 0xA15 JUMPI PUSH2 0xA03 DUP3 DUP5 DUP4 DUP2 MLOAD DUP2 LT PUSH2 0x9F6 JUMPI PUSH2 0x9F6 PUSH2 0x2E2D JUMP JUMPDEST PUSH1 0x20 MUL PUSH1 0x20 ADD ADD MLOAD PUSH2 0xC68 JUMP JUMPDEST DUP1 PUSH2 0xA0D DUP2 PUSH2 0x2E59 JUMP JUMPDEST SWAP2 POP POP PUSH2 0x9D7 JUMP JUMPDEST POP POP POP POP POP POP JUMP JUMPDEST PUSH2 0xA28 CALLER JUMPDEST DUP3 PUSH2 0x1782 JUMP JUMPDEST PUSH2 0xA44 JUMPI PUSH1 0x40 MLOAD PUSH3 0x461BCD PUSH1 0xE5 SHL DUP2 MSTORE PUSH1 0x4 ADD PUSH2 0x6CF SWAP1 PUSH2 0x2E74 JUMP JUMPDEST PUSH2 0x805 DUP4 DUP4 DUP4 PUSH2 0x1868 JUMP JUMPDEST PUSH1 0x0 PUSH2 0xA5A DUP4 PUSH2 0x1107 JUMP JUMPDEST DUP3 LT PUSH2 0xABC JUMPI PUSH1 0x40 MLOAD PUSH3 0x461BCD PUSH1 0xE5 SHL DUP2 MSTORE PUSH1 0x20 PUSH1 0x4 DUP3 ADD MSTORE PUSH1 0x2B PUSH1 0x24 DUP3 ADD MSTORE PUSH32 0x455243373231456E756D657261626C653A206F776E657220696E646578206F75 PUSH1 0x44 DUP3 ADD MSTORE PUSH11 0x74206F6620626F756E6473 PUSH1 0xA8 SHL PUSH1 0x64 DUP3 ADD MSTORE PUSH1 0x84 ADD PUSH2 0x6CF JUMP JUMPDEST POP PUSH1 0x1 PUSH1 0x1 PUSH1 0xA0 SHL SUB SWAP2 SWAP1 SWAP2 AND PUSH1 0x0 SWAP1 DUP2 MSTORE PUSH1 0x6 PUSH1 0x20 SWAP1 DUP2 MSTORE PUSH1 0x40 DUP1 DUP4 KECCAK256 SWAP4 DUP4 MSTORE SWAP3 SWAP1 MSTORE KECCAK256 SLOAD SWAP1 JUMP JUMPDEST PUSH2 0xAF0 DUP3 DUP3 CALLER PUSH2 0x14EC JUMP JUMPDEST ISZERO PUSH2 0xB55 JUMPI PUSH1 0x0 DUP3 DUP2 MSTORE PUSH1 0x10 PUSH1 0x20 SWAP1 DUP2 MSTORE PUSH1 0x40 DUP1 DUP4 KECCAK256 DUP5 DUP5 MSTORE DUP3 MSTORE DUP1 DUP4 KECCAK256 CALLER DUP1 DUP6 MSTORE SWAP1 DUP4 MSTORE SWAP3 DUP2 SWAP1 KECCAK256 DUP1 SLOAD PUSH1 0xFF NOT AND SWAP1 SSTORE MLOAD DUP5 DUP2 MSTORE DUP3 SWAP2 DUP5 SWAP2 PUSH32 0x743DD6DE0118C934BADDBF165685269AC4F51FE0780281FDB64EA7CA8746CEFF SWAP2 ADD PUSH1 0x40 MLOAD DUP1 SWAP2 SUB SWAP1 LOG4 JUMPDEST PUSH2 0x805 CALLER PUSH1 0x0 DUP5 DUP2 MSTORE PUSH1 0x11 PUSH1 0x20 SWAP1 DUP2 MSTORE PUSH1 0x40 DUP1 DUP4 KECCAK256 DUP7 DUP5 MSTORE SWAP1 SWAP2 MSTORE SWAP1 KECCAK256 SWAP1 PUSH2 0x1A0F JUMP JUMPDEST PUSH1 0x0 PUSH2 0xB86 DUP4 PUSH1 0x0 DUP5 PUSH2 0x14EC JUMP JUMPDEST DUP1 PUSH2 0xB98 JUMPI POP PUSH2 0xB98 DUP4 PUSH1 0x1 DUP5 PUSH2 0x14EC JUMP JUMPDEST SWAP4 SWAP3 POP POP POP JUMP JUMPDEST PUSH1 0x0 DUP3 DUP2 MSTORE PUSH1 0xF PUSH1 0x20 MSTORE PUSH1 0x40 DUP1 DUP3 KECCAK256 SWAP1 MLOAD PUSH2 0xB98 SWAP2 SWAP1 PUSH2 0xBC0 SWAP1 DUP6 SWAP1 PUSH2 0x2E11 JUMP JUMPDEST SWAP1 DUP2 MSTORE PUSH1 0x20 ADD PUSH1 0x40 MLOAD DUP1 SWAP2 SUB SWAP1 KECCAK256 PUSH2 0x1A24 JUMP JUMPDEST PUSH2 0x805 DUP4 DUP4 DUP4 PUSH1 0x40 MLOAD DUP1 PUSH1 0x20 ADD PUSH1 0x40 MSTORE DUP1 PUSH1 0x0 DUP2 MSTORE POP PUSH2 0x1360 JUMP JUMPDEST PUSH2 0xBF7 CALLER PUSH2 0xA22 JUMP JUMPDEST PUSH2 0xC5C JUMPI PUSH1 0x40 MLOAD PUSH3 0x461BCD PUSH1 0xE5 SHL DUP2 MSTORE PUSH1 0x20 PUSH1 0x4 DUP3 ADD MSTORE PUSH1 0x30 PUSH1 0x24 DUP3 ADD MSTORE PUSH32 0x4552433732314275726E61626C653A2063616C6C6572206973206E6F74206F77 PUSH1 0x44 DUP3 ADD MSTORE PUSH16 0x1B995C881B9BDC88185C1C1C9BDD9959 PUSH1 0x82 SHL PUSH1 0x64 DUP3 ADD MSTORE PUSH1 0x84 ADD PUSH2 0x6CF JUMP JUMPDEST PUSH2 0xC65 DUP2 PUSH2 0x1A2E JUMP JUMPDEST POP JUMP JUMPDEST DUP1 PUSH2 0xC73 DUP2 CALLER PUSH2 0xB78 JUMP JUMPDEST PUSH2 0xC8F JUMPI PUSH1 0x40 MLOAD PUSH3 0x461BCD PUSH1 0xE5 SHL DUP2 MSTORE PUSH1 0x4 ADD PUSH2 0x6CF SWAP1 PUSH2 0x2EC5 JUMP JUMPDEST PUSH2 0xC98 DUP4 PUSH2 0x168F JUMP JUMPDEST PUSH2 0xCB4 JUMPI PUSH1 0x40 MLOAD PUSH3 0x461BCD PUSH1 0xE5 SHL DUP2 MSTORE PUSH1 0x4 ADD PUSH2 0x6CF SWAP1 PUSH2 0x2EFC JUMP JUMPDEST PUSH2 0xCBD DUP3 PUSH2 0x168F JUMP JUMPDEST PUSH2 0xCD9 JUMPI PUSH1 0x40 MLOAD PUSH3 0x461BCD PUSH1 0xE5 SHL DUP2 MSTORE PUSH1 0x4 ADD PUSH2 0x6CF SWAP1 PUSH2 0x2EFC JUMP JUMPDEST PUSH1 0x0 PUSH2 0xCE4 DUP5 PUSH2 0x80A JUMP JUMPDEST SWAP1 POP PUSH1 0x0 PUSH2 0xCF1 DUP5 PUSH2 0x80A JUMP JUMPDEST SWAP1 POP PUSH2 0xD18 DUP6 PUSH1 0xE PUSH1 0x0 DUP8 DUP2 MSTORE PUSH1 0x20 ADD SWAP1 DUP2 MSTORE PUSH1 0x20 ADD PUSH1 0x0 KECCAK256 DUP5 PUSH1 0x40 MLOAD PUSH2 0x8EE SWAP2 SWAP1 PUSH2 0x2E11 JUMP JUMPDEST POP PUSH2 0xA15 DUP5 PUSH1 0xF PUSH1 0x0 DUP9 DUP2 MSTORE PUSH1 0x20 ADD SWAP1 DUP2 MSTORE PUSH1 0x20 ADD PUSH1 0x0 KECCAK256 DUP4 PUSH1 0x40 MLOAD PUSH2 0x8EE SWAP2 SWAP1 PUSH2 0x2E11 JUMP JUMPDEST DUP2 PUSH2 0xD49 DUP2 CALLER PUSH2 0xB78 JUMP JUMPDEST PUSH2 0xD65 JUMPI PUSH1 0x40 MLOAD PUSH3 0x461BCD PUSH1 0xE5 SHL DUP2 MSTORE PUSH1 0x4 ADD PUSH2 0x6CF SWAP1 PUSH2 0x2EC5 JUMP JUMPDEST PUSH2 0xD6E DUP4 PUSH2 0x168F JUMP JUMPDEST PUSH2 0xD8A JUMPI PUSH1 0x40 MLOAD PUSH3 0x461BCD PUSH1 0xE5 SHL DUP2 MSTORE PUSH1 0x4 ADD PUSH2 0x6CF SWAP1 PUSH2 0x2EFC JUMP JUMPDEST PUSH2 0xD93 DUP3 PUSH2 0x171A JUMP JUMPDEST PUSH1 0x12 PUSH1 0x0 DUP5 DUP2 MSTORE PUSH1 0x20 ADD SWAP1 DUP2 MSTORE PUSH1 0x20 ADD PUSH1 0x0 KECCAK256 PUSH1 0x40 MLOAD DUP1 PUSH1 0x60 ADD PUSH1 0x40 MSTORE DUP1 TIMESTAMP DUP2 MSTORE PUSH1 0x20 ADD DUP5 DUP2 MSTORE PUSH1 0x20 ADD PUSH2 0xDC4 CALLER SWAP1 JUMP JUMPDEST PUSH1 0x1 PUSH1 0x1 PUSH1 0xA0 SHL SUB AND SWAP1 MSTORE DUP2 SLOAD PUSH1 0x1 DUP2 DUP2 ADD DUP5 SSTORE PUSH1 0x0 SWAP4 DUP5 MSTORE PUSH1 0x20 SWAP4 DUP5 SWAP1 KECCAK256 DUP4 MLOAD PUSH1 0x3 SWAP1 SWAP4 MUL ADD SWAP2 DUP3 SSTORE DUP4 DUP4 ADD MLOAD DUP1 MLOAD SWAP4 SWAP5 SWAP3 SWAP4 PUSH2 0xE0A SWAP4 SWAP3 DUP6 ADD SWAP3 SWAP2 SWAP1 SWAP2 ADD SWAP1 PUSH2 0x26B9 JUMP JUMPDEST POP PUSH1 0x40 SWAP2 SWAP1 SWAP2 ADD MLOAD PUSH1 0x2 SWAP1 SWAP2 ADD DUP1 SLOAD PUSH1 0x1 PUSH1 0x1 PUSH1 0xA0 SHL SUB NOT AND PUSH1 0x1 PUSH1 0x1 PUSH1 0xA0 SHL SUB SWAP1 SWAP3 AND SWAP2 SWAP1 SWAP2 OR SWAP1 SSTORE PUSH2 0xE3E DUP4 DUP4 PUSH2 0x1A37 JUMP JUMPDEST PUSH1 0x40 MLOAD CALLER SWAP1 PUSH2 0xE4E SWAP1 DUP5 SWAP1 PUSH2 0x2E11 JUMP JUMPDEST PUSH1 0x40 MLOAD DUP1 SWAP2 SUB SWAP1 KECCAK256 TIMESTAMP PUSH32 0x87E2BD723D2071701A8612FE3AFCC134DF220CAAD0D2A34E64C02B79569A2F93 DUP7 PUSH1 0x40 MLOAD PUSH2 0xE88 SWAP2 DUP2 MSTORE PUSH1 0x20 ADD SWAP1 JUMP JUMPDEST PUSH1 0x40 MLOAD DUP1 SWAP2 SUB SWAP1 LOG4 POP POP POP JUMP JUMPDEST PUSH1 0x0 PUSH2 0x5CF DUP3 PUSH2 0x168F JUMP JUMPDEST PUSH1 0x0 PUSH2 0xEAB PUSH1 0x8 SLOAD SWAP1 JUMP JUMPDEST DUP3 LT PUSH2 0xF0E JUMPI PUSH1 0x40 MLOAD PUSH3 0x461BCD PUSH1 0xE5 SHL DUP2 MSTORE PUSH1 0x20 PUSH1 0x4 DUP3 ADD MSTORE PUSH1 0x2C PUSH1 0x24 DUP3 ADD MSTORE PUSH32 0x455243373231456E756D657261626C653A20676C6F62616C20696E646578206F PUSH1 0x44 DUP3 ADD MSTORE PUSH12 0x7574206F6620626F756E6473 PUSH1 0xA0 SHL PUSH1 0x64 DUP3 ADD MSTORE PUSH1 0x84 ADD PUSH2 0x6CF JUMP JUMPDEST PUSH1 0x8 DUP3 DUP2 SLOAD DUP2 LT PUSH2 0xF21 JUMPI PUSH2 0xF21 PUSH2 0x2E2D JUMP JUMPDEST SWAP1 PUSH1 0x0 MSTORE PUSH1 0x20 PUSH1 0x0 KECCAK256 ADD SLOAD SWAP1 POP SWAP2 SWAP1 POP JUMP JUMPDEST PUSH1 0x0 DUP4 DUP2 MSTORE PUSH1 0xE PUSH1 0x20 MSTORE PUSH1 0x40 DUP1 DUP3 KECCAK256 SWAP1 MLOAD PUSH2 0xF6A SWAP2 DUP5 SWAP2 PUSH2 0xF55 SWAP1 DUP8 SWAP1 PUSH2 0x2E11 JUMP JUMPDEST SWAP1 DUP2 MSTORE PUSH1 0x40 MLOAD SWAP1 DUP2 SWAP1 SUB PUSH1 0x20 ADD SWAP1 KECCAK256 SWAP1 PUSH2 0x1AC2 JUMP JUMPDEST SWAP5 SWAP4 POP POP POP POP JUMP JUMPDEST PUSH2 0xF9F PUSH1 0x40 MLOAD DUP1 PUSH1 0x60 ADD PUSH1 0x40 MSTORE DUP1 PUSH1 0x0 DUP2 MSTORE PUSH1 0x20 ADD PUSH1 0x60 DUP2 MSTORE PUSH1 0x20 ADD PUSH1 0x0 PUSH1 0x1 PUSH1 0x1 PUSH1 0xA0 SHL SUB AND DUP2 MSTORE POP SWAP1 JUMP JUMPDEST PUSH1 0x0 DUP4 DUP2 MSTORE PUSH1 0x12 PUSH1 0x20 MSTORE PUSH1 0x40 SWAP1 KECCAK256 DUP1 SLOAD DUP4 SWAP1 DUP2 LT PUSH2 0xFBF JUMPI PUSH2 0xFBF PUSH2 0x2E2D JUMP JUMPDEST SWAP1 PUSH1 0x0 MSTORE PUSH1 0x20 PUSH1 0x0 KECCAK256 SWAP1 PUSH1 0x3 MUL ADD PUSH1 0x40 MLOAD DUP1 PUSH1 0x60 ADD PUSH1 0x40 MSTORE SWAP1 DUP2 PUSH1 0x0 DUP3 ADD SLOAD DUP2 MSTORE PUSH1 0x20 ADD PUSH1 0x1 DUP3 ADD DUP1 SLOAD PUSH2 0xFF2 SWAP1 PUSH2 0x2DD6 JUMP JUMPDEST DUP1 PUSH1 0x1F ADD PUSH1 0x20 DUP1 SWAP2 DIV MUL PUSH1 0x20 ADD PUSH1 0x40 MLOAD SWAP1 DUP2 ADD PUSH1 0x40 MSTORE DUP1 SWAP3 SWAP2 SWAP1 DUP2 DUP2 MSTORE PUSH1 0x20 ADD DUP3 DUP1 SLOAD PUSH2 0x101E SWAP1 PUSH2 0x2DD6 JUMP JUMPDEST DUP1 ISZERO PUSH2 0x106B JUMPI DUP1 PUSH1 0x1F LT PUSH2 0x1040 JUMPI PUSH2 0x100 DUP1 DUP4 SLOAD DIV MUL DUP4 MSTORE SWAP2 PUSH1 0x20 ADD SWAP2 PUSH2 0x106B JUMP JUMPDEST DUP3 ADD SWAP2 SWAP1 PUSH1 0x0 MSTORE PUSH1 0x20 PUSH1 0x0 KECCAK256 SWAP1 JUMPDEST DUP2 SLOAD DUP2 MSTORE SWAP1 PUSH1 0x1 ADD SWAP1 PUSH1 0x20 ADD DUP1 DUP4 GT PUSH2 0x104E JUMPI DUP3 SWAP1 SUB PUSH1 0x1F AND DUP3 ADD SWAP2 JUMPDEST POP POP POP SWAP2 DUP4 MSTORE POP POP PUSH1 0x2 SWAP2 SWAP1 SWAP2 ADD SLOAD PUSH1 0x1 PUSH1 0x1 PUSH1 0xA0 SHL SUB AND PUSH1 0x20 SWAP1 SWAP2 ADD MSTORE SWAP4 SWAP3 POP POP POP JUMP JUMPDEST PUSH1 0x0 DUP2 DUP2 MSTORE PUSH1 0x2 PUSH1 0x20 MSTORE PUSH1 0x40 DUP2 KECCAK256 SLOAD PUSH1 0x1 PUSH1 0x1 PUSH1 0xA0 SHL SUB AND DUP1 PUSH2 0x5CF JUMPI PUSH1 0x40 MLOAD PUSH3 0x461BCD PUSH1 0xE5 SHL DUP2 MSTORE PUSH1 0x20 PUSH1 0x4 DUP3 ADD MSTORE PUSH1 0x29 PUSH1 0x24 DUP3 ADD MSTORE PUSH32 0x4552433732313A206F776E657220717565727920666F72206E6F6E6578697374 PUSH1 0x44 DUP3 ADD MSTORE PUSH9 0x32B73A103A37B5B2B7 PUSH1 0xB9 SHL PUSH1 0x64 DUP3 ADD MSTORE PUSH1 0x84 ADD PUSH2 0x6CF JUMP JUMPDEST PUSH1 0x0 PUSH1 0x1 PUSH1 0x1 PUSH1 0xA0 SHL SUB DUP3 AND PUSH2 0x1172 JUMPI PUSH1 0x40 MLOAD PUSH3 0x461BCD PUSH1 0xE5 SHL DUP2 MSTORE PUSH1 0x20 PUSH1 0x4 DUP3 ADD MSTORE PUSH1 0x2A PUSH1 0x24 DUP3 ADD MSTORE PUSH32 0x4552433732313A2062616C616E636520717565727920666F7220746865207A65 PUSH1 0x44 DUP3 ADD MSTORE PUSH10 0x726F2061646472657373 PUSH1 0xB0 SHL PUSH1 0x64 DUP3 ADD MSTORE PUSH1 0x84 ADD PUSH2 0x6CF JUMP JUMPDEST POP PUSH1 0x1 PUSH1 0x1 PUSH1 0xA0 SHL SUB AND PUSH1 0x0 SWAP1 DUP2 MSTORE PUSH1 0x3 PUSH1 0x20 MSTORE PUSH1 0x40 SWAP1 KECCAK256 SLOAD SWAP1 JUMP JUMPDEST PUSH1 0x60 PUSH1 0x1 DUP1 SLOAD PUSH2 0x5E4 SWAP1 PUSH2 0x2DD6 JUMP JUMPDEST DUP3 PUSH1 0x0 PUSH2 0x11AB DUP3 DUP3 CALLER PUSH2 0x14EC JUMP JUMPDEST PUSH2 0x11C7 JUMPI PUSH1 0x40 MLOAD PUSH3 0x461BCD PUSH1 0xE5 SHL DUP2 MSTORE PUSH1 0x4 ADD PUSH2 0x6CF SWAP1 PUSH2 0x2EC5 JUMP JUMPDEST PUSH2 0x11D2 DUP6 DUP6 DUP6 PUSH2 0x14EC JUMP JUMPDEST ISZERO PUSH2 0x1241 JUMPI PUSH1 0x0 DUP6 DUP2 MSTORE PUSH1 0x10 PUSH1 0x20 SWAP1 DUP2 MSTORE PUSH1 0x40 DUP1 DUP4 KECCAK256 DUP8 DUP5 MSTORE DUP3 MSTORE DUP1 DUP4 KECCAK256 PUSH1 0x1 PUSH1 0x1 PUSH1 0xA0 SHL SUB DUP8 AND DUP1 DUP6 MSTORE SWAP1 DUP4 MSTORE SWAP3 DUP2 SWAP1 KECCAK256 DUP1 SLOAD PUSH1 0xFF NOT AND SWAP1 SSTORE MLOAD DUP8 DUP2 MSTORE CALLER SWAP3 SWAP2 DUP8 SWAP2 PUSH32 0x743DD6DE0118C934BADDBF165685269AC4F51FE0780281FDB64EA7CA8746CEFF SWAP2 ADD PUSH1 0x40 MLOAD DUP1 SWAP2 SUB SWAP1 LOG4 JUMPDEST PUSH1 0x0 DUP6 DUP2 MSTORE PUSH1 0x11 PUSH1 0x20 SWAP1 DUP2 MSTORE PUSH1 0x40 DUP1 DUP4 KECCAK256 DUP8 DUP5 MSTORE SWAP1 SWAP2 MSTORE SWAP1 KECCAK256 PUSH2 0xA15 SWAP1 DUP5 PUSH2 0x1A0F JUMP JUMPDEST PUSH2 0x126F CALLER DUP4 DUP4 PUSH2 0x1ACE JUMP JUMPDEST POP POP JUMP JUMPDEST PUSH1 0x0 PUSH2 0x5CF PUSH1 0xD DUP4 PUSH1 0x40 MLOAD PUSH2 0xBC0 SWAP2 SWAP1 PUSH2 0x2E11 JUMP JUMPDEST PUSH1 0x12 PUSH1 0x20 MSTORE DUP2 PUSH1 0x0 MSTORE PUSH1 0x40 PUSH1 0x0 KECCAK256 DUP2 DUP2 SLOAD DUP2 LT PUSH2 0x12A4 JUMPI PUSH1 0x0 DUP1 REVERT JUMPDEST SWAP1 PUSH1 0x0 MSTORE PUSH1 0x20 PUSH1 0x0 KECCAK256 SWAP1 PUSH1 0x3 MUL ADD PUSH1 0x0 SWAP2 POP SWAP2 POP POP DUP1 PUSH1 0x0 ADD SLOAD SWAP1 DUP1 PUSH1 0x1 ADD DUP1 SLOAD PUSH2 0x12CE SWAP1 PUSH2 0x2DD6 JUMP JUMPDEST DUP1 PUSH1 0x1F ADD PUSH1 0x20 DUP1 SWAP2 DIV MUL PUSH1 0x20 ADD PUSH1 0x40 MLOAD SWAP1 DUP2 ADD PUSH1 0x40 MSTORE DUP1 SWAP3 SWAP2 SWAP1 DUP2 DUP2 MSTORE PUSH1 0x20 ADD DUP3 DUP1 SLOAD PUSH2 0x12FA SWAP1 PUSH2 0x2DD6 JUMP JUMPDEST DUP1 ISZERO PUSH2 0x1347 JUMPI DUP1 PUSH1 0x1F LT PUSH2 0x131C JUMPI PUSH2 0x100 DUP1 DUP4 SLOAD DIV MUL DUP4 MSTORE SWAP2 PUSH1 0x20 ADD SWAP2 PUSH2 0x1347 JUMP JUMPDEST DUP3 ADD SWAP2 SWAP1 PUSH1 0x0 MSTORE PUSH1 0x20 PUSH1 0x0 KECCAK256 SWAP1 JUMPDEST DUP2 SLOAD DUP2 MSTORE SWAP1 PUSH1 0x1 ADD SWAP1 PUSH1 0x20 ADD DUP1 DUP4 GT PUSH2 0x132A JUMPI DUP3 SWAP1 SUB PUSH1 0x1F AND DUP3 ADD SWAP2 JUMPDEST POP POP POP PUSH1 0x2 SWAP1 SWAP4 ADD SLOAD SWAP2 SWAP3 POP POP PUSH1 0x1 PUSH1 0x1 PUSH1 0xA0 SHL SUB AND DUP4 JUMP JUMPDEST PUSH2 0x136A CALLER DUP4 PUSH2 0x1782 JUMP JUMPDEST PUSH2 0x1386 JUMPI PUSH1 0x40 MLOAD PUSH3 0x461BCD PUSH1 0xE5 SHL DUP2 MSTORE PUSH1 0x4 ADD PUSH2 0x6CF SWAP1 PUSH2 0x2E74 JUMP JUMPDEST PUSH2 0x1392 DUP5 DUP5 DUP5 DUP5 PUSH2 0x1B9D JUMP JUMPDEST POP POP POP POP JUMP JUMPDEST PUSH1 0x60 PUSH2 0x13A3 DUP3 PUSH2 0x1BD0 JUMP JUMPDEST PUSH1 0x40 MLOAD PUSH1 0x20 ADD PUSH2 0x13B3 SWAP2 SWAP1 PUSH2 0x2F26 JUMP JUMPDEST PUSH1 0x40 MLOAD PUSH1 0x20 DUP2 DUP4 SUB SUB DUP2 MSTORE SWAP1 PUSH1 0x40 MSTORE SWAP1 POP SWAP2 SWAP1 POP JUMP JUMPDEST DUP1 PUSH2 0x13D4 DUP2 CALLER PUSH2 0xB78 JUMP JUMPDEST PUSH2 0x13F0 JUMPI PUSH1 0x40 MLOAD PUSH3 0x461BCD PUSH1 0xE5 SHL DUP2 MSTORE PUSH1 0x4 ADD PUSH2 0x6CF SWAP1 PUSH2 0x2EC5 JUMP JUMPDEST PUSH2 0x13F9 DUP4 PUSH2 0x168F JUMP JUMPDEST PUSH2 0x1415 JUMPI PUSH1 0x40 MLOAD PUSH3 0x461BCD PUSH1 0xE5 SHL DUP2 MSTORE PUSH1 0x4 ADD PUSH2 0x6CF SWAP1 PUSH2 0x2EFC JUMP JUMPDEST PUSH2 0x141E DUP3 PUSH2 0x168F JUMP JUMPDEST PUSH2 0x143A JUMPI PUSH1 0x40 MLOAD PUSH3 0x461BCD PUSH1 0xE5 SHL DUP2 MSTORE PUSH1 0x4 ADD PUSH2 0x6CF SWAP1 PUSH2 0x2EFC JUMP JUMPDEST PUSH1 0x0 PUSH2 0x1445 DUP5 PUSH2 0x80A JUMP JUMPDEST SWAP1 POP PUSH1 0x0 PUSH2 0x1452 DUP5 PUSH2 0x80A JUMP JUMPDEST SWAP1 POP PUSH2 0x148E DUP6 PUSH1 0xE PUSH1 0x0 DUP8 DUP2 MSTORE PUSH1 0x20 ADD SWAP1 DUP2 MSTORE PUSH1 0x20 ADD PUSH1 0x0 KECCAK256 DUP5 PUSH1 0x40 MLOAD PUSH2 0x1479 SWAP2 SWAP1 PUSH2 0x2E11 JUMP JUMPDEST SWAP1 DUP2 MSTORE PUSH1 0x40 MLOAD SWAP1 DUP2 SWAP1 SUB PUSH1 0x20 ADD SWAP1 KECCAK256 SWAP1 PUSH2 0x1D4E JUMP JUMPDEST POP PUSH2 0xA15 DUP5 PUSH1 0xF PUSH1 0x0 DUP9 DUP2 MSTORE PUSH1 0x20 ADD SWAP1 DUP2 MSTORE PUSH1 0x20 ADD PUSH1 0x0 KECCAK256 DUP4 PUSH1 0x40 MLOAD PUSH2 0x1479 SWAP2 SWAP1 PUSH2 0x2E11 JUMP JUMPDEST PUSH1 0x0 DUP4 DUP2 MSTORE PUSH1 0xF PUSH1 0x20 MSTORE PUSH1 0x40 DUP1 DUP3 KECCAK256 SWAP1 MLOAD PUSH2 0xF6A SWAP2 DUP5 SWAP2 PUSH2 0xF55 SWAP1 DUP8 SWAP1 PUSH2 0x2E11 JUMP JUMPDEST PUSH1 0x0 PUSH2 0xB98 DUP3 PUSH1 0xD DUP6 PUSH1 0x40 MLOAD PUSH2 0xF55 SWAP2 SWAP1 PUSH2 0x2E11 JUMP JUMPDEST PUSH1 0x0 SWAP3 DUP4 MSTORE PUSH1 0x10 PUSH1 0x20 SWAP1 DUP2 MSTORE PUSH1 0x40 DUP1 DUP6 KECCAK256 SWAP4 DUP6 MSTORE SWAP3 DUP2 MSTORE DUP3 DUP5 KECCAK256 PUSH1 0x1 PUSH1 0x1 PUSH1 0xA0 SHL SUB SWAP3 SWAP1 SWAP3 AND DUP5 MSTORE MSTORE SWAP1 KECCAK256 SLOAD PUSH1 0xFF AND SWAP1 JUMP JUMPDEST DUP3 PUSH1 0x0 PUSH2 0x152C DUP3 DUP3 CALLER PUSH2 0x14EC JUMP JUMPDEST PUSH2 0x1548 JUMPI PUSH1 0x40 MLOAD PUSH3 0x461BCD PUSH1 0xE5 SHL DUP2 MSTORE PUSH1 0x4 ADD PUSH2 0x6CF SWAP1 PUSH2 0x2EC5 JUMP JUMPDEST PUSH2 0x1553 DUP6 DUP6 DUP6 PUSH2 0x14EC JUMP JUMPDEST PUSH2 0x15E1 JUMPI PUSH1 0x0 DUP6 DUP2 MSTORE PUSH1 0x10 PUSH1 0x20 SWAP1 DUP2 MSTORE PUSH1 0x40 DUP1 DUP4 KECCAK256 DUP8 DUP5 MSTORE DUP3 MSTORE DUP1 DUP4 KECCAK256 PUSH1 0x1 PUSH1 0x1 PUSH1 0xA0 SHL SUB DUP8 AND DUP5 MSTORE SWAP1 SWAP2 MSTORE SWAP1 KECCAK256 DUP1 SLOAD PUSH1 0xFF NOT AND PUSH1 0x1 OR SWAP1 SSTORE PUSH2 0x1593 CALLER SWAP1 JUMP JUMPDEST PUSH1 0x1 PUSH1 0x1 PUSH1 0xA0 SHL SUB AND DUP4 PUSH1 0x1 PUSH1 0x1 PUSH1 0xA0 SHL SUB AND DUP6 PUSH32 0x3F9759BE566576E968397B016EA9843C3E1D19BF1F59AE53CDFBD3B1A6914070 DUP9 PUSH1 0x40 MLOAD PUSH2 0x15D8 SWAP2 DUP2 MSTORE PUSH1 0x20 ADD SWAP1 JUMP JUMPDEST PUSH1 0x40 MLOAD DUP1 SWAP2 SUB SWAP1 LOG4 JUMPDEST PUSH1 0x0 DUP6 DUP2 MSTORE PUSH1 0x11 PUSH1 0x20 SWAP1 DUP2 MSTORE PUSH1 0x40 DUP1 DUP4 KECCAK256 DUP8 DUP5 MSTORE SWAP1 SWAP2 MSTORE SWAP1 KECCAK256 PUSH2 0xA15 SWAP1 DUP5 PUSH2 0x1D5A JUMP JUMPDEST PUSH1 0x0 DUP3 DUP2 MSTORE PUSH1 0xE PUSH1 0x20 MSTORE PUSH1 0x40 DUP1 DUP3 KECCAK256 SWAP1 MLOAD PUSH2 0xB98 SWAP2 SWAP1 PUSH2 0xBC0 SWAP1 DUP6 SWAP1 PUSH2 0x2E11 JUMP JUMPDEST PUSH1 0x0 DUP3 DUP2 MSTORE PUSH1 0x11 PUSH1 0x20 SWAP1 DUP2 MSTORE PUSH1 0x40 DUP1 DUP4 KECCAK256 DUP5 DUP5 MSTORE SWAP1 SWAP2 MSTORE DUP2 KECCAK256 PUSH2 0xB98 SWAP1 PUSH2 0x1A24 JUMP JUMPDEST PUSH1 0x0 DUP4 DUP2 MSTORE PUSH1 0x11 PUSH1 0x20 SWAP1 DUP2 MSTORE PUSH1 0x40 DUP1 DUP4 KECCAK256 DUP6 DUP5 MSTORE SWAP1 SWAP2 MSTORE DUP2 KECCAK256 PUSH2 0xF6A SWAP1 DUP4 PUSH2 0x1AC2 JUMP JUMPDEST PUSH1 0x0 PUSH1 0x1 PUSH1 0x1 PUSH1 0xE0 SHL SUB NOT DUP3 AND PUSH4 0x780E9D63 PUSH1 0xE0 SHL EQ DUP1 PUSH2 0x5CF JUMPI POP PUSH2 0x5CF DUP3 PUSH2 0x1D6F JUMP JUMPDEST PUSH1 0x0 SWAP1 DUP2 MSTORE PUSH1 0x2 PUSH1 0x20 MSTORE PUSH1 0x40 SWAP1 KECCAK256 SLOAD PUSH1 0x1 PUSH1 0x1 PUSH1 0xA0 SHL SUB AND ISZERO ISZERO SWAP1 JUMP JUMPDEST PUSH1 0x0 DUP2 DUP2 MSTORE PUSH1 0x4 PUSH1 0x20 MSTORE PUSH1 0x40 SWAP1 KECCAK256 DUP1 SLOAD PUSH1 0x1 PUSH1 0x1 PUSH1 0xA0 SHL SUB NOT AND PUSH1 0x1 PUSH1 0x1 PUSH1 0xA0 SHL SUB DUP5 AND SWAP1 DUP2 OR SWAP1 SWAP2 SSTORE DUP2 SWAP1 PUSH2 0x16E1 DUP3 PUSH2 0x1090 JUMP JUMPDEST PUSH1 0x1 PUSH1 0x1 PUSH1 0xA0 SHL SUB AND PUSH32 0x8C5BE1E5EBEC7D5BD14F71427D1E84F3DD0314C0F7B2291E5B200AC8C7C3B925 PUSH1 0x40 MLOAD PUSH1 0x40 MLOAD DUP1 SWAP2 SUB SWAP1 LOG4 POP POP JUMP JUMPDEST PUSH1 0x0 DUP2 MLOAD GT PUSH2 0xC65 JUMPI PUSH1 0x40 MLOAD PUSH3 0x461BCD PUSH1 0xE5 SHL DUP2 MSTORE PUSH1 0x20 PUSH1 0x4 DUP3 ADD MSTORE PUSH1 0xE PUSH1 0x24 DUP3 ADD MSTORE PUSH14 0x696E76616C69645F737472696E67 PUSH1 0x90 SHL PUSH1 0x44 DUP3 ADD MSTORE PUSH1 0x64 ADD PUSH2 0x6CF JUMP JUMPDEST PUSH2 0x126F DUP3 DUP3 PUSH1 0x40 MLOAD DUP1 PUSH1 0x20 ADD PUSH1 0x40 MSTORE DUP1 PUSH1 0x0 DUP2 MSTORE POP PUSH2 0x1DBF JUMP JUMPDEST PUSH1 0x0 PUSH2 0xB98 DUP4 DUP4 PUSH2 0x1DF2 JUMP JUMPDEST PUSH1 0x0 PUSH2 0x178D DUP3 PUSH2 0x168F JUMP JUMPDEST PUSH2 0x17EE JUMPI PUSH1 0x40 MLOAD PUSH3 0x461BCD PUSH1 0xE5 SHL DUP2 MSTORE PUSH1 0x20 PUSH1 0x4 DUP3 ADD MSTORE PUSH1 0x2C PUSH1 0x24 DUP3 ADD MSTORE PUSH32 0x4552433732313A206F70657261746F7220717565727920666F72206E6F6E6578 PUSH1 0x44 DUP3 ADD MSTORE PUSH12 0x34B9BA32B73A103A37B5B2B7 PUSH1 0xA1 SHL PUSH1 0x64 DUP3 ADD MSTORE PUSH1 0x84 ADD PUSH2 0x6CF JUMP JUMPDEST PUSH1 0x0 PUSH2 0x17F9 DUP4 PUSH2 0x1090 JUMP JUMPDEST SWAP1 POP DUP1 PUSH1 0x1 PUSH1 0x1 PUSH1 0xA0 SHL SUB AND DUP5 PUSH1 0x1 PUSH1 0x1 PUSH1 0xA0 SHL SUB AND EQ DUP1 PUSH2 0x1834 JUMPI POP DUP4 PUSH1 0x1 PUSH1 0x1 PUSH1 0xA0 SHL SUB AND PUSH2 0x1829 DUP5 PUSH2 0x667 JUMP JUMPDEST PUSH1 0x1 PUSH1 0x1 PUSH1 0xA0 SHL SUB AND EQ JUMPDEST DUP1 PUSH2 0xF6A JUMPI POP PUSH1 0x1 PUSH1 0x1 PUSH1 0xA0 SHL SUB DUP1 DUP3 AND PUSH1 0x0 SWAP1 DUP2 MSTORE PUSH1 0x5 PUSH1 0x20 SWAP1 DUP2 MSTORE PUSH1 0x40 DUP1 DUP4 KECCAK256 SWAP4 DUP9 AND DUP4 MSTORE SWAP3 SWAP1 MSTORE KECCAK256 SLOAD PUSH1 0xFF AND PUSH2 0xF6A JUMP JUMPDEST DUP3 PUSH1 0x1 PUSH1 0x1 PUSH1 0xA0 SHL SUB AND PUSH2 0x187B DUP3 PUSH2 0x1090 JUMP JUMPDEST PUSH1 0x1 PUSH1 0x1 PUSH1 0xA0 SHL SUB AND EQ PUSH2 0x18DF JUMPI PUSH1 0x40 MLOAD PUSH3 0x461BCD PUSH1 0xE5 SHL DUP2 MSTORE PUSH1 0x20 PUSH1 0x4 DUP3 ADD MSTORE PUSH1 0x25 PUSH1 0x24 DUP3 ADD MSTORE PUSH32 0x4552433732313A207472616E736665722066726F6D20696E636F727265637420 PUSH1 0x44 DUP3 ADD MSTORE PUSH5 0x37BBB732B9 PUSH1 0xD9 SHL PUSH1 0x64 DUP3 ADD MSTORE PUSH1 0x84 ADD PUSH2 0x6CF JUMP JUMPDEST PUSH1 0x1 PUSH1 0x1 PUSH1 0xA0 SHL SUB DUP3 AND PUSH2 0x1941 JUMPI PUSH1 0x40 MLOAD PUSH3 0x461BCD PUSH1 0xE5 SHL DUP2 MSTORE PUSH1 0x20 PUSH1 0x4 DUP3 ADD MSTORE PUSH1 0x24 DUP1 DUP3 ADD MSTORE PUSH32 0x4552433732313A207472616E7366657220746F20746865207A65726F20616464 PUSH1 0x44 DUP3 ADD MSTORE PUSH4 0x72657373 PUSH1 0xE0 SHL PUSH1 0x64 DUP3 ADD MSTORE PUSH1 0x84 ADD PUSH2 0x6CF JUMP JUMPDEST PUSH2 0x194C DUP4 DUP4 DUP4 PUSH2 0x1E41 JUMP JUMPDEST PUSH2 0x1957 PUSH1 0x0 DUP3 PUSH2 0x16AC JUMP JUMPDEST PUSH1 0x1 PUSH1 0x1 PUSH1 0xA0 SHL SUB DUP4 AND PUSH1 0x0 SWAP1 DUP2 MSTORE PUSH1 0x3 PUSH1 0x20 MSTORE PUSH1 0x40 DUP2 KECCAK256 DUP1 SLOAD PUSH1 0x1 SWAP3 SWAP1 PUSH2 0x1980 SWAP1 DUP5 SWAP1 PUSH2 0x2F58 JUMP JUMPDEST SWAP1 SWAP2 SSTORE POP POP PUSH1 0x1 PUSH1 0x1 PUSH1 0xA0 SHL SUB DUP3 AND PUSH1 0x0 SWAP1 DUP2 MSTORE PUSH1 0x3 PUSH1 0x20 MSTORE PUSH1 0x40 DUP2 KECCAK256 DUP1 SLOAD PUSH1 0x1 SWAP3 SWAP1 PUSH2 0x19AE SWAP1 DUP5 SWAP1 PUSH2 0x2F6F JUMP JUMPDEST SWAP1 SWAP2 SSTORE POP POP PUSH1 0x0 DUP2 DUP2 MSTORE PUSH1 0x2 PUSH1 0x20 MSTORE PUSH1 0x40 DUP1 DUP3 KECCAK256 DUP1 SLOAD PUSH1 0x1 PUSH1 0x1 PUSH1 0xA0 SHL SUB NOT AND PUSH1 0x1 PUSH1 0x1 PUSH1 0xA0 SHL SUB DUP7 DUP2 AND SWAP2 DUP3 OR SWAP1 SWAP3 SSTORE SWAP2 MLOAD DUP5 SWAP4 SWAP2 DUP8 AND SWAP2 PUSH32 0xDDF252AD1BE2C89B69C2B068FC378DAA952BA7F163C4A11628F55A4DF523B3EF SWAP2 LOG4 POP POP POP JUMP JUMPDEST PUSH1 0x0 PUSH2 0xB98 DUP4 PUSH1 0x1 PUSH1 0x1 PUSH1 0xA0 SHL SUB DUP5 AND PUSH2 0x1E4C JUMP JUMPDEST PUSH1 0x0 PUSH2 0x5CF DUP3 SLOAD SWAP1 JUMP JUMPDEST PUSH2 0xC65 DUP2 PUSH2 0x1F3F JUMP JUMPDEST PUSH2 0x1A40 DUP3 PUSH2 0x168F JUMP JUMPDEST PUSH2 0x1AA3 JUMPI PUSH1 0x40 MLOAD PUSH3 0x461BCD PUSH1 0xE5 SHL DUP2 MSTORE PUSH1 0x20 PUSH1 0x4 DUP3 ADD MSTORE PUSH1 0x2E PUSH1 0x24 DUP3 ADD MSTORE PUSH32 0x45524337323155524953746F726167653A2055524920736574206F66206E6F6E PUSH1 0x44 DUP3 ADD MSTORE PUSH14 0x32BC34B9BA32B73A103A37B5B2B7 PUSH1 0x91 SHL PUSH1 0x64 DUP3 ADD MSTORE PUSH1 0x84 ADD PUSH2 0x6CF JUMP JUMPDEST PUSH1 0x0 DUP3 DUP2 MSTORE PUSH1 0xA PUSH1 0x20 SWAP1 DUP2 MSTORE PUSH1 0x40 SWAP1 SWAP2 KECCAK256 DUP3 MLOAD PUSH2 0x805 SWAP3 DUP5 ADD SWAP1 PUSH2 0x26B9 JUMP JUMPDEST PUSH1 0x0 PUSH2 0xB98 DUP4 DUP4 PUSH2 0x1F7F JUMP JUMPDEST DUP2 PUSH1 0x1 PUSH1 0x1 PUSH1 0xA0 SHL SUB AND DUP4 PUSH1 0x1 PUSH1 0x1 PUSH1 0xA0 SHL SUB AND EQ ISZERO PUSH2 0x1B30 JUMPI PUSH1 0x40 MLOAD PUSH3 0x461BCD PUSH1 0xE5 SHL DUP2 MSTORE PUSH1 0x20 PUSH1 0x4 DUP3 ADD MSTORE PUSH1 0x19 PUSH1 0x24 DUP3 ADD MSTORE PUSH32 0x4552433732313A20617070726F766520746F2063616C6C657200000000000000 PUSH1 0x44 DUP3 ADD MSTORE PUSH1 0x64 ADD PUSH2 0x6CF JUMP JUMPDEST PUSH1 0x1 PUSH1 0x1 PUSH1 0xA0 SHL SUB DUP4 DUP2 AND PUSH1 0x0 DUP2 DUP2 MSTORE PUSH1 0x5 PUSH1 0x20 SWAP1 DUP2 MSTORE PUSH1 0x40 DUP1 DUP4 KECCAK256 SWAP5 DUP8 AND DUP1 DUP5 MSTORE SWAP5 DUP3 MSTORE SWAP2 DUP3 SWAP1 KECCAK256 DUP1 SLOAD PUSH1 0xFF NOT AND DUP7 ISZERO ISZERO SWAP1 DUP2 OR SWAP1 SWAP2 SSTORE SWAP2 MLOAD SWAP2 DUP3 MSTORE PUSH32 0x17307EAB39AB6107E8899845AD3D59BD9653F200F220920489CA2B5937696C31 SWAP2 ADD PUSH1 0x40 MLOAD DUP1 SWAP2 SUB SWAP1 LOG3 POP POP POP JUMP JUMPDEST PUSH2 0x1BA8 DUP5 DUP5 DUP5 PUSH2 0x1868 JUMP JUMPDEST PUSH2 0x1BB4 DUP5 DUP5 DUP5 DUP5 PUSH2 0x1FA9 JUMP JUMPDEST PUSH2 0x1392 JUMPI PUSH1 0x40 MLOAD PUSH3 0x461BCD PUSH1 0xE5 SHL DUP2 MSTORE PUSH1 0x4 ADD PUSH2 0x6CF SWAP1 PUSH2 0x2F87 JUMP JUMPDEST PUSH1 0x60 PUSH2 0x1BDB DUP3 PUSH2 0x168F JUMP JUMPDEST PUSH2 0x1C41 JUMPI PUSH1 0x40 MLOAD PUSH3 0x461BCD PUSH1 0xE5 SHL DUP2 MSTORE PUSH1 0x20 PUSH1 0x4 DUP3 ADD MSTORE PUSH1 0x31 PUSH1 0x24 DUP3 ADD MSTORE PUSH32 0x45524337323155524953746F726167653A2055524920717565727920666F7220 PUSH1 0x44 DUP3 ADD MSTORE PUSH17 0x3737B732BC34B9BA32B73A103A37B5B2B7 PUSH1 0x79 SHL PUSH1 0x64 DUP3 ADD MSTORE PUSH1 0x84 ADD PUSH2 0x6CF JUMP JUMPDEST PUSH1 0x0 DUP3 DUP2 MSTORE PUSH1 0xA PUSH1 0x20 MSTORE PUSH1 0x40 DUP2 KECCAK256 DUP1 SLOAD PUSH2 0x1C5A SWAP1 PUSH2 0x2DD6 JUMP JUMPDEST DUP1 PUSH1 0x1F ADD PUSH1 0x20 DUP1 SWAP2 DIV MUL PUSH1 0x20 ADD PUSH1 0x40 MLOAD SWAP1 DUP2 ADD PUSH1 0x40 MSTORE DUP1 SWAP3 SWAP2 SWAP1 DUP2 DUP2 MSTORE PUSH1 0x20 ADD DUP3 DUP1 SLOAD PUSH2 0x1C86 SWAP1 PUSH2 0x2DD6 JUMP JUMPDEST DUP1 ISZERO PUSH2 0x1CD3 JUMPI DUP1 PUSH1 0x1F LT PUSH2 0x1CA8 JUMPI PUSH2 0x100 DUP1 DUP4 SLOAD DIV MUL DUP4 MSTORE SWAP2 PUSH1 0x20 ADD SWAP2 PUSH2 0x1CD3 JUMP JUMPDEST DUP3 ADD SWAP2 SWAP1 PUSH1 0x0 MSTORE PUSH1 0x20 PUSH1 0x0 KECCAK256 SWAP1 JUMPDEST DUP2 SLOAD DUP2 MSTORE SWAP1 PUSH1 0x1 ADD SWAP1 PUSH1 0x20 ADD DUP1 DUP4 GT PUSH2 0x1CB6 JUMPI DUP3 SWAP1 SUB PUSH1 0x1F AND DUP3 ADD SWAP2 JUMPDEST POP POP POP POP POP SWAP1 POP PUSH1 0x0 PUSH2 0x1D00 PUSH1 0x40 DUP1 MLOAD DUP1 DUP3 ADD SWAP1 SWAP2 MSTORE PUSH1 0x7 DUP2 MSTORE PUSH7 0x697066733A2F2F PUSH1 0xC8 SHL PUSH1 0x20 DUP3 ADD MSTORE SWAP1 JUMP JUMPDEST SWAP1 POP DUP1 MLOAD PUSH1 0x0 EQ ISZERO PUSH2 0x1D13 JUMPI POP SWAP3 SWAP2 POP POP JUMP JUMPDEST DUP2 MLOAD ISZERO PUSH2 0x1D45 JUMPI DUP1 DUP3 PUSH1 0x40 MLOAD PUSH1 0x20 ADD PUSH2 0x1D2D SWAP3 SWAP2 SWAP1 PUSH2 0x2FD9 JUMP JUMPDEST PUSH1 0x40 MLOAD PUSH1 0x20 DUP2 DUP4 SUB SUB DUP2 MSTORE SWAP1 PUSH1 0x40 MSTORE SWAP3 POP POP POP SWAP2 SWAP1 POP JUMP JUMPDEST PUSH2 0xF6A DUP5 PUSH2 0x20A7 JUMP JUMPDEST PUSH1 0x0 PUSH2 0xB98 DUP4 DUP4 PUSH2 0x1E4C JUMP JUMPDEST PUSH1 0x0 PUSH2 0xB98 DUP4 PUSH1 0x1 PUSH1 0x1 PUSH1 0xA0 SHL SUB DUP5 AND PUSH2 0x1DF2 JUMP JUMPDEST PUSH1 0x0 PUSH1 0x1 PUSH1 0x1 PUSH1 0xE0 SHL SUB NOT DUP3 AND PUSH4 0x80AC58CD PUSH1 0xE0 SHL EQ DUP1 PUSH2 0x1DA0 JUMPI POP PUSH1 0x1 PUSH1 0x1 PUSH1 0xE0 SHL SUB NOT DUP3 AND PUSH4 0x5B5E139F PUSH1 0xE0 SHL EQ JUMPDEST DUP1 PUSH2 0x5CF JUMPI POP PUSH4 0x1FFC9A7 PUSH1 0xE0 SHL PUSH1 0x1 PUSH1 0x1 PUSH1 0xE0 SHL SUB NOT DUP4 AND EQ PUSH2 0x5CF JUMP JUMPDEST PUSH2 0x1DC9 DUP4 DUP4 PUSH2 0x218D JUMP JUMPDEST PUSH2 0x1DD6 PUSH1 0x0 DUP5 DUP5 DUP5 PUSH2 0x1FA9 JUMP JUMPDEST PUSH2 0x805 JUMPI PUSH1 0x40 MLOAD PUSH3 0x461BCD PUSH1 0xE5 SHL DUP2 MSTORE PUSH1 0x4 ADD PUSH2 0x6CF SWAP1 PUSH2 0x2F87 JUMP JUMPDEST PUSH1 0x0 DUP2 DUP2 MSTORE PUSH1 0x1 DUP4 ADD PUSH1 0x20 MSTORE PUSH1 0x40 DUP2 KECCAK256 SLOAD PUSH2 0x1E39 JUMPI POP DUP2 SLOAD PUSH1 0x1 DUP2 DUP2 ADD DUP5 SSTORE PUSH1 0x0 DUP5 DUP2 MSTORE PUSH1 0x20 DUP1 DUP3 KECCAK256 SWAP1 SWAP4 ADD DUP5 SWAP1 SSTORE DUP5 SLOAD DUP5 DUP3 MSTORE DUP3 DUP7 ADD SWAP1 SWAP4 MSTORE PUSH1 0x40 SWAP1 KECCAK256 SWAP2 SWAP1 SWAP2 SSTORE PUSH2 0x5CF JUMP JUMPDEST POP PUSH1 0x0 PUSH2 0x5CF JUMP JUMPDEST PUSH2 0x805 DUP4 DUP4 DUP4 PUSH2 0x22CC JUMP JUMPDEST PUSH1 0x0 DUP2 DUP2 MSTORE PUSH1 0x1 DUP4 ADD PUSH1 0x20 MSTORE PUSH1 0x40 DUP2 KECCAK256 SLOAD DUP1 ISZERO PUSH2 0x1F35 JUMPI PUSH1 0x0 PUSH2 0x1E70 PUSH1 0x1 DUP4 PUSH2 0x2F58 JUMP JUMPDEST DUP6 SLOAD SWAP1 SWAP2 POP PUSH1 0x0 SWAP1 PUSH2 0x1E84 SWAP1 PUSH1 0x1 SWAP1 PUSH2 0x2F58 JUMP JUMPDEST SWAP1 POP DUP2 DUP2 EQ PUSH2 0x1EE9 JUMPI PUSH1 0x0 DUP7 PUSH1 0x0 ADD DUP3 DUP2 SLOAD DUP2 LT PUSH2 0x1EA4 JUMPI PUSH2 0x1EA4 PUSH2 0x2E2D JUMP JUMPDEST SWAP1 PUSH1 0x0 MSTORE PUSH1 0x20 PUSH1 0x0 KECCAK256 ADD SLOAD SWAP1 POP DUP1 DUP8 PUSH1 0x0 ADD DUP5 DUP2 SLOAD DUP2 LT PUSH2 0x1EC7 JUMPI PUSH2 0x1EC7 PUSH2 0x2E2D JUMP JUMPDEST PUSH1 0x0 SWAP2 DUP3 MSTORE PUSH1 0x20 DUP1 DUP4 KECCAK256 SWAP1 SWAP2 ADD SWAP3 SWAP1 SWAP3 SSTORE SWAP2 DUP3 MSTORE PUSH1 0x1 DUP9 ADD SWAP1 MSTORE PUSH1 0x40 SWAP1 KECCAK256 DUP4 SWAP1 SSTORE JUMPDEST DUP6 SLOAD DUP7 SWAP1 DUP1 PUSH2 0x1EFA JUMPI PUSH2 0x1EFA PUSH2 0x3008 JUMP JUMPDEST PUSH1 0x1 SWAP1 SUB DUP2 DUP2 SWAP1 PUSH1 0x0 MSTORE PUSH1 0x20 PUSH1 0x0 KECCAK256 ADD PUSH1 0x0 SWAP1 SSTORE SWAP1 SSTORE DUP6 PUSH1 0x1 ADD PUSH1 0x0 DUP7 DUP2 MSTORE PUSH1 0x20 ADD SWAP1 DUP2 MSTORE PUSH1 0x20 ADD PUSH1 0x0 KECCAK256 PUSH1 0x0 SWAP1 SSTORE PUSH1 0x1 SWAP4 POP POP POP POP PUSH2 0x5CF JUMP JUMPDEST PUSH1 0x0 SWAP2 POP POP PUSH2 0x5CF JUMP JUMPDEST PUSH2 0x1F48 DUP2 PUSH2 0x2384 JUMP JUMPDEST PUSH1 0x0 DUP2 DUP2 MSTORE PUSH1 0xA PUSH1 0x20 MSTORE PUSH1 0x40 SWAP1 KECCAK256 DUP1 SLOAD PUSH2 0x1F61 SWAP1 PUSH2 0x2DD6 JUMP JUMPDEST ISZERO SWAP1 POP PUSH2 0xC65 JUMPI PUSH1 0x0 DUP2 DUP2 MSTORE PUSH1 0xA PUSH1 0x20 MSTORE PUSH1 0x40 DUP2 KECCAK256 PUSH2 0xC65 SWAP2 PUSH2 0x273D JUMP JUMPDEST PUSH1 0x0 DUP3 PUSH1 0x0 ADD DUP3 DUP2 SLOAD DUP2 LT PUSH2 0x1F96 JUMPI PUSH2 0x1F96 PUSH2 0x2E2D JUMP JUMPDEST SWAP1 PUSH1 0x0 MSTORE PUSH1 0x20 PUSH1 0x0 KECCAK256 ADD SLOAD SWAP1 POP SWAP3 SWAP2 POP POP JUMP JUMPDEST PUSH1 0x0 PUSH1 0x1 PUSH1 0x1 PUSH1 0xA0 SHL SUB DUP5 AND EXTCODESIZE ISZERO PUSH2 0x209C JUMPI PUSH1 0x40 MLOAD PUSH4 0xA85BD01 PUSH1 0xE1 SHL DUP2 MSTORE PUSH1 0x1 PUSH1 0x1 PUSH1 0xA0 SHL SUB DUP6 AND SWAP1 PUSH4 0x150B7A02 SWAP1 PUSH2 0x1FED SWAP1 CALLER SWAP1 DUP10 SWAP1 DUP9 SWAP1 DUP9 SWAP1 PUSH1 0x4 ADD PUSH2 0x301E JUMP JUMPDEST PUSH1 0x20 PUSH1 0x40 MLOAD DUP1 DUP4 SUB DUP2 PUSH1 0x0 DUP8 GAS CALL SWAP3 POP POP POP DUP1 ISZERO PUSH2 0x2028 JUMPI POP PUSH1 0x40 DUP1 MLOAD PUSH1 0x1F RETURNDATASIZE SWAP1 DUP2 ADD PUSH1 0x1F NOT AND DUP3 ADD SWAP1 SWAP3 MSTORE PUSH2 0x2025 SWAP2 DUP2 ADD SWAP1 PUSH2 0x305B JUMP JUMPDEST PUSH1 0x1 JUMPDEST PUSH2 0x2082 JUMPI RETURNDATASIZE DUP1 DUP1 ISZERO PUSH2 0x2056 JUMPI PUSH1 0x40 MLOAD SWAP2 POP PUSH1 0x1F NOT PUSH1 0x3F RETURNDATASIZE ADD AND DUP3 ADD PUSH1 0x40 MSTORE RETURNDATASIZE DUP3 MSTORE RETURNDATASIZE PUSH1 0x0 PUSH1 0x20 DUP5 ADD RETURNDATACOPY PUSH2 0x205B JUMP JUMPDEST PUSH1 0x60 SWAP2 POP JUMPDEST POP DUP1 MLOAD PUSH2 0x207A JUMPI PUSH1 0x40 MLOAD PUSH3 0x461BCD PUSH1 0xE5 SHL DUP2 MSTORE PUSH1 0x4 ADD PUSH2 0x6CF SWAP1 PUSH2 0x2F87 JUMP JUMPDEST DUP1 MLOAD DUP2 PUSH1 0x20 ADD REVERT JUMPDEST PUSH1 0x1 PUSH1 0x1 PUSH1 0xE0 SHL SUB NOT AND PUSH4 0xA85BD01 PUSH1 0xE1 SHL EQ SWAP1 POP PUSH2 0xF6A JUMP JUMPDEST POP PUSH1 0x1 SWAP5 SWAP4 POP POP POP POP JUMP JUMPDEST PUSH1 0x60 PUSH2 0x20B2 DUP3 PUSH2 0x168F JUMP JUMPDEST PUSH2 0x2116 JUMPI PUSH1 0x40 MLOAD PUSH3 0x461BCD PUSH1 0xE5 SHL DUP2 MSTORE PUSH1 0x20 PUSH1 0x4 DUP3 ADD MSTORE PUSH1 0x2F PUSH1 0x24 DUP3 ADD MSTORE PUSH32 0x4552433732314D657461646174613A2055524920717565727920666F72206E6F PUSH1 0x44 DUP3 ADD MSTORE PUSH15 0x3732BC34B9BA32B73A103A37B5B2B7 PUSH1 0x89 SHL PUSH1 0x64 DUP3 ADD MSTORE PUSH1 0x84 ADD PUSH2 0x6CF JUMP JUMPDEST PUSH1 0x0 PUSH2 0x213C PUSH1 0x40 DUP1 MLOAD DUP1 DUP3 ADD SWAP1 SWAP2 MSTORE PUSH1 0x7 DUP2 MSTORE PUSH7 0x697066733A2F2F PUSH1 0xC8 SHL PUSH1 0x20 DUP3 ADD MSTORE SWAP1 JUMP JUMPDEST SWAP1 POP PUSH1 0x0 DUP2 MLOAD GT PUSH2 0x215C JUMPI PUSH1 0x40 MLOAD DUP1 PUSH1 0x20 ADD PUSH1 0x40 MSTORE DUP1 PUSH1 0x0 DUP2 MSTORE POP PUSH2 0xB98 JUMP JUMPDEST DUP1 PUSH2 0x2166 DUP5 PUSH2 0x242B JUMP JUMPDEST PUSH1 0x40 MLOAD PUSH1 0x20 ADD PUSH2 0x2177 SWAP3 SWAP2 SWAP1 PUSH2 0x2FD9 JUMP JUMPDEST PUSH1 0x40 MLOAD PUSH1 0x20 DUP2 DUP4 SUB SUB DUP2 MSTORE SWAP1 PUSH1 0x40 MSTORE SWAP4 SWAP3 POP POP POP JUMP JUMPDEST PUSH1 0x1 PUSH1 0x1 PUSH1 0xA0 SHL SUB DUP3 AND PUSH2 0x21E3 JUMPI PUSH1 0x40 MLOAD PUSH3 0x461BCD PUSH1 0xE5 SHL DUP2 MSTORE PUSH1 0x20 PUSH1 0x4 DUP3 ADD DUP2 SWAP1 MSTORE PUSH1 0x24 DUP3 ADD MSTORE PUSH32 0x4552433732313A206D696E7420746F20746865207A65726F2061646472657373 PUSH1 0x44 DUP3 ADD MSTORE PUSH1 0x64 ADD PUSH2 0x6CF JUMP JUMPDEST PUSH2 0x21EC DUP2 PUSH2 0x168F JUMP JUMPDEST ISZERO PUSH2 0x2239 JUMPI PUSH1 0x40 MLOAD PUSH3 0x461BCD PUSH1 0xE5 SHL DUP2 MSTORE PUSH1 0x20 PUSH1 0x4 DUP3 ADD MSTORE PUSH1 0x1C PUSH1 0x24 DUP3 ADD MSTORE PUSH32 0x4552433732313A20746F6B656E20616C7265616479206D696E74656400000000 PUSH1 0x44 DUP3 ADD MSTORE PUSH1 0x64 ADD PUSH2 0x6CF JUMP JUMPDEST PUSH2 0x2245 PUSH1 0x0 DUP4 DUP4 PUSH2 0x1E41 JUMP JUMPDEST PUSH1 0x1 PUSH1 0x1 PUSH1 0xA0 SHL SUB DUP3 AND PUSH1 0x0 SWAP1 DUP2 MSTORE PUSH1 0x3 PUSH1 0x20 MSTORE PUSH1 0x40 DUP2 KECCAK256 DUP1 SLOAD PUSH1 0x1 SWAP3 SWAP1 PUSH2 0x226E SWAP1 DUP5 SWAP1 PUSH2 0x2F6F JUMP JUMPDEST SWAP1 SWAP2 SSTORE POP POP PUSH1 0x0 DUP2 DUP2 MSTORE PUSH1 0x2 PUSH1 0x20 MSTORE PUSH1 0x40 DUP1 DUP3 KECCAK256 DUP1 SLOAD PUSH1 0x1 PUSH1 0x1 PUSH1 0xA0 SHL SUB NOT AND PUSH1 0x1 PUSH1 0x1 PUSH1 0xA0 SHL SUB DUP7 AND SWAP1 DUP2 OR SWAP1 SWAP2 SSTORE SWAP1 MLOAD DUP4 SWAP3 SWAP1 PUSH32 0xDDF252AD1BE2C89B69C2B068FC378DAA952BA7F163C4A11628F55A4DF523B3EF SWAP1 DUP3 SWAP1 LOG4 POP POP JUMP JUMPDEST PUSH1 0x1 PUSH1 0x1 PUSH1 0xA0 SHL SUB DUP4 AND PUSH2 0x2327 JUMPI PUSH2 0x2322 DUP2 PUSH1 0x8 DUP1 SLOAD PUSH1 0x0 DUP4 DUP2 MSTORE PUSH1 0x9 PUSH1 0x20 MSTORE PUSH1 0x40 DUP2 KECCAK256 DUP3 SWAP1 SSTORE PUSH1 0x1 DUP3 ADD DUP4 SSTORE SWAP2 SWAP1 SWAP2 MSTORE PUSH32 0xF3F7A9FE364FAAB93B216DA50A3214154F22A0A2B415B23A84C8169E8B636EE3 ADD SSTORE JUMP JUMPDEST PUSH2 0x234A JUMP JUMPDEST DUP2 PUSH1 0x1 PUSH1 0x1 PUSH1 0xA0 SHL SUB AND DUP4 PUSH1 0x1 PUSH1 0x1 PUSH1 0xA0 SHL SUB AND EQ PUSH2 0x234A JUMPI PUSH2 0x234A DUP4 DUP3 PUSH2 0x2529 JUMP JUMPDEST PUSH1 0x1 PUSH1 0x1 PUSH1 0xA0 SHL SUB DUP3 AND PUSH2 0x2361 JUMPI PUSH2 0x805 DUP2 PUSH2 0x25C6 JUMP JUMPDEST DUP3 PUSH1 0x1 PUSH1 0x1 PUSH1 0xA0 SHL SUB AND DUP3 PUSH1 0x1 PUSH1 0x1 PUSH1 0xA0 SHL SUB AND EQ PUSH2 0x805 JUMPI PUSH2 0x805 DUP3 DUP3 PUSH2 0x2675 JUMP JUMPDEST PUSH1 0x0 PUSH2 0x238F DUP3 PUSH2 0x1090 JUMP JUMPDEST SWAP1 POP PUSH2 0x239D DUP2 PUSH1 0x0 DUP5 PUSH2 0x1E41 JUMP JUMPDEST PUSH2 0x23A8 PUSH1 0x0 DUP4 PUSH2 0x16AC JUMP JUMPDEST PUSH1 0x1 PUSH1 0x1 PUSH1 0xA0 SHL SUB DUP2 AND PUSH1 0x0 SWAP1 DUP2 MSTORE PUSH1 0x3 PUSH1 0x20 MSTORE PUSH1 0x40 DUP2 KECCAK256 DUP1 SLOAD PUSH1 0x1 SWAP3 SWAP1 PUSH2 0x23D1 SWAP1 DUP5 SWAP1 PUSH2 0x2F58 JUMP JUMPDEST SWAP1 SWAP2 SSTORE POP POP PUSH1 0x0 DUP3 DUP2 MSTORE PUSH1 0x2 PUSH1 0x20 MSTORE PUSH1 0x40 DUP1 DUP3 KECCAK256 DUP1 SLOAD PUSH1 0x1 PUSH1 0x1 PUSH1 0xA0 SHL SUB NOT AND SWAP1 SSTORE MLOAD DUP4 SWAP2 SWAP1 PUSH1 0x1 PUSH1 0x1 PUSH1 0xA0 SHL SUB DUP5 AND SWAP1 PUSH32 0xDDF252AD1BE2C89B69C2B068FC378DAA952BA7F163C4A11628F55A4DF523B3EF SWAP1 DUP4 SWAP1 LOG4 POP POP JUMP JUMPDEST PUSH1 0x60 DUP2 PUSH2 0x244F JUMPI POP POP PUSH1 0x40 DUP1 MLOAD DUP1 DUP3 ADD SWAP1 SWAP2 MSTORE PUSH1 0x1 DUP2 MSTORE PUSH1 0x3 PUSH1 0xFC SHL PUSH1 0x20 DUP3 ADD MSTORE SWAP1 JUMP JUMPDEST DUP2 PUSH1 0x0 JUMPDEST DUP2 ISZERO PUSH2 0x2479 JUMPI DUP1 PUSH2 0x2463 DUP2 PUSH2 0x2E59 JUMP JUMPDEST SWAP2 POP PUSH2 0x2472 SWAP1 POP PUSH1 0xA DUP4 PUSH2 0x308E JUMP JUMPDEST SWAP2 POP PUSH2 0x2453 JUMP JUMPDEST PUSH1 0x0 DUP2 PUSH8 0xFFFFFFFFFFFFFFFF DUP2 GT ISZERO PUSH2 0x2494 JUMPI PUSH2 0x2494 PUSH2 0x2885 JUMP JUMPDEST PUSH1 0x40 MLOAD SWAP1 DUP1 DUP3 MSTORE DUP1 PUSH1 0x1F ADD PUSH1 0x1F NOT AND PUSH1 0x20 ADD DUP3 ADD PUSH1 0x40 MSTORE DUP1 ISZERO PUSH2 0x24BE JUMPI PUSH1 0x20 DUP3 ADD DUP2 DUP1 CALLDATASIZE DUP4 CALLDATACOPY ADD SWAP1 POP JUMPDEST POP SWAP1 POP JUMPDEST DUP5 ISZERO PUSH2 0xF6A JUMPI PUSH2 0x24D3 PUSH1 0x1 DUP4 PUSH2 0x2F58 JUMP JUMPDEST SWAP2 POP PUSH2 0x24E0 PUSH1 0xA DUP7 PUSH2 0x30A2 JUMP JUMPDEST PUSH2 0x24EB SWAP1 PUSH1 0x30 PUSH2 0x2F6F JUMP JUMPDEST PUSH1 0xF8 SHL DUP2 DUP4 DUP2 MLOAD DUP2 LT PUSH2 0x2500 JUMPI PUSH2 0x2500 PUSH2 0x2E2D JUMP JUMPDEST PUSH1 0x20 ADD ADD SWAP1 PUSH1 0x1 PUSH1 0x1 PUSH1 0xF8 SHL SUB NOT AND SWAP1 DUP2 PUSH1 0x0 BYTE SWAP1 MSTORE8 POP PUSH2 0x2522 PUSH1 0xA DUP7 PUSH2 0x308E JUMP JUMPDEST SWAP5 POP PUSH2 0x24C2 JUMP JUMPDEST PUSH1 0x0 PUSH1 0x1 PUSH2 0x2536 DUP5 PUSH2 0x1107 JUMP JUMPDEST PUSH2 0x2540 SWAP2 SWAP1 PUSH2 0x2F58 JUMP JUMPDEST PUSH1 0x0 DUP4 DUP2 MSTORE PUSH1 0x7 PUSH1 0x20 MSTORE PUSH1 0x40 SWAP1 KECCAK256 SLOAD SWAP1 SWAP2 POP DUP1 DUP3 EQ PUSH2 0x2593 JUMPI PUSH1 0x1 PUSH1 0x1 PUSH1 0xA0 SHL SUB DUP5 AND PUSH1 0x0 SWAP1 DUP2 MSTORE PUSH1 0x6 PUSH1 0x20 SWAP1 DUP2 MSTORE PUSH1 0x40 DUP1 DUP4 KECCAK256 DUP6 DUP5 MSTORE DUP3 MSTORE DUP1 DUP4 KECCAK256 SLOAD DUP5 DUP5 MSTORE DUP2 DUP5 KECCAK256 DUP2 SWAP1 SSTORE DUP4 MSTORE PUSH1 0x7 SWAP1 SWAP2 MSTORE SWAP1 KECCAK256 DUP2 SWAP1 SSTORE JUMPDEST POP PUSH1 0x0 SWAP2 DUP3 MSTORE PUSH1 0x7 PUSH1 0x20 SWAP1 DUP2 MSTORE PUSH1 0x40 DUP1 DUP5 KECCAK256 DUP5 SWAP1 SSTORE PUSH1 0x1 PUSH1 0x1 PUSH1 0xA0 SHL SUB SWAP1 SWAP5 AND DUP4 MSTORE PUSH1 0x6 DUP2 MSTORE DUP4 DUP4 KECCAK256 SWAP2 DUP4 MSTORE MSTORE SWAP1 DUP2 KECCAK256 SSTORE JUMP JUMPDEST PUSH1 0x8 SLOAD PUSH1 0x0 SWAP1 PUSH2 0x25D8 SWAP1 PUSH1 0x1 SWAP1 PUSH2 0x2F58 JUMP JUMPDEST PUSH1 0x0 DUP4 DUP2 MSTORE PUSH1 0x9 PUSH1 0x20 MSTORE PUSH1 0x40 DUP2 KECCAK256 SLOAD PUSH1 0x8 DUP1 SLOAD SWAP4 SWAP5 POP SWAP1 SWAP3 DUP5 SWAP1 DUP2 LT PUSH2 0x2600 JUMPI PUSH2 0x2600 PUSH2 0x2E2D JUMP JUMPDEST SWAP1 PUSH1 0x0 MSTORE PUSH1 0x20 PUSH1 0x0 KECCAK256 ADD SLOAD SWAP1 POP DUP1 PUSH1 0x8 DUP4 DUP2 SLOAD DUP2 LT PUSH2 0x2621 JUMPI PUSH2 0x2621 PUSH2 0x2E2D JUMP JUMPDEST PUSH1 0x0 SWAP2 DUP3 MSTORE PUSH1 0x20 DUP1 DUP4 KECCAK256 SWAP1 SWAP2 ADD SWAP3 SWAP1 SWAP3 SSTORE DUP3 DUP2 MSTORE PUSH1 0x9 SWAP1 SWAP2 MSTORE PUSH1 0x40 DUP1 DUP3 KECCAK256 DUP5 SWAP1 SSTORE DUP6 DUP3 MSTORE DUP2 KECCAK256 SSTORE PUSH1 0x8 DUP1 SLOAD DUP1 PUSH2 0x2659 JUMPI PUSH2 0x2659 PUSH2 0x3008 JUMP JUMPDEST PUSH1 0x1 SWAP1 SUB DUP2 DUP2 SWAP1 PUSH1 0x0 MSTORE PUSH1 0x20 PUSH1 0x0 KECCAK256 ADD PUSH1 0x0 SWAP1 SSTORE SWAP1 SSTORE POP POP POP POP JUMP JUMPDEST PUSH1 0x0 PUSH2 0x2680 DUP4 PUSH2 0x1107 JUMP JUMPDEST PUSH1 0x1 PUSH1 0x1 PUSH1 0xA0 SHL SUB SWAP1 SWAP4 AND PUSH1 0x0 SWAP1 DUP2 MSTORE PUSH1 0x6 PUSH1 0x20 SWAP1 DUP2 MSTORE PUSH1 0x40 DUP1 DUP4 KECCAK256 DUP7 DUP5 MSTORE DUP3 MSTORE DUP1 DUP4 KECCAK256 DUP6 SWAP1 SSTORE SWAP4 DUP3 MSTORE PUSH1 0x7 SWAP1 MSTORE SWAP2 SWAP1 SWAP2 KECCAK256 SWAP2 SWAP1 SWAP2 SSTORE POP JUMP JUMPDEST DUP3 DUP1 SLOAD PUSH2 0x26C5 SWAP1 PUSH2 0x2DD6 JUMP JUMPDEST SWAP1 PUSH1 0x0 MSTORE PUSH1 0x20 PUSH1 0x0 KECCAK256 SWAP1 PUSH1 0x1F ADD PUSH1 0x20 SWAP1 DIV DUP2 ADD SWAP3 DUP3 PUSH2 0x26E7 JUMPI PUSH1 0x0 DUP6 SSTORE PUSH2 0x272D JUMP JUMPDEST DUP3 PUSH1 0x1F LT PUSH2 0x2700 JUMPI DUP1 MLOAD PUSH1 0xFF NOT AND DUP4 DUP1 ADD OR DUP6 SSTORE PUSH2 0x272D JUMP JUMPDEST DUP3 DUP1 ADD PUSH1 0x1 ADD DUP6 SSTORE DUP3 ISZERO PUSH2 0x272D JUMPI SWAP2 DUP3 ADD JUMPDEST DUP3 DUP2 GT ISZERO PUSH2 0x272D JUMPI DUP3 MLOAD DUP3 SSTORE SWAP2 PUSH1 0x20 ADD SWAP2 SWAP1 PUSH1 0x1 ADD SWAP1 PUSH2 0x2712 JUMP JUMPDEST POP PUSH2 0x2739 SWAP3 SWAP2 POP PUSH2 0x2773 JUMP JUMPDEST POP SWAP1 JUMP JUMPDEST POP DUP1 SLOAD PUSH2 0x2749 SWAP1 PUSH2 0x2DD6 JUMP JUMPDEST PUSH1 0x0 DUP3 SSTORE DUP1 PUSH1 0x1F LT PUSH2 0x2759 JUMPI POP POP JUMP JUMPDEST PUSH1 0x1F ADD PUSH1 0x20 SWAP1 DIV SWAP1 PUSH1 0x0 MSTORE PUSH1 0x20 PUSH1 0x0 KECCAK256 SWAP1 DUP2 ADD SWAP1 PUSH2 0xC65 SWAP2 SWAP1 JUMPDEST JUMPDEST DUP1 DUP3 GT ISZERO PUSH2 0x2739 JUMPI PUSH1 0x0 DUP2 SSTORE PUSH1 0x1 ADD PUSH2 0x2774 JUMP JUMPDEST PUSH1 0x1 PUSH1 0x1 PUSH1 0xE0 SHL SUB NOT DUP2 AND DUP2 EQ PUSH2 0xC65 JUMPI PUSH1 0x0 DUP1 REVERT JUMPDEST PUSH1 0x0 PUSH1 0x20 DUP3 DUP5 SUB SLT ISZERO PUSH2 0x27B0 JUMPI PUSH1 0x0 DUP1 REVERT JUMPDEST DUP2 CALLDATALOAD PUSH2 0xB98 DUP2 PUSH2 0x2788 JUMP JUMPDEST PUSH1 0x0 JUMPDEST DUP4 DUP2 LT ISZERO PUSH2 0x27D6 JUMPI DUP2 DUP2 ADD MLOAD DUP4 DUP3 ADD MSTORE PUSH1 0x20 ADD PUSH2 0x27BE JUMP JUMPDEST DUP4 DUP2 GT ISZERO PUSH2 0x1392 JUMPI POP POP PUSH1 0x0 SWAP2 ADD MSTORE JUMP JUMPDEST PUSH1 0x0 DUP2 MLOAD DUP1 DUP5 MSTORE PUSH2 0x27FF DUP2 PUSH1 0x20 DUP7 ADD PUSH1 0x20 DUP7 ADD PUSH2 0x27BB JUMP JUMPDEST PUSH1 0x1F ADD PUSH1 0x1F NOT AND SWAP3 SWAP1 SWAP3 ADD PUSH1 0x20 ADD SWAP3 SWAP2 POP POP JUMP JUMPDEST PUSH1 0x20 DUP2 MSTORE PUSH1 0x0 PUSH2 0xB98 PUSH1 0x20 DUP4 ADD DUP5 PUSH2 0x27E7 JUMP JUMPDEST PUSH1 0x0 PUSH1 0x20 DUP3 DUP5 SUB SLT ISZERO PUSH2 0x2838 JUMPI PUSH1 0x0 DUP1 REVERT JUMPDEST POP CALLDATALOAD SWAP2 SWAP1 POP JUMP JUMPDEST DUP1 CALLDATALOAD PUSH1 0x1 PUSH1 0x1 PUSH1 0xA0 SHL SUB DUP2 AND DUP2 EQ PUSH2 0x2856 JUMPI PUSH1 0x0 DUP1 REVERT JUMPDEST SWAP2 SWAP1 POP JUMP JUMPDEST PUSH1 0x0 DUP1 PUSH1 0x40 DUP4 DUP6 SUB SLT ISZERO PUSH2 0x286E JUMPI PUSH1 0x0 DUP1 REVERT JUMPDEST PUSH2 0x2877 DUP4 PUSH2 0x283F JUMP JUMPDEST SWAP5 PUSH1 0x20 SWAP4 SWAP1 SWAP4 ADD CALLDATALOAD SWAP4 POP POP POP JUMP JUMPDEST PUSH4 0x4E487B71 PUSH1 0xE0 SHL PUSH1 0x0 MSTORE PUSH1 0x41 PUSH1 0x4 MSTORE PUSH1 0x24 PUSH1 0x0 REVERT JUMPDEST PUSH1 0x40 MLOAD PUSH1 0x1F DUP3 ADD PUSH1 0x1F NOT AND DUP2 ADD PUSH8 0xFFFFFFFFFFFFFFFF DUP2 GT DUP3 DUP3 LT OR ISZERO PUSH2 0x28C4 JUMPI PUSH2 0x28C4 PUSH2 0x2885 JUMP JUMPDEST PUSH1 0x40 MSTORE SWAP2 SWAP1 POP JUMP JUMPDEST PUSH1 0x0 PUSH8 0xFFFFFFFFFFFFFFFF DUP4 GT ISZERO PUSH2 0x28E6 JUMPI PUSH2 0x28E6 PUSH2 0x2885 JUMP JUMPDEST PUSH2 0x28F9 PUSH1 0x1F DUP5 ADD PUSH1 0x1F NOT AND PUSH1 0x20 ADD PUSH2 0x289B JUMP JUMPDEST SWAP1 POP DUP3 DUP2 MSTORE DUP4 DUP4 DUP4 ADD GT ISZERO PUSH2 0x290D JUMPI PUSH1 0x0 DUP1 REVERT JUMPDEST DUP3 DUP3 PUSH1 0x20 DUP4 ADD CALLDATACOPY PUSH1 0x0 PUSH1 0x20 DUP5 DUP4 ADD ADD MSTORE SWAP4 SWAP3 POP POP POP JUMP JUMPDEST PUSH1 0x0 DUP3 PUSH1 0x1F DUP4 ADD SLT PUSH2 0x2935 JUMPI PUSH1 0x0 DUP1 REVERT JUMPDEST PUSH2 0xB98 DUP4 DUP4 CALLDATALOAD PUSH1 0x20 DUP6 ADD PUSH2 0x28CC JUMP JUMPDEST PUSH1 0x0 DUP3 PUSH1 0x1F DUP4 ADD SLT PUSH2 0x2955 JUMPI PUSH1 0x0 DUP1 REVERT JUMPDEST DUP2 CALLDATALOAD PUSH1 0x20 PUSH8 0xFFFFFFFFFFFFFFFF DUP3 GT ISZERO PUSH2 0x2971 JUMPI PUSH2 0x2971 PUSH2 0x2885 JUMP JUMPDEST DUP2 PUSH1 0x5 SHL PUSH2 0x2980 DUP3 DUP3 ADD PUSH2 0x289B JUMP JUMPDEST SWAP3 DUP4 MSTORE DUP5 DUP2 ADD DUP3 ADD SWAP3 DUP3 DUP2 ADD SWAP1 DUP8 DUP6 GT ISZERO PUSH2 0x299A JUMPI PUSH1 0x0 DUP1 REVERT JUMPDEST DUP4 DUP8 ADD SWAP3 POP JUMPDEST DUP5 DUP4 LT ISZERO PUSH2 0x29B9 JUMPI DUP3 CALLDATALOAD DUP3 MSTORE SWAP2 DUP4 ADD SWAP2 SWAP1 DUP4 ADD SWAP1 PUSH2 0x29A0 JUMP JUMPDEST SWAP8 SWAP7 POP POP POP POP POP POP POP JUMP JUMPDEST PUSH1 0x0 DUP1 PUSH1 0x0 DUP1 PUSH1 0x80 DUP6 DUP8 SUB SLT ISZERO PUSH2 0x29DA JUMPI PUSH1 0x0 DUP1 REVERT JUMPDEST DUP5 CALLDATALOAD PUSH8 0xFFFFFFFFFFFFFFFF DUP1 DUP3 GT ISZERO PUSH2 0x29F2 JUMPI PUSH1 0x0 DUP1 REVERT JUMPDEST PUSH2 0x29FE DUP9 DUP4 DUP10 ADD PUSH2 0x2924 JUMP JUMPDEST SWAP6 POP PUSH1 0x20 DUP8 ADD CALLDATALOAD SWAP2 POP DUP1 DUP3 GT ISZERO PUSH2 0x2A14 JUMPI PUSH1 0x0 DUP1 REVERT JUMPDEST PUSH2 0x2A20 DUP9 DUP4 DUP10 ADD PUSH2 0x2924 JUMP JUMPDEST SWAP5 POP PUSH1 0x40 DUP8 ADD CALLDATALOAD SWAP2 POP DUP1 DUP3 GT ISZERO PUSH2 0x2A36 JUMPI PUSH1 0x0 DUP1 REVERT JUMPDEST PUSH2 0x2A42 DUP9 DUP4 DUP10 ADD PUSH2 0x2944 JUMP JUMPDEST SWAP4 POP PUSH1 0x60 DUP8 ADD CALLDATALOAD SWAP2 POP DUP1 DUP3 GT ISZERO PUSH2 0x2A58 JUMPI PUSH1 0x0 DUP1 REVERT JUMPDEST POP PUSH2 0x2A65 DUP8 DUP3 DUP9 ADD PUSH2 0x2944 JUMP JUMPDEST SWAP2 POP POP SWAP3 SWAP6 SWAP2 SWAP5 POP SWAP3 POP JUMP JUMPDEST PUSH1 0x0 DUP1 PUSH1 0x0 PUSH1 0x60 DUP5 DUP7 SUB SLT ISZERO PUSH2 0x2A86 JUMPI PUSH1 0x0 DUP1 REVERT JUMPDEST PUSH2 0x2A8F DUP5 PUSH2 0x283F JUMP JUMPDEST SWAP3 POP PUSH2 0x2A9D PUSH1 0x20 DUP6 ADD PUSH2 0x283F JUMP JUMPDEST SWAP2 POP PUSH1 0x40 DUP5 ADD CALLDATALOAD SWAP1 POP SWAP3 POP SWAP3 POP SWAP3 JUMP JUMPDEST PUSH1 0x0 DUP1 PUSH1 0x40 DUP4 DUP6 SUB SLT ISZERO PUSH2 0x2AC0 JUMPI PUSH1 0x0 DUP1 REVERT JUMPDEST POP POP DUP1 CALLDATALOAD SWAP3 PUSH1 0x20 SWAP1 SWAP2 ADD CALLDATALOAD SWAP2 POP JUMP JUMPDEST PUSH1 0x0 DUP1 PUSH1 0x40 DUP4 DUP6 SUB SLT ISZERO PUSH2 0x2AE2 JUMPI PUSH1 0x0 DUP1 REVERT JUMPDEST DUP3 CALLDATALOAD SWAP2 POP PUSH2 0x2AF2 PUSH1 0x20 DUP5 ADD PUSH2 0x283F JUMP JUMPDEST SWAP1 POP SWAP3 POP SWAP3 SWAP1 POP JUMP JUMPDEST PUSH1 0x0 DUP1 PUSH1 0x40 DUP4 DUP6 SUB SLT ISZERO PUSH2 0x2B0E JUMPI PUSH1 0x0 DUP1 REVERT JUMPDEST DUP3 CALLDATALOAD SWAP2 POP PUSH1 0x20 DUP4 ADD CALLDATALOAD PUSH8 0xFFFFFFFFFFFFFFFF DUP2 GT ISZERO PUSH2 0x2B2C JUMPI PUSH1 0x0 DUP1 REVERT JUMPDEST PUSH2 0x2B38 DUP6 DUP3 DUP7 ADD PUSH2 0x2924 JUMP JUMPDEST SWAP2 POP POP SWAP3 POP SWAP3 SWAP1 POP JUMP JUMPDEST PUSH1 0x0 DUP1 PUSH1 0x0 PUSH1 0x60 DUP5 DUP7 SUB SLT ISZERO PUSH2 0x2B57 JUMPI PUSH1 0x0 DUP1 REVERT JUMPDEST DUP4 CALLDATALOAD SWAP3 POP PUSH1 0x20 DUP5 ADD CALLDATALOAD PUSH8 0xFFFFFFFFFFFFFFFF DUP2 GT ISZERO PUSH2 0x2B75 JUMPI PUSH1 0x0 DUP1 REVERT JUMPDEST PUSH2 0x2B81 DUP7 DUP3 DUP8 ADD PUSH2 0x2924 JUMP JUMPDEST SWAP3 POP POP PUSH1 0x40 DUP5 ADD CALLDATALOAD SWAP1 POP SWAP3 POP SWAP3 POP SWAP3 JUMP JUMPDEST PUSH1 0x20 DUP2 MSTORE DUP2 MLOAD PUSH1 0x20 DUP3 ADD MSTORE PUSH1 0x0 PUSH1 0x20 DUP4 ADD MLOAD PUSH1 0x60 PUSH1 0x40 DUP5 ADD MSTORE PUSH2 0x2BB8 PUSH1 0x80 DUP5 ADD DUP3 PUSH2 0x27E7 JUMP JUMPDEST PUSH1 0x40 SWAP5 SWAP1 SWAP5 ADD MLOAD PUSH1 0x1 PUSH1 0x1 PUSH1 0xA0 SHL SUB AND PUSH1 0x60 SWAP4 SWAP1 SWAP4 ADD SWAP3 SWAP1 SWAP3 MSTORE POP SWAP1 SWAP2 SWAP1 POP JUMP JUMPDEST PUSH1 0x0 PUSH1 0x20 DUP3 DUP5 SUB SLT ISZERO PUSH2 0x2BEB JUMPI PUSH1 0x0 DUP1 REVERT JUMPDEST PUSH2 0xB98 DUP3 PUSH2 0x283F JUMP JUMPDEST PUSH1 0x0 DUP1 PUSH1 0x0 PUSH1 0x60 DUP5 DUP7 SUB SLT ISZERO PUSH2 0x2C09 JUMPI PUSH1 0x0 DUP1 REVERT JUMPDEST DUP4 CALLDATALOAD SWAP3 POP PUSH1 0x20 DUP5 ADD CALLDATALOAD SWAP2 POP PUSH2 0x2C20 PUSH1 0x40 DUP6 ADD PUSH2 0x283F JUMP JUMPDEST SWAP1 POP SWAP3 POP SWAP3 POP SWAP3 JUMP JUMPDEST PUSH1 0x0 DUP1 PUSH1 0x40 DUP4 DUP6 SUB SLT ISZERO PUSH2 0x2C3C JUMPI PUSH1 0x0 DUP1 REVERT JUMPDEST PUSH2 0x2C45 DUP4 PUSH2 0x283F JUMP JUMPDEST SWAP2 POP PUSH1 0x20 DUP4 ADD CALLDATALOAD DUP1 ISZERO ISZERO DUP2 EQ PUSH2 0x2C5A JUMPI PUSH1 0x0 DUP1 REVERT JUMPDEST DUP1 SWAP2 POP POP SWAP3 POP SWAP3 SWAP1 POP JUMP JUMPDEST PUSH1 0x0 PUSH1 0x20 DUP3 DUP5 SUB SLT ISZERO PUSH2 0x2C77 JUMPI PUSH1 0x0 DUP1 REVERT JUMPDEST DUP2 CALLDATALOAD PUSH8 0xFFFFFFFFFFFFFFFF DUP2 GT ISZERO PUSH2 0x2C8E JUMPI PUSH1 0x0 DUP1 REVERT JUMPDEST PUSH2 0xF6A DUP5 DUP3 DUP6 ADD PUSH2 0x2924 JUMP JUMPDEST DUP4 DUP2 MSTORE PUSH1 0x60 PUSH1 0x20 DUP3 ADD MSTORE PUSH1 0x0 PUSH2 0x2CB3 PUSH1 0x60 DUP4 ADD DUP6 PUSH2 0x27E7 JUMP JUMPDEST SWAP1 POP PUSH1 0x1 DUP1 PUSH1 0xA0 SHL SUB DUP4 AND PUSH1 0x40 DUP4 ADD MSTORE SWAP5 SWAP4 POP POP POP POP JUMP JUMPDEST PUSH1 0x0 DUP1 PUSH1 0x0 DUP1 PUSH1 0x80 DUP6 DUP8 SUB SLT ISZERO PUSH2 0x2CE1 JUMPI PUSH1 0x0 DUP1 REVERT JUMPDEST PUSH2 0x2CEA DUP6 PUSH2 0x283F JUMP JUMPDEST SWAP4 POP PUSH2 0x2CF8 PUSH1 0x20 DUP7 ADD PUSH2 0x283F JUMP JUMPDEST SWAP3 POP PUSH1 0x40 DUP6 ADD CALLDATALOAD SWAP2 POP PUSH1 0x60 DUP6 ADD CALLDATALOAD PUSH8 0xFFFFFFFFFFFFFFFF DUP2 GT ISZERO PUSH2 0x2D1B JUMPI PUSH1 0x0 DUP1 REVERT JUMPDEST DUP6 ADD PUSH1 0x1F DUP2 ADD DUP8 SGT PUSH2 0x2D2C JUMPI PUSH1 0x0 DUP1 REVERT JUMPDEST PUSH2 0x2A65 DUP8 DUP3 CALLDATALOAD PUSH1 0x20 DUP5 ADD PUSH2 0x28CC JUMP JUMPDEST PUSH1 0x0 DUP1 PUSH1 0x40 DUP4 DUP6 SUB SLT ISZERO PUSH2 0x2D4E JUMPI PUSH1 0x0 DUP1 REVERT JUMPDEST DUP3 CALLDATALOAD PUSH8 0xFFFFFFFFFFFFFFFF DUP2 GT ISZERO PUSH2 0x2D65 JUMPI PUSH1 0x0 DUP1 REVERT JUMPDEST PUSH2 0x2D71 DUP6 DUP3 DUP7 ADD PUSH2 0x2924 JUMP JUMPDEST SWAP6 PUSH1 0x20 SWAP5 SWAP1 SWAP5 ADD CALLDATALOAD SWAP5 POP POP POP POP JUMP JUMPDEST PUSH1 0x0 DUP1 PUSH1 0x40 DUP4 DUP6 SUB SLT ISZERO PUSH2 0x2D93 JUMPI PUSH1 0x0 DUP1 REVERT JUMPDEST PUSH2 0x2D9C DUP4 PUSH2 0x283F JUMP JUMPDEST SWAP2 POP PUSH2 0x2AF2 PUSH1 0x20 DUP5 ADD PUSH2 0x283F JUMP JUMPDEST PUSH1 0x0 DUP1 PUSH1 0x0 PUSH1 0x60 DUP5 DUP7 SUB SLT ISZERO PUSH2 0x2DBF JUMPI PUSH1 0x0 DUP1 REVERT JUMPDEST POP POP DUP2 CALLDATALOAD SWAP4 PUSH1 0x20 DUP4 ADD CALLDATALOAD SWAP4 POP PUSH1 0x40 SWAP1 SWAP3 ADD CALLDATALOAD SWAP2 SWAP1 POP JUMP JUMPDEST PUSH1 0x1 DUP2 DUP2 SHR SWAP1 DUP3 AND DUP1 PUSH2 0x2DEA JUMPI PUSH1 0x7F DUP3 AND SWAP2 POP JUMPDEST PUSH1 0x20 DUP3 LT DUP2 EQ ISZERO PUSH2 0x2E0B JUMPI PUSH4 0x4E487B71 PUSH1 0xE0 SHL PUSH1 0x0 MSTORE PUSH1 0x22 PUSH1 0x4 MSTORE PUSH1 0x24 PUSH1 0x0 REVERT JUMPDEST POP SWAP2 SWAP1 POP JUMP JUMPDEST PUSH1 0x0 DUP3 MLOAD PUSH2 0x2E23 DUP2 DUP5 PUSH1 0x20 DUP8 ADD PUSH2 0x27BB JUMP JUMPDEST SWAP2 SWAP1 SWAP2 ADD SWAP3 SWAP2 POP POP JUMP JUMPDEST PUSH4 0x4E487B71 PUSH1 0xE0 SHL PUSH1 0x0 MSTORE PUSH1 0x32 PUSH1 0x4 MSTORE PUSH1 0x24 PUSH1 0x0 REVERT JUMPDEST PUSH4 0x4E487B71 PUSH1 0xE0 SHL PUSH1 0x0 MSTORE PUSH1 0x11 PUSH1 0x4 MSTORE PUSH1 0x24 PUSH1 0x0 REVERT JUMPDEST PUSH1 0x0 PUSH1 0x0 NOT DUP3 EQ ISZERO PUSH2 0x2E6D JUMPI PUSH2 0x2E6D PUSH2 0x2E43 JUMP JUMPDEST POP PUSH1 0x1 ADD SWAP1 JUMP JUMPDEST PUSH1 0x20 DUP1 DUP3 MSTORE PUSH1 0x31 SWAP1 DUP3 ADD MSTORE PUSH32 0x4552433732313A207472616E736665722063616C6C6572206973206E6F74206F PUSH1 0x40 DUP3 ADD MSTORE PUSH17 0x1DDB995C881B9BDC88185C1C1C9BDD9959 PUSH1 0x7A SHL PUSH1 0x60 DUP3 ADD MSTORE PUSH1 0x80 ADD SWAP1 JUMP JUMPDEST PUSH1 0x20 DUP1 DUP3 MSTORE PUSH1 0x18 SWAP1 DUP3 ADD MSTORE PUSH32 0x696E73756666696369656E745F7065726D697373696F6E730000000000000000 PUSH1 0x40 DUP3 ADD MSTORE PUSH1 0x60 ADD SWAP1 JUMP JUMPDEST PUSH1 0x20 DUP1 DUP3 MSTORE PUSH1 0x10 SWAP1 DUP3 ADD MSTORE PUSH16 0x1B9BD91957DB9BDB995E1A5CDD195B9D PUSH1 0x82 SHL PUSH1 0x40 DUP3 ADD MSTORE PUSH1 0x60 ADD SWAP1 JUMP JUMPDEST PUSH1 0x0 DUP3 MLOAD PUSH2 0x2F38 DUP2 DUP5 PUSH1 0x20 DUP8 ADD PUSH2 0x27BB JUMP JUMPDEST PUSH14 0x17B6B2BA30B230BA30973539B7B7 PUSH1 0x91 SHL SWAP3 ADD SWAP2 DUP3 MSTORE POP PUSH1 0xE ADD SWAP2 SWAP1 POP JUMP JUMPDEST PUSH1 0x0 DUP3 DUP3 LT ISZERO PUSH2 0x2F6A JUMPI PUSH2 0x2F6A PUSH2 0x2E43 JUMP JUMPDEST POP SUB SWAP1 JUMP JUMPDEST PUSH1 0x0 DUP3 NOT DUP3 GT ISZERO PUSH2 0x2F82 JUMPI PUSH2 0x2F82 PUSH2 0x2E43 JUMP JUMPDEST POP ADD SWAP1 JUMP JUMPDEST PUSH1 0x20 DUP1 DUP3 MSTORE PUSH1 0x32 SWAP1 DUP3 ADD MSTORE PUSH32 0x4552433732313A207472616E7366657220746F206E6F6E204552433732315265 PUSH1 0x40 DUP3 ADD MSTORE PUSH18 0x31B2B4BB32B91034B6B83632B6B2B73A32B9 PUSH1 0x71 SHL PUSH1 0x60 DUP3 ADD MSTORE PUSH1 0x80 ADD SWAP1 JUMP JUMPDEST PUSH1 0x0 DUP4 MLOAD PUSH2 0x2FEB DUP2 DUP5 PUSH1 0x20 DUP9 ADD PUSH2 0x27BB JUMP JUMPDEST DUP4 MLOAD SWAP1 DUP4 ADD SWAP1 PUSH2 0x2FFF DUP2 DUP4 PUSH1 0x20 DUP9 ADD PUSH2 0x27BB JUMP JUMPDEST ADD SWAP5 SWAP4 POP POP POP POP JUMP JUMPDEST PUSH4 0x4E487B71 PUSH1 0xE0 SHL PUSH1 0x0 MSTORE PUSH1 0x31 PUSH1 0x4 MSTORE PUSH1 0x24 PUSH1 0x0 REVERT JUMPDEST PUSH1 0x1 PUSH1 0x1 PUSH1 0xA0 SHL SUB DUP6 DUP2 AND DUP3 MSTORE DUP5 AND PUSH1 0x20 DUP3 ADD MSTORE PUSH1 0x40 DUP2 ADD DUP4 SWAP1 MSTORE PUSH1 0x80 PUSH1 0x60 DUP3 ADD DUP2 SWAP1 MSTORE PUSH1 0x0 SWAP1 PUSH2 0x3051 SWAP1 DUP4 ADD DUP5 PUSH2 0x27E7 JUMP JUMPDEST SWAP7 SWAP6 POP POP POP POP POP POP JUMP JUMPDEST PUSH1 0x0 PUSH1 0x20 DUP3 DUP5 SUB SLT ISZERO PUSH2 0x306D JUMPI PUSH1 0x0 DUP1 REVERT JUMPDEST DUP2 MLOAD PUSH2 0xB98 DUP2 PUSH2 0x2788 JUMP JUMPDEST PUSH4 0x4E487B71 PUSH1 0xE0 SHL PUSH1 0x0 MSTORE PUSH1 0x12 PUSH1 0x4 MSTORE PUSH1 0x24 PUSH1 0x0 REVERT JUMPDEST PUSH1 0x0 DUP3 PUSH2 0x309D JUMPI PUSH2 0x309D PUSH2 0x3078 JUMP JUMPDEST POP DIV SWAP1 JUMP JUMPDEST PUSH1 0x0 DUP3 PUSH2 0x30B1 JUMPI PUSH2 0x30B1 PUSH2 0x3078 JUMP JUMPDEST POP MOD SWAP1 JUMP INVALID LOG2 PUSH5 0x6970667358 0x22 SLT KECCAK256 0xF6 0xC0 REVERT 0x29 CALLDATASIZE 0x1E 0xAE LOG1 PUSH21 0xBFDDD37F35B1F083EE3D47052E051E3E5C693BF038 PUSH28 0x9F64736F6C634300080C003300000000000000000000000000000000 "
        },
        "methodIdentifiers": {
          "ADMIN_ROLE()": "75b238fc",
          "EDITOR_ROLE()": "a853211a",
          "approve(address,uint256)": "095ea7b3",
          "balanceOf(address)": "70a08231",
          "burn(uint256)": "42966c68",
          "canEdit(uint256,address)": "3af7a723",
          "connectNodes(uint256,uint256)": "4ab37a82",
          "disconnectNodes(uint256,uint256)": "d2eefc58",
          "exists(uint256)": "4f558e79",
          "getApproved(uint256)": "081812fc",
          "getBacklinkedNodeCountForNodeByLabel(uint256,string)": "3f83c673",
          "getBacklinkedNodeForNodeByLabelAndIndex(uint256,string,uint256)": "dbe552d6",
          "getConnectedNodeCountForNodeByLabel(uint256,string)": "f18efc0f",
          "getConnectedNodeForNodeByLabelAndIndex(uint256,string,uint256)": "5ca7d7f4",
          "getNodeCountForLabel(string)": "aadf7e16",
          "getNodeForLabelAtIndex(string,uint256)": "dd33ce5d",
          "getRevision(uint256,uint256)": "6192e3e8",
          "getRevisionCount(uint256)": "959249f3",
          "getRoleMember(uint256,uint256,uint256)": "ff0810c7",
          "getRoleMemberCount(uint256,uint256)": "f9f5d7d4",
          "grantRole(uint256,uint256,address)": "eb31f4c5",
          "hasRole(uint256,uint256,address)": "ea559dc2",
          "isApprovedForAll(address,address)": "e985e9c5",
          "labelFor(uint256)": "16b3a087",
          "makeRevision(uint256,string)": "4b1d6a90",
          "mintNode(string,string,uint256[],uint256[])": "1aa720b1",
          "name()": "06fdde03",
          "ownerOf(uint256)": "6352211e",
          "renounceRole(uint256,uint256)": "3aa817cc",
          "revisions(uint256,uint256)": "b2dcc623",
          "revokeRole(uint256,uint256,address)": "9cb99aba",
          "safeTransferFrom(address,address,uint256)": "42842e0e",
          "safeTransferFrom(address,address,uint256,bytes)": "b88d4fde",
          "setApprovalForAll(address,bool)": "a22cb465",
          "supportsInterface(bytes4)": "01ffc9a7",
          "symbol()": "95d89b41",
          "tokenByIndex(uint256)": "4f6ccce7",
          "tokenOfOwnerByIndex(address,uint256)": "2f745c59",
          "tokenURI(uint256)": "c87b56dd",
          "totalSupply()": "18160ddd",
          "transferFrom(address,address,uint256)": "23b872dd"
        }
      }
    }
  }
}