{
  "_format": "hh-sol-artifact-1",
  "contractName": "Plane",
  "sourceName": "contracts/src/Plane.sol",
  "abi": [
    {
      "inputs": [
        {
          "internalType": "address",
          "name": "_graphsAddress",
          "type": "address"
        },
        {
          "internalType": "address",
          "name": "_topicsAddress",
          "type": "address"
        },
        {
          "internalType": "address",
          "name": "_documentsAddress",
          "type": "address"
        }
      ],
      "stateMutability": "nonpayable",
      "type": "constructor"
    },
    {
      "inputs": [],
      "name": "DocumentModel",
      "outputs": [
        {
          "internalType": "contract Document",
          "name": "",
          "type": "address"
        }
      ],
      "stateMutability": "view",
      "type": "function"
    },
    {
      "inputs": [],
      "name": "GraphModel",
      "outputs": [
        {
          "internalType": "contract Graph",
          "name": "",
          "type": "address"
        }
      ],
      "stateMutability": "view",
      "type": "function"
    },
    {
      "inputs": [],
      "name": "TopicModel",
      "outputs": [
        {
          "internalType": "contract Topic",
          "name": "",
          "type": "address"
        }
      ],
      "stateMutability": "view",
      "type": "function"
    },
    {
      "inputs": [
        {
          "internalType": "uint256",
          "name": "documentId",
          "type": "uint256"
        },
        {
          "internalType": "uint256",
          "name": "topicId",
          "type": "uint256"
        }
      ],
      "name": "addDocumentTopic",
      "outputs": [],
      "stateMutability": "nonpayable",
      "type": "function"
    },
    {
      "inputs": [
        {
          "internalType": "uint256",
          "name": "graphId",
          "type": "uint256"
        },
        {
          "internalType": "uint256",
          "name": "topicId",
          "type": "uint256"
        }
      ],
      "name": "addGraphTopic",
      "outputs": [],
      "stateMutability": "nonpayable",
      "type": "function"
    },
    {
      "inputs": [
        {
          "internalType": "uint256",
          "name": "topicId",
          "type": "uint256"
        }
      ],
      "name": "getDocumentCountForTopic",
      "outputs": [
        {
          "internalType": "uint256",
          "name": "",
          "type": "uint256"
        }
      ],
      "stateMutability": "view",
      "type": "function"
    },
    {
      "inputs": [
        {
          "internalType": "uint256",
          "name": "topicId",
          "type": "uint256"
        },
        {
          "internalType": "uint256",
          "name": "documentIndex",
          "type": "uint256"
        }
      ],
      "name": "getDocumentForTopic",
      "outputs": [
        {
          "internalType": "uint256",
          "name": "",
          "type": "uint256"
        }
      ],
      "stateMutability": "view",
      "type": "function"
    },
    {
      "inputs": [
        {
          "internalType": "uint256",
          "name": "topicId",
          "type": "uint256"
        }
      ],
      "name": "getGraphCountForTopic",
      "outputs": [
        {
          "internalType": "uint256",
          "name": "",
          "type": "uint256"
        }
      ],
      "stateMutability": "view",
      "type": "function"
    },
    {
      "inputs": [
        {
          "internalType": "uint256",
          "name": "topicId",
          "type": "uint256"
        },
        {
          "internalType": "uint256",
          "name": "graphIndex",
          "type": "uint256"
        }
      ],
      "name": "getGraphForTopic",
      "outputs": [
        {
          "internalType": "uint256",
          "name": "",
          "type": "uint256"
        }
      ],
      "stateMutability": "view",
      "type": "function"
    },
    {
      "inputs": [
        {
          "internalType": "uint256",
          "name": "documentId",
          "type": "uint256"
        }
      ],
      "name": "getTopicCountForDocument",
      "outputs": [
        {
          "internalType": "uint256",
          "name": "",
          "type": "uint256"
        }
      ],
      "stateMutability": "view",
      "type": "function"
    },
    {
      "inputs": [
        {
          "internalType": "uint256",
          "name": "graphId",
          "type": "uint256"
        }
      ],
      "name": "getTopicCountForGraph",
      "outputs": [
        {
          "internalType": "uint256",
          "name": "",
          "type": "uint256"
        }
      ],
      "stateMutability": "view",
      "type": "function"
    },
    {
      "inputs": [
        {
          "internalType": "uint256",
          "name": "documentId",
          "type": "uint256"
        },
        {
          "internalType": "uint256",
          "name": "topicIndex",
          "type": "uint256"
        }
      ],
      "name": "getTopicForDocument",
      "outputs": [
        {
          "internalType": "uint256",
          "name": "",
          "type": "uint256"
        }
      ],
      "stateMutability": "view",
      "type": "function"
    },
    {
      "inputs": [
        {
          "internalType": "uint256",
          "name": "graphId",
          "type": "uint256"
        },
        {
          "internalType": "uint256",
          "name": "topicIndex",
          "type": "uint256"
        }
      ],
      "name": "getTopicForGraph",
      "outputs": [
        {
          "internalType": "uint256",
          "name": "",
          "type": "uint256"
        }
      ],
      "stateMutability": "view",
      "type": "function"
    },
    {
      "inputs": [
        {
          "internalType": "uint256",
          "name": "documentId",
          "type": "uint256"
        },
        {
          "internalType": "uint256",
          "name": "topicId",
          "type": "uint256"
        }
      ],
      "name": "removeDocumentTopic",
      "outputs": [],
      "stateMutability": "nonpayable",
      "type": "function"
    },
    {
      "inputs": [
        {
          "internalType": "uint256",
          "name": "graphId",
          "type": "uint256"
        },
        {
          "internalType": "uint256",
          "name": "topicId",
          "type": "uint256"
        }
      ],
      "name": "removeGraphTopic",
      "outputs": [],
      "stateMutability": "nonpayable",
      "type": "function"
    }
  ],
  "bytecode": "0x608060405234801561001057600080fd5b50604051610c95380380610c9583398101604081905261002f9161008d565b600080546001600160a01b039485166001600160a01b0319918216179091556001805493851693821693909317909255600280549190931691161790556100d0565b80516001600160a01b038116811461008857600080fd5b919050565b6000806000606084860312156100a257600080fd5b6100ab84610071565b92506100b960208501610071565b91506100c760408501610071565b90509250925092565b610bb6806100df6000396000f3fe608060405234801561001057600080fd5b50600436106100f45760003560e01c80637461534a11610097578063c43ffce311610066578063c43ffce3146101f7578063d86b89c41461020a578063f22644db1461021d578063f505f2d51461023057600080fd5b80637461534a146101ab578063824fbc13146101be578063a5f3b9cd146101d1578063ad1ad69e146101e457600080fd5b806339cbae75116100d357806339cbae7514610147578063410f650414610172578063475ca4651461018557806354e9fcd41461019857600080fd5b8062ebcec2146100f95780630c883c7f1461011f5780632133ab2814610132575b600080fd5b61010c610107366004610a9b565b610243565b6040519081526020015b60405180910390f35b61010c61012d366004610a9b565b610260565b610145610140366004610ab4565b610277565b005b60015461015a906001600160a01b031681565b6040516001600160a01b039091168152602001610116565b61010c610180366004610ab4565b6104ac565b61010c610193366004610a9b565b6104cb565b61010c6101a6366004610ab4565b6104e2565b60005461015a906001600160a01b031681565b61010c6101cc366004610ab4565b6104fa565b60025461015a906001600160a01b031681565b6101456101f2366004610ab4565b610512565b61010c610205366004610ab4565b6105e0565b610145610218366004610ab4565b6105f8565b61014561022b366004610ab4565b610820565b61010c61023e366004610a9b565b6108ee565b600081815260036020526040812061025a90610901565b92915050565b600081815260066020526040812061025a90610901565b600254604051634f558e7960e01b8152600481018490526001600160a01b0390911690634f558e7990602401602060405180830381865afa1580156102c0573d6000803e3d6000fd5b505050506040513d601f19601f820116820180604052508101906102e49190610ad6565b61032c5760405162461bcd60e51b8152602060048201526014602482015273191bd8dd5b595b9d17db9bdb995e1a5cdd195b9d60621b60448201526064015b60405180910390fd5b600154604051634f558e7960e01b8152600481018390526001600160a01b0390911690634f558e7990602401602060405180830381865afa158015610375573d6000803e3d6000fd5b505050506040513d601f19601f820116820180604052508101906103999190610ad6565b6103d95760405162461bcd60e51b81526020600482015260116024820152701d1bdc1a58d7db9bdb995e1a5cdd195b9d607a1b6044820152606401610323565b6002546001600160a01b0316633af7a72383336040516001600160e01b031960e085901b16815260048101929092526001600160a01b03166024820152604401602060405180830381865afa158015610436573d6000803e3d6000fd5b505050506040513d601f19601f8201168201806040525081019061045a9190610ad6565b6104765760405162461bcd60e51b815260040161032390610af8565b600082815260056020526040902061048e908261090b565b5060008181526006602052604090206104a7908361090b565b505050565b60008281526004602052604081206104c49083610917565b9392505050565b600081815260056020526040812061025a90610901565b60008281526006602052604081206104c49083610917565b60008281526005602052604081206104c49083610917565b6000546001600160a01b0316633af7a72383336040516001600160e01b031960e085901b16815260048101929092526001600160a01b03166024820152604401602060405180830381865afa15801561056f573d6000803e3d6000fd5b505050506040513d601f19601f820116820180604052508101906105939190610ad6565b6105af5760405162461bcd60e51b815260040161032390610af8565b60008281526003602052604090206105c79082610923565b5060008181526004602052604090206104a79083610923565b60008281526003602052604081206104c49083610917565b600054604051634f558e7960e01b8152600481018490526001600160a01b0390911690634f558e7990602401602060405180830381865afa158015610641573d6000803e3d6000fd5b505050506040513d601f19601f820116820180604052508101906106659190610ad6565b6106a55760405162461bcd60e51b815260206004820152601160248201527019dc985c1a17db9bdb995e1a5cdd195b9d607a1b6044820152606401610323565b600154604051634f558e7960e01b8152600481018390526001600160a01b0390911690634f558e7990602401602060405180830381865afa1580156106ee573d6000803e3d6000fd5b505050506040513d601f19601f820116820180604052508101906107129190610ad6565b6107525760405162461bcd60e51b81526020600482015260116024820152701d1bdc1a58d7db9bdb995e1a5cdd195b9d607a1b6044820152606401610323565b6000546001600160a01b0316633af7a72383336040516001600160e01b031960e085901b16815260048101929092526001600160a01b03166024820152604401602060405180830381865afa1580156107af573d6000803e3d6000fd5b505050506040513d601f19601f820116820180604052508101906107d39190610ad6565b6107ef5760405162461bcd60e51b815260040161032390610af8565b6000828152600360205260409020610807908261090b565b5060008181526004602052604090206104a7908361090b565b6002546001600160a01b0316633af7a72383336040516001600160e01b031960e085901b16815260048101929092526001600160a01b03166024820152604401602060405180830381865afa15801561087d573d6000803e3d6000fd5b505050506040513d601f19601f820116820180604052508101906108a19190610ad6565b6108bd5760405162461bcd60e51b815260040161032390610af8565b60008281526005602052604090206108d59082610923565b5060008181526006602052604090206104a79083610923565b600081815260046020526040812061025a905b600061025a825490565b60006104c4838361092f565b60006104c4838361097e565b60006104c483836109a8565b60008181526001830160205260408120546109765750815460018181018455600084815260208082209093018490558454848252828601909352604090209190915561025a565b50600061025a565b600082600001828154811061099557610995610b2f565b9060005260206000200154905092915050565b60008181526001830160205260408120548015610a915760006109cc600183610b45565b85549091506000906109e090600190610b45565b9050818114610a45576000866000018281548110610a0057610a00610b2f565b9060005260206000200154905080876000018481548110610a2357610a23610b2f565b6000918252602080832090910192909255918252600188019052604090208390555b8554869080610a5657610a56610b6a565b60019003818190600052602060002001600090559055856001016000868152602001908152602001600020600090556001935050505061025a565b600091505061025a565b600060208284031215610aad57600080fd5b5035919050565b60008060408385031215610ac757600080fd5b50508035926020909101359150565b600060208284031215610ae857600080fd5b815180151581146104c457600080fd5b60208082526018908201527f696e73756666696369656e745f7065726d697373696f6e730000000000000000604082015260600190565b634e487b7160e01b600052603260045260246000fd5b600082821015610b6557634e487b7160e01b600052601160045260246000fd5b500390565b634e487b7160e01b600052603160045260246000fdfea2646970667358221220c4454605fe5760d831cbe30f34db06d446e56449dae393e692dfd40780bc409464736f6c634300080c0033",
  "linkReferences": {},
  "deployedLinkReferences": {}
}