{
  "_format": "hh-sol-artifact-1",
  "contractName": "Topic",
  "sourceName": "contracts/src/Topic.sol",
  "abi": [
    {
      "inputs": [],
      "stateMutability": "nonpayable",
      "type": "constructor"
    },
    {
      "anonymous": false,
      "inputs": [
        {
          "indexed": true,
          "internalType": "address",
          "name": "owner",
          "type": "address"
        },
        {
          "indexed": true,
          "internalType": "address",
          "name": "approved",
          "type": "address"
        },
        {
          "indexed": true,
          "internalType": "uint256",
          "name": "tokenId",
          "type": "uint256"
        }
      ],
      "name": "Approval",
      "type": "event"
    },
    {
      "anonymous": false,
      "inputs": [
        {
          "indexed": true,
          "internalType": "address",
          "name": "owner",
          "type": "address"
        },
        {
          "indexed": true,
          "internalType": "address",
          "name": "operator",
          "type": "address"
        },
        {
          "indexed": false,
          "internalType": "bool",
          "name": "approved",
          "type": "bool"
        }
      ],
      "name": "ApprovalForAll",
      "type": "event"
    },
    {
      "anonymous": false,
      "inputs": [
        {
          "indexed": false,
          "internalType": "uint256",
          "name": "tokenId",
          "type": "uint256"
        },
        {
          "indexed": true,
          "internalType": "uint256",
          "name": "role",
          "type": "uint256"
        },
        {
          "indexed": true,
          "internalType": "address",
          "name": "account",
          "type": "address"
        },
        {
          "indexed": true,
          "internalType": "address",
          "name": "sender",
          "type": "address"
        }
      ],
      "name": "RoleGranted",
      "type": "event"
    },
    {
      "anonymous": false,
      "inputs": [
        {
          "indexed": false,
          "internalType": "uint256",
          "name": "tokenId",
          "type": "uint256"
        },
        {
          "indexed": true,
          "internalType": "uint256",
          "name": "role",
          "type": "uint256"
        },
        {
          "indexed": true,
          "internalType": "address",
          "name": "account",
          "type": "address"
        },
        {
          "indexed": true,
          "internalType": "address",
          "name": "sender",
          "type": "address"
        }
      ],
      "name": "RoleRevoked",
      "type": "event"
    },
    {
      "anonymous": false,
      "inputs": [
        {
          "indexed": true,
          "internalType": "address",
          "name": "from",
          "type": "address"
        },
        {
          "indexed": true,
          "internalType": "address",
          "name": "to",
          "type": "address"
        },
        {
          "indexed": true,
          "internalType": "uint256",
          "name": "tokenId",
          "type": "uint256"
        }
      ],
      "name": "Transfer",
      "type": "event"
    },
    {
      "inputs": [],
      "name": "ADMIN_ROLE",
      "outputs": [
        {
          "internalType": "uint256",
          "name": "",
          "type": "uint256"
        }
      ],
      "stateMutability": "view",
      "type": "function"
    },
    {
      "inputs": [],
      "name": "EDITOR_ROLE",
      "outputs": [
        {
          "internalType": "uint256",
          "name": "",
          "type": "uint256"
        }
      ],
      "stateMutability": "view",
      "type": "function"
    },
    {
      "inputs": [
        {
          "internalType": "address",
          "name": "to",
          "type": "address"
        },
        {
          "internalType": "uint256",
          "name": "tokenId",
          "type": "uint256"
        }
      ],
      "name": "approve",
      "outputs": [],
      "stateMutability": "nonpayable",
      "type": "function"
    },
    {
      "inputs": [
        {
          "internalType": "address",
          "name": "owner",
          "type": "address"
        }
      ],
      "name": "balanceOf",
      "outputs": [
        {
          "internalType": "uint256",
          "name": "",
          "type": "uint256"
        }
      ],
      "stateMutability": "view",
      "type": "function"
    },
    {
      "inputs": [
        {
          "internalType": "uint256",
          "name": "tokenId",
          "type": "uint256"
        }
      ],
      "name": "burn",
      "outputs": [],
      "stateMutability": "nonpayable",
      "type": "function"
    },
    {
      "inputs": [
        {
          "internalType": "uint256",
          "name": "tokenId",
          "type": "uint256"
        },
        {
          "internalType": "address",
          "name": "account",
          "type": "address"
        }
      ],
      "name": "canEdit",
      "outputs": [
        {
          "internalType": "bool",
          "name": "",
          "type": "bool"
        }
      ],
      "stateMutability": "view",
      "type": "function"
    },
    {
      "inputs": [
        {
          "internalType": "uint256",
          "name": "tokenId",
          "type": "uint256"
        }
      ],
      "name": "exists",
      "outputs": [
        {
          "internalType": "bool",
          "name": "",
          "type": "bool"
        }
      ],
      "stateMutability": "view",
      "type": "function"
    },
    {
      "inputs": [
        {
          "internalType": "uint256",
          "name": "tokenId",
          "type": "uint256"
        }
      ],
      "name": "getApproved",
      "outputs": [
        {
          "internalType": "address",
          "name": "",
          "type": "address"
        }
      ],
      "stateMutability": "view",
      "type": "function"
    },
    {
      "inputs": [
        {
          "internalType": "uint256",
          "name": "tokenId",
          "type": "uint256"
        },
        {
          "internalType": "uint256",
          "name": "index",
          "type": "uint256"
        }
      ],
      "name": "getRevision",
      "outputs": [
        {
          "components": [
            {
              "internalType": "uint256",
              "name": "timestamp",
              "type": "uint256"
            },
            {
              "internalType": "string",
              "name": "hash",
              "type": "string"
            }
          ],
          "internalType": "struct Base.Revision",
          "name": "",
          "type": "tuple"
        }
      ],
      "stateMutability": "view",
      "type": "function"
    },
    {
      "inputs": [
        {
          "internalType": "uint256",
          "name": "tokenId",
          "type": "uint256"
        }
      ],
      "name": "getRevisionCount",
      "outputs": [
        {
          "internalType": "uint256",
          "name": "",
          "type": "uint256"
        }
      ],
      "stateMutability": "view",
      "type": "function"
    },
    {
      "inputs": [
        {
          "internalType": "uint256",
          "name": "tokenId",
          "type": "uint256"
        },
        {
          "internalType": "uint256",
          "name": "role",
          "type": "uint256"
        },
        {
          "internalType": "uint256",
          "name": "index",
          "type": "uint256"
        }
      ],
      "name": "getRoleMember",
      "outputs": [
        {
          "internalType": "address",
          "name": "",
          "type": "address"
        }
      ],
      "stateMutability": "view",
      "type": "function"
    },
    {
      "inputs": [
        {
          "internalType": "uint256",
          "name": "tokenId",
          "type": "uint256"
        },
        {
          "internalType": "uint256",
          "name": "role",
          "type": "uint256"
        }
      ],
      "name": "getRoleMemberCount",
      "outputs": [
        {
          "internalType": "uint256",
          "name": "",
          "type": "uint256"
        }
      ],
      "stateMutability": "view",
      "type": "function"
    },
    {
      "inputs": [
        {
          "internalType": "uint256",
          "name": "tokenId",
          "type": "uint256"
        },
        {
          "internalType": "uint256",
          "name": "role",
          "type": "uint256"
        },
        {
          "internalType": "address",
          "name": "account",
          "type": "address"
        }
      ],
      "name": "grantRole",
      "outputs": [],
      "stateMutability": "nonpayable",
      "type": "function"
    },
    {
      "inputs": [
        {
          "internalType": "uint256",
          "name": "tokenId",
          "type": "uint256"
        },
        {
          "internalType": "uint256",
          "name": "role",
          "type": "uint256"
        },
        {
          "internalType": "address",
          "name": "account",
          "type": "address"
        }
      ],
      "name": "hasRole",
      "outputs": [
        {
          "internalType": "bool",
          "name": "",
          "type": "bool"
        }
      ],
      "stateMutability": "view",
      "type": "function"
    },
    {
      "inputs": [
        {
          "internalType": "address",
          "name": "owner",
          "type": "address"
        },
        {
          "internalType": "address",
          "name": "operator",
          "type": "address"
        }
      ],
      "name": "isApprovedForAll",
      "outputs": [
        {
          "internalType": "bool",
          "name": "",
          "type": "bool"
        }
      ],
      "stateMutability": "view",
      "type": "function"
    },
    {
      "inputs": [
        {
          "internalType": "uint256",
          "name": "tokenId",
          "type": "uint256"
        },
        {
          "internalType": "string",
          "name": "hash",
          "type": "string"
        }
      ],
      "name": "makeRevision",
      "outputs": [],
      "stateMutability": "nonpayable",
      "type": "function"
    },
    {
      "inputs": [
        {
          "internalType": "string",
          "name": "hash",
          "type": "string"
        }
      ],
      "name": "mint",
      "outputs": [
        {
          "internalType": "uint256",
          "name": "",
          "type": "uint256"
        }
      ],
      "stateMutability": "nonpayable",
      "type": "function"
    },
    {
      "inputs": [],
      "name": "name",
      "outputs": [
        {
          "internalType": "string",
          "name": "",
          "type": "string"
        }
      ],
      "stateMutability": "view",
      "type": "function"
    },
    {
      "inputs": [
        {
          "internalType": "uint256",
          "name": "tokenId",
          "type": "uint256"
        }
      ],
      "name": "ownerOf",
      "outputs": [
        {
          "internalType": "address",
          "name": "",
          "type": "address"
        }
      ],
      "stateMutability": "view",
      "type": "function"
    },
    {
      "inputs": [
        {
          "internalType": "uint256",
          "name": "tokenId",
          "type": "uint256"
        },
        {
          "internalType": "uint256",
          "name": "role",
          "type": "uint256"
        }
      ],
      "name": "renounceRole",
      "outputs": [],
      "stateMutability": "nonpayable",
      "type": "function"
    },
    {
      "inputs": [
        {
          "internalType": "uint256",
          "name": "",
          "type": "uint256"
        },
        {
          "internalType": "uint256",
          "name": "",
          "type": "uint256"
        }
      ],
      "name": "revisions",
      "outputs": [
        {
          "internalType": "uint256",
          "name": "timestamp",
          "type": "uint256"
        },
        {
          "internalType": "string",
          "name": "hash",
          "type": "string"
        }
      ],
      "stateMutability": "view",
      "type": "function"
    },
    {
      "inputs": [
        {
          "internalType": "uint256",
          "name": "tokenId",
          "type": "uint256"
        },
        {
          "internalType": "uint256",
          "name": "role",
          "type": "uint256"
        },
        {
          "internalType": "address",
          "name": "account",
          "type": "address"
        }
      ],
      "name": "revokeRole",
      "outputs": [],
      "stateMutability": "nonpayable",
      "type": "function"
    },
    {
      "inputs": [
        {
          "internalType": "address",
          "name": "from",
          "type": "address"
        },
        {
          "internalType": "address",
          "name": "to",
          "type": "address"
        },
        {
          "internalType": "uint256",
          "name": "tokenId",
          "type": "uint256"
        }
      ],
      "name": "safeTransferFrom",
      "outputs": [],
      "stateMutability": "nonpayable",
      "type": "function"
    },
    {
      "inputs": [
        {
          "internalType": "address",
          "name": "from",
          "type": "address"
        },
        {
          "internalType": "address",
          "name": "to",
          "type": "address"
        },
        {
          "internalType": "uint256",
          "name": "tokenId",
          "type": "uint256"
        },
        {
          "internalType": "bytes",
          "name": "_data",
          "type": "bytes"
        }
      ],
      "name": "safeTransferFrom",
      "outputs": [],
      "stateMutability": "nonpayable",
      "type": "function"
    },
    {
      "inputs": [
        {
          "internalType": "address",
          "name": "operator",
          "type": "address"
        },
        {
          "internalType": "bool",
          "name": "approved",
          "type": "bool"
        }
      ],
      "name": "setApprovalForAll",
      "outputs": [],
      "stateMutability": "nonpayable",
      "type": "function"
    },
    {
      "inputs": [
        {
          "internalType": "bytes4",
          "name": "interfaceId",
          "type": "bytes4"
        }
      ],
      "name": "supportsInterface",
      "outputs": [
        {
          "internalType": "bool",
          "name": "",
          "type": "bool"
        }
      ],
      "stateMutability": "view",
      "type": "function"
    },
    {
      "inputs": [],
      "name": "symbol",
      "outputs": [
        {
          "internalType": "string",
          "name": "",
          "type": "string"
        }
      ],
      "stateMutability": "view",
      "type": "function"
    },
    {
      "inputs": [
        {
          "internalType": "uint256",
          "name": "index",
          "type": "uint256"
        }
      ],
      "name": "tokenByIndex",
      "outputs": [
        {
          "internalType": "uint256",
          "name": "",
          "type": "uint256"
        }
      ],
      "stateMutability": "view",
      "type": "function"
    },
    {
      "inputs": [
        {
          "internalType": "address",
          "name": "owner",
          "type": "address"
        },
        {
          "internalType": "uint256",
          "name": "index",
          "type": "uint256"
        }
      ],
      "name": "tokenOfOwnerByIndex",
      "outputs": [
        {
          "internalType": "uint256",
          "name": "",
          "type": "uint256"
        }
      ],
      "stateMutability": "view",
      "type": "function"
    },
    {
      "inputs": [
        {
          "internalType": "uint256",
          "name": "tokenId",
          "type": "uint256"
        }
      ],
      "name": "tokenURI",
      "outputs": [
        {
          "internalType": "string",
          "name": "",
          "type": "string"
        }
      ],
      "stateMutability": "view",
      "type": "function"
    },
    {
      "inputs": [],
      "name": "totalSupply",
      "outputs": [
        {
          "internalType": "uint256",
          "name": "",
          "type": "uint256"
        }
      ],
      "stateMutability": "view",
      "type": "function"
    },
    {
      "inputs": [
        {
          "internalType": "address",
          "name": "from",
          "type": "address"
        },
        {
          "internalType": "address",
          "name": "to",
          "type": "address"
        },
        {
          "internalType": "uint256",
          "name": "tokenId",
          "type": "uint256"
        }
      ],
      "name": "transferFrom",
      "outputs": [],
      "stateMutability": "nonpayable",
      "type": "function"
    }
  ],
  "bytecode": "0x60806040523480156200001157600080fd5b5060405180604001604052806005815260200164546f70696360d81b81525060405180604001604052806005815260200164544f50494360d81b81525081600090805190602001906200006692919062000085565b5080516200007c90600190602084019062000085565b50505062000168565b82805462000093906200012b565b90600052602060002090601f016020900481019282620000b7576000855562000102565b82601f10620000d257805160ff191683800117855562000102565b8280016001018555821562000102579182015b8281111562000102578251825591602001919060010190620000e5565b506200011092915062000114565b5090565b5b8082111562000110576000815560010162000115565b600181811c908216806200014057607f821691505b602082108114156200016257634e487b7160e01b600052602260045260246000fd5b50919050565b61283680620001786000396000f3fe608060405234801561001057600080fd5b50600436106101f05760003560e01c806370a082311161010f578063b88d4fde116100a2578063ea559dc211610071578063ea559dc214610469578063eb31f4c51461047c578063f9f5d7d41461048f578063ff0810c7146104a257600080fd5b8063b88d4fde146103f4578063c87b56dd14610407578063d85d3d271461041a578063e985e9c51461042d57600080fd5b80639cb99aba116100de5780639cb99aba146103a5578063a22cb465146103b8578063a853211a146103cb578063b2dcc623146103d357600080fd5b806370a082311461036257806375b238fc14610375578063959249f31461037d57806395d89b411461039d57600080fd5b80633af7a723116101875780634f558e79116101565780634f558e79146103095780634f6ccce71461031c5780636192e3e81461032f5780636352211e1461034f57600080fd5b80633af7a723146102bd57806342842e0e146102d057806342966c68146102e35780634b1d6a90146102f657600080fd5b806318160ddd116101c357806318160ddd1461027257806323b872dd146102845780632f745c59146102975780633aa817cc146102aa57600080fd5b806301ffc9a7146101f557806306fdde031461021d578063081812fc14610232578063095ea7b31461025d575b600080fd5b610208610203366004612168565b6104b5565b60405190151581526020015b60405180910390f35b6102256104c6565b60405161021491906121dd565b6102456102403660046121f0565b610558565b6040516001600160a01b039091168152602001610214565b61027061026b366004612225565b6105e5565b005b6008545b604051908152602001610214565b61027061029236600461224f565b6106fb565b6102766102a5366004612225565b61072d565b6102706102b836600461228b565b6107c3565b6102086102cb3660046122ad565b610856565b6102706102de36600461224f565b61087d565b6102706102f13660046121f0565b610898565b610270610304366004612385565b610912565b6102086103173660046121f0565b61097d565b61027661032a3660046121f0565b610988565b61034261033d36600461228b565b610a1b565b60405161021491906123cc565b61024561035d3660046121f0565b610b0d565b6102766103703660046123f1565b610b84565b610276600081565b61027661038b3660046121f0565b6000908152600e602052604090205490565b610225610c0b565b6102706103b336600461240c565b610c1a565b6102706103c6366004612441565b610ccd565b610276600181565b6103e66103e136600461228b565b610cdc565b60405161021492919061247d565b610270610402366004612496565b610da5565b6102256104153660046121f0565b610ddd565b610276610428366004612512565b610e0e565b61020861043b366004612547565b6001600160a01b03918216600090815260056020908152604080832093909416825291909152205460ff1690565b61020861047736600461240c565b610ea2565b61027061048a36600461240c565b610ed4565b61027661049d36600461228b565b610f9e565b6102456104b0366004612571565b610fc0565b60006104c082610feb565b92915050565b6060600080546104d59061259d565b80601f01602080910402602001604051908101604052809291908181526020018280546105019061259d565b801561054e5780601f106105235761010080835404028352916020019161054e565b820191906000526020600020905b81548152906001019060200180831161053157829003601f168201915b5050505050905090565b600061056382611010565b6105c95760405162461bcd60e51b815260206004820152602c60248201527f4552433732313a20617070726f76656420717565727920666f72206e6f6e657860448201526b34b9ba32b73a103a37b5b2b760a11b60648201526084015b60405180910390fd5b506000908152600460205260409020546001600160a01b031690565b60006105f082610b0d565b9050806001600160a01b0316836001600160a01b0316141561065e5760405162461bcd60e51b815260206004820152602160248201527f4552433732313a20617070726f76616c20746f2063757272656e74206f776e656044820152603960f91b60648201526084016105c0565b336001600160a01b038216148061067a575061067a813361043b565b6106ec5760405162461bcd60e51b815260206004820152603860248201527f4552433732313a20617070726f76652063616c6c6572206973206e6f74206f7760448201527f6e6572206e6f7220617070726f76656420666f7220616c6c000000000000000060648201526084016105c0565b6106f6838361102d565b505050565b610706335b8261109b565b6107225760405162461bcd60e51b81526004016105c0906125d8565b6106f6838383611181565b600061073883610b84565b821061079a5760405162461bcd60e51b815260206004820152602b60248201527f455243373231456e756d657261626c653a206f776e657220696e646578206f7560448201526a74206f6620626f756e647360a81b60648201526084016105c0565b506001600160a01b03919091166000908152600660209081526040808320938352929052205490565b6107ce828233610ea2565b15610833576000828152600c6020908152604080832084845282528083203380855290835292819020805460ff1916905551848152829184917f743dd6de0118c934baddbf165685269ac4f51fe0780281fdb64ea7ca8746ceff910160405180910390a45b6106f6336000848152600d60209081526040808320868452909152902090611328565b600061086483600084610ea2565b80610876575061087683600184610ea2565b9392505050565b6106f683838360405180602001604052806000815250610da5565b6108a133610700565b6109065760405162461bcd60e51b815260206004820152603060248201527f4552433732314275726e61626c653a2063616c6c6572206973206e6f74206f7760448201526f1b995c881b9bdc88185c1c1c9bdd995960821b60648201526084016105c0565b61090f8161133d565b50565b8161091d8133611346565b6000838152600e6020908152604080832081518083019092524282528183018681528154600181810184559286529484902083516002909602019485555180519294936109709392850192910190612083565b5050506106f68383611397565b60006104c082611010565b600061099360085490565b82106109f65760405162461bcd60e51b815260206004820152602c60248201527f455243373231456e756d657261626c653a20676c6f62616c20696e646578206f60448201526b7574206f6620626f756e647360a01b60648201526084016105c0565b60088281548110610a0957610a09612629565b90600052602060002001549050919050565b6040805180820190915260008152606060208201526000838152600e60205260409020805483908110610a5057610a50612629565b906000526020600020906002020160405180604001604052908160008201548152602001600182018054610a839061259d565b80601f0160208091040260200160405190810160405280929190818152602001828054610aaf9061259d565b8015610afc5780601f10610ad157610100808354040283529160200191610afc565b820191906000526020600020905b815481529060010190602001808311610adf57829003601f168201915b505050505081525050905092915050565b6000818152600260205260408120546001600160a01b0316806104c05760405162461bcd60e51b815260206004820152602960248201527f4552433732313a206f776e657220717565727920666f72206e6f6e657869737460448201526832b73a103a37b5b2b760b91b60648201526084016105c0565b60006001600160a01b038216610bef5760405162461bcd60e51b815260206004820152602a60248201527f4552433732313a2062616c616e636520717565727920666f7220746865207a65604482015269726f206164647265737360b01b60648201526084016105c0565b506001600160a01b031660009081526003602052604090205490565b6060600180546104d59061259d565b826000610c28828233611422565b610c33858585610ea2565b15610ca2576000858152600c6020908152604080832087845282528083206001600160a01b03871680855290835292819020805460ff191690555187815233929187917f743dd6de0118c934baddbf165685269ac4f51fe0780281fdb64ea7ca8746ceff910160405180910390a45b6000858152600d602090815260408083208784529091529020610cc59084611328565b505050505050565b610cd8338383611474565b5050565b600e6020528160005260406000208181548110610cf857600080fd5b906000526020600020906002020160009150915050806000015490806001018054610d229061259d565b80601f0160208091040260200160405190810160405280929190818152602001828054610d4e9061259d565b8015610d9b5780601f10610d7057610100808354040283529160200191610d9b565b820191906000526020600020905b815481529060010190602001808311610d7e57829003601f168201915b5050505050905082565b610daf338361109b565b610dcb5760405162461bcd60e51b81526004016105c0906125d8565b610dd784848484611543565b50505050565b6060610de882611576565b604051602001610df8919061263f565b6040516020818303038152906040529050919050565b600080610e1a600b5490565b9050610e2a600b80546001019055565b610e3433826116f4565b6000818152600c60209081526040808320838052825280832033808552908352818420805460ff1916600117905590518481529092839290917f3f9759be566576e968397b016ea9843c3e1d19bf1f59ae53cdfbd3b1a6914070910160405180910390a46104c08184610912565b6000928352600c602090815260408085209385529281528284206001600160a01b039290921684525290205460ff1690565b826000610ee2828233611422565b610eed858585610ea2565b610f7b576000858152600c6020908152604080832087845282528083206001600160a01b03871684529091529020805460ff19166001179055610f2d3390565b6001600160a01b0316836001600160a01b0316857f3f9759be566576e968397b016ea9843c3e1d19bf1f59ae53cdfbd3b1a691407088604051610f7291815260200190565b60405180910390a45b6000858152600d602090815260408083208784529091529020610cc5908461170e565b6000828152600d60209081526040808320848452909152812061087690611723565b6000838152600d602090815260408083208584529091528120610fe3908361172d565b949350505050565b60006001600160e01b0319821663780e9d6360e01b14806104c057506104c082611739565b6000908152600260205260409020546001600160a01b0316151590565b600081815260046020526040902080546001600160a01b0319166001600160a01b038416908117909155819061106282610b0d565b6001600160a01b03167f8c5be1e5ebec7d5bd14f71427d1e84f3dd0314c0f7b2291e5b200ac8c7c3b92560405160405180910390a45050565b60006110a682611010565b6111075760405162461bcd60e51b815260206004820152602c60248201527f4552433732313a206f70657261746f7220717565727920666f72206e6f6e657860448201526b34b9ba32b73a103a37b5b2b760a11b60648201526084016105c0565b600061111283610b0d565b9050806001600160a01b0316846001600160a01b0316148061114d5750836001600160a01b031661114284610558565b6001600160a01b0316145b80610fe357506001600160a01b0380821660009081526005602090815260408083209388168352929052205460ff16610fe3565b826001600160a01b031661119482610b0d565b6001600160a01b0316146111f85760405162461bcd60e51b815260206004820152602560248201527f4552433732313a207472616e736665722066726f6d20696e636f72726563742060448201526437bbb732b960d91b60648201526084016105c0565b6001600160a01b03821661125a5760405162461bcd60e51b8152602060048201526024808201527f4552433732313a207472616e7366657220746f20746865207a65726f206164646044820152637265737360e01b60648201526084016105c0565b611265838383611789565b61127060008261102d565b6001600160a01b0383166000908152600360205260408120805460019290611299908490612687565b90915550506001600160a01b03821660009081526003602052604081208054600192906112c790849061269e565b909155505060008181526002602052604080822080546001600160a01b0319166001600160a01b0386811691821790925591518493918716917fddf252ad1be2c89b69c2b068fc378daa952ba7f163c4a11628f55a4df523b3ef91a4505050565b6000610876836001600160a01b038416611794565b61090f81611887565b6113508282610856565b610cd85760405162461bcd60e51b8152602060048201526018602482015277696e73756666696369656e745f7065726d697373696f6e7360401b60448201526064016105c0565b6113a082611010565b6114035760405162461bcd60e51b815260206004820152602e60248201527f45524337323155524953746f726167653a2055524920736574206f66206e6f6e60448201526d32bc34b9ba32b73a103a37b5b2b760911b60648201526084016105c0565b6000828152600a6020908152604090912082516106f692840190612083565b61142d838383610ea2565b6106f65760405162461bcd60e51b8152602060048201526018602482015277696e73756666696369656e745f7065726d697373696f6e7360401b60448201526064016105c0565b816001600160a01b0316836001600160a01b031614156114d65760405162461bcd60e51b815260206004820152601960248201527f4552433732313a20617070726f766520746f2063616c6c65720000000000000060448201526064016105c0565b6001600160a01b03838116600081815260056020908152604080832094871680845294825291829020805460ff191686151590811790915591519182527f17307eab39ab6107e8899845ad3d59bd9653f200f220920489ca2b5937696c31910160405180910390a3505050565b61154e848484611181565b61155a848484846118c7565b610dd75760405162461bcd60e51b81526004016105c0906126b6565b606061158182611010565b6115e75760405162461bcd60e51b815260206004820152603160248201527f45524337323155524953746f726167653a2055524920717565727920666f72206044820152703737b732bc34b9ba32b73a103a37b5b2b760791b60648201526084016105c0565b6000828152600a6020526040812080546116009061259d565b80601f016020809104026020016040519081016040528092919081815260200182805461162c9061259d565b80156116795780601f1061164e57610100808354040283529160200191611679565b820191906000526020600020905b81548152906001019060200180831161165c57829003601f168201915b5050505050905060006116a6604080518082019091526007815266697066733a2f2f60c81b602082015290565b90508051600014156116b9575092915050565b8151156116eb5780826040516020016116d3929190612708565b60405160208183030381529060405292505050919050565b610fe3846119c5565b610cd8828260405180602001604052806000815250611aab565b6000610876836001600160a01b038416611ade565b60006104c0825490565b60006108768383611b2d565b60006001600160e01b031982166380ac58cd60e01b148061176a57506001600160e01b03198216635b5e139f60e01b145b806104c057506301ffc9a760e01b6001600160e01b03198316146104c0565b6106f6838383611b57565b6000818152600183016020526040812054801561187d5760006117b8600183612687565b85549091506000906117cc90600190612687565b90508181146118315760008660000182815481106117ec576117ec612629565b906000526020600020015490508087600001848154811061180f5761180f612629565b6000918252602080832090910192909255918252600188019052604090208390555b855486908061184257611842612737565b6001900381819060005260206000200160009055905585600101600086815260200190815260200160002060009055600193505050506104c0565b60009150506104c0565b61189081611c0f565b6000818152600a6020526040902080546118a99061259d565b15905061090f576000818152600a6020526040812061090f91612107565b60006001600160a01b0384163b156119ba57604051630a85bd0160e11b81526001600160a01b0385169063150b7a029061190b90339089908890889060040161274d565b6020604051808303816000875af1925050508015611946575060408051601f3d908101601f191682019092526119439181019061278a565b60015b6119a0573d808015611974576040519150601f19603f3d011682016040523d82523d6000602084013e611979565b606091505b5080516119985760405162461bcd60e51b81526004016105c0906126b6565b805181602001fd5b6001600160e01b031916630a85bd0160e11b149050610fe3565b506001949350505050565b60606119d082611010565b611a345760405162461bcd60e51b815260206004820152602f60248201527f4552433732314d657461646174613a2055524920717565727920666f72206e6f60448201526e3732bc34b9ba32b73a103a37b5b2b760891b60648201526084016105c0565b6000611a5a604080518082019091526007815266697066733a2f2f60c81b602082015290565b90506000815111611a7a5760405180602001604052806000815250610876565b80611a8484611cb6565b604051602001611a95929190612708565b6040516020818303038152906040529392505050565b611ab58383611db4565b611ac260008484846118c7565b6106f65760405162461bcd60e51b81526004016105c0906126b6565b6000818152600183016020526040812054611b25575081546001818101845560008481526020808220909301849055845484825282860190935260409020919091556104c0565b5060006104c0565b6000826000018281548110611b4457611b44612629565b9060005260206000200154905092915050565b6001600160a01b038316611bb257611bad81600880546000838152600960205260408120829055600182018355919091527ff3f7a9fe364faab93b216da50a3214154f22a0a2b415b23a84c8169e8b636ee30155565b611bd5565b816001600160a01b0316836001600160a01b031614611bd557611bd58382611ef3565b6001600160a01b038216611bec576106f681611f90565b826001600160a01b0316826001600160a01b0316146106f6576106f6828261203f565b6000611c1a82610b0d565b9050611c2881600084611789565b611c3360008361102d565b6001600160a01b0381166000908152600360205260408120805460019290611c5c908490612687565b909155505060008281526002602052604080822080546001600160a01b0319169055518391906001600160a01b038416907fddf252ad1be2c89b69c2b068fc378daa952ba7f163c4a11628f55a4df523b3ef908390a45050565b606081611cda5750506040805180820190915260018152600360fc1b602082015290565b8160005b8115611d045780611cee816127a7565b9150611cfd9050600a836127d8565b9150611cde565b60008167ffffffffffffffff811115611d1f57611d1f6122d9565b6040519080825280601f01601f191660200182016040528015611d49576020820181803683370190505b5090505b8415610fe357611d5e600183612687565b9150611d6b600a866127ec565b611d7690603061269e565b60f81b818381518110611d8b57611d8b612629565b60200101906001600160f81b031916908160001a905350611dad600a866127d8565b9450611d4d565b6001600160a01b038216611e0a5760405162461bcd60e51b815260206004820181905260248201527f4552433732313a206d696e7420746f20746865207a65726f206164647265737360448201526064016105c0565b611e1381611010565b15611e605760405162461bcd60e51b815260206004820152601c60248201527f4552433732313a20746f6b656e20616c7265616479206d696e7465640000000060448201526064016105c0565b611e6c60008383611789565b6001600160a01b0382166000908152600360205260408120805460019290611e9590849061269e565b909155505060008181526002602052604080822080546001600160a01b0319166001600160a01b03861690811790915590518392907fddf252ad1be2c89b69c2b068fc378daa952ba7f163c4a11628f55a4df523b3ef908290a45050565b60006001611f0084610b84565b611f0a9190612687565b600083815260076020526040902054909150808214611f5d576001600160a01b03841660009081526006602090815260408083208584528252808320548484528184208190558352600790915290208190555b5060009182526007602090815260408084208490556001600160a01b039094168352600681528383209183525290812055565b600854600090611fa290600190612687565b60008381526009602052604081205460088054939450909284908110611fca57611fca612629565b906000526020600020015490508060088381548110611feb57611feb612629565b600091825260208083209091019290925582815260099091526040808220849055858252812055600880548061202357612023612737565b6001900381819060005260206000200160009055905550505050565b600061204a83610b84565b6001600160a01b039093166000908152600660209081526040808320868452825280832085905593825260079052919091209190915550565b82805461208f9061259d565b90600052602060002090601f0160209004810192826120b157600085556120f7565b82601f106120ca57805160ff19168380011785556120f7565b828001600101855582156120f7579182015b828111156120f75782518255916020019190600101906120dc565b5061210392915061213d565b5090565b5080546121139061259d565b6000825580601f10612123575050565b601f01602090049060005260206000209081019061090f91905b5b80821115612103576000815560010161213e565b6001600160e01b03198116811461090f57600080fd5b60006020828403121561217a57600080fd5b813561087681612152565b60005b838110156121a0578181015183820152602001612188565b83811115610dd75750506000910152565b600081518084526121c9816020860160208601612185565b601f01601f19169290920160200192915050565b60208152600061087660208301846121b1565b60006020828403121561220257600080fd5b5035919050565b80356001600160a01b038116811461222057600080fd5b919050565b6000806040838503121561223857600080fd5b61224183612209565b946020939093013593505050565b60008060006060848603121561226457600080fd5b61226d84612209565b925061227b60208501612209565b9150604084013590509250925092565b6000806040838503121561229e57600080fd5b50508035926020909101359150565b600080604083850312156122c057600080fd5b823591506122d060208401612209565b90509250929050565b634e487b7160e01b600052604160045260246000fd5b600067ffffffffffffffff8084111561230a5761230a6122d9565b604051601f8501601f19908116603f01168101908282118183101715612332576123326122d9565b8160405280935085815286868601111561234b57600080fd5b858560208301376000602087830101525050509392505050565b600082601f83011261237657600080fd5b610876838335602085016122ef565b6000806040838503121561239857600080fd5b82359150602083013567ffffffffffffffff8111156123b657600080fd5b6123c285828601612365565b9150509250929050565b602081528151602082015260006020830151604080840152610fe360608401826121b1565b60006020828403121561240357600080fd5b61087682612209565b60008060006060848603121561242157600080fd5b833592506020840135915061243860408501612209565b90509250925092565b6000806040838503121561245457600080fd5b61245d83612209565b91506020830135801515811461247257600080fd5b809150509250929050565b828152604060208201526000610fe360408301846121b1565b600080600080608085870312156124ac57600080fd5b6124b585612209565b93506124c360208601612209565b925060408501359150606085013567ffffffffffffffff8111156124e657600080fd5b8501601f810187136124f757600080fd5b612506878235602084016122ef565b91505092959194509250565b60006020828403121561252457600080fd5b813567ffffffffffffffff81111561253b57600080fd5b610fe384828501612365565b6000806040838503121561255a57600080fd5b61256383612209565b91506122d060208401612209565b60008060006060848603121561258657600080fd5b505081359360208301359350604090920135919050565b600181811c908216806125b157607f821691505b602082108114156125d257634e487b7160e01b600052602260045260246000fd5b50919050565b60208082526031908201527f4552433732313a207472616e736665722063616c6c6572206973206e6f74206f6040820152701ddb995c881b9bdc88185c1c1c9bdd9959607a1b606082015260800190565b634e487b7160e01b600052603260045260246000fd5b60008251612651818460208701612185565b6d17b6b2ba30b230ba30973539b7b760911b920191825250600e01919050565b634e487b7160e01b600052601160045260246000fd5b60008282101561269957612699612671565b500390565b600082198211156126b1576126b1612671565b500190565b60208082526032908201527f4552433732313a207472616e7366657220746f206e6f6e20455243373231526560408201527131b2b4bb32b91034b6b83632b6b2b73a32b960711b606082015260800190565b6000835161271a818460208801612185565b83519083019061272e818360208801612185565b01949350505050565b634e487b7160e01b600052603160045260246000fd5b6001600160a01b0385811682528416602082015260408101839052608060608201819052600090612780908301846121b1565b9695505050505050565b60006020828403121561279c57600080fd5b815161087681612152565b60006000198214156127bb576127bb612671565b5060010190565b634e487b7160e01b600052601260045260246000fd5b6000826127e7576127e76127c2565b500490565b6000826127fb576127fb6127c2565b50069056fea264697066735822122044a358bfa6fbea4978d0a293d38b16bc24e30a42fa25969079e1f74c119d447464736f6c634300080c0033",
  "linkReferences": {},
  "deployedLinkReferences": {}
}