{
  "_format": "hh-sol-artifact-1",
  "contractName": "Node",
  "sourceName": "contracts/src/Node.sol",
  "abi": [
    {
      "inputs": [],
      "stateMutability": "nonpayable",
      "type": "constructor"
    },
    {
      "anonymous": false,
      "inputs": [
        {
          "indexed": true,
          "internalType": "address",
          "name": "owner",
          "type": "address"
        },
        {
          "indexed": true,
          "internalType": "address",
          "name": "approved",
          "type": "address"
        },
        {
          "indexed": true,
          "internalType": "uint256",
          "name": "tokenId",
          "type": "uint256"
        }
      ],
      "name": "Approval",
      "type": "event"
    },
    {
      "anonymous": false,
      "inputs": [
        {
          "indexed": true,
          "internalType": "address",
          "name": "owner",
          "type": "address"
        },
        {
          "indexed": true,
          "internalType": "address",
          "name": "operator",
          "type": "address"
        },
        {
          "indexed": false,
          "internalType": "bool",
          "name": "approved",
          "type": "bool"
        }
      ],
      "name": "ApprovalForAll",
      "type": "event"
    },
    {
      "anonymous": false,
      "inputs": [
        {
          "indexed": false,
          "internalType": "uint256",
          "name": "tokenId",
          "type": "uint256"
        },
        {
          "indexed": false,
          "internalType": "uint256",
          "name": "connectionFee",
          "type": "uint256"
        },
        {
          "indexed": false,
          "internalType": "address",
          "name": "sender",
          "type": "address"
        }
      ],
      "name": "ConnectionFeeSet",
      "type": "event"
    },
    {
      "anonymous": false,
      "inputs": [
        {
          "indexed": false,
          "internalType": "uint256",
          "name": "forTokenId",
          "type": "uint256"
        },
        {
          "indexed": false,
          "internalType": "uint256",
          "name": "toTokenId",
          "type": "uint256"
        },
        {
          "indexed": false,
          "internalType": "address",
          "name": "sender",
          "type": "address"
        }
      ],
      "name": "DelegatePermissionsRenounced",
      "type": "event"
    },
    {
      "anonymous": false,
      "inputs": [
        {
          "indexed": true,
          "internalType": "uint256",
          "name": "tokenId",
          "type": "uint256"
        },
        {
          "indexed": false,
          "internalType": "string",
          "name": "hash",
          "type": "string"
        },
        {
          "components": [
            {
              "internalType": "uint256",
              "name": "tokenId",
              "type": "uint256"
            },
            {
              "internalType": "string",
              "name": "name",
              "type": "string"
            }
          ],
          "indexed": false,
          "internalType": "struct Node.Edge[]",
          "name": "incomingEdges",
          "type": "tuple[]"
        },
        {
          "components": [
            {
              "internalType": "uint256",
              "name": "tokenId",
              "type": "uint256"
            },
            {
              "internalType": "string",
              "name": "name",
              "type": "string"
            }
          ],
          "indexed": false,
          "internalType": "struct Node.Edge[]",
          "name": "outgoingEdges",
          "type": "tuple[]"
        },
        {
          "indexed": false,
          "internalType": "address",
          "name": "sender",
          "type": "address"
        }
      ],
      "name": "Merge",
      "type": "event"
    },
    {
      "anonymous": false,
      "inputs": [
        {
          "indexed": true,
          "internalType": "uint256",
          "name": "tokenId",
          "type": "uint256"
        },
        {
          "indexed": false,
          "internalType": "string",
          "name": "label",
          "type": "string"
        },
        {
          "indexed": false,
          "internalType": "string",
          "name": "hash",
          "type": "string"
        },
        {
          "components": [
            {
              "internalType": "uint256",
              "name": "tokenId",
              "type": "uint256"
            },
            {
              "internalType": "string",
              "name": "name",
              "type": "string"
            }
          ],
          "indexed": false,
          "internalType": "struct Node.Edge[]",
          "name": "incomingEdges",
          "type": "tuple[]"
        },
        {
          "components": [
            {
              "internalType": "uint256",
              "name": "tokenId",
              "type": "uint256"
            },
            {
              "internalType": "string",
              "name": "name",
              "type": "string"
            }
          ],
          "indexed": false,
          "internalType": "struct Node.Edge[]",
          "name": "outgoingEdges",
          "type": "tuple[]"
        },
        {
          "indexed": false,
          "internalType": "address",
          "name": "sender",
          "type": "address"
        }
      ],
      "name": "Mint",
      "type": "event"
    },
    {
      "anonymous": false,
      "inputs": [
        {
          "indexed": false,
          "internalType": "uint256",
          "name": "tokenId",
          "type": "uint256"
        },
        {
          "indexed": false,
          "internalType": "bool",
          "name": "bypassed",
          "type": "bool"
        },
        {
          "indexed": false,
          "internalType": "address",
          "name": "sender",
          "type": "address"
        }
      ],
      "name": "PermissionsBypassSet",
      "type": "event"
    },
    {
      "anonymous": false,
      "inputs": [
        {
          "indexed": false,
          "internalType": "uint256",
          "name": "forTokenId",
          "type": "uint256"
        },
        {
          "indexed": false,
          "internalType": "uint256",
          "name": "toTokenId",
          "type": "uint256"
        },
        {
          "indexed": false,
          "internalType": "address",
          "name": "sender",
          "type": "address"
        }
      ],
      "name": "PermissionsDelegated",
      "type": "event"
    },
    {
      "anonymous": false,
      "inputs": [
        {
          "indexed": true,
          "internalType": "uint256",
          "name": "tokenId",
          "type": "uint256"
        },
        {
          "indexed": false,
          "internalType": "string",
          "name": "hash",
          "type": "string"
        },
        {
          "indexed": false,
          "internalType": "address",
          "name": "sender",
          "type": "address"
        }
      ],
      "name": "Revise",
      "type": "event"
    },
    {
      "anonymous": false,
      "inputs": [
        {
          "indexed": false,
          "internalType": "uint256",
          "name": "tokenId",
          "type": "uint256"
        },
        {
          "indexed": false,
          "internalType": "uint256",
          "name": "role",
          "type": "uint256"
        },
        {
          "indexed": false,
          "internalType": "address",
          "name": "account",
          "type": "address"
        },
        {
          "indexed": false,
          "internalType": "address",
          "name": "sender",
          "type": "address"
        }
      ],
      "name": "RoleGranted",
      "type": "event"
    },
    {
      "anonymous": false,
      "inputs": [
        {
          "indexed": false,
          "internalType": "uint256",
          "name": "tokenId",
          "type": "uint256"
        },
        {
          "indexed": false,
          "internalType": "uint256",
          "name": "role",
          "type": "uint256"
        },
        {
          "indexed": false,
          "internalType": "address",
          "name": "account",
          "type": "address"
        },
        {
          "indexed": false,
          "internalType": "address",
          "name": "sender",
          "type": "address"
        }
      ],
      "name": "RoleRevoked",
      "type": "event"
    },
    {
      "anonymous": false,
      "inputs": [
        {
          "indexed": true,
          "internalType": "address",
          "name": "from",
          "type": "address"
        },
        {
          "indexed": true,
          "internalType": "address",
          "name": "to",
          "type": "address"
        },
        {
          "indexed": true,
          "internalType": "uint256",
          "name": "tokenId",
          "type": "uint256"
        }
      ],
      "name": "Transfer",
      "type": "event"
    },
    {
      "stateMutability": "payable",
      "type": "fallback"
    },
    {
      "inputs": [],
      "name": "ADMIN_ROLE",
      "outputs": [
        {
          "internalType": "uint256",
          "name": "",
          "type": "uint256"
        }
      ],
      "stateMutability": "view",
      "type": "function"
    },
    {
      "inputs": [],
      "name": "EDITOR_ROLE",
      "outputs": [
        {
          "internalType": "uint256",
          "name": "",
          "type": "uint256"
        }
      ],
      "stateMutability": "view",
      "type": "function"
    },
    {
      "inputs": [],
      "name": "ERR_INSUFFICIENT_PERMISSIONS",
      "outputs": [
        {
          "internalType": "string",
          "name": "",
          "type": "string"
        }
      ],
      "stateMutability": "view",
      "type": "function"
    },
    {
      "inputs": [],
      "name": "ERR_NODE_NONEXISTENT",
      "outputs": [
        {
          "internalType": "string",
          "name": "",
          "type": "string"
        }
      ],
      "stateMutability": "view",
      "type": "function"
    },
    {
      "inputs": [],
      "name": "ERR_PROTOCOL_STEWARD_ONLY",
      "outputs": [
        {
          "internalType": "string",
          "name": "",
          "type": "string"
        }
      ],
      "stateMutability": "view",
      "type": "function"
    },
    {
      "inputs": [],
      "name": "ERR_RECURSIVE_DELEGATION",
      "outputs": [
        {
          "internalType": "string",
          "name": "",
          "type": "string"
        }
      ],
      "stateMutability": "view",
      "type": "function"
    },
    {
      "inputs": [],
      "name": "ERR_RESERVED_STRING",
      "outputs": [
        {
          "internalType": "string",
          "name": "",
          "type": "string"
        }
      ],
      "stateMutability": "view",
      "type": "function"
    },
    {
      "inputs": [
        {
          "internalType": "address",
          "name": "to",
          "type": "address"
        },
        {
          "internalType": "uint256",
          "name": "tokenId",
          "type": "uint256"
        }
      ],
      "name": "approve",
      "outputs": [],
      "stateMutability": "nonpayable",
      "type": "function"
    },
    {
      "inputs": [
        {
          "internalType": "address",
          "name": "owner",
          "type": "address"
        }
      ],
      "name": "balanceOf",
      "outputs": [
        {
          "internalType": "uint256",
          "name": "",
          "type": "uint256"
        }
      ],
      "stateMutability": "view",
      "type": "function"
    },
    {
      "inputs": [
        {
          "internalType": "uint256",
          "name": "tokenId",
          "type": "uint256"
        }
      ],
      "name": "burnNode",
      "outputs": [],
      "stateMutability": "nonpayable",
      "type": "function"
    },
    {
      "inputs": [
        {
          "internalType": "uint256",
          "name": "tokenId",
          "type": "uint256"
        },
        {
          "internalType": "address",
          "name": "account",
          "type": "address"
        }
      ],
      "name": "canEdit",
      "outputs": [
        {
          "internalType": "bool",
          "name": "",
          "type": "bool"
        }
      ],
      "stateMutability": "view",
      "type": "function"
    },
    {
      "inputs": [
        {
          "internalType": "uint256",
          "name": "forTokenId",
          "type": "uint256"
        },
        {
          "internalType": "uint256",
          "name": "toTokenId",
          "type": "uint256"
        }
      ],
      "name": "delegatePermissions",
      "outputs": [],
      "stateMutability": "nonpayable",
      "type": "function"
    },
    {
      "inputs": [],
      "name": "depositProtocolBalance",
      "outputs": [],
      "stateMutability": "nonpayable",
      "type": "function"
    },
    {
      "inputs": [
        {
          "internalType": "uint256",
          "name": "tokenId",
          "type": "uint256"
        }
      ],
      "name": "exists",
      "outputs": [
        {
          "internalType": "bool",
          "name": "",
          "type": "bool"
        }
      ],
      "stateMutability": "view",
      "type": "function"
    },
    {
      "inputs": [
        {
          "internalType": "uint256",
          "name": "tokenId",
          "type": "uint256"
        }
      ],
      "name": "getApproved",
      "outputs": [
        {
          "internalType": "address",
          "name": "",
          "type": "address"
        }
      ],
      "stateMutability": "view",
      "type": "function"
    },
    {
      "inputs": [
        {
          "internalType": "uint256",
          "name": "tokenId",
          "type": "uint256"
        }
      ],
      "name": "getConnectionFee",
      "outputs": [
        {
          "internalType": "uint256",
          "name": "",
          "type": "uint256"
        }
      ],
      "stateMutability": "view",
      "type": "function"
    },
    {
      "inputs": [],
      "name": "getProtocolMintFee",
      "outputs": [
        {
          "internalType": "uint256",
          "name": "",
          "type": "uint256"
        }
      ],
      "stateMutability": "view",
      "type": "function"
    },
    {
      "inputs": [
        {
          "internalType": "uint256",
          "name": "tokenId",
          "type": "uint256"
        },
        {
          "internalType": "uint256",
          "name": "role",
          "type": "uint256"
        },
        {
          "internalType": "address",
          "name": "account",
          "type": "address"
        }
      ],
      "name": "grantRole",
      "outputs": [],
      "stateMutability": "nonpayable",
      "type": "function"
    },
    {
      "inputs": [
        {
          "internalType": "uint256",
          "name": "tokenId",
          "type": "uint256"
        }
      ],
      "name": "hasPermissionsBypass",
      "outputs": [
        {
          "internalType": "bool",
          "name": "",
          "type": "bool"
        }
      ],
      "stateMutability": "view",
      "type": "function"
    },
    {
      "inputs": [
        {
          "internalType": "uint256",
          "name": "tokenId",
          "type": "uint256"
        },
        {
          "internalType": "uint256",
          "name": "role",
          "type": "uint256"
        },
        {
          "internalType": "address",
          "name": "account",
          "type": "address"
        }
      ],
      "name": "hasRole",
      "outputs": [
        {
          "internalType": "bool",
          "name": "",
          "type": "bool"
        }
      ],
      "stateMutability": "view",
      "type": "function"
    },
    {
      "inputs": [
        {
          "internalType": "address",
          "name": "owner",
          "type": "address"
        },
        {
          "internalType": "address",
          "name": "operator",
          "type": "address"
        }
      ],
      "name": "isApprovedForAll",
      "outputs": [
        {
          "internalType": "bool",
          "name": "",
          "type": "bool"
        }
      ],
      "stateMutability": "view",
      "type": "function"
    },
    {
      "inputs": [
        {
          "internalType": "uint256",
          "name": "tokenId",
          "type": "uint256"
        },
        {
          "internalType": "string",
          "name": "hash",
          "type": "string"
        },
        {
          "components": [
            {
              "internalType": "uint256",
              "name": "tokenId",
              "type": "uint256"
            },
            {
              "internalType": "string",
              "name": "name",
              "type": "string"
            }
          ],
          "internalType": "struct Node.Edge[]",
          "name": "incomingEdges",
          "type": "tuple[]"
        },
        {
          "components": [
            {
              "internalType": "uint256",
              "name": "tokenId",
              "type": "uint256"
            },
            {
              "internalType": "string",
              "name": "name",
              "type": "string"
            }
          ],
          "internalType": "struct Node.Edge[]",
          "name": "outgoingEdges",
          "type": "tuple[]"
        }
      ],
      "name": "merge",
      "outputs": [],
      "stateMutability": "payable",
      "type": "function"
    },
    {
      "inputs": [
        {
          "internalType": "string",
          "name": "label",
          "type": "string"
        },
        {
          "internalType": "string",
          "name": "hash",
          "type": "string"
        },
        {
          "components": [
            {
              "internalType": "uint256",
              "name": "tokenId",
              "type": "uint256"
            },
            {
              "internalType": "string",
              "name": "name",
              "type": "string"
            }
          ],
          "internalType": "struct Node.Edge[]",
          "name": "incomingEdges",
          "type": "tuple[]"
        },
        {
          "components": [
            {
              "internalType": "uint256",
              "name": "tokenId",
              "type": "uint256"
            },
            {
              "internalType": "string",
              "name": "name",
              "type": "string"
            }
          ],
          "internalType": "struct Node.Edge[]",
          "name": "outgoingEdges",
          "type": "tuple[]"
        },
        {
          "internalType": "uint256[]",
          "name": "delegatePermissionsTokenIds",
          "type": "uint256[]"
        }
      ],
      "name": "mint",
      "outputs": [],
      "stateMutability": "payable",
      "type": "function"
    },
    {
      "inputs": [],
      "name": "name",
      "outputs": [
        {
          "internalType": "string",
          "name": "",
          "type": "string"
        }
      ],
      "stateMutability": "view",
      "type": "function"
    },
    {
      "inputs": [
        {
          "internalType": "uint256",
          "name": "tokenId",
          "type": "uint256"
        }
      ],
      "name": "ownerOf",
      "outputs": [
        {
          "internalType": "address",
          "name": "",
          "type": "address"
        }
      ],
      "stateMutability": "view",
      "type": "function"
    },
    {
      "inputs": [
        {
          "internalType": "address",
          "name": "dest",
          "type": "address"
        }
      ],
      "name": "payments",
      "outputs": [
        {
          "internalType": "uint256",
          "name": "",
          "type": "uint256"
        }
      ],
      "stateMutability": "view",
      "type": "function"
    },
    {
      "inputs": [],
      "name": "protocolSteward",
      "outputs": [
        {
          "internalType": "address",
          "name": "",
          "type": "address"
        }
      ],
      "stateMutability": "view",
      "type": "function"
    },
    {
      "inputs": [
        {
          "internalType": "uint256",
          "name": "forTokenId",
          "type": "uint256"
        },
        {
          "internalType": "uint256",
          "name": "toTokenId",
          "type": "uint256"
        }
      ],
      "name": "renounceDelegatePermissions",
      "outputs": [],
      "stateMutability": "nonpayable",
      "type": "function"
    },
    {
      "inputs": [
        {
          "internalType": "uint256",
          "name": "tokenId",
          "type": "uint256"
        },
        {
          "internalType": "uint256",
          "name": "role",
          "type": "uint256"
        }
      ],
      "name": "renounceRole",
      "outputs": [],
      "stateMutability": "nonpayable",
      "type": "function"
    },
    {
      "inputs": [],
      "name": "resetDefaultRoyalty",
      "outputs": [],
      "stateMutability": "nonpayable",
      "type": "function"
    },
    {
      "inputs": [
        {
          "internalType": "uint256",
          "name": "tokenId",
          "type": "uint256"
        }
      ],
      "name": "resetTokenRoyalty",
      "outputs": [],
      "stateMutability": "nonpayable",
      "type": "function"
    },
    {
      "inputs": [
        {
          "internalType": "uint256",
          "name": "tokenId",
          "type": "uint256"
        },
        {
          "internalType": "string",
          "name": "hash",
          "type": "string"
        }
      ],
      "name": "revise",
      "outputs": [],
      "stateMutability": "nonpayable",
      "type": "function"
    },
    {
      "inputs": [
        {
          "internalType": "uint256",
          "name": "tokenId",
          "type": "uint256"
        },
        {
          "internalType": "uint256",
          "name": "role",
          "type": "uint256"
        },
        {
          "internalType": "address",
          "name": "account",
          "type": "address"
        }
      ],
      "name": "revokeRole",
      "outputs": [],
      "stateMutability": "nonpayable",
      "type": "function"
    },
    {
      "inputs": [
        {
          "internalType": "uint256",
          "name": "_tokenId",
          "type": "uint256"
        },
        {
          "internalType": "uint256",
          "name": "_salePrice",
          "type": "uint256"
        }
      ],
      "name": "royaltyInfo",
      "outputs": [
        {
          "internalType": "address",
          "name": "",
          "type": "address"
        },
        {
          "internalType": "uint256",
          "name": "",
          "type": "uint256"
        }
      ],
      "stateMutability": "view",
      "type": "function"
    },
    {
      "inputs": [
        {
          "internalType": "address",
          "name": "from",
          "type": "address"
        },
        {
          "internalType": "address",
          "name": "to",
          "type": "address"
        },
        {
          "internalType": "uint256",
          "name": "tokenId",
          "type": "uint256"
        }
      ],
      "name": "safeTransferFrom",
      "outputs": [],
      "stateMutability": "nonpayable",
      "type": "function"
    },
    {
      "inputs": [
        {
          "internalType": "address",
          "name": "from",
          "type": "address"
        },
        {
          "internalType": "address",
          "name": "to",
          "type": "address"
        },
        {
          "internalType": "uint256",
          "name": "tokenId",
          "type": "uint256"
        },
        {
          "internalType": "bytes",
          "name": "_data",
          "type": "bytes"
        }
      ],
      "name": "safeTransferFrom",
      "outputs": [],
      "stateMutability": "nonpayable",
      "type": "function"
    },
    {
      "inputs": [
        {
          "internalType": "address",
          "name": "operator",
          "type": "address"
        },
        {
          "internalType": "bool",
          "name": "approved",
          "type": "bool"
        }
      ],
      "name": "setApprovalForAll",
      "outputs": [],
      "stateMutability": "nonpayable",
      "type": "function"
    },
    {
      "inputs": [
        {
          "internalType": "uint256",
          "name": "tokenId",
          "type": "uint256"
        },
        {
          "internalType": "uint256",
          "name": "connectionFee",
          "type": "uint256"
        }
      ],
      "name": "setConnectionFee",
      "outputs": [],
      "stateMutability": "nonpayable",
      "type": "function"
    },
    {
      "inputs": [
        {
          "internalType": "address",
          "name": "receiver",
          "type": "address"
        },
        {
          "internalType": "uint96",
          "name": "feeNumerator",
          "type": "uint96"
        }
      ],
      "name": "setDefaultRoyalty",
      "outputs": [],
      "stateMutability": "nonpayable",
      "type": "function"
    },
    {
      "inputs": [
        {
          "internalType": "uint256",
          "name": "tokenId",
          "type": "uint256"
        },
        {
          "internalType": "bool",
          "name": "shouldBypassPermissions",
          "type": "bool"
        }
      ],
      "name": "setPermissionsBypass",
      "outputs": [],
      "stateMutability": "nonpayable",
      "type": "function"
    },
    {
      "inputs": [
        {
          "internalType": "uint256",
          "name": "protocolMintFee",
          "type": "uint256"
        }
      ],
      "name": "setProtocolMintFee",
      "outputs": [],
      "stateMutability": "nonpayable",
      "type": "function"
    },
    {
      "inputs": [
        {
          "internalType": "uint256",
          "name": "tokenId",
          "type": "uint256"
        },
        {
          "internalType": "address",
          "name": "receiver",
          "type": "address"
        },
        {
          "internalType": "uint96",
          "name": "feeNumerator",
          "type": "uint96"
        }
      ],
      "name": "setTokenRoyalty",
      "outputs": [],
      "stateMutability": "nonpayable",
      "type": "function"
    },
    {
      "inputs": [
        {
          "internalType": "string",
          "name": "a",
          "type": "string"
        },
        {
          "internalType": "string",
          "name": "b",
          "type": "string"
        }
      ],
      "name": "stringsAreEqual",
      "outputs": [
        {
          "internalType": "bool",
          "name": "",
          "type": "bool"
        }
      ],
      "stateMutability": "pure",
      "type": "function"
    },
    {
      "inputs": [
        {
          "internalType": "bytes4",
          "name": "interfaceId",
          "type": "bytes4"
        }
      ],
      "name": "supportsInterface",
      "outputs": [
        {
          "internalType": "bool",
          "name": "",
          "type": "bool"
        }
      ],
      "stateMutability": "view",
      "type": "function"
    },
    {
      "inputs": [],
      "name": "symbol",
      "outputs": [
        {
          "internalType": "string",
          "name": "",
          "type": "string"
        }
      ],
      "stateMutability": "view",
      "type": "function"
    },
    {
      "inputs": [
        {
          "internalType": "uint256",
          "name": "index",
          "type": "uint256"
        }
      ],
      "name": "tokenByIndex",
      "outputs": [
        {
          "internalType": "uint256",
          "name": "",
          "type": "uint256"
        }
      ],
      "stateMutability": "view",
      "type": "function"
    },
    {
      "inputs": [
        {
          "internalType": "address",
          "name": "owner",
          "type": "address"
        },
        {
          "internalType": "uint256",
          "name": "index",
          "type": "uint256"
        }
      ],
      "name": "tokenOfOwnerByIndex",
      "outputs": [
        {
          "internalType": "uint256",
          "name": "",
          "type": "uint256"
        }
      ],
      "stateMutability": "view",
      "type": "function"
    },
    {
      "inputs": [
        {
          "internalType": "uint256",
          "name": "tokenId",
          "type": "uint256"
        }
      ],
      "name": "tokenURI",
      "outputs": [
        {
          "internalType": "string",
          "name": "",
          "type": "string"
        }
      ],
      "stateMutability": "view",
      "type": "function"
    },
    {
      "inputs": [],
      "name": "totalSupply",
      "outputs": [
        {
          "internalType": "uint256",
          "name": "",
          "type": "uint256"
        }
      ],
      "stateMutability": "view",
      "type": "function"
    },
    {
      "inputs": [
        {
          "internalType": "address",
          "name": "from",
          "type": "address"
        },
        {
          "internalType": "address",
          "name": "to",
          "type": "address"
        },
        {
          "internalType": "uint256",
          "name": "tokenId",
          "type": "uint256"
        }
      ],
      "name": "transferFrom",
      "outputs": [],
      "stateMutability": "nonpayable",
      "type": "function"
    },
    {
      "inputs": [
        {
          "internalType": "address payable",
          "name": "payee",
          "type": "address"
        }
      ],
      "name": "withdrawPayments",
      "outputs": [],
      "stateMutability": "nonpayable",
      "type": "function"
    },
    {
      "stateMutability": "payable",
      "type": "receive"
    }
  ],
  "bytecode": "0x60a06040526000600e553480156200001657600080fd5b50604051806040016040528060048152602001634e6f646560e01b815250604051806040016040528060048152602001634e4f444560e01b815250816002908051906020019062000069929190620000c9565b5080516200007f906003906020840190620000c9565b50506001600d5550604051620000959062000158565b604051809103906000f080158015620000b2573d6000803e3d6000fd5b5060601b6001600160601b031916608052620001ba565b828054620000d7906200017d565b90600052602060002090601f016020900481019282620000fb576000855562000146565b82601f106200011657805160ff191683800117855562000146565b8280016001018555821562000146579182015b828111156200014657825182559160200191906001019062000129565b506200015492915062000166565b5090565b6105f28062004fc983390190565b5b8082111562000154576000815560010162000167565b600181811c908216806200019257607f821691505b60208210811415620001b457634e487b7160e01b600052602260045260246000fd5b50919050565b60805160601c614dc662000203600039600081816102ef015281816103820152818161109f0152818161169201528181612132015281816123cf0152612d200152614dc66000f3fe6080604052600436106102e85760003560e01c806375b238fc11610190578063ac3b5bf8116100dc578063e2982c2111610095578063eb31f4c51161006f578063eb31f4c514610a5b578063ee437dae14610a7b578063f1052ef914610a90578063fe0a03e614610ac057610380565b8063e2982c21146109d2578063e985e9c5146109f2578063ea559dc214610a3b57610380565b8063ac3b5bf81461092a578063ade610981461094a578063b88d4fde1461095f578063c87b56dd1461097f578063dbd3fd7f1461099f578063dd888a9f146109b257610380565b806392d96325116101495780639cb99aba116101235780639cb99aba146108b5578063a22cb465146108d5578063a853211a146108f5578063a937319a1461090a57610380565b806392d963251461084057806395d89b41146108805780639bf150321461089557610380565b806375b238fc1461076e578063790ef4fa146107835780637ea50765146107a357806381a30f16146107de57806385d6f217146107f35780638a616bc01461082057610380565b80633aa817cc1161024f57806352b6f21d116102085780636352211e116101e25780636352211e146106d757806368e661eb146106f75780636f6333401461072e57806370a082311461074e57610380565b806352b6f21d146106565780635587850d146106975780635944c753146106b757610380565b80633aa817cc146105965780633af7a723146105b657806342842e0e146105d657806344c3d3fb146105f65780634f558e79146106165780634f6ccce71461063657610380565b806323b872dd116102a157806323b872dd146104a85780632a55205a146104c85780632f745c59146105075780632fc7bfab1461052757806331b3eb941461053a5780633a06529b1461055a57610380565b806301ffc9a7146103b857806304634d8d146103ed57806306fdde031461040f578063081812fc14610431578063095ea7b31461046957806318160ddd1461048957610380565b36610380577f00000000000000000000000000000000000000000000000000000000000000006001600160a01b031663f340fa0134610325610ad1565b6040516001600160e01b031960e085901b1681526001600160a01b0390911660048201526024016000604051808303818588803b15801561036557600080fd5b505af1158015610379573d6000803e3d6000fd5b5050505050005b7f00000000000000000000000000000000000000000000000000000000000000006001600160a01b031663f340fa0134610325610ad1565b3480156103c457600080fd5b506103d86103d33660046144a1565b610ae2565b60405190151581526020015b60405180910390f35b3480156103f957600080fd5b5061040d610408366004614475565b610af3565b005b34801561041b57600080fd5b50610424610b09565b6040516103e49190614936565b34801561043d57600080fd5b5061045161044c366004614611565b610b9b565b6040516001600160a01b0390911681526020016103e4565b34801561047557600080fd5b5061040d610484366004614449565b610c28565b34801561049557600080fd5b50600a545b6040519081526020016103e4565b3480156104b457600080fd5b5061040d6104c3366004614353565b610d3e565b3480156104d457600080fd5b506104e86104e336600461478c565b610d6f565b604080516001600160a01b0390931683526020830191909152016103e4565b34801561051357600080fd5b5061049a610522366004614449565b610e1b565b61040d610535366004614706565b610eb1565b34801561054657600080fd5b5061040d6105553660046142fd565b611028565b34801561056657600080fd5b506104246040518060400160405280601081526020016f1b9bd91957db9bdb995e1a5cdd195b9d60821b81525081565b3480156105a257600080fd5b5061040d6105b136600461478c565b611103565b3480156105c257600080fd5b506103d86105d1366004614643565b6111d0565b3480156105e257600080fd5b5061040d6105f1366004614353565b6111f7565b34801561060257600080fd5b5061040d6106113660046146c9565b611212565b34801561062257600080fd5b506103d8610631366004614611565b61136a565b34801561064257600080fd5b5061049a610651366004614611565b611375565b34801561066257600080fd5b50610424604051806040016040528060158152602001741bdb9b1e57dc1c9bdd1bd8dbdb17dcdd195dd85c99605a1b81525081565b3480156106a357600080fd5b5061040d6106b2366004614611565b611408565b3480156106c357600080fd5b5061040d6106d2366004614668565b6114bb565b3480156106e357600080fd5b506104516106f2366004614611565b611524565b34801561070357600080fd5b50610424604051806040016040528060188152602001600080516020614d7183398151915281525081565b34801561073a57600080fd5b506103d86107493660046144db565b61159b565b34801561075a57600080fd5b5061049a6107693660046142fd565b6115f4565b34801561077a57600080fd5b5061049a600081565b34801561078f57600080fd5b5061040d61079e366004614611565b61167b565b3480156107af57600080fd5b506104246040518060400160405280600f81526020016e72657365727665645f737472696e6760881b81525081565b3480156107ea57600080fd5b5061040d611688565b3480156107ff57600080fd5b5061049a61080e366004614611565b60009081526012602052604090205490565b34801561082c57600080fd5b5061040d61083b366004614611565b611723565b34801561084c57600080fd5b50610424604051806040016040528060148152602001733932b1bab939b4bb32afb232b632b3b0ba34b7b760611b81525081565b34801561088c57600080fd5b5061042461178d565b3480156108a157600080fd5b5061040d6108b036600461478c565b61179c565b3480156108c157600080fd5b5061040d6108d03660046147ae565b611bad565b3480156108e157600080fd5b5061040d6108f0366004614414565b611d5e565b34801561090157600080fd5b5061049a600181565b34801561091657600080fd5b5061040d6109253660046146a6565b611d69565b34801561093657600080fd5b5061040d61094536600461478c565b611e21565b34801561095657600080fd5b50600e5461049a565b34801561096b57600080fd5b5061040d61097a366004614394565b611f27565b34801561098b57600080fd5b5061042461099a366004614611565b611f59565b61040d6109ad36600461453f565b611f8a565b3480156109be57600080fd5b5061040d6109cd36600461478c565b6121d9565b3480156109de57600080fd5b5061049a6109ed3660046142fd565b6123ad565b3480156109fe57600080fd5b506103d8610a0d36600461431a565b6001600160a01b03918216600090815260076020908152604080832093909416825291909152205460ff1690565b348015610a4757600080fd5b506103d8610a563660046147ae565b61244b565b348015610a6757600080fd5b5061040d610a763660046147ae565b6124f6565b348015610a8757600080fd5b5061040d6126a6565b348015610a9c57600080fd5b506103d8610aab366004614611565b60009081526016602052604090205460ff1690565b348015610acc57600080fd5b506104515b6000610add6001611524565b905090565b6000610aed826126b9565b92915050565b610afb6126c4565b610b058282612726565b5050565b606060028054610b1890614c6d565b80601f0160208091040260200160405190810160405280929190818152602001828054610b4490614c6d565b8015610b915780601f10610b6657610100808354040283529160200191610b91565b820191906000526020600020905b815481529060010190602001808311610b7457829003601f168201915b5050505050905090565b6000610ba6826127e0565b610c0c5760405162461bcd60e51b815260206004820152602c60248201527f4552433732313a20617070726f76656420717565727920666f72206e6f6e657860448201526b34b9ba32b73a103a37b5b2b760a11b60648201526084015b60405180910390fd5b506000908152600660205260409020546001600160a01b031690565b6000610c3382611524565b9050806001600160a01b0316836001600160a01b03161415610ca15760405162461bcd60e51b815260206004820152602160248201527f4552433732313a20617070726f76616c20746f2063757272656e74206f776e656044820152603960f91b6064820152608401610c03565b336001600160a01b0382161480610cbd5750610cbd8133610a0d565b610d2f5760405162461bcd60e51b815260206004820152603860248201527f4552433732313a20617070726f76652063616c6c6572206973206e6f74206f7760448201527f6e6572206e6f7220617070726f76656420666f7220616c6c00000000000000006064820152608401610c03565b610d3983836127fd565b505050565b610d48338261286b565b610d645760405162461bcd60e51b8152600401610c0390614a80565b610d39838383612955565b60008281526001602090815260408083208151808301909252546001600160a01b038116808352600160a01b9091046001600160601b0316928201929092528291610de45750604080518082019091526000546001600160a01b0381168252600160a01b90046001600160601b031660208201525b602081015160009061271090610e03906001600160601b031687614c0b565b610e0d9190614bf7565b915196919550909350505050565b6000610e26836115f4565b8210610e885760405162461bcd60e51b815260206004820152602b60248201527f455243373231456e756d657261626c653a206f776e657220696e646578206f7560448201526a74206f6620626f756e647360a81b6064820152608401610c03565b506001600160a01b03919091166000908152600860209081526040808320938352929052205490565b83610ebb816127e0565b6040518060400160405280601081526020016f1b9bd91957db9bdb995e1a5cdd195b9d60821b81525090610f025760405162461bcd60e51b8152600401610c039190614936565b50600085815260166020526040902054859060ff16610fc457610f2581336111d0565b604051806040016040528060188152602001600080516020614d7183398151915281525090610f675760405162461bcd60e51b8152600401610c039190614936565b50610f7185612afc565b610f7b8686612b3e565b857f236bb16971ddcd63b572657e5dd00a13bce4f2c2b7edb3d22ba10b0021efedb186868633604051610fb19493929190614973565b60405180910390a2610fc4868585612bc9565b610fcd85612afc565b610fd78686612b3e565b857f236bb16971ddcd63b572657e5dd00a13bce4f2c2b7edb3d22ba10b0021efedb18686863360405161100d9493929190614973565b60405180910390a2611020868585612bc9565b505050505050565b6002600d54141561107b5760405162461bcd60e51b815260206004820152601f60248201527f5265656e7472616e637947756172643a207265656e7472616e742063616c6c006044820152606401610c03565b6002600d556040516351cff8d960e01b81526001600160a01b0382811660048301527f000000000000000000000000000000000000000000000000000000000000000016906351cff8d990602401600060405180830381600087803b1580156110e357600080fd5b505af11580156110f7573d6000803e3d6000fd5b50506001600d55505050565b8161110d816127e0565b6040518060400160405280601081526020016f1b9bd91957db9bdb995e1a5cdd195b9d60821b815250906111545760405162461bcd60e51b8152600401610c039190614936565b5061116083833361244b565b15610d39576000838152601360209081526040808320858452825280832033808552925291829020805460ff1916905590517f743dd6de0118c934baddbf165685269ac4f51fe0780281fdb64ea7ca8746ceff916111c391869186918190614b3a565b60405180910390a1505050565b60006111de8360008461244b565b806111f057506111f08360018461244b565b9392505050565b610d3983838360405180602001604052806000815250611f27565b8161121c816127e0565b6040518060400160405280601081526020016f1b9bd91957db9bdb995e1a5cdd195b9d60821b815250906112635760405162461bcd60e51b8152600401610c039190614936565b50600083815260166020526040902054839060ff166113175761128681336111d0565b604051806040016040528060188152602001600080516020614d71833981519152815250906112c85760405162461bcd60e51b8152600401610c039190614936565b506112d283612afc565b6112dc8484612b3e565b837f8a98cc625a75c2dc14883da513c5ce302b8ae3422734382fb4edcfddfde37cdf843360405161130e929190614949565b60405180910390a25b61132083612afc565b61132a8484612b3e565b837f8a98cc625a75c2dc14883da513c5ce302b8ae3422734382fb4edcfddfde37cdf843360405161135c929190614949565b60405180910390a250505050565b6000610aed826127e0565b6000611380600a5490565b82106113e35760405162461bcd60e51b815260206004820152602c60248201527f455243373231456e756d657261626c653a20676c6f62616c20696e646578206f60448201526b7574206f6620626f756e647360a01b6064820152608401610c03565b600a82815481106113f6576113f6614d19565b90600052602060002001549050919050565b80611412816127e0565b6040518060400160405280601081526020016f1b9bd91957db9bdb995e1a5cdd195b9d60821b815250906114595760405162461bcd60e51b8152600401610c039190614936565b50813361146582611524565b6001600160a01b031614604051806040016040528060188152602001600080516020614d71833981519152815250906114b15760405162461bcd60e51b8152600401610c039190614936565b50610d39836131d9565b82336114c682611524565b6001600160a01b031614604051806040016040528060188152602001600080516020614d71833981519152815250906115125760405162461bcd60e51b8152600401610c039190614936565b5061151e8484846131e2565b50505050565b6000818152600460205260408120546001600160a01b031680610aed5760405162461bcd60e51b815260206004820152602960248201527f4552433732313a206f776e657220717565727920666f72206e6f6e657869737460448201526832b73a103a37b5b2b760b91b6064820152608401610c03565b6000816040516020016115ae919061487c565b60405160208183030381529060405280519060200120836040516020016115d5919061487c565b6040516020818303038152906040528051906020012014905092915050565b60006001600160a01b03821661165f5760405162461bcd60e51b815260206004820152602a60248201527f4552433732313a2062616c616e636520717565727920666f7220746865207a65604482015269726f206164647265737360b01b6064820152608401610c03565b506001600160a01b031660009081526005602052604090205490565b6116836126c4565b600e55565b6116906126c4565b7f00000000000000000000000000000000000000000000000000000000000000006001600160a01b031663f340fa01476116c8610ad1565b6040516001600160e01b031960e085901b1681526001600160a01b0390911660048201526024016000604051808303818588803b15801561170857600080fd5b505af115801561171c573d6000803e3d6000fd5b5050505050565b803361172e82611524565b6001600160a01b031614604051806040016040528060188152602001600080516020614d718339815191528152509061177a5760405162461bcd60e51b8152600401610c039190614936565b5050600090815260016020526040812055565b606060038054610b1890614c6d565b816117a6816127e0565b6040518060400160405280601081526020016f1b9bd91957db9bdb995e1a5cdd195b9d60821b815250906117ed5760405162461bcd60e51b8152600401610c039190614936565b50816117f8816127e0565b6040518060400160405280601081526020016f1b9bd91957db9bdb995e1a5cdd195b9d60821b8152509061183f5760405162461bcd60e51b8152600401610c039190614936565b5060008481526016602052604081205485919060ff16611a265761186482823361244b565b604051806040016040528060188152602001600080516020614d71833981519152815250906118a65760405162461bcd60e51b8152600401610c039190614936565b506040805180820190915260148152733932b1bab939b4bb32afb232b632b3b0ba34b7b760611b6020820152868614156118f35760405162461bcd60e51b8152600401610c039190614936565b50600085815260146020526040902061190b906132ad565b6040805180820190915260148152733932b1bab939b4bb32afb232b632b3b0ba34b7b760611b602082015290156119555760405162461bcd60e51b8152600401610c039190614936565b50600086815260156020526040902061196d906132ad565b6040805180820190915260148152733932b1bab939b4bb32afb232b632b3b0ba34b7b760611b602082015290156119b75760405162461bcd60e51b8152600401610c039190614936565b5060008681526014602052604090206119d090866132b7565b5060008581526015602052604090206119e990876132b7565b507ff756463748eb0d59b8dea527a9a6d0c7e1b813913b25797ba5d3603892b20704868633604051611a1d93929190614b1b565b60405180910390a15b6040805180820190915260148152733932b1bab939b4bb32afb232b632b3b0ba34b7b760611b602082015286861415611a725760405162461bcd60e51b8152600401610c039190614936565b506000858152601460205260409020611a8a906132ad565b6040805180820190915260148152733932b1bab939b4bb32afb232b632b3b0ba34b7b760611b60208201529015611ad45760405162461bcd60e51b8152600401610c039190614936565b506000868152601560205260409020611aec906132ad565b6040805180820190915260148152733932b1bab939b4bb32afb232b632b3b0ba34b7b760611b60208201529015611b365760405162461bcd60e51b8152600401610c039190614936565b506000868152601460205260409020611b4f90866132b7565b506000858152601560205260409020611b6890876132b7565b507ff756463748eb0d59b8dea527a9a6d0c7e1b813913b25797ba5d3603892b207048686335b604051611b9d93929190614b1b565b60405180910390a1505050505050565b82611bb7816127e0565b6040518060400160405280601081526020016f1b9bd91957db9bdb995e1a5cdd195b9d60821b81525090611bfe5760405162461bcd60e51b8152600401610c039190614936565b5060008481526016602052604081205485919060ff16611ce657611c2382823361244b565b604051806040016040528060188152602001600080516020614d7183398151915281525090611c655760405162461bcd60e51b8152600401610c039190614936565b50611c7186868661244b565b15611ce657600086815260136020908152604080832088845282528083206001600160a01b03881684529091529020805460ff191690557f743dd6de0118c934baddbf165685269ac4f51fe0780281fdb64ea7ca8746ceff86868633604051611cdd9493929190614b3a565b60405180910390a15b611cf186868661244b565b1561102057600086815260136020908152604080832088845282528083206001600160a01b03881684529091529020805460ff191690557f743dd6de0118c934baddbf165685269ac4f51fe0780281fdb64ea7ca8746ceff868686335b604051611b9d9493929190614b3a565b610b053383836132c3565b611d758260003361244b565b604051806040016040528060188152602001600080516020614d7183398151915281525090611db75760405162461bcd60e51b8152600401610c039190614936565b506000828152601660205260409020805460ff19168215151790557fe0b4110a3baee4f696784af62abd29a66eaa57537c9d08b1e88efa87c846180c8282336040805193845291151560208401526001600160a01b03169082015260600160405180910390a15050565b60008281526016602052604081205483919060ff16611ed557611e4582823361244b565b604051806040016040528060188152602001600080516020614d7183398151915281525090611e875760405162461bcd60e51b8152600401610c039190614936565b5060008481526012602052604090208390557f1f0ddf3115a5d0fceb59847eee42b4335f88b04f1d62262da57189e7432a7d6a848433604051611ecc93929190614b1b565b60405180910390a15b60008481526012602052604090208390557f1f0ddf3115a5d0fceb59847eee42b4335f88b04f1d62262da57189e7432a7d6a848433604051611f1993929190614b1b565b60405180910390a150505050565b611f31338361286b565b611f4d5760405162461bcd60e51b8152600401610c0390614a80565b61151e84848484613392565b6060611f64826133c5565b604051602001611f7491906148c7565b6040516020818303038152906040529050919050565b84604051806040016040528060018152602001605f60f81b815250611faf8282613543565b156040518060400160405280600f81526020016e72657365727665645f737472696e6760881b81525090611ff65760405162461bcd60e51b8152600401610c039190614936565b5061200087612afc565b61200986612afc565b612017600f80546001019055565b6000612022600f5490565b9050807e87cb72211b7017110b6e2676b860d8bc248f2161d7a6abac1896f0fc1e428b898989893360405161205b9594939291906149c6565b60405180910390a261206d3382613609565b6120778188612b3e565b6000818152601260209081526040808320839055601382528083208380528252808320338085529252808320805460ff19166001179055517f3f9759be566576e968397b016ea9843c3e1d19bf1f59ae53cdfbd3b1a6914070926120de9285928190614b3a565b60405180910390a160005b8451811015612127576121158286838151811061210857612108614d19565b602002602001015161179c565b8061211f81614ca8565b9150506120e9565b50600e54156121c4577f00000000000000000000000000000000000000000000000000000000000000006001600160a01b031663f340fa01600e5461216a610ad1565b6040516001600160e01b031960e085901b1681526001600160a01b0390911660048201526024016000604051808303818588803b1580156121aa57600080fd5b505af11580156121be573d6000803e3d6000fd5b50505050505b6121cf818787612bc9565b5050505050505050565b816121e3816127e0565b6040518060400160405280601081526020016f1b9bd91957db9bdb995e1a5cdd195b9d60821b8152509061222a5760405162461bcd60e51b8152600401610c039190614936565b5081612235816127e0565b6040518060400160405280601081526020016f1b9bd91957db9bdb995e1a5cdd195b9d60821b8152509061227c5760405162461bcd60e51b8152600401610c039190614936565b5060008481526016602052604081205485919060ff16612352576122a182823361244b565b604051806040016040528060188152602001600080516020614d71833981519152815250906122e35760405162461bcd60e51b8152600401610c039190614936565b5060008681526014602052604090206122fc9086613623565b5060008581526015602052604090206123159087613623565b507fe90abaaba0ad946d1629928fb2d2e7c2c3dbac7b21e98a78cf777e1e87ef803886863360405161234993929190614b1b565b60405180910390a15b600086815260146020526040902061236a9086613623565b5060008581526015602052604090206123839087613623565b507fe90abaaba0ad946d1629928fb2d2e7c2c3dbac7b21e98a78cf777e1e87ef8038868633611b8e565b6040516371d4ed8d60e11b81526001600160a01b0382811660048301526000917f00000000000000000000000000000000000000000000000000000000000000009091169063e3a9db1a9060240160206040518083038186803b15801561241357600080fd5b505afa158015612427573d6000803e3d6000fd5b505050506040513d601f19601f82011682018060405250810190610aed919061462a565b600083815260136020908152604080832085845282528083206001600160a01b038516845290915281205460ff1615612486575060016111f0565b60005b60008581526014602052604090206124a0906132ad565b8110156124eb5760008581526014602052604090206124ca906124c3908361362f565b858561244b565b156124d95760019150506111f0565b806124e381614ca8565b915050612489565b506000949350505050565b82612500816127e0565b6040518060400160405280601081526020016f1b9bd91957db9bdb995e1a5cdd195b9d60821b815250906125475760405162461bcd60e51b8152600401610c039190614936565b5060008481526016602052604081205485919060ff166126375761256c82823361244b565b604051806040016040528060188152602001600080516020614d71833981519152815250906125ae5760405162461bcd60e51b8152600401610c039190614936565b506125ba86868661244b565b61263757600086815260136020908152604080832088845282528083206001600160a01b03881684529091529020805460ff191660011790557f3f9759be566576e968397b016ea9843c3e1d19bf1f59ae53cdfbd3b1a691407086868661261e3390565b60405161262e9493929190614b3a565b60405180910390a15b61264286868661244b565b61102057600086815260136020908152604080832088845282528083206001600160a01b03881684529091529020805460ff191660011790557f3f9759be566576e968397b016ea9843c3e1d19bf1f59ae53cdfbd3b1a6914070868686611d4e3390565b6126ae6126c4565b6126b760008055565b565b6000610aed8261363b565b336126cd610ad1565b6001600160a01b031614604051806040016040528060158152602001741bdb9b1e57dc1c9bdd1bd8dbdb17dcdd195dd85c99605a1b815250906127235760405162461bcd60e51b8152600401610c039190614936565b50565b6127106001600160601b03821611156127515760405162461bcd60e51b8152600401610c0390614ad1565b6001600160a01b0382166127a75760405162461bcd60e51b815260206004820152601960248201527f455243323938313a20696e76616c6964207265636569766572000000000000006044820152606401610c03565b604080518082019091526001600160a01b039092168083526001600160601b039091166020909201829052600160a01b90910217600055565b6000908152600460205260409020546001600160a01b0316151590565b600081815260066020526040902080546001600160a01b0319166001600160a01b038416908117909155819061283282611524565b6001600160a01b03167f8c5be1e5ebec7d5bd14f71427d1e84f3dd0314c0f7b2291e5b200ac8c7c3b92560405160405180910390a45050565b6000612876826127e0565b6128d75760405162461bcd60e51b815260206004820152602c60248201527f4552433732313a206f70657261746f7220717565727920666f72206e6f6e657860448201526b34b9ba32b73a103a37b5b2b760a11b6064820152608401610c03565b60006128e283611524565b9050806001600160a01b0316846001600160a01b0316148061292957506001600160a01b0380821660009081526007602090815260408083209388168352929052205460ff165b8061294d5750836001600160a01b031661294284610b9b565b6001600160a01b0316145b949350505050565b826001600160a01b031661296882611524565b6001600160a01b0316146129cc5760405162461bcd60e51b815260206004820152602560248201527f4552433732313a207472616e736665722066726f6d20696e636f72726563742060448201526437bbb732b960d91b6064820152608401610c03565b6001600160a01b038216612a2e5760405162461bcd60e51b8152602060048201526024808201527f4552433732313a207472616e7366657220746f20746865207a65726f206164646044820152637265737360e01b6064820152608401610c03565b612a39838383613660565b612a446000826127fd565b6001600160a01b0383166000908152600560205260408120805460019290612a6d908490614c2a565b90915550506001600160a01b0382166000908152600560205260408120805460019290612a9b908490614bdf565b909155505060008181526004602052604080822080546001600160a01b0319166001600160a01b0386811691821790925591518493918716917fddf252ad1be2c89b69c2b068fc378daa952ba7f163c4a11628f55a4df523b3ef91a4505050565b60008151116127235760405162461bcd60e51b815260206004820152600e60248201526d696e76616c69645f737472696e6760901b6044820152606401610c03565b612b47826127e0565b612baa5760405162461bcd60e51b815260206004820152602e60248201527f45524337323155524953746f726167653a2055524920736574206f66206e6f6e60448201526d32bc34b9ba32b73a103a37b5b2b760911b6064820152608401610c03565b6000828152600c602090815260409091208251610d3992840190614010565b60005b8251811015612de4576000838281518110612be957612be9614d19565b60200260200101519050612c0081600001516127e0565b6040518060400160405280601081526020016f1b9bd91957db9bdb995e1a5cdd195b9d60821b81525090612c475760405162461bcd60e51b8152600401610c039190614936565b50612c6f8160200151604051806040016040528060018152602001605f60f81b815250613543565b156040518060400160405280600f81526020016e72657365727665645f737472696e6760881b81525090612cb65760405162461bcd60e51b8152600401610c039190614936565b5080516000908152601260205260408120549050612cd533835161286b565b158015612ceb57508151612ce990336111d0565b155b8015612cf75750600081115b8015612d19575081516000878152601060205260409020612d179161366b565b155b15612db5577f00000000000000000000000000000000000000000000000000000000000000006001600160a01b031663f340fa0182612d5b8560000151611524565b6040516001600160e01b031960e085901b1681526001600160a01b0390911660048201526024016000604051808303818588803b158015612d9b57600080fd5b505af1158015612daf573d6000803e3d6000fd5b50505050505b81516000878152601060205260409020612dce916132b7565b5050508080612ddc90614ca8565b915050612bcc565b50600083815260116020908152604080832080548251818502810185019093528083529192909190849084015b82821015612edf578382906000526020600020906002020160405180604001604052908160008201548152602001600182018054612e4e90614c6d565b80601f0160208091040260200160405190810160405280929190818152602001828054612e7a90614c6d565b8015612ec75780601f10612e9c57610100808354040283529160200191612ec7565b820191906000526020600020905b815481529060010190602001808311612eaa57829003601f168201915b50505050508152505081526020019060010190612e11565b5050506000868152601160205260408120929350612efe929150614094565b60005b82518110156130b8576000838281518110612f1e57612f1e614d19565b60200260200101519050612f3581600001516127e0565b6040518060400160405280601081526020016f1b9bd91957db9bdb995e1a5cdd195b9d60821b81525090612f7c5760405162461bcd60e51b8152600401610c039190614936565b506000805b8451811015612fe9576000858281518110612f9e57612f9e614d19565b6020026020010151905083600001518160000151148015612fcc5750612fcc8160200151856020015161159b565b15612fd657600192505b5080612fe181614ca8565b915050612f81565b50801580156130095750815160009081526016602052604090205460ff16155b1561305e57815161301a90336111d0565b604051806040016040528060188152602001600080516020614d718339815191528152509061305c5760405162461bcd60e51b8152600401610c039190614936565b505b600087815260116020908152604082208054600181810183559184529282902085516002909402019283558482015180518694936130a0938501920190614010565b505050505080806130b090614ca8565b915050612f01565b5060005b815181101561171c5760008282815181106130d9576130d9614d19565b602002602001015190506000805b855181101561314f57600086828151811061310457613104614d19565b602002602001015190508060000151846000015114801561313257506131328460200151826020015161159b565b1561313c57600192505b508061314781614ca8565b9150506130e7565b508015801561316f5750815160009081526016602052604090205460ff16155b156131c457815161318090336111d0565b604051806040016040528060188152602001600080516020614d71833981519152815250906131c25760405162461bcd60e51b8152600401610c039190614936565b505b505080806131d190614ca8565b9150506130bc565b61272381613683565b6127106001600160601b038216111561320d5760405162461bcd60e51b8152600401610c0390614ad1565b6001600160a01b0382166132635760405162461bcd60e51b815260206004820152601b60248201527f455243323938313a20496e76616c696420706172616d657465727300000000006044820152606401610c03565b6040805180820182526001600160a01b0393841681526001600160601b0392831660208083019182526000968752600190529190942093519051909116600160a01b029116179055565b6000610aed825490565b60006111f0838361369d565b816001600160a01b0316836001600160a01b031614156133255760405162461bcd60e51b815260206004820152601960248201527f4552433732313a20617070726f766520746f2063616c6c6572000000000000006044820152606401610c03565b6001600160a01b03838116600081815260076020908152604080832094871680845294825291829020805460ff191686151590811790915591519182527f17307eab39ab6107e8899845ad3d59bd9653f200f220920489ca2b5937696c31910160405180910390a3505050565b61339d848484612955565b6133a9848484846136ec565b61151e5760405162461bcd60e51b8152600401610c0390614a2e565b60606133d0826127e0565b6134365760405162461bcd60e51b815260206004820152603160248201527f45524337323155524953746f726167653a2055524920717565727920666f72206044820152703737b732bc34b9ba32b73a103a37b5b2b760791b6064820152608401610c03565b6000828152600c60205260408120805461344f90614c6d565b80601f016020809104026020016040519081016040528092919081815260200182805461347b90614c6d565b80156134c85780601f1061349d576101008083540402835291602001916134c8565b820191906000526020600020905b8154815290600101906020018083116134ab57829003601f168201915b5050505050905060006134f5604080518082019091526007815266697066733a2f2f60c81b602082015290565b9050805160001415613508575092915050565b81511561353a578082604051602001613522929190614898565b60405160208183030381529060405292505050919050565b61294d846137f9565b8051825160009183918591111561358d5760405162461bcd60e51b815260206004820152600e60248201526d696e76616c69645f737472696e6760901b6044820152606401610c03565b600160005b83518110156135ff578381815181106135ad576135ad614d19565b602001015160f81c60f81b6001600160f81b0319168382815181106135d4576135d4614d19565b01602001516001600160f81b031916146135ed57600091505b806135f781614ca8565b915050613592565b5095945050505050565b610b058282604051806020016040528060008152506138df565b60006111f08383613912565b60006111f08383613a05565b60006001600160e01b0319821663780e9d6360e01b1480610aed5750610aed82613a2f565b610d39838383613a6f565b600081815260018301602052604081205415156111f0565b61368c81613b27565b600090815260016020526040812055565b60008181526001830160205260408120546136e457508154600181810184556000848152602080822090930184905584548482528286019093526040902091909155610aed565b506000610aed565b60006001600160a01b0384163b156137ee57604051630a85bd0160e11b81526001600160a01b0385169063150b7a02906137309033908990889088906004016148f9565b602060405180830381600087803b15801561374a57600080fd5b505af192505050801561377a575060408051601f3d908101601f19168201909252613777918101906144be565b60015b6137d4573d8080156137a8576040519150601f19603f3d011682016040523d82523d6000602084013e6137ad565b606091505b5080516137cc5760405162461bcd60e51b8152600401610c0390614a2e565b805181602001fd5b6001600160e01b031916630a85bd0160e11b14905061294d565b506001949350505050565b6060613804826127e0565b6138685760405162461bcd60e51b815260206004820152602f60248201527f4552433732314d657461646174613a2055524920717565727920666f72206e6f60448201526e3732bc34b9ba32b73a103a37b5b2b760891b6064820152608401610c03565b600061388e604080518082019091526007815266697066733a2f2f60c81b602082015290565b905060008151116138ae57604051806020016040528060008152506111f0565b806138b884613b67565b6040516020016138c9929190614898565b6040516020818303038152906040529392505050565b6138e98383613c65565b6138f660008484846136ec565b610d395760405162461bcd60e51b8152600401610c0390614a2e565b600081815260018301602052604081205480156139fb576000613936600183614c2a565b855490915060009061394a90600190614c2a565b90508181146139af57600086600001828154811061396a5761396a614d19565b906000526020600020015490508087600001848154811061398d5761398d614d19565b6000918252602080832090910192909255918252600188019052604090208390555b85548690806139c0576139c0614d03565b600190038181906000526020600020016000905590558560010160008681526020019081526020016000206000905560019350505050610aed565b6000915050610aed565b6000826000018281548110613a1c57613a1c614d19565b9060005260206000200154905092915050565b60006001600160e01b031982166380ac58cd60e01b1480613a6057506001600160e01b03198216635b5e139f60e01b145b80610aed5750610aed82613da4565b6001600160a01b038316613aca57613ac581600a80546000838152600b60205260408120829055600182018355919091527fc65a7bb8d6351c1cf70c95a316cc6a92839c986682d98bc35f958f4883f9d2a80155565b613aed565b816001600160a01b0316836001600160a01b031614613aed57613aed8382613dd9565b6001600160a01b038216613b0457610d3981613e76565b826001600160a01b0316826001600160a01b031614610d3957610d398282613f25565b613b3081613f69565b6000818152600c602052604090208054613b4990614c6d565b159050612723576000818152600c60205260408120612723916140b5565b606081613b8b5750506040805180820190915260018152600360fc1b602082015290565b8160005b8115613bb55780613b9f81614ca8565b9150613bae9050600a83614bf7565b9150613b8f565b60008167ffffffffffffffff811115613bd057613bd0614d2f565b6040519080825280601f01601f191660200182016040528015613bfa576020820181803683370190505b5090505b841561294d57613c0f600183614c2a565b9150613c1c600a86614cc3565b613c27906030614bdf565b60f81b818381518110613c3c57613c3c614d19565b60200101906001600160f81b031916908160001a905350613c5e600a86614bf7565b9450613bfe565b6001600160a01b038216613cbb5760405162461bcd60e51b815260206004820181905260248201527f4552433732313a206d696e7420746f20746865207a65726f20616464726573736044820152606401610c03565b613cc4816127e0565b15613d115760405162461bcd60e51b815260206004820152601c60248201527f4552433732313a20746f6b656e20616c7265616479206d696e746564000000006044820152606401610c03565b613d1d60008383613660565b6001600160a01b0382166000908152600560205260408120805460019290613d46908490614bdf565b909155505060008181526004602052604080822080546001600160a01b0319166001600160a01b03861690811790915590518392907fddf252ad1be2c89b69c2b068fc378daa952ba7f163c4a11628f55a4df523b3ef908290a45050565b60006001600160e01b0319821663152a902d60e11b1480610aed57506301ffc9a760e01b6001600160e01b0319831614610aed565b60006001613de6846115f4565b613df09190614c2a565b600083815260096020526040902054909150808214613e43576001600160a01b03841660009081526008602090815260408083208584528252808320548484528184208190558352600990915290208190555b5060009182526009602090815260408084208490556001600160a01b039094168352600881528383209183525290812055565b600a54600090613e8890600190614c2a565b6000838152600b6020526040812054600a8054939450909284908110613eb057613eb0614d19565b9060005260206000200154905080600a8381548110613ed157613ed1614d19565b6000918252602080832090910192909255828152600b9091526040808220849055858252812055600a805480613f0957613f09614d03565b6001900381819060005260206000200160009055905550505050565b6000613f30836115f4565b6001600160a01b039093166000908152600860209081526040808320868452825280832085905593825260099052919091209190915550565b6000613f7482611524565b9050613f8281600084613660565b613f8d6000836127fd565b6001600160a01b0381166000908152600560205260408120805460019290613fb6908490614c2a565b909155505060008281526004602052604080822080546001600160a01b0319169055518391906001600160a01b038416907fddf252ad1be2c89b69c2b068fc378daa952ba7f163c4a11628f55a4df523b3ef908390a45050565b82805461401c90614c6d565b90600052602060002090601f01602090048101928261403e5760008555614084565b82601f1061405757805160ff1916838001178555614084565b82800160010185558215614084579182015b82811115614084578251825591602001919060010190614069565b506140909291506140eb565b5090565b50805460008255600202906000526020600020908101906127239190614100565b5080546140c190614c6d565b6000825580601f106140d1575050565b601f01602090049060005260206000209081019061272391905b5b8082111561409057600081556001016140ec565b8082111561409057600080825561411a60018301826140b5565b50600201614100565b600067ffffffffffffffff83111561413d5761413d614d2f565b614150601f8401601f1916602001614b8a565b905082815283838301111561416457600080fd5b828260208301376000602084830101529392505050565b600082601f83011261418c57600080fd5b813560206141a161419c83614bbb565b614b8a565b80838252828201915082860187848660051b89010111156141c157600080fd5b60005b8581101561424457813567ffffffffffffffff808211156141e457600080fd5b908901906040828c03601f19018113156141fd57600080fd5b614205614b61565b83890135815290830135908282111561421d57600080fd5b61422b8d8a848701016142c6565b818a0152875250505092840192908401906001016141c4565b5090979650505050505050565b600082601f83011261426257600080fd5b8135602061427261419c83614bbb565b80838252828201915082860187848660051b890101111561429257600080fd5b60005b8581101561424457813584529284019290840190600101614295565b803580151581146142c157600080fd5b919050565b600082601f8301126142d757600080fd5b6111f083833560208501614123565b80356001600160601b03811681146142c157600080fd5b60006020828403121561430f57600080fd5b81356111f081614d45565b6000806040838503121561432d57600080fd5b823561433881614d45565b9150602083013561434881614d45565b809150509250929050565b60008060006060848603121561436857600080fd5b833561437381614d45565b9250602084013561438381614d45565b929592945050506040919091013590565b600080600080608085870312156143aa57600080fd5b84356143b581614d45565b935060208501356143c581614d45565b925060408501359150606085013567ffffffffffffffff8111156143e857600080fd5b8501601f810187136143f957600080fd5b61440887823560208401614123565b91505092959194509250565b6000806040838503121561442757600080fd5b823561443281614d45565b9150614440602084016142b1565b90509250929050565b6000806040838503121561445c57600080fd5b823561446781614d45565b946020939093013593505050565b6000806040838503121561448857600080fd5b823561449381614d45565b9150614440602084016142e6565b6000602082840312156144b357600080fd5b81356111f081614d5a565b6000602082840312156144d057600080fd5b81516111f081614d5a565b600080604083850312156144ee57600080fd5b823567ffffffffffffffff8082111561450657600080fd5b614512868387016142c6565b9350602085013591508082111561452857600080fd5b50614535858286016142c6565b9150509250929050565b600080600080600060a0868803121561455757600080fd5b853567ffffffffffffffff8082111561456f57600080fd5b61457b89838a016142c6565b9650602088013591508082111561459157600080fd5b61459d89838a016142c6565b955060408801359150808211156145b357600080fd5b6145bf89838a0161417b565b945060608801359150808211156145d557600080fd5b6145e189838a0161417b565b935060808801359150808211156145f757600080fd5b5061460488828901614251565b9150509295509295909350565b60006020828403121561462357600080fd5b5035919050565b60006020828403121561463c57600080fd5b5051919050565b6000806040838503121561465657600080fd5b82359150602083013561434881614d45565b60008060006060848603121561467d57600080fd5b83359250602084013561468f81614d45565b915061469d604085016142e6565b90509250925092565b600080604083850312156146b957600080fd5b82359150614440602084016142b1565b600080604083850312156146dc57600080fd5b82359150602083013567ffffffffffffffff8111156146fa57600080fd5b614535858286016142c6565b6000806000806080858703121561471c57600080fd5b84359350602085013567ffffffffffffffff8082111561473b57600080fd5b614747888389016142c6565b9450604087013591508082111561475d57600080fd5b6147698883890161417b565b9350606087013591508082111561477f57600080fd5b506144088782880161417b565b6000806040838503121561479f57600080fd5b50508035926020909101359150565b6000806000606084860312156147c357600080fd5b833592506020840135915060408401356147dc81614d45565b809150509250925092565b600081518084526020808501808196508360051b8101915082860160005b85811015614843578284038952815180518552850151604086860181905261482f81870183614850565b9a87019a9550505090840190600101614805565b5091979650505050505050565b60008151808452614868816020860160208601614c41565b601f01601f19169290920160200192915050565b6000825161488e818460208701614c41565b9190910192915050565b600083516148aa818460208801614c41565b8351908301906148be818360208801614c41565b01949350505050565b600082516148d9818460208701614c41565b6d17b6b2ba30b230ba30973539b7b760911b920191825250600e01919050565b6001600160a01b038581168252841660208201526040810183905260806060820181905260009061492c90830184614850565b9695505050505050565b6020815260006111f06020830184614850565b60408152600061495c6040830185614850565b905060018060a01b03831660208301529392505050565b6080815260006149866080830187614850565b828103602084015261499881876147e7565b905082810360408401526149ac81866147e7565b91505060018060a01b038316606083015295945050505050565b60a0815260006149d960a0830188614850565b82810360208401526149eb8188614850565b905082810360408401526149ff81876147e7565b90508281036060840152614a1381866147e7565b91505060018060a01b03831660808301529695505050505050565b60208082526032908201527f4552433732313a207472616e7366657220746f206e6f6e20455243373231526560408201527131b2b4bb32b91034b6b83632b6b2b73a32b960711b606082015260800190565b60208082526031908201527f4552433732313a207472616e736665722063616c6c6572206973206e6f74206f6040820152701ddb995c881b9bdc88185c1c1c9bdd9959607a1b606082015260800190565b6020808252602a908201527f455243323938313a20726f79616c7479206665652077696c6c206578636565646040820152692073616c65507269636560b01b606082015260800190565b92835260208301919091526001600160a01b0316604082015260600190565b93845260208401929092526001600160a01b03908116604084015216606082015260800190565b6040805190810167ffffffffffffffff81118282101715614b8457614b84614d2f565b60405290565b604051601f8201601f1916810167ffffffffffffffff81118282101715614bb357614bb3614d2f565b604052919050565b600067ffffffffffffffff821115614bd557614bd5614d2f565b5060051b60200190565b60008219821115614bf257614bf2614cd7565b500190565b600082614c0657614c06614ced565b500490565b6000816000190483118215151615614c2557614c25614cd7565b500290565b600082821015614c3c57614c3c614cd7565b500390565b60005b83811015614c5c578181015183820152602001614c44565b8381111561151e5750506000910152565b600181811c90821680614c8157607f821691505b60208210811415614ca257634e487b7160e01b600052602260045260246000fd5b50919050565b6000600019821415614cbc57614cbc614cd7565b5060010190565b600082614cd257614cd2614ced565b500690565b634e487b7160e01b600052601160045260246000fd5b634e487b7160e01b600052601260045260246000fd5b634e487b7160e01b600052603160045260246000fd5b634e487b7160e01b600052603260045260246000fd5b634e487b7160e01b600052604160045260246000fd5b6001600160a01b038116811461272357600080fd5b6001600160e01b03198116811461272357600080fdfe696e73756666696369656e745f7065726d697373696f6e730000000000000000a26469706673582212204fe9fc68caf289f072346efed164a4e728b1356fd7c5b7e8cfae90db410a6b1564736f6c63430008070033608060405234801561001057600080fd5b5061001a3361001f565b61006f565b600080546001600160a01b038381166001600160a01b0319831681178455604051919092169283917f8be0079c531659141344cd1fd0a4f28419497f9722a3daafe3b4186f6b6457e09190a35050565b6105748061007e6000396000f3fe6080604052600436106100555760003560e01c806351cff8d91461005a578063715018a61461007c5780638da5cb5b14610091578063e3a9db1a146100be578063f2fde38b14610102578063f340fa0114610122575b600080fd5b34801561006657600080fd5b5061007a6100753660046104aa565b610135565b005b34801561008857600080fd5b5061007a6101d7565b34801561009d57600080fd5b506000546040516001600160a01b0390911681526020015b60405180910390f35b3480156100ca57600080fd5b506100f46100d93660046104aa565b6001600160a01b031660009081526001602052604090205490565b6040519081526020016100b5565b34801561010e57600080fd5b5061007a61011d3660046104aa565b61020d565b61007a6101303660046104aa565b6102a8565b6000546001600160a01b031633146101685760405162461bcd60e51b815260040161015f906104ce565b60405180910390fd5b6001600160a01b0381166000818152600160205260408120805491905590610190908261033c565b816001600160a01b03167f7084f5476618d8e60b11ef0d7d3f06914655adb8793e28ff7f018d4c76d505d5826040516101cb91815260200190565b60405180910390a25050565b6000546001600160a01b031633146102015760405162461bcd60e51b815260040161015f906104ce565b61020b600061045a565b565b6000546001600160a01b031633146102375760405162461bcd60e51b815260040161015f906104ce565b6001600160a01b03811661029c5760405162461bcd60e51b815260206004820152602660248201527f4f776e61626c653a206e6577206f776e657220697320746865207a65726f206160448201526564647265737360d01b606482015260840161015f565b6102a58161045a565b50565b6000546001600160a01b031633146102d25760405162461bcd60e51b815260040161015f906104ce565b6001600160a01b0381166000908152600160205260408120805434928392916102fc908490610503565b90915550506040518181526001600160a01b038316907f2da466a7b24304f47e87fa2e1e5a81b9831ce54fec19055ce277ca2f39ba42c4906020016101cb565b8047101561038c5760405162461bcd60e51b815260206004820152601d60248201527f416464726573733a20696e73756666696369656e742062616c616e6365000000604482015260640161015f565b6000826001600160a01b03168260405160006040518083038185875af1925050503d80600081146103d9576040519150601f19603f3d011682016040523d82523d6000602084013e6103de565b606091505b50509050806104555760405162461bcd60e51b815260206004820152603a60248201527f416464726573733a20756e61626c6520746f2073656e642076616c75652c207260448201527f6563697069656e74206d61792068617665207265766572746564000000000000606482015260840161015f565b505050565b600080546001600160a01b038381166001600160a01b0319831681178455604051919092169283917f8be0079c531659141344cd1fd0a4f28419497f9722a3daafe3b4186f6b6457e09190a35050565b6000602082840312156104bc57600080fd5b81356104c781610529565b9392505050565b6020808252818101527f4f776e61626c653a2063616c6c6572206973206e6f7420746865206f776e6572604082015260600190565b6000821982111561052457634e487b7160e01b600052601160045260246000fd5b500190565b6001600160a01b03811681146102a557600080fdfea26469706673582212201464ef5ea1e512fc2964c4be04b842d7e31b50876950d68c99bdbf0c1d48c12164736f6c63430008070033",
  "linkReferences": {},
  "deployedLinkReferences": {}
}