{
  "_format": "hh-sol-artifact-1",
  "contractName": "Node",
  "sourceName": "contracts/src/Node.sol",
  "abi": [
    {
      "inputs": [],
      "stateMutability": "nonpayable",
      "type": "constructor"
    },
    {
      "anonymous": false,
      "inputs": [
        {
          "indexed": true,
          "internalType": "address",
          "name": "owner",
          "type": "address"
        },
        {
          "indexed": true,
          "internalType": "address",
          "name": "approved",
          "type": "address"
        },
        {
          "indexed": true,
          "internalType": "uint256",
          "name": "tokenId",
          "type": "uint256"
        }
      ],
      "name": "Approval",
      "type": "event"
    },
    {
      "anonymous": false,
      "inputs": [
        {
          "indexed": true,
          "internalType": "address",
          "name": "owner",
          "type": "address"
        },
        {
          "indexed": true,
          "internalType": "address",
          "name": "operator",
          "type": "address"
        },
        {
          "indexed": false,
          "internalType": "bool",
          "name": "approved",
          "type": "bool"
        }
      ],
      "name": "ApprovalForAll",
      "type": "event"
    },
    {
      "anonymous": false,
      "inputs": [
        {
          "indexed": false,
          "internalType": "uint256",
          "name": "tokenId",
          "type": "uint256"
        },
        {
          "indexed": false,
          "internalType": "uint256",
          "name": "connectionFee",
          "type": "uint256"
        },
        {
          "indexed": false,
          "internalType": "address",
          "name": "sender",
          "type": "address"
        }
      ],
      "name": "ConnectionFeeSet",
      "type": "event"
    },
    {
      "anonymous": false,
      "inputs": [
        {
          "indexed": false,
          "internalType": "uint256",
          "name": "forTokenId",
          "type": "uint256"
        },
        {
          "indexed": false,
          "internalType": "uint256",
          "name": "toTokenId",
          "type": "uint256"
        },
        {
          "indexed": false,
          "internalType": "address",
          "name": "sender",
          "type": "address"
        }
      ],
      "name": "DelegatePermissionsRenounced",
      "type": "event"
    },
    {
      "anonymous": false,
      "inputs": [
        {
          "indexed": true,
          "internalType": "uint256",
          "name": "tokenId",
          "type": "uint256"
        },
        {
          "indexed": false,
          "internalType": "string",
          "name": "hash",
          "type": "string"
        },
        {
          "components": [
            {
              "internalType": "uint256",
              "name": "tokenId",
              "type": "uint256"
            },
            {
              "internalType": "string",
              "name": "name",
              "type": "string"
            }
          ],
          "indexed": false,
          "internalType": "struct Node.Edge[]",
          "name": "incomingEdges",
          "type": "tuple[]"
        },
        {
          "components": [
            {
              "internalType": "uint256",
              "name": "tokenId",
              "type": "uint256"
            },
            {
              "internalType": "string",
              "name": "name",
              "type": "string"
            }
          ],
          "indexed": false,
          "internalType": "struct Node.Edge[]",
          "name": "outgoingEdges",
          "type": "tuple[]"
        },
        {
          "indexed": false,
          "internalType": "address",
          "name": "sender",
          "type": "address"
        }
      ],
      "name": "Merge",
      "type": "event"
    },
    {
      "anonymous": false,
      "inputs": [
        {
          "indexed": true,
          "internalType": "uint256",
          "name": "tokenId",
          "type": "uint256"
        },
        {
          "indexed": false,
          "internalType": "string",
          "name": "label",
          "type": "string"
        },
        {
          "indexed": false,
          "internalType": "string",
          "name": "hash",
          "type": "string"
        },
        {
          "components": [
            {
              "internalType": "uint256",
              "name": "tokenId",
              "type": "uint256"
            },
            {
              "internalType": "string",
              "name": "name",
              "type": "string"
            }
          ],
          "indexed": false,
          "internalType": "struct Node.Edge[]",
          "name": "incomingEdges",
          "type": "tuple[]"
        },
        {
          "components": [
            {
              "internalType": "uint256",
              "name": "tokenId",
              "type": "uint256"
            },
            {
              "internalType": "string",
              "name": "name",
              "type": "string"
            }
          ],
          "indexed": false,
          "internalType": "struct Node.Edge[]",
          "name": "outgoingEdges",
          "type": "tuple[]"
        },
        {
          "indexed": false,
          "internalType": "address",
          "name": "sender",
          "type": "address"
        }
      ],
      "name": "Mint",
      "type": "event"
    },
    {
      "anonymous": false,
      "inputs": [
        {
          "indexed": false,
          "internalType": "uint256",
          "name": "tokenId",
          "type": "uint256"
        },
        {
          "indexed": false,
          "internalType": "bool",
          "name": "bypassed",
          "type": "bool"
        },
        {
          "indexed": false,
          "internalType": "address",
          "name": "sender",
          "type": "address"
        }
      ],
      "name": "PermissionsBypassSet",
      "type": "event"
    },
    {
      "anonymous": false,
      "inputs": [
        {
          "indexed": false,
          "internalType": "uint256",
          "name": "forTokenId",
          "type": "uint256"
        },
        {
          "indexed": false,
          "internalType": "uint256",
          "name": "toTokenId",
          "type": "uint256"
        },
        {
          "indexed": false,
          "internalType": "address",
          "name": "sender",
          "type": "address"
        }
      ],
      "name": "PermissionsDelegated",
      "type": "event"
    },
    {
      "anonymous": false,
      "inputs": [
        {
          "indexed": true,
          "internalType": "uint256",
          "name": "tokenId",
          "type": "uint256"
        },
        {
          "indexed": false,
          "internalType": "string",
          "name": "hash",
          "type": "string"
        },
        {
          "indexed": false,
          "internalType": "address",
          "name": "sender",
          "type": "address"
        }
      ],
      "name": "Revise",
      "type": "event"
    },
    {
      "anonymous": false,
      "inputs": [
        {
          "indexed": false,
          "internalType": "uint256",
          "name": "tokenId",
          "type": "uint256"
        },
        {
          "indexed": false,
          "internalType": "uint256",
          "name": "role",
          "type": "uint256"
        },
        {
          "indexed": false,
          "internalType": "address",
          "name": "account",
          "type": "address"
        },
        {
          "indexed": false,
          "internalType": "address",
          "name": "sender",
          "type": "address"
        }
      ],
      "name": "RoleGranted",
      "type": "event"
    },
    {
      "anonymous": false,
      "inputs": [
        {
          "indexed": false,
          "internalType": "uint256",
          "name": "tokenId",
          "type": "uint256"
        },
        {
          "indexed": false,
          "internalType": "uint256",
          "name": "role",
          "type": "uint256"
        },
        {
          "indexed": false,
          "internalType": "address",
          "name": "account",
          "type": "address"
        },
        {
          "indexed": false,
          "internalType": "address",
          "name": "sender",
          "type": "address"
        }
      ],
      "name": "RoleRevoked",
      "type": "event"
    },
    {
      "anonymous": false,
      "inputs": [
        {
          "indexed": true,
          "internalType": "address",
          "name": "from",
          "type": "address"
        },
        {
          "indexed": true,
          "internalType": "address",
          "name": "to",
          "type": "address"
        },
        {
          "indexed": true,
          "internalType": "uint256",
          "name": "tokenId",
          "type": "uint256"
        }
      ],
      "name": "Transfer",
      "type": "event"
    },
    {
      "inputs": [],
      "name": "ADMIN_ROLE",
      "outputs": [
        {
          "internalType": "uint256",
          "name": "",
          "type": "uint256"
        }
      ],
      "stateMutability": "view",
      "type": "function"
    },
    {
      "inputs": [],
      "name": "EDITOR_ROLE",
      "outputs": [
        {
          "internalType": "uint256",
          "name": "",
          "type": "uint256"
        }
      ],
      "stateMutability": "view",
      "type": "function"
    },
    {
      "inputs": [],
      "name": "ERR_INSUFFICIENT_PERMISSIONS",
      "outputs": [
        {
          "internalType": "string",
          "name": "",
          "type": "string"
        }
      ],
      "stateMutability": "view",
      "type": "function"
    },
    {
      "inputs": [],
      "name": "ERR_NODE_NONEXISTENT",
      "outputs": [
        {
          "internalType": "string",
          "name": "",
          "type": "string"
        }
      ],
      "stateMutability": "view",
      "type": "function"
    },
    {
      "inputs": [],
      "name": "ERR_RECURSIVE_DELEGATION",
      "outputs": [
        {
          "internalType": "string",
          "name": "",
          "type": "string"
        }
      ],
      "stateMutability": "view",
      "type": "function"
    },
    {
      "inputs": [
        {
          "internalType": "address",
          "name": "to",
          "type": "address"
        },
        {
          "internalType": "uint256",
          "name": "tokenId",
          "type": "uint256"
        }
      ],
      "name": "approve",
      "outputs": [],
      "stateMutability": "nonpayable",
      "type": "function"
    },
    {
      "inputs": [
        {
          "internalType": "address",
          "name": "owner",
          "type": "address"
        }
      ],
      "name": "balanceOf",
      "outputs": [
        {
          "internalType": "uint256",
          "name": "",
          "type": "uint256"
        }
      ],
      "stateMutability": "view",
      "type": "function"
    },
    {
      "inputs": [
        {
          "internalType": "uint256",
          "name": "tokenId",
          "type": "uint256"
        }
      ],
      "name": "burnNode",
      "outputs": [],
      "stateMutability": "nonpayable",
      "type": "function"
    },
    {
      "inputs": [
        {
          "internalType": "uint256",
          "name": "tokenId",
          "type": "uint256"
        },
        {
          "internalType": "address",
          "name": "account",
          "type": "address"
        }
      ],
      "name": "canEdit",
      "outputs": [
        {
          "internalType": "bool",
          "name": "",
          "type": "bool"
        }
      ],
      "stateMutability": "view",
      "type": "function"
    },
    {
      "inputs": [
        {
          "internalType": "uint256",
          "name": "forTokenId",
          "type": "uint256"
        },
        {
          "internalType": "uint256",
          "name": "toTokenId",
          "type": "uint256"
        }
      ],
      "name": "delegatePermissions",
      "outputs": [],
      "stateMutability": "nonpayable",
      "type": "function"
    },
    {
      "inputs": [
        {
          "internalType": "uint256",
          "name": "tokenId",
          "type": "uint256"
        }
      ],
      "name": "exists",
      "outputs": [
        {
          "internalType": "bool",
          "name": "",
          "type": "bool"
        }
      ],
      "stateMutability": "view",
      "type": "function"
    },
    {
      "inputs": [
        {
          "internalType": "uint256",
          "name": "tokenId",
          "type": "uint256"
        }
      ],
      "name": "getApproved",
      "outputs": [
        {
          "internalType": "address",
          "name": "",
          "type": "address"
        }
      ],
      "stateMutability": "view",
      "type": "function"
    },
    {
      "inputs": [
        {
          "internalType": "uint256",
          "name": "tokenId",
          "type": "uint256"
        }
      ],
      "name": "getConnectionFee",
      "outputs": [
        {
          "internalType": "uint256",
          "name": "",
          "type": "uint256"
        }
      ],
      "stateMutability": "view",
      "type": "function"
    },
    {
      "inputs": [
        {
          "internalType": "uint256",
          "name": "tokenId",
          "type": "uint256"
        },
        {
          "internalType": "uint256",
          "name": "role",
          "type": "uint256"
        },
        {
          "internalType": "address",
          "name": "account",
          "type": "address"
        }
      ],
      "name": "grantRole",
      "outputs": [],
      "stateMutability": "nonpayable",
      "type": "function"
    },
    {
      "inputs": [
        {
          "internalType": "uint256",
          "name": "tokenId",
          "type": "uint256"
        }
      ],
      "name": "hasPermissionsBypass",
      "outputs": [
        {
          "internalType": "bool",
          "name": "",
          "type": "bool"
        }
      ],
      "stateMutability": "view",
      "type": "function"
    },
    {
      "inputs": [
        {
          "internalType": "uint256",
          "name": "tokenId",
          "type": "uint256"
        },
        {
          "internalType": "uint256",
          "name": "role",
          "type": "uint256"
        },
        {
          "internalType": "address",
          "name": "account",
          "type": "address"
        }
      ],
      "name": "hasRole",
      "outputs": [
        {
          "internalType": "bool",
          "name": "",
          "type": "bool"
        }
      ],
      "stateMutability": "view",
      "type": "function"
    },
    {
      "inputs": [
        {
          "internalType": "address",
          "name": "owner",
          "type": "address"
        },
        {
          "internalType": "address",
          "name": "operator",
          "type": "address"
        }
      ],
      "name": "isApprovedForAll",
      "outputs": [
        {
          "internalType": "bool",
          "name": "",
          "type": "bool"
        }
      ],
      "stateMutability": "view",
      "type": "function"
    },
    {
      "inputs": [
        {
          "internalType": "uint256",
          "name": "tokenId",
          "type": "uint256"
        },
        {
          "internalType": "string",
          "name": "hash",
          "type": "string"
        },
        {
          "components": [
            {
              "internalType": "uint256",
              "name": "tokenId",
              "type": "uint256"
            },
            {
              "internalType": "string",
              "name": "name",
              "type": "string"
            }
          ],
          "internalType": "struct Node.Edge[]",
          "name": "incomingEdges",
          "type": "tuple[]"
        },
        {
          "components": [
            {
              "internalType": "uint256",
              "name": "tokenId",
              "type": "uint256"
            },
            {
              "internalType": "string",
              "name": "name",
              "type": "string"
            }
          ],
          "internalType": "struct Node.Edge[]",
          "name": "outgoingEdges",
          "type": "tuple[]"
        }
      ],
      "name": "merge",
      "outputs": [],
      "stateMutability": "payable",
      "type": "function"
    },
    {
      "inputs": [
        {
          "internalType": "string",
          "name": "label",
          "type": "string"
        },
        {
          "internalType": "string",
          "name": "hash",
          "type": "string"
        },
        {
          "components": [
            {
              "internalType": "uint256",
              "name": "tokenId",
              "type": "uint256"
            },
            {
              "internalType": "string",
              "name": "name",
              "type": "string"
            }
          ],
          "internalType": "struct Node.Edge[]",
          "name": "incomingEdges",
          "type": "tuple[]"
        },
        {
          "components": [
            {
              "internalType": "uint256",
              "name": "tokenId",
              "type": "uint256"
            },
            {
              "internalType": "string",
              "name": "name",
              "type": "string"
            }
          ],
          "internalType": "struct Node.Edge[]",
          "name": "outgoingEdges",
          "type": "tuple[]"
        }
      ],
      "name": "mint",
      "outputs": [],
      "stateMutability": "payable",
      "type": "function"
    },
    {
      "inputs": [],
      "name": "name",
      "outputs": [
        {
          "internalType": "string",
          "name": "",
          "type": "string"
        }
      ],
      "stateMutability": "view",
      "type": "function"
    },
    {
      "inputs": [
        {
          "internalType": "uint256",
          "name": "tokenId",
          "type": "uint256"
        }
      ],
      "name": "ownerOf",
      "outputs": [
        {
          "internalType": "address",
          "name": "",
          "type": "address"
        }
      ],
      "stateMutability": "view",
      "type": "function"
    },
    {
      "inputs": [
        {
          "internalType": "address",
          "name": "dest",
          "type": "address"
        }
      ],
      "name": "payments",
      "outputs": [
        {
          "internalType": "uint256",
          "name": "",
          "type": "uint256"
        }
      ],
      "stateMutability": "view",
      "type": "function"
    },
    {
      "inputs": [
        {
          "internalType": "uint256",
          "name": "forTokenId",
          "type": "uint256"
        },
        {
          "internalType": "uint256",
          "name": "toTokenId",
          "type": "uint256"
        }
      ],
      "name": "renounceDelegatePermissions",
      "outputs": [],
      "stateMutability": "nonpayable",
      "type": "function"
    },
    {
      "inputs": [
        {
          "internalType": "uint256",
          "name": "tokenId",
          "type": "uint256"
        },
        {
          "internalType": "uint256",
          "name": "role",
          "type": "uint256"
        }
      ],
      "name": "renounceRole",
      "outputs": [],
      "stateMutability": "nonpayable",
      "type": "function"
    },
    {
      "inputs": [
        {
          "internalType": "uint256",
          "name": "tokenId",
          "type": "uint256"
        },
        {
          "internalType": "string",
          "name": "hash",
          "type": "string"
        }
      ],
      "name": "revise",
      "outputs": [],
      "stateMutability": "nonpayable",
      "type": "function"
    },
    {
      "inputs": [
        {
          "internalType": "uint256",
          "name": "tokenId",
          "type": "uint256"
        },
        {
          "internalType": "uint256",
          "name": "role",
          "type": "uint256"
        },
        {
          "internalType": "address",
          "name": "account",
          "type": "address"
        }
      ],
      "name": "revokeRole",
      "outputs": [],
      "stateMutability": "nonpayable",
      "type": "function"
    },
    {
      "inputs": [
        {
          "internalType": "address",
          "name": "from",
          "type": "address"
        },
        {
          "internalType": "address",
          "name": "to",
          "type": "address"
        },
        {
          "internalType": "uint256",
          "name": "tokenId",
          "type": "uint256"
        }
      ],
      "name": "safeTransferFrom",
      "outputs": [],
      "stateMutability": "nonpayable",
      "type": "function"
    },
    {
      "inputs": [
        {
          "internalType": "address",
          "name": "from",
          "type": "address"
        },
        {
          "internalType": "address",
          "name": "to",
          "type": "address"
        },
        {
          "internalType": "uint256",
          "name": "tokenId",
          "type": "uint256"
        },
        {
          "internalType": "bytes",
          "name": "_data",
          "type": "bytes"
        }
      ],
      "name": "safeTransferFrom",
      "outputs": [],
      "stateMutability": "nonpayable",
      "type": "function"
    },
    {
      "inputs": [
        {
          "internalType": "address",
          "name": "operator",
          "type": "address"
        },
        {
          "internalType": "bool",
          "name": "approved",
          "type": "bool"
        }
      ],
      "name": "setApprovalForAll",
      "outputs": [],
      "stateMutability": "nonpayable",
      "type": "function"
    },
    {
      "inputs": [
        {
          "internalType": "uint256",
          "name": "tokenId",
          "type": "uint256"
        },
        {
          "internalType": "uint256",
          "name": "connectionFee",
          "type": "uint256"
        }
      ],
      "name": "setConnectionFee",
      "outputs": [],
      "stateMutability": "nonpayable",
      "type": "function"
    },
    {
      "inputs": [
        {
          "internalType": "uint256",
          "name": "tokenId",
          "type": "uint256"
        },
        {
          "internalType": "bool",
          "name": "shouldBypassPermissions",
          "type": "bool"
        }
      ],
      "name": "setPermissionsBypass",
      "outputs": [],
      "stateMutability": "nonpayable",
      "type": "function"
    },
    {
      "inputs": [
        {
          "internalType": "string",
          "name": "a",
          "type": "string"
        },
        {
          "internalType": "string",
          "name": "b",
          "type": "string"
        }
      ],
      "name": "stringsAreEqual",
      "outputs": [
        {
          "internalType": "bool",
          "name": "",
          "type": "bool"
        }
      ],
      "stateMutability": "pure",
      "type": "function"
    },
    {
      "inputs": [
        {
          "internalType": "bytes4",
          "name": "interfaceId",
          "type": "bytes4"
        }
      ],
      "name": "supportsInterface",
      "outputs": [
        {
          "internalType": "bool",
          "name": "",
          "type": "bool"
        }
      ],
      "stateMutability": "view",
      "type": "function"
    },
    {
      "inputs": [],
      "name": "symbol",
      "outputs": [
        {
          "internalType": "string",
          "name": "",
          "type": "string"
        }
      ],
      "stateMutability": "view",
      "type": "function"
    },
    {
      "inputs": [
        {
          "internalType": "uint256",
          "name": "index",
          "type": "uint256"
        }
      ],
      "name": "tokenByIndex",
      "outputs": [
        {
          "internalType": "uint256",
          "name": "",
          "type": "uint256"
        }
      ],
      "stateMutability": "view",
      "type": "function"
    },
    {
      "inputs": [
        {
          "internalType": "address",
          "name": "owner",
          "type": "address"
        },
        {
          "internalType": "uint256",
          "name": "index",
          "type": "uint256"
        }
      ],
      "name": "tokenOfOwnerByIndex",
      "outputs": [
        {
          "internalType": "uint256",
          "name": "",
          "type": "uint256"
        }
      ],
      "stateMutability": "view",
      "type": "function"
    },
    {
      "inputs": [
        {
          "internalType": "uint256",
          "name": "tokenId",
          "type": "uint256"
        }
      ],
      "name": "tokenURI",
      "outputs": [
        {
          "internalType": "string",
          "name": "",
          "type": "string"
        }
      ],
      "stateMutability": "view",
      "type": "function"
    },
    {
      "inputs": [],
      "name": "totalSupply",
      "outputs": [
        {
          "internalType": "uint256",
          "name": "",
          "type": "uint256"
        }
      ],
      "stateMutability": "view",
      "type": "function"
    },
    {
      "inputs": [
        {
          "internalType": "address",
          "name": "from",
          "type": "address"
        },
        {
          "internalType": "address",
          "name": "to",
          "type": "address"
        },
        {
          "internalType": "uint256",
          "name": "tokenId",
          "type": "uint256"
        }
      ],
      "name": "transferFrom",
      "outputs": [],
      "stateMutability": "nonpayable",
      "type": "function"
    },
    {
      "inputs": [
        {
          "internalType": "address payable",
          "name": "payee",
          "type": "address"
        }
      ],
      "name": "withdrawPayments",
      "outputs": [],
      "stateMutability": "nonpayable",
      "type": "function"
    }
  ],
  "bytecode": "0x60a06040523480156200001157600080fd5b50604051806040016040528060048152602001634e6f646560e01b815250604051806040016040528060048152602001634e4f444560e01b815250816000908051906020019062000064929190620000c0565b5080516200007a906001906020840190620000c0565b50506001600b555060405162000090906200014f565b604051809103906000f080158015620000ad573d6000803e3d6000fd5b506001600160a01b0316608052620001b1565b828054620000ce9062000174565b90600052602060002090601f016020900481019282620000f257600085556200013d565b82601f106200010d57805160ff19168380011785556200013d565b828001600101855582156200013d579182015b828111156200013d57825182559160200191906001019062000120565b506200014b9291506200015d565b5090565b6105f2806200404883390190565b5b808211156200014b57600081556001016200015e565b600181811c908216806200018957607f821691505b60208210811415620001ab57634e487b7160e01b600052602260045260246000fd5b50919050565b608051613e6d620001db60003960008181610d6f01528181611a3401526121c30152613e6d6000f3fe60806040526004361061023b5760003560e01c80636f6333401161012e578063a937319a116100ab578063e2982c211161006f578063e2982c21146106f5578063e985e9c514610715578063ea559dc21461075e578063eb31f4c51461077e578063f1052ef91461079e57600080fd5b8063a937319a14610655578063ac3b5bf814610675578063b88d4fde14610695578063c87b56dd146106b5578063dd888a9f146106d557600080fd5b806395d89b41116100f257806395d89b41146105cb5780639bf15032146105e05780639cb99aba14610600578063a22cb46514610620578063a853211a1461064057600080fd5b80636f6333401461050957806370a082311461052957806375b238fc1461054957806385d6f2171461055e57806392d963251461058b57600080fd5b80633a06529b116101bc5780634f558e79116101805780634f558e79146104525780634f6ccce7146104725780635587850d146104925780636352211e146104b257806368e661eb146104d257600080fd5b80633a06529b146103965780633aa817cc146103d25780633af7a723146103f257806342842e0e1461041257806344c3d3fb1461043257600080fd5b806323b872dd1161020357806323b872dd146103105780632a93153a146103305780632f745c59146103435780632fc7bfab1461036357806331b3eb941461037657600080fd5b806301ffc9a71461024057806306fdde0314610275578063081812fc14610297578063095ea7b3146102cf57806318160ddd146102f1575b600080fd5b34801561024c57600080fd5b5061026061025b3660046133e8565b6107ce565b60405190151581526020015b60405180910390f35b34801561028157600080fd5b5061028a6107df565b60405161026c919061345d565b3480156102a357600080fd5b506102b76102b2366004613470565b610871565b6040516001600160a01b03909116815260200161026c565b3480156102db57600080fd5b506102ef6102ea36600461349e565b6108fe565b005b3480156102fd57600080fd5b506008545b60405190815260200161026c565b34801561031c57600080fd5b506102ef61032b3660046134ca565b610a14565b6102ef61033e3660046136d0565b610a45565b34801561034f57600080fd5b5061030261035e36600461349e565b610b46565b6102ef61037136600461377d565b610bdc565b34801561038257600080fd5b506102ef6103913660046137b2565b610cf8565b3480156103a257600080fd5b5061028a6040518060400160405280601081526020016f1b9bd91957db9bdb995e1a5cdd195b9d60821b81525081565b3480156103de57600080fd5b506102ef6103ed3660046137cf565b610dd3565b3480156103fe57600080fd5b5061026061040d3660046137f1565b610ec5565b34801561041e57600080fd5b506102ef61042d3660046134ca565b610eec565b34801561043e57600080fd5b506102ef61044d366004613821565b610f07565b34801561045e57600080fd5b5061026061046d366004613470565b611011565b34801561047e57600080fd5b5061030261048d366004613470565b61101c565b34801561049e57600080fd5b506102ef6104ad366004613470565b6110af565b3480156104be57600080fd5b506102b76104cd366004613470565b61115c565b3480156104de57600080fd5b5061028a604051806040016040528060188152602001600080516020613e1883398151915281525081565b34801561051557600080fd5b50610260610524366004613868565b6111d3565b34801561053557600080fd5b506103026105443660046137b2565b61122c565b34801561055557600080fd5b50610302600081565b34801561056a57600080fd5b50610302610579366004613470565b6000908152600f602052604090205490565b34801561059757600080fd5b5061028a604051806040016040528060148152602001733932b1bab939b4bb32afb232b632b3b0ba34b7b760611b81525081565b3480156105d757600080fd5b5061028a6112b3565b3480156105ec57600080fd5b506102ef6105fb3660046137cf565b6112c2565b34801561060c57600080fd5b506102ef61061b3660046138c2565b611564565b34801561062c57600080fd5b506102ef61063b366004613910565b6116c9565b34801561064c57600080fd5b50610302600181565b34801561066157600080fd5b506102ef610670366004613945565b6116d4565b34801561068157600080fd5b506102ef6106903660046137cf565b61178c565b3480156106a157600080fd5b506102ef6106b0366004613968565b61184a565b3480156106c157600080fd5b5061028a6106d0366004613470565b61187b565b3480156106e157600080fd5b506102ef6106f03660046137cf565b6118ac565b34801561070157600080fd5b506103026107103660046137b2565b611a12565b34801561072157600080fd5b506102606107303660046139dc565b6001600160a01b03918216600090815260056020908152604080832093909416825291909152205460ff1690565b34801561076a57600080fd5b506102606107793660046138c2565b611aa1565b34801561078a57600080fd5b506102ef6107993660046138c2565b611b4c565b3480156107aa57600080fd5b506102606107b9366004613470565b60009081526014602052604090205460ff1690565b60006107d982611cb0565b92915050565b6060600080546107ee90613a0a565b80601f016020809104026020016040519081016040528092919081815260200182805461081a90613a0a565b80156108675780601f1061083c57610100808354040283529160200191610867565b820191906000526020600020905b81548152906001019060200180831161084a57829003601f168201915b5050505050905090565b600061087c82611cd5565b6108e25760405162461bcd60e51b815260206004820152602c60248201527f4552433732313a20617070726f76656420717565727920666f72206e6f6e657860448201526b34b9ba32b73a103a37b5b2b760a11b60648201526084015b60405180910390fd5b506000908152600460205260409020546001600160a01b031690565b60006109098261115c565b9050806001600160a01b0316836001600160a01b031614156109775760405162461bcd60e51b815260206004820152602160248201527f4552433732313a20617070726f76616c20746f2063757272656e74206f776e656044820152603960f91b60648201526084016108d9565b336001600160a01b038216148061099357506109938133610730565b610a055760405162461bcd60e51b815260206004820152603860248201527f4552433732313a20617070726f76652063616c6c6572206973206e6f74206f7760448201527f6e6572206e6f7220617070726f76656420666f7220616c6c000000000000000060648201526084016108d9565b610a0f8383611cf2565b505050565b610a1e3382611d60565b610a3a5760405162461bcd60e51b81526004016108d990613a45565b610a0f838383611e4a565b610a4e84611ff1565b610a5783611ff1565b610a65600c80546001019055565b6000610a70600c5490565b9050807e87cb72211b7017110b6e2676b860d8bc248f2161d7a6abac1896f0fc1e428b8686868633604051610aa9959493929190613aff565b60405180910390a2610abb3382612036565b610ac58185612050565b6000818152600f60209081526040808320839055601082528083208380528252808320338085529252808320805460ff19166001179055517f3f9759be566576e968397b016ea9843c3e1d19bf1f59ae53cdfbd3b1a691407092610b2c9285928190613b67565b60405180910390a1610b3f8184846120db565b5050505050565b6000610b518361122c565b8210610bb35760405162461bcd60e51b815260206004820152602b60248201527f455243373231456e756d657261626c653a206f776e657220696e646578206f7560448201526a74206f6620626f756e647360a81b60648201526084016108d9565b506001600160a01b03919091166000908152600660209081526040808320938352929052205490565b83610be681611cd5565b6040518060400160405280601081526020016f1b9bd91957db9bdb995e1a5cdd195b9d60821b81525090610c2d5760405162461bcd60e51b81526004016108d9919061345d565b50600085815260146020526040902054859060ff16610cf057610c508133610ec5565b604051806040016040528060188152602001600080516020613e1883398151915281525090610c925760405162461bcd60e51b81526004016108d9919061345d565b50610c9c85611ff1565b610ca68686612050565b610cb18685856120db565b857f236bb16971ddcd63b572657e5dd00a13bce4f2c2b7edb3d22ba10b0021efedb186868633604051610ce79493929190613b8e565b60405180910390a25b505050505050565b6002600b541415610d4b5760405162461bcd60e51b815260206004820152601f60248201527f5265656e7472616e637947756172643a207265656e7472616e742063616c6c0060448201526064016108d9565b6002600b556040516351cff8d960e01b81526001600160a01b0382811660048301527f000000000000000000000000000000000000000000000000000000000000000016906351cff8d990602401600060405180830381600087803b158015610db357600080fd5b505af1158015610dc7573d6000803e3d6000fd5b50506001600b55505050565b81610ddd81611cd5565b6040518060400160405280601081526020016f1b9bd91957db9bdb995e1a5cdd195b9d60821b81525090610e245760405162461bcd60e51b81526004016108d9919061345d565b50610e30838333611aa1565b15610e9c576000838152601060209081526040808320858452825280832033808552925291829020805460ff1916905590517f743dd6de0118c934baddbf165685269ac4f51fe0780281fdb64ea7ca8746ceff91610e9391869186918190613b67565b60405180910390a15b610ebf33600085815260116020908152604080832087845290915290209061267c565b50505050565b6000610ed383600084611aa1565b80610ee55750610ee583600184611aa1565b9392505050565b610a0f8383836040518060200160405280600081525061184a565b81610f1181611cd5565b6040518060400160405280601081526020016f1b9bd91957db9bdb995e1a5cdd195b9d60821b81525090610f585760405162461bcd60e51b81526004016108d9919061345d565b50600083815260146020526040902054839060ff16610ebf57610f7b8133610ec5565b604051806040016040528060188152602001600080516020613e1883398151915281525090610fbd5760405162461bcd60e51b81526004016108d9919061345d565b50610fc783611ff1565b610fd18484612050565b837f8a98cc625a75c2dc14883da513c5ce302b8ae3422734382fb4edcfddfde37cdf8433604051611003929190613be1565b60405180910390a250505050565b60006107d982611cd5565b600061102760085490565b821061108a5760405162461bcd60e51b815260206004820152602c60248201527f455243373231456e756d657261626c653a20676c6f62616c20696e646578206f60448201526b7574206f6620626f756e647360a01b60648201526084016108d9565b6008828154811061109d5761109d613c0b565b90600052602060002001549050919050565b806110b981611cd5565b6040518060400160405280601081526020016f1b9bd91957db9bdb995e1a5cdd195b9d60821b815250906111005760405162461bcd60e51b81526004016108d9919061345d565b5061110c335b83611d60565b604051806040016040528060188152602001600080516020613e188339815191528152509061114e5760405162461bcd60e51b81526004016108d9919061345d565b5061115882612691565b5050565b6000818152600260205260408120546001600160a01b0316806107d95760405162461bcd60e51b815260206004820152602960248201527f4552433732313a206f776e657220717565727920666f72206e6f6e657869737460448201526832b73a103a37b5b2b760b91b60648201526084016108d9565b6000816040516020016111e69190613c21565b604051602081830303815290604052805190602001208360405160200161120d9190613c21565b6040516020818303038152906040528051906020012014905092915050565b60006001600160a01b0382166112975760405162461bcd60e51b815260206004820152602a60248201527f4552433732313a2062616c616e636520717565727920666f7220746865207a65604482015269726f206164647265737360b01b60648201526084016108d9565b506001600160a01b031660009081526003602052604090205490565b6060600180546107ee90613a0a565b816112cc81611cd5565b6040518060400160405280601081526020016f1b9bd91957db9bdb995e1a5cdd195b9d60821b815250906113135760405162461bcd60e51b81526004016108d9919061345d565b508161131e81611cd5565b6040518060400160405280601081526020016f1b9bd91957db9bdb995e1a5cdd195b9d60821b815250906113655760405162461bcd60e51b81526004016108d9919061345d565b5060008481526014602052604081205485919060ff16610cf05761138a828233611aa1565b604051806040016040528060188152602001600080516020613e18833981519152815250906113cc5760405162461bcd60e51b81526004016108d9919061345d565b506040805180820190915260148152733932b1bab939b4bb32afb232b632b3b0ba34b7b760611b6020820152868614156114195760405162461bcd60e51b81526004016108d9919061345d565b5060008581526012602052604090206114319061269a565b6040805180820190915260148152733932b1bab939b4bb32afb232b632b3b0ba34b7b760611b6020820152901561147b5760405162461bcd60e51b81526004016108d9919061345d565b5060008681526013602052604090206114939061269a565b6040805180820190915260148152733932b1bab939b4bb32afb232b632b3b0ba34b7b760611b602082015290156114dd5760405162461bcd60e51b81526004016108d9919061345d565b5060008681526012602052604090206114f690866126a4565b50600085815260136020526040902061150f90876126a4565b507ff756463748eb0d59b8dea527a9a6d0c7e1b813913b25797ba5d3603892b207048686335b6040805193845260208401929092526001600160a01b03169082015260600160405180910390a1505050505050565b8261156e81611cd5565b6040518060400160405280601081526020016f1b9bd91957db9bdb995e1a5cdd195b9d60821b815250906115b55760405162461bcd60e51b81526004016108d9919061345d565b5060008481526014602052604081205485919060ff16610cf0576115da828233611aa1565b604051806040016040528060188152602001600080516020613e188339815191528152509061161c5760405162461bcd60e51b81526004016108d9919061345d565b50611628868686611aa1565b1561169d57600086815260106020908152604080832088845282528083206001600160a01b03881684529091529020805460ff191690557f743dd6de0118c934baddbf165685269ac4f51fe0780281fdb64ea7ca8746ceff868686336040516116949493929190613b67565b60405180910390a15b600086815260116020908152604080832088845290915290206116c0908561267c565b50505050505050565b6111583383836126b0565b6116e082600033611aa1565b604051806040016040528060188152602001600080516020613e18833981519152815250906117225760405162461bcd60e51b81526004016108d9919061345d565b506000828152601460205260409020805460ff19168215151790557fe0b4110a3baee4f696784af62abd29a66eaa57537c9d08b1e88efa87c846180c8282336040805193845291151560208401526001600160a01b03169082015260600160405180910390a15050565b60008281526014602052604081205483919060ff16610ebf576117b0828233611aa1565b604051806040016040528060188152602001600080516020613e18833981519152815250906117f25760405162461bcd60e51b81526004016108d9919061345d565b506000848152600f60209081526040918290208590558151868152908101859052338183015290517f1f0ddf3115a5d0fceb59847eee42b4335f88b04f1d62262da57189e7432a7d6a9181900360600190a150505050565b61185333611106565b61186f5760405162461bcd60e51b81526004016108d990613a45565b610ebf8484848461277f565b6060611886826127b2565b6040516020016118969190613c3d565b6040516020818303038152906040529050919050565b816118b681611cd5565b6040518060400160405280601081526020016f1b9bd91957db9bdb995e1a5cdd195b9d60821b815250906118fd5760405162461bcd60e51b81526004016108d9919061345d565b508161190881611cd5565b6040518060400160405280601081526020016f1b9bd91957db9bdb995e1a5cdd195b9d60821b8152509061194f5760405162461bcd60e51b81526004016108d9919061345d565b5060008481526014602052604081205485919060ff16610cf057611974828233611aa1565b604051806040016040528060188152602001600080516020613e18833981519152815250906119b65760405162461bcd60e51b81526004016108d9919061345d565b5060008681526012602052604090206119cf9086612930565b5060008581526013602052604090206119e89087612930565b507fe90abaaba0ad946d1629928fb2d2e7c2c3dbac7b21e98a78cf777e1e87ef8038868633611535565b6040516371d4ed8d60e11b81526001600160a01b0382811660048301526000917f00000000000000000000000000000000000000000000000000000000000000009091169063e3a9db1a90602401602060405180830381865afa158015611a7d573d6000803e3d6000fd5b505050506040513d601f19601f820116820180604052508101906107d99190613c6f565b600083815260106020908152604080832085845282528083206001600160a01b038516845290915281205460ff1615611adc57506001610ee5565b60005b6000858152601260205260409020611af69061269a565b811015611b41576000858152601260205260409020611b2090611b19908361293c565b8585611aa1565b15611b2f576001915050610ee5565b80611b3981613c9e565b915050611adf565b506000949350505050565b82611b5681611cd5565b6040518060400160405280601081526020016f1b9bd91957db9bdb995e1a5cdd195b9d60821b81525090611b9d5760405162461bcd60e51b81526004016108d9919061345d565b5060008481526014602052604081205485919060ff16610cf057611bc2828233611aa1565b604051806040016040528060188152602001600080516020613e1883398151915281525090611c045760405162461bcd60e51b81526004016108d9919061345d565b50611c10868686611aa1565b611c8d57600086815260106020908152604080832088845282528083206001600160a01b03881684529091529020805460ff191660011790557f3f9759be566576e968397b016ea9843c3e1d19bf1f59ae53cdfbd3b1a6914070868686611c743390565b604051611c849493929190613b67565b60405180910390a15b600086815260116020908152604080832088845290915290206116c09085612948565b60006001600160e01b0319821663780e9d6360e01b14806107d957506107d98261295d565b6000908152600260205260409020546001600160a01b0316151590565b600081815260046020526040902080546001600160a01b0319166001600160a01b0384169081179091558190611d278261115c565b6001600160a01b03167f8c5be1e5ebec7d5bd14f71427d1e84f3dd0314c0f7b2291e5b200ac8c7c3b92560405160405180910390a45050565b6000611d6b82611cd5565b611dcc5760405162461bcd60e51b815260206004820152602c60248201527f4552433732313a206f70657261746f7220717565727920666f72206e6f6e657860448201526b34b9ba32b73a103a37b5b2b760a11b60648201526084016108d9565b6000611dd78361115c565b9050806001600160a01b0316846001600160a01b03161480611e125750836001600160a01b0316611e0784610871565b6001600160a01b0316145b80611e4257506001600160a01b0380821660009081526005602090815260408083209388168352929052205460ff165b949350505050565b826001600160a01b0316611e5d8261115c565b6001600160a01b031614611ec15760405162461bcd60e51b815260206004820152602560248201527f4552433732313a207472616e736665722066726f6d20696e636f72726563742060448201526437bbb732b960d91b60648201526084016108d9565b6001600160a01b038216611f235760405162461bcd60e51b8152602060048201526024808201527f4552433732313a207472616e7366657220746f20746865207a65726f206164646044820152637265737360e01b60648201526084016108d9565b611f2e8383836129ad565b611f39600082611cf2565b6001600160a01b0383166000908152600360205260408120805460019290611f62908490613cb9565b90915550506001600160a01b0382166000908152600360205260408120805460019290611f90908490613cd0565b909155505060008181526002602052604080822080546001600160a01b0319166001600160a01b0386811691821790925591518493918716917fddf252ad1be2c89b69c2b068fc378daa952ba7f163c4a11628f55a4df523b3ef91a4505050565b60008151116120335760405162461bcd60e51b815260206004820152600e60248201526d696e76616c69645f737472696e6760901b60448201526064016108d9565b50565b6111588282604051806020016040528060008152506129b8565b61205982611cd5565b6120bc5760405162461bcd60e51b815260206004820152602e60248201527f45524337323155524953746f726167653a2055524920736574206f66206e6f6e60448201526d32bc34b9ba32b73a103a37b5b2b760911b60648201526084016108d9565b6000828152600a602090815260409091208251610a0f928401906132bf565b60005b82518110156122875760008382815181106120fb576120fb613c0b565b602002602001015190506121128160000151611cd5565b6040518060400160405280601081526020016f1b9bd91957db9bdb995e1a5cdd195b9d60821b815250906121595760405162461bcd60e51b81526004016108d9919061345d565b5080516000908152600f60205260408120549050612178338351611d60565b15801561218e5750815161218c9033610ec5565b155b801561219a5750600081115b80156121bc575081516000878152600d602052604090206121ba916129eb565b155b15612258577f00000000000000000000000000000000000000000000000000000000000000006001600160a01b031663f340fa01826121fe856000015161115c565b6040516001600160e01b031960e085901b1681526001600160a01b0390911660048201526024016000604051808303818588803b15801561223e57600080fd5b505af1158015612252573d6000803e3d6000fd5b50505050505b81516000878152600d60205260409020612271916126a4565b505050808061227f90613c9e565b9150506120de565b506000838152600e6020908152604080832080548251818502810185019093528083529192909190849084015b828210156123825783829060005260206000209060020201604051806040016040529081600082015481526020016001820180546122f190613a0a565b80601f016020809104026020016040519081016040528092919081815260200182805461231d90613a0a565b801561236a5780601f1061233f5761010080835404028352916020019161236a565b820191906000526020600020905b81548152906001019060200180831161234d57829003601f168201915b505050505081525050815260200190600101906122b4565b5050506000868152600e602052604081209293506123a1929150613343565b60005b825181101561255b5760008382815181106123c1576123c1613c0b565b602002602001015190506123d88160000151611cd5565b6040518060400160405280601081526020016f1b9bd91957db9bdb995e1a5cdd195b9d60821b8152509061241f5760405162461bcd60e51b81526004016108d9919061345d565b506000805b845181101561248c57600085828151811061244157612441613c0b565b602002602001015190508360000151816000015114801561246f575061246f816020015185602001516111d3565b1561247957600192505b508061248481613c9e565b915050612424565b50801580156124ac5750815160009081526014602052604090205460ff16155b156125015781516124bd9033610ec5565b604051806040016040528060188152602001600080516020613e18833981519152815250906124ff5760405162461bcd60e51b81526004016108d9919061345d565b505b6000878152600e6020908152604082208054600181810183559184529282902085516002909402019283558482015180518694936125439385019201906132bf565b5050505050808061255390613c9e565b9150506123a4565b5060005b8151811015610b3f57600082828151811061257c5761257c613c0b565b602002602001015190506000805b85518110156125f25760008682815181106125a7576125a7613c0b565b60200260200101519050806000015184600001511480156125d557506125d5846020015182602001516111d3565b156125df57600192505b50806125ea81613c9e565b91505061258a565b50801580156126125750815160009081526014602052604090205460ff16155b156126675781516126239033610ec5565b604051806040016040528060188152602001600080516020613e18833981519152815250906126655760405162461bcd60e51b81526004016108d9919061345d565b505b5050808061267490613c9e565b91505061255f565b6000610ee5836001600160a01b038416612a03565b61203381612af6565b60006107d9825490565b6000610ee58383612b36565b816001600160a01b0316836001600160a01b031614156127125760405162461bcd60e51b815260206004820152601960248201527f4552433732313a20617070726f766520746f2063616c6c65720000000000000060448201526064016108d9565b6001600160a01b03838116600081815260056020908152604080832094871680845294825291829020805460ff191686151590811790915591519182527f17307eab39ab6107e8899845ad3d59bd9653f200f220920489ca2b5937696c31910160405180910390a3505050565b61278a848484611e4a565b61279684848484612b85565b610ebf5760405162461bcd60e51b81526004016108d990613ce8565b60606127bd82611cd5565b6128235760405162461bcd60e51b815260206004820152603160248201527f45524337323155524953746f726167653a2055524920717565727920666f72206044820152703737b732bc34b9ba32b73a103a37b5b2b760791b60648201526084016108d9565b6000828152600a60205260408120805461283c90613a0a565b80601f016020809104026020016040519081016040528092919081815260200182805461286890613a0a565b80156128b55780601f1061288a576101008083540402835291602001916128b5565b820191906000526020600020905b81548152906001019060200180831161289857829003601f168201915b5050505050905060006128e2604080518082019091526007815266697066733a2f2f60c81b602082015290565b90508051600014156128f5575092915050565b81511561292757808260405160200161290f929190613d3a565b60405160208183030381529060405292505050919050565b611e4284612c83565b6000610ee58383612a03565b6000610ee58383612d69565b6000610ee5836001600160a01b038416612b36565b60006001600160e01b031982166380ac58cd60e01b148061298e57506001600160e01b03198216635b5e139f60e01b145b806107d957506301ffc9a760e01b6001600160e01b03198316146107d9565b610a0f838383612d93565b6129c28383612e4b565b6129cf6000848484612b85565b610a0f5760405162461bcd60e51b81526004016108d990613ce8565b60008181526001830160205260408120541515610ee5565b60008181526001830160205260408120548015612aec576000612a27600183613cb9565b8554909150600090612a3b90600190613cb9565b9050818114612aa0576000866000018281548110612a5b57612a5b613c0b565b9060005260206000200154905080876000018481548110612a7e57612a7e613c0b565b6000918252602080832090910192909255918252600188019052604090208390555b8554869080612ab157612ab1613d69565b6001900381819060005260206000200160009055905585600101600086815260200190815260200160002060009055600193505050506107d9565b60009150506107d9565b612aff81612f8a565b6000818152600a602052604090208054612b1890613a0a565b159050612033576000818152600a6020526040812061203391613364565b6000818152600183016020526040812054612b7d575081546001818101845560008481526020808220909301849055845484825282860190935260409020919091556107d9565b5060006107d9565b60006001600160a01b0384163b15612c7857604051630a85bd0160e11b81526001600160a01b0385169063150b7a0290612bc9903390899088908890600401613d7f565b6020604051808303816000875af1925050508015612c04575060408051601f3d908101601f19168201909252612c0191810190613dbc565b60015b612c5e573d808015612c32576040519150601f19603f3d011682016040523d82523d6000602084013e612c37565b606091505b508051612c565760405162461bcd60e51b81526004016108d990613ce8565b805181602001fd5b6001600160e01b031916630a85bd0160e11b149050611e42565b506001949350505050565b6060612c8e82611cd5565b612cf25760405162461bcd60e51b815260206004820152602f60248201527f4552433732314d657461646174613a2055524920717565727920666f72206e6f60448201526e3732bc34b9ba32b73a103a37b5b2b760891b60648201526084016108d9565b6000612d18604080518082019091526007815266697066733a2f2f60c81b602082015290565b90506000815111612d385760405180602001604052806000815250610ee5565b80612d4284613031565b604051602001612d53929190613d3a565b6040516020818303038152906040529392505050565b6000826000018281548110612d8057612d80613c0b565b9060005260206000200154905092915050565b6001600160a01b038316612dee57612de981600880546000838152600960205260408120829055600182018355919091527ff3f7a9fe364faab93b216da50a3214154f22a0a2b415b23a84c8169e8b636ee30155565b612e11565b816001600160a01b0316836001600160a01b031614612e1157612e11838261312f565b6001600160a01b038216612e2857610a0f816131cc565b826001600160a01b0316826001600160a01b031614610a0f57610a0f828261327b565b6001600160a01b038216612ea15760405162461bcd60e51b815260206004820181905260248201527f4552433732313a206d696e7420746f20746865207a65726f206164647265737360448201526064016108d9565b612eaa81611cd5565b15612ef75760405162461bcd60e51b815260206004820152601c60248201527f4552433732313a20746f6b656e20616c7265616479206d696e7465640000000060448201526064016108d9565b612f03600083836129ad565b6001600160a01b0382166000908152600360205260408120805460019290612f2c908490613cd0565b909155505060008181526002602052604080822080546001600160a01b0319166001600160a01b03861690811790915590518392907fddf252ad1be2c89b69c2b068fc378daa952ba7f163c4a11628f55a4df523b3ef908290a45050565b6000612f958261115c565b9050612fa3816000846129ad565b612fae600083611cf2565b6001600160a01b0381166000908152600360205260408120805460019290612fd7908490613cb9565b909155505060008281526002602052604080822080546001600160a01b0319169055518391906001600160a01b038416907fddf252ad1be2c89b69c2b068fc378daa952ba7f163c4a11628f55a4df523b3ef908390a45050565b6060816130555750506040805180820190915260018152600360fc1b602082015290565b8160005b811561307f578061306981613c9e565b91506130789050600a83613def565b9150613059565b60008167ffffffffffffffff81111561309a5761309a61350b565b6040519080825280601f01601f1916602001820160405280156130c4576020820181803683370190505b5090505b8415611e42576130d9600183613cb9565b91506130e6600a86613e03565b6130f1906030613cd0565b60f81b81838151811061310657613106613c0b565b60200101906001600160f81b031916908160001a905350613128600a86613def565b94506130c8565b6000600161313c8461122c565b6131469190613cb9565b600083815260076020526040902054909150808214613199576001600160a01b03841660009081526006602090815260408083208584528252808320548484528184208190558352600790915290208190555b5060009182526007602090815260408084208490556001600160a01b039094168352600681528383209183525290812055565b6008546000906131de90600190613cb9565b6000838152600960205260408120546008805493945090928490811061320657613206613c0b565b90600052602060002001549050806008838154811061322757613227613c0b565b600091825260208083209091019290925582815260099091526040808220849055858252812055600880548061325f5761325f613d69565b6001900381819060005260206000200160009055905550505050565b60006132868361122c565b6001600160a01b039093166000908152600660209081526040808320868452825280832085905593825260079052919091209190915550565b8280546132cb90613a0a565b90600052602060002090601f0160209004810192826132ed5760008555613333565b82601f1061330657805160ff1916838001178555613333565b82800160010185558215613333579182015b82811115613333578251825591602001919060010190613318565b5061333f92915061339a565b5090565b508054600082556002029060005260206000209081019061203391906133af565b50805461337090613a0a565b6000825580601f10613380575050565b601f01602090049060005260206000209081019061203391905b5b8082111561333f576000815560010161339b565b8082111561333f5760008082556133c96001830182613364565b506002016133af565b6001600160e01b03198116811461203357600080fd5b6000602082840312156133fa57600080fd5b8135610ee5816133d2565b60005b83811015613420578181015183820152602001613408565b83811115610ebf5750506000910152565b60008151808452613449816020860160208601613405565b601f01601f19169290920160200192915050565b602081526000610ee56020830184613431565b60006020828403121561348257600080fd5b5035919050565b6001600160a01b038116811461203357600080fd5b600080604083850312156134b157600080fd5b82356134bc81613489565b946020939093013593505050565b6000806000606084860312156134df57600080fd5b83356134ea81613489565b925060208401356134fa81613489565b929592945050506040919091013590565b634e487b7160e01b600052604160045260246000fd5b6040805190810167ffffffffffffffff811182821017156135445761354461350b565b60405290565b604051601f8201601f1916810167ffffffffffffffff811182821017156135735761357361350b565b604052919050565b600067ffffffffffffffff8311156135955761359561350b565b6135a8601f8401601f191660200161354a565b90508281528383830111156135bc57600080fd5b828260208301376000602084830101529392505050565b600082601f8301126135e457600080fd5b610ee58383356020850161357b565b600082601f83011261360457600080fd5b8135602067ffffffffffffffff808311156136215761362161350b565b8260051b61363083820161354a565b938452858101830193838101908886111561364a57600080fd5b84880192505b858310156136c4578235848111156136685760008081fd5b88016040818b03601f19018113156136805760008081fd5b613688613521565b8288013581529082013590868211156136a15760008081fd5b6136af8c89848601016135d3565b81890152845250509184019190840190613650565b98975050505050505050565b600080600080608085870312156136e657600080fd5b843567ffffffffffffffff808211156136fe57600080fd5b61370a888389016135d3565b9550602087013591508082111561372057600080fd5b61372c888389016135d3565b9450604087013591508082111561374257600080fd5b61374e888389016135f3565b9350606087013591508082111561376457600080fd5b50613771878288016135f3565b91505092959194509250565b6000806000806080858703121561379357600080fd5b84359350602085013567ffffffffffffffff8082111561372057600080fd5b6000602082840312156137c457600080fd5b8135610ee581613489565b600080604083850312156137e257600080fd5b50508035926020909101359150565b6000806040838503121561380457600080fd5b82359150602083013561381681613489565b809150509250929050565b6000806040838503121561383457600080fd5b82359150602083013567ffffffffffffffff81111561385257600080fd5b61385e858286016135d3565b9150509250929050565b6000806040838503121561387b57600080fd5b823567ffffffffffffffff8082111561389357600080fd5b61389f868387016135d3565b935060208501359150808211156138b557600080fd5b5061385e858286016135d3565b6000806000606084860312156138d757600080fd5b833592506020840135915060408401356138f081613489565b809150509250925092565b8035801515811461390b57600080fd5b919050565b6000806040838503121561392357600080fd5b823561392e81613489565b915061393c602084016138fb565b90509250929050565b6000806040838503121561395857600080fd5b8235915061393c602084016138fb565b6000806000806080858703121561397e57600080fd5b843561398981613489565b9350602085013561399981613489565b925060408501359150606085013567ffffffffffffffff8111156139bc57600080fd5b8501601f810187136139cd57600080fd5b6137718782356020840161357b565b600080604083850312156139ef57600080fd5b82356139fa81613489565b9150602083013561381681613489565b600181811c90821680613a1e57607f821691505b60208210811415613a3f57634e487b7160e01b600052602260045260246000fd5b50919050565b60208082526031908201527f4552433732313a207472616e736665722063616c6c6572206973206e6f74206f6040820152701ddb995c881b9bdc88185c1c1c9bdd9959607a1b606082015260800190565b600081518084526020808501808196508360051b8101915082860160005b85811015613af25782840389528151805185528501516040868601819052613ade81870183613431565b9a87019a9550505090840190600101613ab4565b5091979650505050505050565b60a081526000613b1260a0830188613431565b8281036020840152613b248188613431565b90508281036040840152613b388187613a96565b90508281036060840152613b4c8186613a96565b91505060018060a01b03831660808301529695505050505050565b93845260208401929092526001600160a01b03908116604084015216606082015260800190565b608081526000613ba16080830187613431565b8281036020840152613bb38187613a96565b90508281036040840152613bc78186613a96565b91505060018060a01b038316606083015295945050505050565b604081526000613bf46040830185613431565b905060018060a01b03831660208301529392505050565b634e487b7160e01b600052603260045260246000fd5b60008251613c33818460208701613405565b9190910192915050565b60008251613c4f818460208701613405565b6d17b6b2ba30b230ba30973539b7b760911b920191825250600e01919050565b600060208284031215613c8157600080fd5b5051919050565b634e487b7160e01b600052601160045260246000fd5b6000600019821415613cb257613cb2613c88565b5060010190565b600082821015613ccb57613ccb613c88565b500390565b60008219821115613ce357613ce3613c88565b500190565b60208082526032908201527f4552433732313a207472616e7366657220746f206e6f6e20455243373231526560408201527131b2b4bb32b91034b6b83632b6b2b73a32b960711b606082015260800190565b60008351613d4c818460208801613405565b835190830190613d60818360208801613405565b01949350505050565b634e487b7160e01b600052603160045260246000fd5b6001600160a01b0385811682528416602082015260408101839052608060608201819052600090613db290830184613431565b9695505050505050565b600060208284031215613dce57600080fd5b8151610ee5816133d2565b634e487b7160e01b600052601260045260246000fd5b600082613dfe57613dfe613dd9565b500490565b600082613e1257613e12613dd9565b50069056fe696e73756666696369656e745f7065726d697373696f6e730000000000000000a26469706673582212204f8f6e9de0dc02985d22897aa6ee6e1e4577c33094452969aa478fbdb025f9c164736f6c634300080c0033608060405234801561001057600080fd5b5061001a3361001f565b61006f565b600080546001600160a01b038381166001600160a01b0319831681178455604051919092169283917f8be0079c531659141344cd1fd0a4f28419497f9722a3daafe3b4186f6b6457e09190a35050565b6105748061007e6000396000f3fe6080604052600436106100555760003560e01c806351cff8d91461005a578063715018a61461007c5780638da5cb5b14610091578063e3a9db1a146100be578063f2fde38b14610102578063f340fa0114610122575b600080fd5b34801561006657600080fd5b5061007a6100753660046104bf565b610135565b005b34801561008857600080fd5b5061007a6101d7565b34801561009d57600080fd5b506000546040516001600160a01b0390911681526020015b60405180910390f35b3480156100ca57600080fd5b506100f46100d93660046104bf565b6001600160a01b031660009081526001602052604090205490565b6040519081526020016100b5565b34801561010e57600080fd5b5061007a61011d3660046104bf565b61020d565b61007a6101303660046104bf565b6102a8565b6000546001600160a01b031633146101685760405162461bcd60e51b815260040161015f906104e3565b60405180910390fd5b6001600160a01b0381166000818152600160205260408120805491905590610190908261033c565b816001600160a01b03167f7084f5476618d8e60b11ef0d7d3f06914655adb8793e28ff7f018d4c76d505d5826040516101cb91815260200190565b60405180910390a25050565b6000546001600160a01b031633146102015760405162461bcd60e51b815260040161015f906104e3565b61020b600061045a565b565b6000546001600160a01b031633146102375760405162461bcd60e51b815260040161015f906104e3565b6001600160a01b03811661029c5760405162461bcd60e51b815260206004820152602660248201527f4f776e61626c653a206e6577206f776e657220697320746865207a65726f206160448201526564647265737360d01b606482015260840161015f565b6102a58161045a565b50565b6000546001600160a01b031633146102d25760405162461bcd60e51b815260040161015f906104e3565b6001600160a01b0381166000908152600160205260408120805434928392916102fc908490610518565b90915550506040518181526001600160a01b038316907f2da466a7b24304f47e87fa2e1e5a81b9831ce54fec19055ce277ca2f39ba42c4906020016101cb565b8047101561038c5760405162461bcd60e51b815260206004820152601d60248201527f416464726573733a20696e73756666696369656e742062616c616e6365000000604482015260640161015f565b6000826001600160a01b03168260405160006040518083038185875af1925050503d80600081146103d9576040519150601f19603f3d011682016040523d82523d6000602084013e6103de565b606091505b50509050806104555760405162461bcd60e51b815260206004820152603a60248201527f416464726573733a20756e61626c6520746f2073656e642076616c75652c207260448201527f6563697069656e74206d61792068617665207265766572746564000000000000606482015260840161015f565b505050565b600080546001600160a01b038381166001600160a01b0319831681178455604051919092169283917f8be0079c531659141344cd1fd0a4f28419497f9722a3daafe3b4186f6b6457e09190a35050565b6001600160a01b03811681146102a557600080fd5b6000602082840312156104d157600080fd5b81356104dc816104aa565b9392505050565b6020808252818101527f4f776e61626c653a2063616c6c6572206973206e6f7420746865206f776e6572604082015260600190565b6000821982111561053957634e487b7160e01b600052601160045260246000fd5b50019056fea2646970667358221220926b113de7e6c56861df80bd0b29c91551ada178780294fb38e7a0330ae51b7b64736f6c634300080c0033",
  "linkReferences": {},
  "deployedLinkReferences": {}
}