{
  "_format": "hh-sol-artifact-1",
  "contractName": "Node",
  "sourceName": "contracts/src/Node.sol",
  "abi": [
    {
      "inputs": [],
      "stateMutability": "nonpayable",
      "type": "constructor"
    },
    {
      "anonymous": false,
      "inputs": [
        {
          "indexed": true,
          "internalType": "address",
          "name": "owner",
          "type": "address"
        },
        {
          "indexed": true,
          "internalType": "address",
          "name": "approved",
          "type": "address"
        },
        {
          "indexed": true,
          "internalType": "uint256",
          "name": "tokenId",
          "type": "uint256"
        }
      ],
      "name": "Approval",
      "type": "event"
    },
    {
      "anonymous": false,
      "inputs": [
        {
          "indexed": true,
          "internalType": "address",
          "name": "owner",
          "type": "address"
        },
        {
          "indexed": true,
          "internalType": "address",
          "name": "operator",
          "type": "address"
        },
        {
          "indexed": false,
          "internalType": "bool",
          "name": "approved",
          "type": "bool"
        }
      ],
      "name": "ApprovalForAll",
      "type": "event"
    },
    {
      "anonymous": false,
      "inputs": [
        {
          "indexed": false,
          "internalType": "uint256",
          "name": "tokenId",
          "type": "uint256"
        },
        {
          "indexed": true,
          "internalType": "uint256",
          "name": "timestamp",
          "type": "uint256"
        },
        {
          "indexed": true,
          "internalType": "string",
          "name": "hash",
          "type": "string"
        },
        {
          "indexed": true,
          "internalType": "address",
          "name": "sender",
          "type": "address"
        }
      ],
      "name": "RevisionMade",
      "type": "event"
    },
    {
      "anonymous": false,
      "inputs": [
        {
          "indexed": false,
          "internalType": "uint256",
          "name": "tokenId",
          "type": "uint256"
        },
        {
          "indexed": true,
          "internalType": "uint256",
          "name": "role",
          "type": "uint256"
        },
        {
          "indexed": true,
          "internalType": "address",
          "name": "account",
          "type": "address"
        },
        {
          "indexed": true,
          "internalType": "address",
          "name": "sender",
          "type": "address"
        }
      ],
      "name": "RoleGranted",
      "type": "event"
    },
    {
      "anonymous": false,
      "inputs": [
        {
          "indexed": false,
          "internalType": "uint256",
          "name": "tokenId",
          "type": "uint256"
        },
        {
          "indexed": true,
          "internalType": "uint256",
          "name": "role",
          "type": "uint256"
        },
        {
          "indexed": true,
          "internalType": "address",
          "name": "account",
          "type": "address"
        },
        {
          "indexed": true,
          "internalType": "address",
          "name": "sender",
          "type": "address"
        }
      ],
      "name": "RoleRevoked",
      "type": "event"
    },
    {
      "anonymous": false,
      "inputs": [
        {
          "indexed": true,
          "internalType": "address",
          "name": "from",
          "type": "address"
        },
        {
          "indexed": true,
          "internalType": "address",
          "name": "to",
          "type": "address"
        },
        {
          "indexed": true,
          "internalType": "uint256",
          "name": "tokenId",
          "type": "uint256"
        }
      ],
      "name": "Transfer",
      "type": "event"
    },
    {
      "inputs": [],
      "name": "ADMIN_ROLE",
      "outputs": [
        {
          "internalType": "uint256",
          "name": "",
          "type": "uint256"
        }
      ],
      "stateMutability": "view",
      "type": "function"
    },
    {
      "inputs": [],
      "name": "EDITOR_ROLE",
      "outputs": [
        {
          "internalType": "uint256",
          "name": "",
          "type": "uint256"
        }
      ],
      "stateMutability": "view",
      "type": "function"
    },
    {
      "inputs": [
        {
          "internalType": "address",
          "name": "to",
          "type": "address"
        },
        {
          "internalType": "uint256",
          "name": "tokenId",
          "type": "uint256"
        }
      ],
      "name": "approve",
      "outputs": [],
      "stateMutability": "nonpayable",
      "type": "function"
    },
    {
      "inputs": [
        {
          "internalType": "address",
          "name": "owner",
          "type": "address"
        }
      ],
      "name": "balanceOf",
      "outputs": [
        {
          "internalType": "uint256",
          "name": "",
          "type": "uint256"
        }
      ],
      "stateMutability": "view",
      "type": "function"
    },
    {
      "inputs": [
        {
          "internalType": "uint256",
          "name": "tokenId",
          "type": "uint256"
        }
      ],
      "name": "burn",
      "outputs": [],
      "stateMutability": "nonpayable",
      "type": "function"
    },
    {
      "inputs": [
        {
          "internalType": "uint256",
          "name": "tokenId",
          "type": "uint256"
        },
        {
          "internalType": "address",
          "name": "account",
          "type": "address"
        }
      ],
      "name": "canEdit",
      "outputs": [
        {
          "internalType": "bool",
          "name": "",
          "type": "bool"
        }
      ],
      "stateMutability": "view",
      "type": "function"
    },
    {
      "inputs": [
        {
          "internalType": "uint256",
          "name": "from",
          "type": "uint256"
        },
        {
          "internalType": "uint256",
          "name": "to",
          "type": "uint256"
        }
      ],
      "name": "connectNodes",
      "outputs": [],
      "stateMutability": "nonpayable",
      "type": "function"
    },
    {
      "inputs": [
        {
          "internalType": "uint256",
          "name": "from",
          "type": "uint256"
        },
        {
          "internalType": "uint256",
          "name": "to",
          "type": "uint256"
        }
      ],
      "name": "disconnectNodes",
      "outputs": [],
      "stateMutability": "nonpayable",
      "type": "function"
    },
    {
      "inputs": [
        {
          "internalType": "uint256",
          "name": "tokenId",
          "type": "uint256"
        }
      ],
      "name": "exists",
      "outputs": [
        {
          "internalType": "bool",
          "name": "",
          "type": "bool"
        }
      ],
      "stateMutability": "view",
      "type": "function"
    },
    {
      "inputs": [
        {
          "internalType": "uint256",
          "name": "tokenId",
          "type": "uint256"
        }
      ],
      "name": "getApproved",
      "outputs": [
        {
          "internalType": "address",
          "name": "",
          "type": "address"
        }
      ],
      "stateMutability": "view",
      "type": "function"
    },
    {
      "inputs": [
        {
          "internalType": "uint256",
          "name": "tokenId",
          "type": "uint256"
        },
        {
          "internalType": "string",
          "name": "label",
          "type": "string"
        }
      ],
      "name": "getBacklinkedNodeCountForNodeByLabel",
      "outputs": [
        {
          "internalType": "uint256",
          "name": "",
          "type": "uint256"
        }
      ],
      "stateMutability": "view",
      "type": "function"
    },
    {
      "inputs": [
        {
          "internalType": "uint256",
          "name": "tokenId",
          "type": "uint256"
        },
        {
          "internalType": "string",
          "name": "label",
          "type": "string"
        },
        {
          "internalType": "uint256",
          "name": "index",
          "type": "uint256"
        }
      ],
      "name": "getBacklinkedNodeForNodeByLabelAndIndex",
      "outputs": [
        {
          "internalType": "uint256",
          "name": "",
          "type": "uint256"
        }
      ],
      "stateMutability": "view",
      "type": "function"
    },
    {
      "inputs": [
        {
          "internalType": "uint256",
          "name": "tokenId",
          "type": "uint256"
        },
        {
          "internalType": "string",
          "name": "label",
          "type": "string"
        }
      ],
      "name": "getConnectedNodeCountForNodeByLabel",
      "outputs": [
        {
          "internalType": "uint256",
          "name": "",
          "type": "uint256"
        }
      ],
      "stateMutability": "view",
      "type": "function"
    },
    {
      "inputs": [
        {
          "internalType": "uint256",
          "name": "tokenId",
          "type": "uint256"
        },
        {
          "internalType": "string",
          "name": "label",
          "type": "string"
        },
        {
          "internalType": "uint256",
          "name": "index",
          "type": "uint256"
        }
      ],
      "name": "getConnectedNodeForNodeByLabelAndIndex",
      "outputs": [
        {
          "internalType": "uint256",
          "name": "",
          "type": "uint256"
        }
      ],
      "stateMutability": "view",
      "type": "function"
    },
    {
      "inputs": [
        {
          "internalType": "string",
          "name": "label",
          "type": "string"
        }
      ],
      "name": "getNodeCountForLabel",
      "outputs": [
        {
          "internalType": "uint256",
          "name": "",
          "type": "uint256"
        }
      ],
      "stateMutability": "view",
      "type": "function"
    },
    {
      "inputs": [
        {
          "internalType": "string",
          "name": "label",
          "type": "string"
        },
        {
          "internalType": "uint256",
          "name": "index",
          "type": "uint256"
        }
      ],
      "name": "getNodeForLabelAtIndex",
      "outputs": [
        {
          "internalType": "uint256",
          "name": "",
          "type": "uint256"
        }
      ],
      "stateMutability": "view",
      "type": "function"
    },
    {
      "inputs": [
        {
          "internalType": "uint256",
          "name": "tokenId",
          "type": "uint256"
        },
        {
          "internalType": "uint256",
          "name": "index",
          "type": "uint256"
        }
      ],
      "name": "getRevision",
      "outputs": [
        {
          "components": [
            {
              "internalType": "uint256",
              "name": "timestamp",
              "type": "uint256"
            },
            {
              "internalType": "string",
              "name": "hash",
              "type": "string"
            },
            {
              "internalType": "address",
              "name": "revisor",
              "type": "address"
            }
          ],
          "internalType": "struct Node.Revision",
          "name": "",
          "type": "tuple"
        }
      ],
      "stateMutability": "view",
      "type": "function"
    },
    {
      "inputs": [
        {
          "internalType": "uint256",
          "name": "tokenId",
          "type": "uint256"
        }
      ],
      "name": "getRevisionCount",
      "outputs": [
        {
          "internalType": "uint256",
          "name": "",
          "type": "uint256"
        }
      ],
      "stateMutability": "view",
      "type": "function"
    },
    {
      "inputs": [
        {
          "internalType": "uint256",
          "name": "tokenId",
          "type": "uint256"
        },
        {
          "internalType": "uint256",
          "name": "role",
          "type": "uint256"
        },
        {
          "internalType": "uint256",
          "name": "index",
          "type": "uint256"
        }
      ],
      "name": "getRoleMember",
      "outputs": [
        {
          "internalType": "address",
          "name": "",
          "type": "address"
        }
      ],
      "stateMutability": "view",
      "type": "function"
    },
    {
      "inputs": [
        {
          "internalType": "uint256",
          "name": "tokenId",
          "type": "uint256"
        },
        {
          "internalType": "uint256",
          "name": "role",
          "type": "uint256"
        }
      ],
      "name": "getRoleMemberCount",
      "outputs": [
        {
          "internalType": "uint256",
          "name": "",
          "type": "uint256"
        }
      ],
      "stateMutability": "view",
      "type": "function"
    },
    {
      "inputs": [
        {
          "internalType": "uint256",
          "name": "tokenId",
          "type": "uint256"
        },
        {
          "internalType": "uint256",
          "name": "role",
          "type": "uint256"
        },
        {
          "internalType": "address",
          "name": "account",
          "type": "address"
        }
      ],
      "name": "grantRole",
      "outputs": [],
      "stateMutability": "nonpayable",
      "type": "function"
    },
    {
      "inputs": [
        {
          "internalType": "uint256",
          "name": "tokenId",
          "type": "uint256"
        },
        {
          "internalType": "uint256",
          "name": "role",
          "type": "uint256"
        },
        {
          "internalType": "address",
          "name": "account",
          "type": "address"
        }
      ],
      "name": "hasRole",
      "outputs": [
        {
          "internalType": "bool",
          "name": "",
          "type": "bool"
        }
      ],
      "stateMutability": "view",
      "type": "function"
    },
    {
      "inputs": [
        {
          "internalType": "address",
          "name": "owner",
          "type": "address"
        },
        {
          "internalType": "address",
          "name": "operator",
          "type": "address"
        }
      ],
      "name": "isApprovedForAll",
      "outputs": [
        {
          "internalType": "bool",
          "name": "",
          "type": "bool"
        }
      ],
      "stateMutability": "view",
      "type": "function"
    },
    {
      "inputs": [
        {
          "internalType": "uint256",
          "name": "tokenId",
          "type": "uint256"
        }
      ],
      "name": "labelFor",
      "outputs": [
        {
          "internalType": "string",
          "name": "",
          "type": "string"
        }
      ],
      "stateMutability": "view",
      "type": "function"
    },
    {
      "inputs": [
        {
          "internalType": "uint256",
          "name": "tokenId",
          "type": "uint256"
        },
        {
          "internalType": "string",
          "name": "hash",
          "type": "string"
        }
      ],
      "name": "makeRevision",
      "outputs": [],
      "stateMutability": "nonpayable",
      "type": "function"
    },
    {
      "inputs": [
        {
          "internalType": "string",
          "name": "label",
          "type": "string"
        },
        {
          "internalType": "string",
          "name": "hash",
          "type": "string"
        },
        {
          "internalType": "uint256[]",
          "name": "fromConnections",
          "type": "uint256[]"
        },
        {
          "internalType": "uint256[]",
          "name": "toConnections",
          "type": "uint256[]"
        }
      ],
      "name": "mintNode",
      "outputs": [],
      "stateMutability": "nonpayable",
      "type": "function"
    },
    {
      "inputs": [],
      "name": "name",
      "outputs": [
        {
          "internalType": "string",
          "name": "",
          "type": "string"
        }
      ],
      "stateMutability": "view",
      "type": "function"
    },
    {
      "inputs": [
        {
          "internalType": "uint256",
          "name": "tokenId",
          "type": "uint256"
        }
      ],
      "name": "ownerOf",
      "outputs": [
        {
          "internalType": "address",
          "name": "",
          "type": "address"
        }
      ],
      "stateMutability": "view",
      "type": "function"
    },
    {
      "inputs": [
        {
          "internalType": "uint256",
          "name": "tokenId",
          "type": "uint256"
        },
        {
          "internalType": "uint256",
          "name": "role",
          "type": "uint256"
        }
      ],
      "name": "renounceRole",
      "outputs": [],
      "stateMutability": "nonpayable",
      "type": "function"
    },
    {
      "inputs": [
        {
          "internalType": "uint256",
          "name": "",
          "type": "uint256"
        },
        {
          "internalType": "uint256",
          "name": "",
          "type": "uint256"
        }
      ],
      "name": "revisions",
      "outputs": [
        {
          "internalType": "uint256",
          "name": "timestamp",
          "type": "uint256"
        },
        {
          "internalType": "string",
          "name": "hash",
          "type": "string"
        },
        {
          "internalType": "address",
          "name": "revisor",
          "type": "address"
        }
      ],
      "stateMutability": "view",
      "type": "function"
    },
    {
      "inputs": [
        {
          "internalType": "uint256",
          "name": "tokenId",
          "type": "uint256"
        },
        {
          "internalType": "uint256",
          "name": "role",
          "type": "uint256"
        },
        {
          "internalType": "address",
          "name": "account",
          "type": "address"
        }
      ],
      "name": "revokeRole",
      "outputs": [],
      "stateMutability": "nonpayable",
      "type": "function"
    },
    {
      "inputs": [
        {
          "internalType": "address",
          "name": "from",
          "type": "address"
        },
        {
          "internalType": "address",
          "name": "to",
          "type": "address"
        },
        {
          "internalType": "uint256",
          "name": "tokenId",
          "type": "uint256"
        }
      ],
      "name": "safeTransferFrom",
      "outputs": [],
      "stateMutability": "nonpayable",
      "type": "function"
    },
    {
      "inputs": [
        {
          "internalType": "address",
          "name": "from",
          "type": "address"
        },
        {
          "internalType": "address",
          "name": "to",
          "type": "address"
        },
        {
          "internalType": "uint256",
          "name": "tokenId",
          "type": "uint256"
        },
        {
          "internalType": "bytes",
          "name": "_data",
          "type": "bytes"
        }
      ],
      "name": "safeTransferFrom",
      "outputs": [],
      "stateMutability": "nonpayable",
      "type": "function"
    },
    {
      "inputs": [
        {
          "internalType": "address",
          "name": "operator",
          "type": "address"
        },
        {
          "internalType": "bool",
          "name": "approved",
          "type": "bool"
        }
      ],
      "name": "setApprovalForAll",
      "outputs": [],
      "stateMutability": "nonpayable",
      "type": "function"
    },
    {
      "inputs": [
        {
          "internalType": "bytes4",
          "name": "interfaceId",
          "type": "bytes4"
        }
      ],
      "name": "supportsInterface",
      "outputs": [
        {
          "internalType": "bool",
          "name": "",
          "type": "bool"
        }
      ],
      "stateMutability": "view",
      "type": "function"
    },
    {
      "inputs": [],
      "name": "symbol",
      "outputs": [
        {
          "internalType": "string",
          "name": "",
          "type": "string"
        }
      ],
      "stateMutability": "view",
      "type": "function"
    },
    {
      "inputs": [
        {
          "internalType": "uint256",
          "name": "index",
          "type": "uint256"
        }
      ],
      "name": "tokenByIndex",
      "outputs": [
        {
          "internalType": "uint256",
          "name": "",
          "type": "uint256"
        }
      ],
      "stateMutability": "view",
      "type": "function"
    },
    {
      "inputs": [
        {
          "internalType": "address",
          "name": "owner",
          "type": "address"
        },
        {
          "internalType": "uint256",
          "name": "index",
          "type": "uint256"
        }
      ],
      "name": "tokenOfOwnerByIndex",
      "outputs": [
        {
          "internalType": "uint256",
          "name": "",
          "type": "uint256"
        }
      ],
      "stateMutability": "view",
      "type": "function"
    },
    {
      "inputs": [
        {
          "internalType": "uint256",
          "name": "tokenId",
          "type": "uint256"
        }
      ],
      "name": "tokenURI",
      "outputs": [
        {
          "internalType": "string",
          "name": "",
          "type": "string"
        }
      ],
      "stateMutability": "view",
      "type": "function"
    },
    {
      "inputs": [],
      "name": "totalSupply",
      "outputs": [
        {
          "internalType": "uint256",
          "name": "",
          "type": "uint256"
        }
      ],
      "stateMutability": "view",
      "type": "function"
    },
    {
      "inputs": [
        {
          "internalType": "address",
          "name": "from",
          "type": "address"
        },
        {
          "internalType": "address",
          "name": "to",
          "type": "address"
        },
        {
          "internalType": "uint256",
          "name": "tokenId",
          "type": "uint256"
        }
      ],
      "name": "transferFrom",
      "outputs": [],
      "stateMutability": "nonpayable",
      "type": "function"
    }
  ],
  "bytecode": "0x60806040523480156200001157600080fd5b50604051806040016040528060048152602001634e6f646560e01b815250604051806040016040528060048152602001634e4f444560e01b81525081600090805190602001906200006492919062000083565b5080516200007a90600190602084019062000083565b50505062000166565b828054620000919062000129565b90600052602060002090601f016020900481019282620000b5576000855562000100565b82601f10620000d057805160ff191683800117855562000100565b8280016001018555821562000100579182015b8281111562000100578251825591602001919060010190620000e3565b506200010e92915062000112565b5090565b5b808211156200010e576000815560010162000113565b600181811c908216806200013e57607f821691505b602082108114156200016057634e487b7160e01b600052602260045260246000fd5b50919050565b61301480620001766000396000f3fe608060405234801561001057600080fd5b50600436106102535760003560e01c80636352211e11610146578063b88d4fde116100c3578063e985e9c511610087578063e985e9c514610529578063ea559dc214610565578063eb31f4c514610578578063f18efc0f1461058b578063f9f5d7d41461059e578063ff0810c7146105b157600080fd5b8063b88d4fde146104ca578063c87b56dd146104dd578063d2eefc58146104f0578063dbe552d614610503578063dd33ce5d1461051657600080fd5b80639cb99aba1161010a5780639cb99aba14610467578063a22cb4651461047a578063a853211a1461048d578063aadf7e1614610495578063b2dcc623146104a857600080fd5b80636352211e1461041157806370a082311461042457806375b238fc14610437578063959249f31461043f57806395d89b411461045f57600080fd5b80633af7a723116101d45780634b1d6a90116101985780634b1d6a90146103a55780634f558e79146103b85780634f6ccce7146103cb5780635ca7d7f4146103de5780636192e3e8146103f157600080fd5b80633af7a723146103465780633f83c6731461035957806342842e0e1461036c57806342966c681461037f5780634ab37a821461039257600080fd5b806318160ddd1161021b57806318160ddd146102e85780631aa720b1146102fa57806323b872dd1461030d5780632f745c59146103205780633aa817cc1461033357600080fd5b806301ffc9a71461025857806306fdde0314610280578063081812fc14610295578063095ea7b3146102c057806316b3a087146102d5575b600080fd5b61026b6102663660046126c6565b6105c4565b60405190151581526020015b60405180910390f35b6102886105d5565b604051610277919061273b565b6102a86102a336600461274e565b610667565b6040516001600160a01b039091168152602001610277565b6102d36102ce366004612783565b6106f4565b005b6102886102e336600461274e565b61080a565b6008545b604051908152602001610277565b6102d36103083660046128ec565b6108ac565b6102d361031b366004612999565b610a1d565b6102ec61032e366004612783565b610a4f565b6102d36103413660046129d5565b610ae5565b61026b6103543660046129f7565b610b78565b6102ec610367366004612a23565b610b9f565b6102d361037a366004612999565b610bd3565b6102d361038d36600461274e565b610bee565b6102d36103a03660046129d5565b610c68565b6102d36103b3366004612a23565b610d3e565b61026b6103c636600461274e565b610e95565b6102ec6103d936600461274e565b610ea0565b6102ec6103ec366004612a6a565b610f33565b6104046103ff3660046129d5565b610f72565b6040516102779190612aba565b6102a861041f36600461274e565b611090565b6102ec610432366004612b01565b611107565b6102ec600081565b6102ec61044d36600461274e565b60009081526012602052604090205490565b61028861118e565b6102d3610475366004612b1c565b61119d565b6102d3610488366004612b51565b611264565b6102ec600181565b6102ec6104a3366004612b8d565b611273565b6104bb6104b63660046129d5565b611288565b60405161027793929190612bc2565b6102d36104d8366004612bf3565b611360565b6102886104eb36600461274e565b611398565b6102d36104fe3660046129d5565b6113c9565b6102ec610511366004612a6a565b6113e8565b6102ec610524366004612c63565b61140a565b61026b610537366004612ca8565b6001600160a01b03918216600090815260056020908152604080832093909416825291909152205460ff1690565b61026b610573366004612b1c565b611420565b6102d3610586366004612b1c565b611452565b6102ec610599366004612a23565b611538565b6102ec6105ac3660046129d5565b611559565b6102a86105bf366004612cd2565b61157b565b60006105cf8261159e565b92915050565b6060600080546105e490612cfe565b80601f016020809104026020016040519081016040528092919081815260200182805461061090612cfe565b801561065d5780601f106106325761010080835404028352916020019161065d565b820191906000526020600020905b81548152906001019060200180831161064057829003601f168201915b5050505050905090565b6000610672826115c3565b6106d85760405162461bcd60e51b815260206004820152602c60248201527f4552433732313a20617070726f76656420717565727920666f72206e6f6e657860448201526b34b9ba32b73a103a37b5b2b760a11b60648201526084015b60405180910390fd5b506000908152600460205260409020546001600160a01b031690565b60006106ff82611090565b9050806001600160a01b0316836001600160a01b0316141561076d5760405162461bcd60e51b815260206004820152602160248201527f4552433732313a20617070726f76616c20746f2063757272656e74206f776e656044820152603960f91b60648201526084016106cf565b336001600160a01b038216148061078957506107898133610537565b6107fb5760405162461bcd60e51b815260206004820152603860248201527f4552433732313a20617070726f76652063616c6c6572206973206e6f74206f7760448201527f6e6572206e6f7220617070726f76656420666f7220616c6c000000000000000060648201526084016106cf565b61080583836115e0565b505050565b6000818152600c6020526040902080546060919061082790612cfe565b80601f016020809104026020016040519081016040528092919081815260200182805461085390612cfe565b80156108a05780601f10610875576101008083540402835291602001916108a0565b820191906000526020600020905b81548152906001019060200180831161088357829003601f168201915b50505050509050919050565b6108b58461164e565b60006108c0600b5490565b90506108d0600b80546001019055565b6108da3382611690565b61090381600d876040516108ee9190612d39565b908152604051908190036020019020906116aa565b506000818152600c602090815260409091208651610923928801906125e1565b506000818152601060209081526040808320838052825280832033808552908352818420805460ff1916600117905590518481529092839290917f3f9759be566576e968397b016ea9843c3e1d19bf1f59ae53cdfbd3b1a6914070910160405180910390a46109928185610d3e565b60005b83518110156109d3576109c18482815181106109b3576109b3612d55565b602002602001015183610c68565b806109cb81612d81565b915050610995565b5060005b8251811015610a1557610a03828483815181106109f6576109f6612d55565b6020026020010151610c68565b80610a0d81612d81565b9150506109d7565b505050505050565b610a28335b826116b6565b610a445760405162461bcd60e51b81526004016106cf90612d9c565b61080583838361179c565b6000610a5a83611107565b8210610abc5760405162461bcd60e51b815260206004820152602b60248201527f455243373231456e756d657261626c653a206f776e657220696e646578206f7560448201526a74206f6620626f756e647360a81b60648201526084016106cf565b506001600160a01b03919091166000908152600660209081526040808320938352929052205490565b610af0828233611420565b15610b5557600082815260106020908152604080832084845282528083203380855290835292819020805460ff1916905551848152829184917f743dd6de0118c934baddbf165685269ac4f51fe0780281fdb64ea7ca8746ceff910160405180910390a45b610805336000848152601160209081526040808320868452909152902090611943565b6000610b8683600084611420565b80610b985750610b9883600184611420565b9392505050565b6000828152600f60205260408082209051610b989190610bc0908590612d39565b9081526020016040518091039020611958565b61080583838360405180602001604052806000815250611360565b610bf733610a22565b610c5c5760405162461bcd60e51b815260206004820152603060248201527f4552433732314275726e61626c653a2063616c6c6572206973206e6f74206f7760448201526f1b995c881b9bdc88185c1c1c9bdd995960821b60648201526084016106cf565b610c6581611962565b50565b80610c738133610b78565b610c8f5760405162461bcd60e51b81526004016106cf90612ded565b610c98836115c3565b610cb45760405162461bcd60e51b81526004016106cf90612e24565b610cbd826115c3565b610cd95760405162461bcd60e51b81526004016106cf90612e24565b6000610ce48461080a565b90506000610cf18461080a565b9050610d1885600e6000878152602001908152602001600020846040516108ee9190612d39565b50610a1584600f6000888152602001908152602001600020836040516108ee9190612d39565b81610d498133610b78565b610d655760405162461bcd60e51b81526004016106cf90612ded565b610d6e836115c3565b610d8a5760405162461bcd60e51b81526004016106cf90612e24565b610d938261164e565b601260008481526020019081526020016000206040518060600160405280428152602001848152602001610dc43390565b6001600160a01b031690528154600181810184556000938452602093849020835160039093020191825583830151805193949293610e0a939285019291909101906125e1565b5060409190910151600290910180546001600160a01b0319166001600160a01b03909216919091179055610e3e838361196b565b6040513390610e4e908490612d39565b6040518091039020427f87e2bd723d2071701a8612fe3afcc134df220caad0d2a34e64c02b79569a2f9386604051610e8891815260200190565b60405180910390a4505050565b60006105cf826115c3565b6000610eab60085490565b8210610f0e5760405162461bcd60e51b815260206004820152602c60248201527f455243373231456e756d657261626c653a20676c6f62616c20696e646578206f60448201526b7574206f6620626f756e647360a01b60648201526084016106cf565b60088281548110610f2157610f21612d55565b90600052602060002001549050919050565b6000838152600e60205260408082209051610f6a918491610f55908790612d39565b908152604051908190036020019020906119f6565b949350505050565b610f9f6040518060600160405280600081526020016060815260200160006001600160a01b031681525090565b6000838152601260205260409020805483908110610fbf57610fbf612d55565b906000526020600020906003020160405180606001604052908160008201548152602001600182018054610ff290612cfe565b80601f016020809104026020016040519081016040528092919081815260200182805461101e90612cfe565b801561106b5780601f106110405761010080835404028352916020019161106b565b820191906000526020600020905b81548152906001019060200180831161104e57829003601f168201915b5050509183525050600291909101546001600160a01b03166020909101529392505050565b6000818152600260205260408120546001600160a01b0316806105cf5760405162461bcd60e51b815260206004820152602960248201527f4552433732313a206f776e657220717565727920666f72206e6f6e657869737460448201526832b73a103a37b5b2b760b91b60648201526084016106cf565b60006001600160a01b0382166111725760405162461bcd60e51b815260206004820152602a60248201527f4552433732313a2062616c616e636520717565727920666f7220746865207a65604482015269726f206164647265737360b01b60648201526084016106cf565b506001600160a01b031660009081526003602052604090205490565b6060600180546105e490612cfe565b8260006111ab828233611420565b6111c75760405162461bcd60e51b81526004016106cf90612ded565b6111d2858585611420565b1561124157600085815260106020908152604080832087845282528083206001600160a01b03871680855290835292819020805460ff191690555187815233929187917f743dd6de0118c934baddbf165685269ac4f51fe0780281fdb64ea7ca8746ceff910160405180910390a45b60008581526011602090815260408083208784529091529020610a159084611943565b61126f338383611a02565b5050565b60006105cf600d83604051610bc09190612d39565b601260205281600052604060002081815481106112a457600080fd5b9060005260206000209060030201600091509150508060000154908060010180546112ce90612cfe565b80601f01602080910402602001604051908101604052809291908181526020018280546112fa90612cfe565b80156113475780601f1061131c57610100808354040283529160200191611347565b820191906000526020600020905b81548152906001019060200180831161132a57829003601f168201915b505050600290930154919250506001600160a01b031683565b61136a33836116b6565b6113865760405162461bcd60e51b81526004016106cf90612d9c565b61139284848484611ad1565b50505050565b60606113a382611b04565b6040516020016113b39190612e4e565b6040516020818303038152906040529050919050565b60006113d48361080a565b905060006113e18361080a565b5050505050565b6000838152600f60205260408082209051610f6a918491610f55908790612d39565b6000610b9882600d85604051610f559190612d39565b60009283526010602090815260408085209385529281528284206001600160a01b039290921684525290205460ff1690565b826000611460828233611420565b61147c5760405162461bcd60e51b81526004016106cf90612ded565b611487858585611420565b61151557600085815260106020908152604080832087845282528083206001600160a01b03871684529091529020805460ff191660011790556114c73390565b6001600160a01b0316836001600160a01b0316857f3f9759be566576e968397b016ea9843c3e1d19bf1f59ae53cdfbd3b1a69140708860405161150c91815260200190565b60405180910390a45b60008581526011602090815260408083208784529091529020610a159084611c82565b6000828152600e60205260408082209051610b989190610bc0908590612d39565b60008281526011602090815260408083208484529091528120610b9890611958565b60008381526011602090815260408083208584529091528120610f6a90836119f6565b60006001600160e01b0319821663780e9d6360e01b14806105cf57506105cf82611c97565b6000908152600260205260409020546001600160a01b0316151590565b600081815260046020526040902080546001600160a01b0319166001600160a01b038416908117909155819061161582611090565b6001600160a01b03167f8c5be1e5ebec7d5bd14f71427d1e84f3dd0314c0f7b2291e5b200ac8c7c3b92560405160405180910390a45050565b6000815111610c655760405162461bcd60e51b815260206004820152600e60248201526d696e76616c69645f737472696e6760901b60448201526064016106cf565b61126f828260405180602001604052806000815250611ce7565b6000610b988383611d1a565b60006116c1826115c3565b6117225760405162461bcd60e51b815260206004820152602c60248201527f4552433732313a206f70657261746f7220717565727920666f72206e6f6e657860448201526b34b9ba32b73a103a37b5b2b760a11b60648201526084016106cf565b600061172d83611090565b9050806001600160a01b0316846001600160a01b031614806117685750836001600160a01b031661175d84610667565b6001600160a01b0316145b80610f6a57506001600160a01b0380821660009081526005602090815260408083209388168352929052205460ff16610f6a565b826001600160a01b03166117af82611090565b6001600160a01b0316146118135760405162461bcd60e51b815260206004820152602560248201527f4552433732313a207472616e736665722066726f6d20696e636f72726563742060448201526437bbb732b960d91b60648201526084016106cf565b6001600160a01b0382166118755760405162461bcd60e51b8152602060048201526024808201527f4552433732313a207472616e7366657220746f20746865207a65726f206164646044820152637265737360e01b60648201526084016106cf565b611880838383611d69565b61188b6000826115e0565b6001600160a01b03831660009081526003602052604081208054600192906118b4908490612e80565b90915550506001600160a01b03821660009081526003602052604081208054600192906118e2908490612e97565b909155505060008181526002602052604080822080546001600160a01b0319166001600160a01b0386811691821790925591518493918716917fddf252ad1be2c89b69c2b068fc378daa952ba7f163c4a11628f55a4df523b3ef91a4505050565b6000610b98836001600160a01b038416611d74565b60006105cf825490565b610c6581611e67565b611974826115c3565b6119d75760405162461bcd60e51b815260206004820152602e60248201527f45524337323155524953746f726167653a2055524920736574206f66206e6f6e60448201526d32bc34b9ba32b73a103a37b5b2b760911b60648201526084016106cf565b6000828152600a602090815260409091208251610805928401906125e1565b6000610b988383611ea7565b816001600160a01b0316836001600160a01b03161415611a645760405162461bcd60e51b815260206004820152601960248201527f4552433732313a20617070726f766520746f2063616c6c65720000000000000060448201526064016106cf565b6001600160a01b03838116600081815260056020908152604080832094871680845294825291829020805460ff191686151590811790915591519182527f17307eab39ab6107e8899845ad3d59bd9653f200f220920489ca2b5937696c31910160405180910390a3505050565b611adc84848461179c565b611ae884848484611ed1565b6113925760405162461bcd60e51b81526004016106cf90612eaf565b6060611b0f826115c3565b611b755760405162461bcd60e51b815260206004820152603160248201527f45524337323155524953746f726167653a2055524920717565727920666f72206044820152703737b732bc34b9ba32b73a103a37b5b2b760791b60648201526084016106cf565b6000828152600a602052604081208054611b8e90612cfe565b80601f0160208091040260200160405190810160405280929190818152602001828054611bba90612cfe565b8015611c075780601f10611bdc57610100808354040283529160200191611c07565b820191906000526020600020905b815481529060010190602001808311611bea57829003601f168201915b505050505090506000611c34604080518082019091526007815266697066733a2f2f60c81b602082015290565b9050805160001415611c47575092915050565b815115611c79578082604051602001611c61929190612f01565b60405160208183030381529060405292505050919050565b610f6a84611fcf565b6000610b98836001600160a01b038416611d1a565b60006001600160e01b031982166380ac58cd60e01b1480611cc857506001600160e01b03198216635b5e139f60e01b145b806105cf57506301ffc9a760e01b6001600160e01b03198316146105cf565b611cf183836120b5565b611cfe6000848484611ed1565b6108055760405162461bcd60e51b81526004016106cf90612eaf565b6000818152600183016020526040812054611d61575081546001818101845560008481526020808220909301849055845484825282860190935260409020919091556105cf565b5060006105cf565b6108058383836121f4565b60008181526001830160205260408120548015611e5d576000611d98600183612e80565b8554909150600090611dac90600190612e80565b9050818114611e11576000866000018281548110611dcc57611dcc612d55565b9060005260206000200154905080876000018481548110611def57611def612d55565b6000918252602080832090910192909255918252600188019052604090208390555b8554869080611e2257611e22612f30565b6001900381819060005260206000200160009055905585600101600086815260200190815260200160002060009055600193505050506105cf565b60009150506105cf565b611e70816122ac565b6000818152600a602052604090208054611e8990612cfe565b159050610c65576000818152600a60205260408120610c6591612665565b6000826000018281548110611ebe57611ebe612d55565b9060005260206000200154905092915050565b60006001600160a01b0384163b15611fc457604051630a85bd0160e11b81526001600160a01b0385169063150b7a0290611f15903390899088908890600401612f46565b6020604051808303816000875af1925050508015611f50575060408051601f3d908101601f19168201909252611f4d91810190612f83565b60015b611faa573d808015611f7e576040519150601f19603f3d011682016040523d82523d6000602084013e611f83565b606091505b508051611fa25760405162461bcd60e51b81526004016106cf90612eaf565b805181602001fd5b6001600160e01b031916630a85bd0160e11b149050610f6a565b506001949350505050565b6060611fda826115c3565b61203e5760405162461bcd60e51b815260206004820152602f60248201527f4552433732314d657461646174613a2055524920717565727920666f72206e6f60448201526e3732bc34b9ba32b73a103a37b5b2b760891b60648201526084016106cf565b6000612064604080518082019091526007815266697066733a2f2f60c81b602082015290565b905060008151116120845760405180602001604052806000815250610b98565b8061208e84612353565b60405160200161209f929190612f01565b6040516020818303038152906040529392505050565b6001600160a01b03821661210b5760405162461bcd60e51b815260206004820181905260248201527f4552433732313a206d696e7420746f20746865207a65726f206164647265737360448201526064016106cf565b612114816115c3565b156121615760405162461bcd60e51b815260206004820152601c60248201527f4552433732313a20746f6b656e20616c7265616479206d696e7465640000000060448201526064016106cf565b61216d60008383611d69565b6001600160a01b0382166000908152600360205260408120805460019290612196908490612e97565b909155505060008181526002602052604080822080546001600160a01b0319166001600160a01b03861690811790915590518392907fddf252ad1be2c89b69c2b068fc378daa952ba7f163c4a11628f55a4df523b3ef908290a45050565b6001600160a01b03831661224f5761224a81600880546000838152600960205260408120829055600182018355919091527ff3f7a9fe364faab93b216da50a3214154f22a0a2b415b23a84c8169e8b636ee30155565b612272565b816001600160a01b0316836001600160a01b031614612272576122728382612451565b6001600160a01b03821661228957610805816124ee565b826001600160a01b0316826001600160a01b03161461080557610805828261259d565b60006122b782611090565b90506122c581600084611d69565b6122d06000836115e0565b6001600160a01b03811660009081526003602052604081208054600192906122f9908490612e80565b909155505060008281526002602052604080822080546001600160a01b0319169055518391906001600160a01b038416907fddf252ad1be2c89b69c2b068fc378daa952ba7f163c4a11628f55a4df523b3ef908390a45050565b6060816123775750506040805180820190915260018152600360fc1b602082015290565b8160005b81156123a1578061238b81612d81565b915061239a9050600a83612fb6565b915061237b565b60008167ffffffffffffffff8111156123bc576123bc6127ad565b6040519080825280601f01601f1916602001820160405280156123e6576020820181803683370190505b5090505b8415610f6a576123fb600183612e80565b9150612408600a86612fca565b612413906030612e97565b60f81b81838151811061242857612428612d55565b60200101906001600160f81b031916908160001a90535061244a600a86612fb6565b94506123ea565b6000600161245e84611107565b6124689190612e80565b6000838152600760205260409020549091508082146124bb576001600160a01b03841660009081526006602090815260408083208584528252808320548484528184208190558352600790915290208190555b5060009182526007602090815260408084208490556001600160a01b039094168352600681528383209183525290812055565b60085460009061250090600190612e80565b6000838152600960205260408120546008805493945090928490811061252857612528612d55565b90600052602060002001549050806008838154811061254957612549612d55565b600091825260208083209091019290925582815260099091526040808220849055858252812055600880548061258157612581612f30565b6001900381819060005260206000200160009055905550505050565b60006125a883611107565b6001600160a01b039093166000908152600660209081526040808320868452825280832085905593825260079052919091209190915550565b8280546125ed90612cfe565b90600052602060002090601f01602090048101928261260f5760008555612655565b82601f1061262857805160ff1916838001178555612655565b82800160010185558215612655579182015b8281111561265557825182559160200191906001019061263a565b5061266192915061269b565b5090565b50805461267190612cfe565b6000825580601f10612681575050565b601f016020900490600052602060002090810190610c6591905b5b80821115612661576000815560010161269c565b6001600160e01b031981168114610c6557600080fd5b6000602082840312156126d857600080fd5b8135610b98816126b0565b60005b838110156126fe5781810151838201526020016126e6565b838111156113925750506000910152565b600081518084526127278160208601602086016126e3565b601f01601f19169290920160200192915050565b602081526000610b98602083018461270f565b60006020828403121561276057600080fd5b5035919050565b80356001600160a01b038116811461277e57600080fd5b919050565b6000806040838503121561279657600080fd5b61279f83612767565b946020939093013593505050565b634e487b7160e01b600052604160045260246000fd5b604051601f8201601f1916810167ffffffffffffffff811182821017156127ec576127ec6127ad565b604052919050565b600067ffffffffffffffff83111561280e5761280e6127ad565b612821601f8401601f19166020016127c3565b905082815283838301111561283557600080fd5b828260208301376000602084830101529392505050565b600082601f83011261285d57600080fd5b610b98838335602085016127f4565b600082601f83011261287d57600080fd5b8135602067ffffffffffffffff821115612899576128996127ad565b8160051b6128a88282016127c3565b92835284810182019282810190878511156128c257600080fd5b83870192505b848310156128e1578235825291830191908301906128c8565b979650505050505050565b6000806000806080858703121561290257600080fd5b843567ffffffffffffffff8082111561291a57600080fd5b6129268883890161284c565b9550602087013591508082111561293c57600080fd5b6129488883890161284c565b9450604087013591508082111561295e57600080fd5b61296a8883890161286c565b9350606087013591508082111561298057600080fd5b5061298d8782880161286c565b91505092959194509250565b6000806000606084860312156129ae57600080fd5b6129b784612767565b92506129c560208501612767565b9150604084013590509250925092565b600080604083850312156129e857600080fd5b50508035926020909101359150565b60008060408385031215612a0a57600080fd5b82359150612a1a60208401612767565b90509250929050565b60008060408385031215612a3657600080fd5b82359150602083013567ffffffffffffffff811115612a5457600080fd5b612a608582860161284c565b9150509250929050565b600080600060608486031215612a7f57600080fd5b83359250602084013567ffffffffffffffff811115612a9d57600080fd5b612aa98682870161284c565b925050604084013590509250925092565b60208152815160208201526000602083015160606040840152612ae0608084018261270f565b604094909401516001600160a01b0316606093909301929092525090919050565b600060208284031215612b1357600080fd5b610b9882612767565b600080600060608486031215612b3157600080fd5b8335925060208401359150612b4860408501612767565b90509250925092565b60008060408385031215612b6457600080fd5b612b6d83612767565b915060208301358015158114612b8257600080fd5b809150509250929050565b600060208284031215612b9f57600080fd5b813567ffffffffffffffff811115612bb657600080fd5b610f6a8482850161284c565b838152606060208201526000612bdb606083018561270f565b905060018060a01b0383166040830152949350505050565b60008060008060808587031215612c0957600080fd5b612c1285612767565b9350612c2060208601612767565b925060408501359150606085013567ffffffffffffffff811115612c4357600080fd5b8501601f81018713612c5457600080fd5b61298d878235602084016127f4565b60008060408385031215612c7657600080fd5b823567ffffffffffffffff811115612c8d57600080fd5b612c998582860161284c565b95602094909401359450505050565b60008060408385031215612cbb57600080fd5b612cc483612767565b9150612a1a60208401612767565b600080600060608486031215612ce757600080fd5b505081359360208301359350604090920135919050565b600181811c90821680612d1257607f821691505b60208210811415612d3357634e487b7160e01b600052602260045260246000fd5b50919050565b60008251612d4b8184602087016126e3565b9190910192915050565b634e487b7160e01b600052603260045260246000fd5b634e487b7160e01b600052601160045260246000fd5b6000600019821415612d9557612d95612d6b565b5060010190565b60208082526031908201527f4552433732313a207472616e736665722063616c6c6572206973206e6f74206f6040820152701ddb995c881b9bdc88185c1c1c9bdd9959607a1b606082015260800190565b60208082526018908201527f696e73756666696369656e745f7065726d697373696f6e730000000000000000604082015260600190565b60208082526010908201526f1b9bd91957db9bdb995e1a5cdd195b9d60821b604082015260600190565b60008251612e608184602087016126e3565b6d17b6b2ba30b230ba30973539b7b760911b920191825250600e01919050565b600082821015612e9257612e92612d6b565b500390565b60008219821115612eaa57612eaa612d6b565b500190565b60208082526032908201527f4552433732313a207472616e7366657220746f206e6f6e20455243373231526560408201527131b2b4bb32b91034b6b83632b6b2b73a32b960711b606082015260800190565b60008351612f138184602088016126e3565b835190830190612f278183602088016126e3565b01949350505050565b634e487b7160e01b600052603160045260246000fd5b6001600160a01b0385811682528416602082015260408101839052608060608201819052600090612f799083018461270f565b9695505050505050565b600060208284031215612f9557600080fd5b8151610b98816126b0565b634e487b7160e01b600052601260045260246000fd5b600082612fc557612fc5612fa0565b500490565b600082612fd957612fd9612fa0565b50069056fea26469706673582212206e3427a32314fa4a0e2c11d8742a709099a6de2a3cac4e36a755ce300f76dab264736f6c634300080c0033",
  "linkReferences": {},
  "deployedLinkReferences": {}
}