{
  "_format": "hh-sol-artifact-1",
  "contractName": "Node",
  "sourceName": "contracts/src/Node.sol",
  "abi": [
    {
      "inputs": [],
      "stateMutability": "nonpayable",
      "type": "constructor"
    },
    {
      "anonymous": false,
      "inputs": [
        {
          "indexed": true,
          "internalType": "address",
          "name": "owner",
          "type": "address"
        },
        {
          "indexed": true,
          "internalType": "address",
          "name": "approved",
          "type": "address"
        },
        {
          "indexed": true,
          "internalType": "uint256",
          "name": "tokenId",
          "type": "uint256"
        }
      ],
      "name": "Approval",
      "type": "event"
    },
    {
      "anonymous": false,
      "inputs": [
        {
          "indexed": true,
          "internalType": "address",
          "name": "owner",
          "type": "address"
        },
        {
          "indexed": true,
          "internalType": "address",
          "name": "operator",
          "type": "address"
        },
        {
          "indexed": false,
          "internalType": "bool",
          "name": "approved",
          "type": "bool"
        }
      ],
      "name": "ApprovalForAll",
      "type": "event"
    },
    {
      "anonymous": false,
      "inputs": [
        {
          "indexed": false,
          "internalType": "uint256",
          "name": "tokenId",
          "type": "uint256"
        },
        {
          "indexed": false,
          "internalType": "uint256",
          "name": "connectionFee",
          "type": "uint256"
        },
        {
          "indexed": false,
          "internalType": "address",
          "name": "sender",
          "type": "address"
        }
      ],
      "name": "ConnectionFeeSet",
      "type": "event"
    },
    {
      "anonymous": false,
      "inputs": [
        {
          "indexed": false,
          "internalType": "uint256",
          "name": "forTokenId",
          "type": "uint256"
        },
        {
          "indexed": false,
          "internalType": "uint256",
          "name": "toTokenId",
          "type": "uint256"
        },
        {
          "indexed": false,
          "internalType": "address",
          "name": "sender",
          "type": "address"
        }
      ],
      "name": "DelegatePermissionsRenounced",
      "type": "event"
    },
    {
      "anonymous": false,
      "inputs": [
        {
          "indexed": true,
          "internalType": "uint256",
          "name": "tokenId",
          "type": "uint256"
        },
        {
          "indexed": false,
          "internalType": "string",
          "name": "hash",
          "type": "string"
        },
        {
          "components": [
            {
              "internalType": "uint256",
              "name": "tokenId",
              "type": "uint256"
            },
            {
              "internalType": "string",
              "name": "name",
              "type": "string"
            }
          ],
          "indexed": false,
          "internalType": "struct Node.Edge[]",
          "name": "incomingEdges",
          "type": "tuple[]"
        },
        {
          "components": [
            {
              "internalType": "uint256",
              "name": "tokenId",
              "type": "uint256"
            },
            {
              "internalType": "string",
              "name": "name",
              "type": "string"
            }
          ],
          "indexed": false,
          "internalType": "struct Node.Edge[]",
          "name": "outgoingEdges",
          "type": "tuple[]"
        },
        {
          "indexed": false,
          "internalType": "address",
          "name": "sender",
          "type": "address"
        }
      ],
      "name": "Merge",
      "type": "event"
    },
    {
      "anonymous": false,
      "inputs": [
        {
          "indexed": true,
          "internalType": "uint256",
          "name": "tokenId",
          "type": "uint256"
        },
        {
          "indexed": false,
          "internalType": "string",
          "name": "label",
          "type": "string"
        },
        {
          "indexed": false,
          "internalType": "string",
          "name": "hash",
          "type": "string"
        },
        {
          "components": [
            {
              "internalType": "uint256",
              "name": "tokenId",
              "type": "uint256"
            },
            {
              "internalType": "string",
              "name": "name",
              "type": "string"
            }
          ],
          "indexed": false,
          "internalType": "struct Node.Edge[]",
          "name": "incomingEdges",
          "type": "tuple[]"
        },
        {
          "components": [
            {
              "internalType": "uint256",
              "name": "tokenId",
              "type": "uint256"
            },
            {
              "internalType": "string",
              "name": "name",
              "type": "string"
            }
          ],
          "indexed": false,
          "internalType": "struct Node.Edge[]",
          "name": "outgoingEdges",
          "type": "tuple[]"
        },
        {
          "indexed": false,
          "internalType": "address",
          "name": "sender",
          "type": "address"
        }
      ],
      "name": "Mint",
      "type": "event"
    },
    {
      "anonymous": false,
      "inputs": [
        {
          "indexed": false,
          "internalType": "uint256",
          "name": "tokenId",
          "type": "uint256"
        },
        {
          "indexed": false,
          "internalType": "bool",
          "name": "bypassed",
          "type": "bool"
        },
        {
          "indexed": false,
          "internalType": "address",
          "name": "sender",
          "type": "address"
        }
      ],
      "name": "PermissionsBypassSet",
      "type": "event"
    },
    {
      "anonymous": false,
      "inputs": [
        {
          "indexed": false,
          "internalType": "uint256",
          "name": "forTokenId",
          "type": "uint256"
        },
        {
          "indexed": false,
          "internalType": "uint256",
          "name": "toTokenId",
          "type": "uint256"
        },
        {
          "indexed": false,
          "internalType": "address",
          "name": "sender",
          "type": "address"
        }
      ],
      "name": "PermissionsDelegated",
      "type": "event"
    },
    {
      "anonymous": false,
      "inputs": [
        {
          "indexed": true,
          "internalType": "uint256",
          "name": "tokenId",
          "type": "uint256"
        },
        {
          "indexed": false,
          "internalType": "string",
          "name": "hash",
          "type": "string"
        },
        {
          "indexed": false,
          "internalType": "address",
          "name": "sender",
          "type": "address"
        }
      ],
      "name": "Revise",
      "type": "event"
    },
    {
      "anonymous": false,
      "inputs": [
        {
          "indexed": false,
          "internalType": "uint256",
          "name": "tokenId",
          "type": "uint256"
        },
        {
          "indexed": false,
          "internalType": "uint256",
          "name": "role",
          "type": "uint256"
        },
        {
          "indexed": false,
          "internalType": "address",
          "name": "account",
          "type": "address"
        },
        {
          "indexed": false,
          "internalType": "address",
          "name": "sender",
          "type": "address"
        }
      ],
      "name": "RoleGranted",
      "type": "event"
    },
    {
      "anonymous": false,
      "inputs": [
        {
          "indexed": false,
          "internalType": "uint256",
          "name": "tokenId",
          "type": "uint256"
        },
        {
          "indexed": false,
          "internalType": "uint256",
          "name": "role",
          "type": "uint256"
        },
        {
          "indexed": false,
          "internalType": "address",
          "name": "account",
          "type": "address"
        },
        {
          "indexed": false,
          "internalType": "address",
          "name": "sender",
          "type": "address"
        }
      ],
      "name": "RoleRevoked",
      "type": "event"
    },
    {
      "anonymous": false,
      "inputs": [
        {
          "indexed": true,
          "internalType": "address",
          "name": "from",
          "type": "address"
        },
        {
          "indexed": true,
          "internalType": "address",
          "name": "to",
          "type": "address"
        },
        {
          "indexed": true,
          "internalType": "uint256",
          "name": "tokenId",
          "type": "uint256"
        }
      ],
      "name": "Transfer",
      "type": "event"
    },
    {
      "inputs": [],
      "name": "ADMIN_ROLE",
      "outputs": [
        {
          "internalType": "uint256",
          "name": "",
          "type": "uint256"
        }
      ],
      "stateMutability": "view",
      "type": "function"
    },
    {
      "inputs": [],
      "name": "EDITOR_ROLE",
      "outputs": [
        {
          "internalType": "uint256",
          "name": "",
          "type": "uint256"
        }
      ],
      "stateMutability": "view",
      "type": "function"
    },
    {
      "inputs": [],
      "name": "ERR_INSUFFICIENT_PERMISSIONS",
      "outputs": [
        {
          "internalType": "string",
          "name": "",
          "type": "string"
        }
      ],
      "stateMutability": "view",
      "type": "function"
    },
    {
      "inputs": [],
      "name": "ERR_NODE_NONEXISTENT",
      "outputs": [
        {
          "internalType": "string",
          "name": "",
          "type": "string"
        }
      ],
      "stateMutability": "view",
      "type": "function"
    },
    {
      "inputs": [],
      "name": "ERR_RECURSIVE_DELEGATION",
      "outputs": [
        {
          "internalType": "string",
          "name": "",
          "type": "string"
        }
      ],
      "stateMutability": "view",
      "type": "function"
    },
    {
      "inputs": [
        {
          "internalType": "address",
          "name": "to",
          "type": "address"
        },
        {
          "internalType": "uint256",
          "name": "tokenId",
          "type": "uint256"
        }
      ],
      "name": "approve",
      "outputs": [],
      "stateMutability": "nonpayable",
      "type": "function"
    },
    {
      "inputs": [
        {
          "internalType": "address",
          "name": "owner",
          "type": "address"
        }
      ],
      "name": "balanceOf",
      "outputs": [
        {
          "internalType": "uint256",
          "name": "",
          "type": "uint256"
        }
      ],
      "stateMutability": "view",
      "type": "function"
    },
    {
      "inputs": [
        {
          "internalType": "uint256",
          "name": "tokenId",
          "type": "uint256"
        }
      ],
      "name": "burnNode",
      "outputs": [],
      "stateMutability": "nonpayable",
      "type": "function"
    },
    {
      "inputs": [
        {
          "internalType": "uint256",
          "name": "tokenId",
          "type": "uint256"
        },
        {
          "internalType": "address",
          "name": "account",
          "type": "address"
        }
      ],
      "name": "canEdit",
      "outputs": [
        {
          "internalType": "bool",
          "name": "",
          "type": "bool"
        }
      ],
      "stateMutability": "view",
      "type": "function"
    },
    {
      "inputs": [
        {
          "internalType": "uint256",
          "name": "forTokenId",
          "type": "uint256"
        },
        {
          "internalType": "uint256",
          "name": "toTokenId",
          "type": "uint256"
        }
      ],
      "name": "delegatePermissions",
      "outputs": [],
      "stateMutability": "nonpayable",
      "type": "function"
    },
    {
      "inputs": [
        {
          "internalType": "uint256",
          "name": "tokenId",
          "type": "uint256"
        }
      ],
      "name": "exists",
      "outputs": [
        {
          "internalType": "bool",
          "name": "",
          "type": "bool"
        }
      ],
      "stateMutability": "view",
      "type": "function"
    },
    {
      "inputs": [
        {
          "internalType": "uint256",
          "name": "tokenId",
          "type": "uint256"
        }
      ],
      "name": "getApproved",
      "outputs": [
        {
          "internalType": "address",
          "name": "",
          "type": "address"
        }
      ],
      "stateMutability": "view",
      "type": "function"
    },
    {
      "inputs": [
        {
          "internalType": "uint256",
          "name": "tokenId",
          "type": "uint256"
        }
      ],
      "name": "getConnectionFee",
      "outputs": [
        {
          "internalType": "uint256",
          "name": "",
          "type": "uint256"
        }
      ],
      "stateMutability": "view",
      "type": "function"
    },
    {
      "inputs": [
        {
          "internalType": "uint256",
          "name": "tokenId",
          "type": "uint256"
        },
        {
          "internalType": "uint256",
          "name": "role",
          "type": "uint256"
        },
        {
          "internalType": "address",
          "name": "account",
          "type": "address"
        }
      ],
      "name": "grantRole",
      "outputs": [],
      "stateMutability": "nonpayable",
      "type": "function"
    },
    {
      "inputs": [
        {
          "internalType": "uint256",
          "name": "tokenId",
          "type": "uint256"
        }
      ],
      "name": "hasPermissionsBypass",
      "outputs": [
        {
          "internalType": "bool",
          "name": "",
          "type": "bool"
        }
      ],
      "stateMutability": "view",
      "type": "function"
    },
    {
      "inputs": [
        {
          "internalType": "uint256",
          "name": "tokenId",
          "type": "uint256"
        },
        {
          "internalType": "uint256",
          "name": "role",
          "type": "uint256"
        },
        {
          "internalType": "address",
          "name": "account",
          "type": "address"
        }
      ],
      "name": "hasRole",
      "outputs": [
        {
          "internalType": "bool",
          "name": "",
          "type": "bool"
        }
      ],
      "stateMutability": "view",
      "type": "function"
    },
    {
      "inputs": [
        {
          "internalType": "address",
          "name": "owner",
          "type": "address"
        },
        {
          "internalType": "address",
          "name": "operator",
          "type": "address"
        }
      ],
      "name": "isApprovedForAll",
      "outputs": [
        {
          "internalType": "bool",
          "name": "",
          "type": "bool"
        }
      ],
      "stateMutability": "view",
      "type": "function"
    },
    {
      "inputs": [
        {
          "internalType": "uint256",
          "name": "tokenId",
          "type": "uint256"
        },
        {
          "internalType": "string",
          "name": "hash",
          "type": "string"
        },
        {
          "components": [
            {
              "internalType": "uint256",
              "name": "tokenId",
              "type": "uint256"
            },
            {
              "internalType": "string",
              "name": "name",
              "type": "string"
            }
          ],
          "internalType": "struct Node.Edge[]",
          "name": "incomingEdges",
          "type": "tuple[]"
        },
        {
          "components": [
            {
              "internalType": "uint256",
              "name": "tokenId",
              "type": "uint256"
            },
            {
              "internalType": "string",
              "name": "name",
              "type": "string"
            }
          ],
          "internalType": "struct Node.Edge[]",
          "name": "outgoingEdges",
          "type": "tuple[]"
        }
      ],
      "name": "merge",
      "outputs": [],
      "stateMutability": "payable",
      "type": "function"
    },
    {
      "inputs": [
        {
          "internalType": "string",
          "name": "label",
          "type": "string"
        },
        {
          "internalType": "string",
          "name": "hash",
          "type": "string"
        },
        {
          "components": [
            {
              "internalType": "uint256",
              "name": "tokenId",
              "type": "uint256"
            },
            {
              "internalType": "string",
              "name": "name",
              "type": "string"
            }
          ],
          "internalType": "struct Node.Edge[]",
          "name": "incomingEdges",
          "type": "tuple[]"
        },
        {
          "components": [
            {
              "internalType": "uint256",
              "name": "tokenId",
              "type": "uint256"
            },
            {
              "internalType": "string",
              "name": "name",
              "type": "string"
            }
          ],
          "internalType": "struct Node.Edge[]",
          "name": "outgoingEdges",
          "type": "tuple[]"
        },
        {
          "internalType": "uint256[]",
          "name": "delegatePermissionsTokenIds",
          "type": "uint256[]"
        }
      ],
      "name": "mint",
      "outputs": [],
      "stateMutability": "payable",
      "type": "function"
    },
    {
      "inputs": [],
      "name": "name",
      "outputs": [
        {
          "internalType": "string",
          "name": "",
          "type": "string"
        }
      ],
      "stateMutability": "view",
      "type": "function"
    },
    {
      "inputs": [
        {
          "internalType": "uint256",
          "name": "tokenId",
          "type": "uint256"
        }
      ],
      "name": "ownerOf",
      "outputs": [
        {
          "internalType": "address",
          "name": "",
          "type": "address"
        }
      ],
      "stateMutability": "view",
      "type": "function"
    },
    {
      "inputs": [
        {
          "internalType": "address",
          "name": "dest",
          "type": "address"
        }
      ],
      "name": "payments",
      "outputs": [
        {
          "internalType": "uint256",
          "name": "",
          "type": "uint256"
        }
      ],
      "stateMutability": "view",
      "type": "function"
    },
    {
      "inputs": [
        {
          "internalType": "uint256",
          "name": "forTokenId",
          "type": "uint256"
        },
        {
          "internalType": "uint256",
          "name": "toTokenId",
          "type": "uint256"
        }
      ],
      "name": "renounceDelegatePermissions",
      "outputs": [],
      "stateMutability": "nonpayable",
      "type": "function"
    },
    {
      "inputs": [
        {
          "internalType": "uint256",
          "name": "tokenId",
          "type": "uint256"
        },
        {
          "internalType": "uint256",
          "name": "role",
          "type": "uint256"
        }
      ],
      "name": "renounceRole",
      "outputs": [],
      "stateMutability": "nonpayable",
      "type": "function"
    },
    {
      "inputs": [
        {
          "internalType": "uint256",
          "name": "tokenId",
          "type": "uint256"
        },
        {
          "internalType": "string",
          "name": "hash",
          "type": "string"
        }
      ],
      "name": "revise",
      "outputs": [],
      "stateMutability": "nonpayable",
      "type": "function"
    },
    {
      "inputs": [
        {
          "internalType": "uint256",
          "name": "tokenId",
          "type": "uint256"
        },
        {
          "internalType": "uint256",
          "name": "role",
          "type": "uint256"
        },
        {
          "internalType": "address",
          "name": "account",
          "type": "address"
        }
      ],
      "name": "revokeRole",
      "outputs": [],
      "stateMutability": "nonpayable",
      "type": "function"
    },
    {
      "inputs": [
        {
          "internalType": "address",
          "name": "from",
          "type": "address"
        },
        {
          "internalType": "address",
          "name": "to",
          "type": "address"
        },
        {
          "internalType": "uint256",
          "name": "tokenId",
          "type": "uint256"
        }
      ],
      "name": "safeTransferFrom",
      "outputs": [],
      "stateMutability": "nonpayable",
      "type": "function"
    },
    {
      "inputs": [
        {
          "internalType": "address",
          "name": "from",
          "type": "address"
        },
        {
          "internalType": "address",
          "name": "to",
          "type": "address"
        },
        {
          "internalType": "uint256",
          "name": "tokenId",
          "type": "uint256"
        },
        {
          "internalType": "bytes",
          "name": "_data",
          "type": "bytes"
        }
      ],
      "name": "safeTransferFrom",
      "outputs": [],
      "stateMutability": "nonpayable",
      "type": "function"
    },
    {
      "inputs": [
        {
          "internalType": "address",
          "name": "operator",
          "type": "address"
        },
        {
          "internalType": "bool",
          "name": "approved",
          "type": "bool"
        }
      ],
      "name": "setApprovalForAll",
      "outputs": [],
      "stateMutability": "nonpayable",
      "type": "function"
    },
    {
      "inputs": [
        {
          "internalType": "uint256",
          "name": "tokenId",
          "type": "uint256"
        },
        {
          "internalType": "uint256",
          "name": "connectionFee",
          "type": "uint256"
        }
      ],
      "name": "setConnectionFee",
      "outputs": [],
      "stateMutability": "nonpayable",
      "type": "function"
    },
    {
      "inputs": [
        {
          "internalType": "uint256",
          "name": "tokenId",
          "type": "uint256"
        },
        {
          "internalType": "bool",
          "name": "shouldBypassPermissions",
          "type": "bool"
        }
      ],
      "name": "setPermissionsBypass",
      "outputs": [],
      "stateMutability": "nonpayable",
      "type": "function"
    },
    {
      "inputs": [
        {
          "internalType": "string",
          "name": "a",
          "type": "string"
        },
        {
          "internalType": "string",
          "name": "b",
          "type": "string"
        }
      ],
      "name": "stringsAreEqual",
      "outputs": [
        {
          "internalType": "bool",
          "name": "",
          "type": "bool"
        }
      ],
      "stateMutability": "pure",
      "type": "function"
    },
    {
      "inputs": [
        {
          "internalType": "bytes4",
          "name": "interfaceId",
          "type": "bytes4"
        }
      ],
      "name": "supportsInterface",
      "outputs": [
        {
          "internalType": "bool",
          "name": "",
          "type": "bool"
        }
      ],
      "stateMutability": "view",
      "type": "function"
    },
    {
      "inputs": [],
      "name": "symbol",
      "outputs": [
        {
          "internalType": "string",
          "name": "",
          "type": "string"
        }
      ],
      "stateMutability": "view",
      "type": "function"
    },
    {
      "inputs": [
        {
          "internalType": "uint256",
          "name": "index",
          "type": "uint256"
        }
      ],
      "name": "tokenByIndex",
      "outputs": [
        {
          "internalType": "uint256",
          "name": "",
          "type": "uint256"
        }
      ],
      "stateMutability": "view",
      "type": "function"
    },
    {
      "inputs": [
        {
          "internalType": "address",
          "name": "owner",
          "type": "address"
        },
        {
          "internalType": "uint256",
          "name": "index",
          "type": "uint256"
        }
      ],
      "name": "tokenOfOwnerByIndex",
      "outputs": [
        {
          "internalType": "uint256",
          "name": "",
          "type": "uint256"
        }
      ],
      "stateMutability": "view",
      "type": "function"
    },
    {
      "inputs": [
        {
          "internalType": "uint256",
          "name": "tokenId",
          "type": "uint256"
        }
      ],
      "name": "tokenURI",
      "outputs": [
        {
          "internalType": "string",
          "name": "",
          "type": "string"
        }
      ],
      "stateMutability": "view",
      "type": "function"
    },
    {
      "inputs": [],
      "name": "totalSupply",
      "outputs": [
        {
          "internalType": "uint256",
          "name": "",
          "type": "uint256"
        }
      ],
      "stateMutability": "view",
      "type": "function"
    },
    {
      "inputs": [
        {
          "internalType": "address",
          "name": "from",
          "type": "address"
        },
        {
          "internalType": "address",
          "name": "to",
          "type": "address"
        },
        {
          "internalType": "uint256",
          "name": "tokenId",
          "type": "uint256"
        }
      ],
      "name": "transferFrom",
      "outputs": [],
      "stateMutability": "nonpayable",
      "type": "function"
    },
    {
      "inputs": [
        {
          "internalType": "address payable",
          "name": "payee",
          "type": "address"
        }
      ],
      "name": "withdrawPayments",
      "outputs": [],
      "stateMutability": "nonpayable",
      "type": "function"
    }
  ],
  "bytecode": "0x60a06040523480156200001157600080fd5b50604051806040016040528060048152602001634e6f646560e01b815250604051806040016040528060048152602001634e4f444560e01b815250816000908051906020019062000064929190620000c0565b5080516200007a906001906020840190620000c0565b50506001600b555060405162000090906200014f565b604051809103906000f080158015620000ad573d6000803e3d6000fd5b506001600160a01b0316608052620001b1565b828054620000ce9062000174565b90600052602060002090601f016020900481019282620000f257600085556200013d565b82601f106200010d57805160ff19168380011785556200013d565b828001600101855582156200013d579182015b828111156200013d57825182559160200191906001019062000120565b506200014b9291506200015d565b5090565b6105f2806200417f83390190565b5b808211156200014b57600081556001016200015e565b600181811c908216806200018957607f821691505b60208210811415620001ab57634e487b7160e01b600052602260045260246000fd5b50919050565b608051613fa4620001db60003960008181610c6e01528181611a6e01526121e30152613fa46000f3fe60806040526004361061023b5760003560e01c806370a082311161012e578063ac3b5bf8116100ab578063e2982c211161006f578063e2982c21146106f5578063e985e9c514610715578063ea559dc21461075e578063eb31f4c51461077e578063f1052ef91461079e57600080fd5b8063ac3b5bf814610662578063b88d4fde14610682578063c87b56dd146106a2578063dbd3fd7f146106c2578063dd888a9f146106d557600080fd5b80639bf15032116100f25780639bf15032146105cd5780639cb99aba146105ed578063a22cb4651461060d578063a853211a1461062d578063a937319a1461064257600080fd5b806370a082311461051657806375b238fc1461053657806385d6f2171461054b57806392d963251461057857806395d89b41146105b857600080fd5b80633aa817cc116101bc5780634f6ccce7116101805780634f6ccce71461045f5780635587850d1461047f5780636352211e1461049f57806368e661eb146104bf5780636f633340146104f657600080fd5b80633aa817cc146103bf5780633af7a723146103df57806342842e0e146103ff57806344c3d3fb1461041f5780634f558e791461043f57600080fd5b806323b872dd1161020357806323b872dd146103105780632f745c59146103305780632fc7bfab1461035057806331b3eb94146103635780633a06529b1461038357600080fd5b806301ffc9a71461024057806306fdde0314610275578063081812fc14610297578063095ea7b3146102cf57806318160ddd146102f1575b600080fd5b34801561024c57600080fd5b5061026061025b366004613429565b6107ce565b60405190151581526020015b60405180910390f35b34801561028157600080fd5b5061028a6107df565b60405161026c919061349e565b3480156102a357600080fd5b506102b76102b23660046134b1565b610871565b6040516001600160a01b03909116815260200161026c565b3480156102db57600080fd5b506102ef6102ea3660046134df565b6108fe565b005b3480156102fd57600080fd5b506008545b60405190815260200161026c565b34801561031c57600080fd5b506102ef61032b36600461350b565b610a14565b34801561033c57600080fd5b5061030261034b3660046134df565b610a45565b6102ef61035e36600461372a565b610adb565b34801561036f57600080fd5b506102ef61037e3660046137bc565b610bf7565b34801561038f57600080fd5b5061028a6040518060400160405280601081526020016f1b9bd91957db9bdb995e1a5cdd195b9d60821b81525081565b3480156103cb57600080fd5b506102ef6103da3660046137d9565b610cd2565b3480156103eb57600080fd5b506102606103fa3660046137fb565b610dc4565b34801561040b57600080fd5b506102ef61041a36600461350b565b610deb565b34801561042b57600080fd5b506102ef61043a36600461382b565b610e06565b34801561044b57600080fd5b5061026061045a3660046134b1565b610f10565b34801561046b57600080fd5b5061030261047a3660046134b1565b610f1b565b34801561048b57600080fd5b506102ef61049a3660046134b1565b610fae565b3480156104ab57600080fd5b506102b76104ba3660046134b1565b61105b565b3480156104cb57600080fd5b5061028a604051806040016040528060188152602001600080516020613f4f83398151915281525081565b34801561050257600080fd5b50610260610511366004613872565b6110d2565b34801561052257600080fd5b506103026105313660046137bc565b61112b565b34801561054257600080fd5b50610302600081565b34801561055757600080fd5b506103026105663660046134b1565b6000908152600f602052604090205490565b34801561058457600080fd5b5061028a604051806040016040528060148152602001733932b1bab939b4bb32afb232b632b3b0ba34b7b760611b81525081565b3480156105c457600080fd5b5061028a6111b2565b3480156105d957600080fd5b506102ef6105e83660046137d9565b6111c1565b3480156105f957600080fd5b506102ef6106083660046138cc565b611463565b34801561061957600080fd5b506102ef61062836600461391a565b6115c8565b34801561063957600080fd5b50610302600181565b34801561064e57600080fd5b506102ef61065d36600461394f565b6115d3565b34801561066e57600080fd5b506102ef61067d3660046137d9565b61168b565b34801561068e57600080fd5b506102ef61069d366004613972565b611749565b3480156106ae57600080fd5b5061028a6106bd3660046134b1565b61177a565b6102ef6106d0366004613a41565b6117ab565b3480156106e157600080fd5b506102ef6106f03660046137d9565b6118e6565b34801561070157600080fd5b506103026107103660046137bc565b611a4c565b34801561072157600080fd5b50610260610730366004613b13565b6001600160a01b03918216600090815260056020908152604080832093909416825291909152205460ff1690565b34801561076a57600080fd5b506102606107793660046138cc565b611adb565b34801561078a57600080fd5b506102ef6107993660046138cc565b611b86565b3480156107aa57600080fd5b506102606107b93660046134b1565b60009081526014602052604090205460ff1690565b60006107d982611cea565b92915050565b6060600080546107ee90613b41565b80601f016020809104026020016040519081016040528092919081815260200182805461081a90613b41565b80156108675780601f1061083c57610100808354040283529160200191610867565b820191906000526020600020905b81548152906001019060200180831161084a57829003601f168201915b5050505050905090565b600061087c82611d0f565b6108e25760405162461bcd60e51b815260206004820152602c60248201527f4552433732313a20617070726f76656420717565727920666f72206e6f6e657860448201526b34b9ba32b73a103a37b5b2b760a11b60648201526084015b60405180910390fd5b506000908152600460205260409020546001600160a01b031690565b60006109098261105b565b9050806001600160a01b0316836001600160a01b031614156109775760405162461bcd60e51b815260206004820152602160248201527f4552433732313a20617070726f76616c20746f2063757272656e74206f776e656044820152603960f91b60648201526084016108d9565b336001600160a01b038216148061099357506109938133610730565b610a055760405162461bcd60e51b815260206004820152603860248201527f4552433732313a20617070726f76652063616c6c6572206973206e6f74206f7760448201527f6e6572206e6f7220617070726f76656420666f7220616c6c000000000000000060648201526084016108d9565b610a0f8383611d2c565b505050565b610a1e3382611d9a565b610a3a5760405162461bcd60e51b81526004016108d990613b7c565b610a0f838383611e84565b6000610a508361112b565b8210610ab25760405162461bcd60e51b815260206004820152602b60248201527f455243373231456e756d657261626c653a206f776e657220696e646578206f7560448201526a74206f6620626f756e647360a81b60648201526084016108d9565b506001600160a01b03919091166000908152600660209081526040808320938352929052205490565b83610ae581611d0f565b6040518060400160405280601081526020016f1b9bd91957db9bdb995e1a5cdd195b9d60821b81525090610b2c5760405162461bcd60e51b81526004016108d9919061349e565b50600085815260146020526040902054859060ff16610bef57610b4f8133610dc4565b604051806040016040528060188152602001600080516020613f4f83398151915281525090610b915760405162461bcd60e51b81526004016108d9919061349e565b50610b9b8561202b565b610ba58686612070565b610bb08685856120fb565b857f236bb16971ddcd63b572657e5dd00a13bce4f2c2b7edb3d22ba10b0021efedb186868633604051610be69493929190613c36565b60405180910390a25b505050505050565b6002600b541415610c4a5760405162461bcd60e51b815260206004820152601f60248201527f5265656e7472616e637947756172643a207265656e7472616e742063616c6c0060448201526064016108d9565b6002600b556040516351cff8d960e01b81526001600160a01b0382811660048301527f000000000000000000000000000000000000000000000000000000000000000016906351cff8d990602401600060405180830381600087803b158015610cb257600080fd5b505af1158015610cc6573d6000803e3d6000fd5b50506001600b55505050565b81610cdc81611d0f565b6040518060400160405280601081526020016f1b9bd91957db9bdb995e1a5cdd195b9d60821b81525090610d235760405162461bcd60e51b81526004016108d9919061349e565b50610d2f838333611adb565b15610d9b576000838152601060209081526040808320858452825280832033808552925291829020805460ff1916905590517f743dd6de0118c934baddbf165685269ac4f51fe0780281fdb64ea7ca8746ceff91610d9291869186918190613c89565b60405180910390a15b610dbe3360008581526011602090815260408083208784529091529020906126a3565b50505050565b6000610dd283600084611adb565b80610de45750610de483600184611adb565b9392505050565b610a0f83838360405180602001604052806000815250611749565b81610e1081611d0f565b6040518060400160405280601081526020016f1b9bd91957db9bdb995e1a5cdd195b9d60821b81525090610e575760405162461bcd60e51b81526004016108d9919061349e565b50600083815260146020526040902054839060ff16610dbe57610e7a8133610dc4565b604051806040016040528060188152602001600080516020613f4f83398151915281525090610ebc5760405162461bcd60e51b81526004016108d9919061349e565b50610ec68361202b565b610ed08484612070565b837f8a98cc625a75c2dc14883da513c5ce302b8ae3422734382fb4edcfddfde37cdf8433604051610f02929190613cb0565b60405180910390a250505050565b60006107d982611d0f565b6000610f2660085490565b8210610f895760405162461bcd60e51b815260206004820152602c60248201527f455243373231456e756d657261626c653a20676c6f62616c20696e646578206f60448201526b7574206f6620626f756e647360a01b60648201526084016108d9565b60088281548110610f9c57610f9c613cda565b90600052602060002001549050919050565b80610fb881611d0f565b6040518060400160405280601081526020016f1b9bd91957db9bdb995e1a5cdd195b9d60821b81525090610fff5760405162461bcd60e51b81526004016108d9919061349e565b5061100b335b83611d9a565b604051806040016040528060188152602001600080516020613f4f8339815191528152509061104d5760405162461bcd60e51b81526004016108d9919061349e565b50611057826126b8565b5050565b6000818152600260205260408120546001600160a01b0316806107d95760405162461bcd60e51b815260206004820152602960248201527f4552433732313a206f776e657220717565727920666f72206e6f6e657869737460448201526832b73a103a37b5b2b760b91b60648201526084016108d9565b6000816040516020016110e59190613cf0565b604051602081830303815290604052805190602001208360405160200161110c9190613cf0565b6040516020818303038152906040528051906020012014905092915050565b60006001600160a01b0382166111965760405162461bcd60e51b815260206004820152602a60248201527f4552433732313a2062616c616e636520717565727920666f7220746865207a65604482015269726f206164647265737360b01b60648201526084016108d9565b506001600160a01b031660009081526003602052604090205490565b6060600180546107ee90613b41565b816111cb81611d0f565b6040518060400160405280601081526020016f1b9bd91957db9bdb995e1a5cdd195b9d60821b815250906112125760405162461bcd60e51b81526004016108d9919061349e565b508161121d81611d0f565b6040518060400160405280601081526020016f1b9bd91957db9bdb995e1a5cdd195b9d60821b815250906112645760405162461bcd60e51b81526004016108d9919061349e565b5060008481526014602052604081205485919060ff16610bef57611289828233611adb565b604051806040016040528060188152602001600080516020613f4f833981519152815250906112cb5760405162461bcd60e51b81526004016108d9919061349e565b506040805180820190915260148152733932b1bab939b4bb32afb232b632b3b0ba34b7b760611b6020820152868614156113185760405162461bcd60e51b81526004016108d9919061349e565b506000858152601260205260409020611330906126c1565b6040805180820190915260148152733932b1bab939b4bb32afb232b632b3b0ba34b7b760611b6020820152901561137a5760405162461bcd60e51b81526004016108d9919061349e565b506000868152601360205260409020611392906126c1565b6040805180820190915260148152733932b1bab939b4bb32afb232b632b3b0ba34b7b760611b602082015290156113dc5760405162461bcd60e51b81526004016108d9919061349e565b5060008681526012602052604090206113f590866126cb565b50600085815260136020526040902061140e90876126cb565b507ff756463748eb0d59b8dea527a9a6d0c7e1b813913b25797ba5d3603892b207048686335b6040805193845260208401929092526001600160a01b03169082015260600160405180910390a1505050505050565b8261146d81611d0f565b6040518060400160405280601081526020016f1b9bd91957db9bdb995e1a5cdd195b9d60821b815250906114b45760405162461bcd60e51b81526004016108d9919061349e565b5060008481526014602052604081205485919060ff16610bef576114d9828233611adb565b604051806040016040528060188152602001600080516020613f4f8339815191528152509061151b5760405162461bcd60e51b81526004016108d9919061349e565b50611527868686611adb565b1561159c57600086815260106020908152604080832088845282528083206001600160a01b03881684529091529020805460ff191690557f743dd6de0118c934baddbf165685269ac4f51fe0780281fdb64ea7ca8746ceff868686336040516115939493929190613c89565b60405180910390a15b600086815260116020908152604080832088845290915290206115bf90856126a3565b50505050505050565b6110573383836126d7565b6115df82600033611adb565b604051806040016040528060188152602001600080516020613f4f833981519152815250906116215760405162461bcd60e51b81526004016108d9919061349e565b506000828152601460205260409020805460ff19168215151790557fe0b4110a3baee4f696784af62abd29a66eaa57537c9d08b1e88efa87c846180c8282336040805193845291151560208401526001600160a01b03169082015260600160405180910390a15050565b60008281526014602052604081205483919060ff16610dbe576116af828233611adb565b604051806040016040528060188152602001600080516020613f4f833981519152815250906116f15760405162461bcd60e51b81526004016108d9919061349e565b506000848152600f60209081526040918290208590558151868152908101859052338183015290517f1f0ddf3115a5d0fceb59847eee42b4335f88b04f1d62262da57189e7432a7d6a9181900360600190a150505050565b61175233611005565b61176e5760405162461bcd60e51b81526004016108d990613b7c565b610dbe848484846127a6565b6060611785826127d9565b6040516020016117959190613d0c565b6040516020818303038152906040529050919050565b6117b48561202b565b6117bd8461202b565b6117cb600c80546001019055565b60006117d6600c5490565b9050807e87cb72211b7017110b6e2676b860d8bc248f2161d7a6abac1896f0fc1e428b878787873360405161180f959493929190613d3e565b60405180910390a26118213382612957565b61182b8186612070565b6000818152600f60209081526040808320839055601082528083208380528252808320338085529252808320805460ff19166001179055517f3f9759be566576e968397b016ea9843c3e1d19bf1f59ae53cdfbd3b1a6914070926118929285928190613c89565b60405180910390a16118a58185856120fb565b60005b82518110156115bf576118d4828483815181106118c7576118c7613cda565b60200260200101516111c1565b806118de81613dbc565b9150506118a8565b816118f081611d0f565b6040518060400160405280601081526020016f1b9bd91957db9bdb995e1a5cdd195b9d60821b815250906119375760405162461bcd60e51b81526004016108d9919061349e565b508161194281611d0f565b6040518060400160405280601081526020016f1b9bd91957db9bdb995e1a5cdd195b9d60821b815250906119895760405162461bcd60e51b81526004016108d9919061349e565b5060008481526014602052604081205485919060ff16610bef576119ae828233611adb565b604051806040016040528060188152602001600080516020613f4f833981519152815250906119f05760405162461bcd60e51b81526004016108d9919061349e565b506000868152601260205260409020611a099086612971565b506000858152601360205260409020611a229087612971565b507fe90abaaba0ad946d1629928fb2d2e7c2c3dbac7b21e98a78cf777e1e87ef8038868633611434565b6040516371d4ed8d60e11b81526001600160a01b0382811660048301526000917f00000000000000000000000000000000000000000000000000000000000000009091169063e3a9db1a90602401602060405180830381865afa158015611ab7573d6000803e3d6000fd5b505050506040513d601f19601f820116820180604052508101906107d99190613dd7565b600083815260106020908152604080832085845282528083206001600160a01b038516845290915281205460ff1615611b1657506001610de4565b60005b6000858152601260205260409020611b30906126c1565b811015611b7b576000858152601260205260409020611b5a90611b53908361297d565b8585611adb565b15611b69576001915050610de4565b80611b7381613dbc565b915050611b19565b506000949350505050565b82611b9081611d0f565b6040518060400160405280601081526020016f1b9bd91957db9bdb995e1a5cdd195b9d60821b81525090611bd75760405162461bcd60e51b81526004016108d9919061349e565b5060008481526014602052604081205485919060ff16610bef57611bfc828233611adb565b604051806040016040528060188152602001600080516020613f4f83398151915281525090611c3e5760405162461bcd60e51b81526004016108d9919061349e565b50611c4a868686611adb565b611cc757600086815260106020908152604080832088845282528083206001600160a01b03881684529091529020805460ff191660011790557f3f9759be566576e968397b016ea9843c3e1d19bf1f59ae53cdfbd3b1a6914070868686611cae3390565b604051611cbe9493929190613c89565b60405180910390a15b600086815260116020908152604080832088845290915290206115bf9085612989565b60006001600160e01b0319821663780e9d6360e01b14806107d957506107d98261299e565b6000908152600260205260409020546001600160a01b0316151590565b600081815260046020526040902080546001600160a01b0319166001600160a01b0384169081179091558190611d618261105b565b6001600160a01b03167f8c5be1e5ebec7d5bd14f71427d1e84f3dd0314c0f7b2291e5b200ac8c7c3b92560405160405180910390a45050565b6000611da582611d0f565b611e065760405162461bcd60e51b815260206004820152602c60248201527f4552433732313a206f70657261746f7220717565727920666f72206e6f6e657860448201526b34b9ba32b73a103a37b5b2b760a11b60648201526084016108d9565b6000611e118361105b565b9050806001600160a01b0316846001600160a01b03161480611e4c5750836001600160a01b0316611e4184610871565b6001600160a01b0316145b80611e7c57506001600160a01b0380821660009081526005602090815260408083209388168352929052205460ff165b949350505050565b826001600160a01b0316611e978261105b565b6001600160a01b031614611efb5760405162461bcd60e51b815260206004820152602560248201527f4552433732313a207472616e736665722066726f6d20696e636f72726563742060448201526437bbb732b960d91b60648201526084016108d9565b6001600160a01b038216611f5d5760405162461bcd60e51b8152602060048201526024808201527f4552433732313a207472616e7366657220746f20746865207a65726f206164646044820152637265737360e01b60648201526084016108d9565b611f688383836129ee565b611f73600082611d2c565b6001600160a01b0383166000908152600360205260408120805460019290611f9c908490613df0565b90915550506001600160a01b0382166000908152600360205260408120805460019290611fca908490613e07565b909155505060008181526002602052604080822080546001600160a01b0319166001600160a01b0386811691821790925591518493918716917fddf252ad1be2c89b69c2b068fc378daa952ba7f163c4a11628f55a4df523b3ef91a4505050565b600081511161206d5760405162461bcd60e51b815260206004820152600e60248201526d696e76616c69645f737472696e6760901b60448201526064016108d9565b50565b61207982611d0f565b6120dc5760405162461bcd60e51b815260206004820152602e60248201527f45524337323155524953746f726167653a2055524920736574206f66206e6f6e60448201526d32bc34b9ba32b73a103a37b5b2b760911b60648201526084016108d9565b6000828152600a602090815260409091208251610a0f92840190613300565b60005b82518110156122a757600083828151811061211b5761211b613cda565b602002602001015190506121328160000151611d0f565b6040518060400160405280601081526020016f1b9bd91957db9bdb995e1a5cdd195b9d60821b815250906121795760405162461bcd60e51b81526004016108d9919061349e565b5080516000908152600f60205260408120549050612198338351611d9a565b1580156121ae575081516121ac9033610dc4565b155b80156121ba5750600081115b80156121dc575081516000878152600d602052604090206121da916129f9565b155b15612278577f00000000000000000000000000000000000000000000000000000000000000006001600160a01b031663f340fa018261221e856000015161105b565b6040516001600160e01b031960e085901b1681526001600160a01b0390911660048201526024016000604051808303818588803b15801561225e57600080fd5b505af1158015612272573d6000803e3d6000fd5b50505050505b81516000878152600d60205260409020612291916126cb565b505050808061229f90613dbc565b9150506120fe565b506000838152600e6020908152604080832080548251818502810185019093528083529192909190849084015b828210156123a257838290600052602060002090600202016040518060400160405290816000820154815260200160018201805461231190613b41565b80601f016020809104026020016040519081016040528092919081815260200182805461233d90613b41565b801561238a5780601f1061235f5761010080835404028352916020019161238a565b820191906000526020600020905b81548152906001019060200180831161236d57829003601f168201915b505050505081525050815260200190600101906122d4565b5050506000868152600e602052604081209293506123c1929150613384565b60005b825181101561257b5760008382815181106123e1576123e1613cda565b602002602001015190506123f88160000151611d0f565b6040518060400160405280601081526020016f1b9bd91957db9bdb995e1a5cdd195b9d60821b8152509061243f5760405162461bcd60e51b81526004016108d9919061349e565b506000805b84518110156124ac57600085828151811061246157612461613cda565b602002602001015190508360000151816000015114801561248f575061248f816020015185602001516110d2565b1561249957600192505b50806124a481613dbc565b915050612444565b50801580156124cc5750815160009081526014602052604090205460ff16155b156125215781516124dd9033610dc4565b604051806040016040528060188152602001600080516020613f4f8339815191528152509061251f5760405162461bcd60e51b81526004016108d9919061349e565b505b6000878152600e602090815260408220805460018181018355918452928290208551600290940201928355848201518051869493612563938501920190613300565b5050505050808061257390613dbc565b9150506123c4565b5060005b815181101561269c57600082828151811061259c5761259c613cda565b602002602001015190506000805b85518110156126125760008682815181106125c7576125c7613cda565b60200260200101519050806000015184600001511480156125f557506125f5846020015182602001516110d2565b156125ff57600192505b508061260a81613dbc565b9150506125aa565b50801580156126325750815160009081526014602052604090205460ff16155b156126875781516126439033610dc4565b604051806040016040528060188152602001600080516020613f4f833981519152815250906126855760405162461bcd60e51b81526004016108d9919061349e565b505b5050808061269490613dbc565b91505061257f565b5050505050565b6000610de4836001600160a01b038416612a11565b61206d81612b04565b60006107d9825490565b6000610de48383612b44565b816001600160a01b0316836001600160a01b031614156127395760405162461bcd60e51b815260206004820152601960248201527f4552433732313a20617070726f766520746f2063616c6c65720000000000000060448201526064016108d9565b6001600160a01b03838116600081815260056020908152604080832094871680845294825291829020805460ff191686151590811790915591519182527f17307eab39ab6107e8899845ad3d59bd9653f200f220920489ca2b5937696c31910160405180910390a3505050565b6127b1848484611e84565b6127bd84848484612b93565b610dbe5760405162461bcd60e51b81526004016108d990613e1f565b60606127e482611d0f565b61284a5760405162461bcd60e51b815260206004820152603160248201527f45524337323155524953746f726167653a2055524920717565727920666f72206044820152703737b732bc34b9ba32b73a103a37b5b2b760791b60648201526084016108d9565b6000828152600a60205260408120805461286390613b41565b80601f016020809104026020016040519081016040528092919081815260200182805461288f90613b41565b80156128dc5780601f106128b1576101008083540402835291602001916128dc565b820191906000526020600020905b8154815290600101906020018083116128bf57829003601f168201915b505050505090506000612909604080518082019091526007815266697066733a2f2f60c81b602082015290565b905080516000141561291c575092915050565b81511561294e578082604051602001612936929190613e71565b60405160208183030381529060405292505050919050565b611e7c84612c91565b611057828260405180602001604052806000815250612d77565b6000610de48383612a11565b6000610de48383612daa565b6000610de4836001600160a01b038416612b44565b60006001600160e01b031982166380ac58cd60e01b14806129cf57506001600160e01b03198216635b5e139f60e01b145b806107d957506301ffc9a760e01b6001600160e01b03198316146107d9565b610a0f838383612dd4565b60008181526001830160205260408120541515610de4565b60008181526001830160205260408120548015612afa576000612a35600183613df0565b8554909150600090612a4990600190613df0565b9050818114612aae576000866000018281548110612a6957612a69613cda565b9060005260206000200154905080876000018481548110612a8c57612a8c613cda565b6000918252602080832090910192909255918252600188019052604090208390555b8554869080612abf57612abf613ea0565b6001900381819060005260206000200160009055905585600101600086815260200190815260200160002060009055600193505050506107d9565b60009150506107d9565b612b0d81612e8c565b6000818152600a602052604090208054612b2690613b41565b15905061206d576000818152600a6020526040812061206d916133a5565b6000818152600183016020526040812054612b8b575081546001818101845560008481526020808220909301849055845484825282860190935260409020919091556107d9565b5060006107d9565b60006001600160a01b0384163b15612c8657604051630a85bd0160e11b81526001600160a01b0385169063150b7a0290612bd7903390899088908890600401613eb6565b6020604051808303816000875af1925050508015612c12575060408051601f3d908101601f19168201909252612c0f91810190613ef3565b60015b612c6c573d808015612c40576040519150601f19603f3d011682016040523d82523d6000602084013e612c45565b606091505b508051612c645760405162461bcd60e51b81526004016108d990613e1f565b805181602001fd5b6001600160e01b031916630a85bd0160e11b149050611e7c565b506001949350505050565b6060612c9c82611d0f565b612d005760405162461bcd60e51b815260206004820152602f60248201527f4552433732314d657461646174613a2055524920717565727920666f72206e6f60448201526e3732bc34b9ba32b73a103a37b5b2b760891b60648201526084016108d9565b6000612d26604080518082019091526007815266697066733a2f2f60c81b602082015290565b90506000815111612d465760405180602001604052806000815250610de4565b80612d5084612f33565b604051602001612d61929190613e71565b6040516020818303038152906040529392505050565b612d818383613031565b612d8e6000848484612b93565b610a0f5760405162461bcd60e51b81526004016108d990613e1f565b6000826000018281548110612dc157612dc1613cda565b9060005260206000200154905092915050565b6001600160a01b038316612e2f57612e2a81600880546000838152600960205260408120829055600182018355919091527ff3f7a9fe364faab93b216da50a3214154f22a0a2b415b23a84c8169e8b636ee30155565b612e52565b816001600160a01b0316836001600160a01b031614612e5257612e528382613170565b6001600160a01b038216612e6957610a0f8161320d565b826001600160a01b0316826001600160a01b031614610a0f57610a0f82826132bc565b6000612e978261105b565b9050612ea5816000846129ee565b612eb0600083611d2c565b6001600160a01b0381166000908152600360205260408120805460019290612ed9908490613df0565b909155505060008281526002602052604080822080546001600160a01b0319169055518391906001600160a01b038416907fddf252ad1be2c89b69c2b068fc378daa952ba7f163c4a11628f55a4df523b3ef908390a45050565b606081612f575750506040805180820190915260018152600360fc1b602082015290565b8160005b8115612f815780612f6b81613dbc565b9150612f7a9050600a83613f26565b9150612f5b565b60008167ffffffffffffffff811115612f9c57612f9c61354c565b6040519080825280601f01601f191660200182016040528015612fc6576020820181803683370190505b5090505b8415611e7c57612fdb600183613df0565b9150612fe8600a86613f3a565b612ff3906030613e07565b60f81b81838151811061300857613008613cda565b60200101906001600160f81b031916908160001a90535061302a600a86613f26565b9450612fca565b6001600160a01b0382166130875760405162461bcd60e51b815260206004820181905260248201527f4552433732313a206d696e7420746f20746865207a65726f206164647265737360448201526064016108d9565b61309081611d0f565b156130dd5760405162461bcd60e51b815260206004820152601c60248201527f4552433732313a20746f6b656e20616c7265616479206d696e7465640000000060448201526064016108d9565b6130e9600083836129ee565b6001600160a01b0382166000908152600360205260408120805460019290613112908490613e07565b909155505060008181526002602052604080822080546001600160a01b0319166001600160a01b03861690811790915590518392907fddf252ad1be2c89b69c2b068fc378daa952ba7f163c4a11628f55a4df523b3ef908290a45050565b6000600161317d8461112b565b6131879190613df0565b6000838152600760205260409020549091508082146131da576001600160a01b03841660009081526006602090815260408083208584528252808320548484528184208190558352600790915290208190555b5060009182526007602090815260408084208490556001600160a01b039094168352600681528383209183525290812055565b60085460009061321f90600190613df0565b6000838152600960205260408120546008805493945090928490811061324757613247613cda565b90600052602060002001549050806008838154811061326857613268613cda565b60009182526020808320909101929092558281526009909152604080822084905585825281205560088054806132a0576132a0613ea0565b6001900381819060005260206000200160009055905550505050565b60006132c78361112b565b6001600160a01b039093166000908152600660209081526040808320868452825280832085905593825260079052919091209190915550565b82805461330c90613b41565b90600052602060002090601f01602090048101928261332e5760008555613374565b82601f1061334757805160ff1916838001178555613374565b82800160010185558215613374579182015b82811115613374578251825591602001919060010190613359565b506133809291506133db565b5090565b508054600082556002029060005260206000209081019061206d91906133f0565b5080546133b190613b41565b6000825580601f106133c1575050565b601f01602090049060005260206000209081019061206d91905b5b8082111561338057600081556001016133dc565b8082111561338057600080825561340a60018301826133a5565b506002016133f0565b6001600160e01b03198116811461206d57600080fd5b60006020828403121561343b57600080fd5b8135610de481613413565b60005b83811015613461578181015183820152602001613449565b83811115610dbe5750506000910152565b6000815180845261348a816020860160208601613446565b601f01601f19169290920160200192915050565b602081526000610de46020830184613472565b6000602082840312156134c357600080fd5b5035919050565b6001600160a01b038116811461206d57600080fd5b600080604083850312156134f257600080fd5b82356134fd816134ca565b946020939093013593505050565b60008060006060848603121561352057600080fd5b833561352b816134ca565b9250602084013561353b816134ca565b929592945050506040919091013590565b634e487b7160e01b600052604160045260246000fd5b6040805190810167ffffffffffffffff811182821017156135855761358561354c565b60405290565b604051601f8201601f1916810167ffffffffffffffff811182821017156135b4576135b461354c565b604052919050565b600067ffffffffffffffff8311156135d6576135d661354c565b6135e9601f8401601f191660200161358b565b90508281528383830111156135fd57600080fd5b828260208301376000602084830101529392505050565b600082601f83011261362557600080fd5b610de4838335602085016135bc565b600067ffffffffffffffff82111561364e5761364e61354c565b5060051b60200190565b600082601f83011261366957600080fd5b8135602061367e61367983613634565b61358b565b82815260059290921b8401810191818101908684111561369d57600080fd5b8286015b8481101561371f57803567ffffffffffffffff808211156136c25760008081fd5b908801906040828b03601f19018113156136dc5760008081fd5b6136e4613562565b8388013581529083013590828211156136fd5760008081fd5b61370b8c8984870101613614565b8189015286525050509183019183016136a1565b509695505050505050565b6000806000806080858703121561374057600080fd5b84359350602085013567ffffffffffffffff8082111561375f57600080fd5b61376b88838901613614565b9450604087013591508082111561378157600080fd5b61378d88838901613658565b935060608701359150808211156137a357600080fd5b506137b087828801613658565b91505092959194509250565b6000602082840312156137ce57600080fd5b8135610de4816134ca565b600080604083850312156137ec57600080fd5b50508035926020909101359150565b6000806040838503121561380e57600080fd5b823591506020830135613820816134ca565b809150509250929050565b6000806040838503121561383e57600080fd5b82359150602083013567ffffffffffffffff81111561385c57600080fd5b61386885828601613614565b9150509250929050565b6000806040838503121561388557600080fd5b823567ffffffffffffffff8082111561389d57600080fd5b6138a986838701613614565b935060208501359150808211156138bf57600080fd5b5061386885828601613614565b6000806000606084860312156138e157600080fd5b833592506020840135915060408401356138fa816134ca565b809150509250925092565b8035801515811461391557600080fd5b919050565b6000806040838503121561392d57600080fd5b8235613938816134ca565b915061394660208401613905565b90509250929050565b6000806040838503121561396257600080fd5b8235915061394660208401613905565b6000806000806080858703121561398857600080fd5b8435613993816134ca565b935060208501356139a3816134ca565b925060408501359150606085013567ffffffffffffffff8111156139c657600080fd5b8501601f810187136139d757600080fd5b6137b0878235602084016135bc565b600082601f8301126139f757600080fd5b81356020613a0761367983613634565b82815260059290921b84018101918181019086841115613a2657600080fd5b8286015b8481101561371f5780358352918301918301613a2a565b600080600080600060a08688031215613a5957600080fd5b853567ffffffffffffffff80821115613a7157600080fd5b613a7d89838a01613614565b96506020880135915080821115613a9357600080fd5b613a9f89838a01613614565b95506040880135915080821115613ab557600080fd5b613ac189838a01613658565b94506060880135915080821115613ad757600080fd5b613ae389838a01613658565b93506080880135915080821115613af957600080fd5b50613b06888289016139e6565b9150509295509295909350565b60008060408385031215613b2657600080fd5b8235613b31816134ca565b91506020830135613820816134ca565b600181811c90821680613b5557607f821691505b60208210811415613b7657634e487b7160e01b600052602260045260246000fd5b50919050565b60208082526031908201527f4552433732313a207472616e736665722063616c6c6572206973206e6f74206f6040820152701ddb995c881b9bdc88185c1c1c9bdd9959607a1b606082015260800190565b600081518084526020808501808196508360051b8101915082860160005b85811015613c295782840389528151805185528501516040868601819052613c1581870183613472565b9a87019a9550505090840190600101613beb565b5091979650505050505050565b608081526000613c496080830187613472565b8281036020840152613c5b8187613bcd565b90508281036040840152613c6f8186613bcd565b91505060018060a01b038316606083015295945050505050565b93845260208401929092526001600160a01b03908116604084015216606082015260800190565b604081526000613cc36040830185613472565b905060018060a01b03831660208301529392505050565b634e487b7160e01b600052603260045260246000fd5b60008251613d02818460208701613446565b9190910192915050565b60008251613d1e818460208701613446565b6d17b6b2ba30b230ba30973539b7b760911b920191825250600e01919050565b60a081526000613d5160a0830188613472565b8281036020840152613d638188613472565b90508281036040840152613d778187613bcd565b90508281036060840152613d8b8186613bcd565b91505060018060a01b03831660808301529695505050505050565b634e487b7160e01b600052601160045260246000fd5b6000600019821415613dd057613dd0613da6565b5060010190565b600060208284031215613de957600080fd5b5051919050565b600082821015613e0257613e02613da6565b500390565b60008219821115613e1a57613e1a613da6565b500190565b60208082526032908201527f4552433732313a207472616e7366657220746f206e6f6e20455243373231526560408201527131b2b4bb32b91034b6b83632b6b2b73a32b960711b606082015260800190565b60008351613e83818460208801613446565b835190830190613e97818360208801613446565b01949350505050565b634e487b7160e01b600052603160045260246000fd5b6001600160a01b0385811682528416602082015260408101839052608060608201819052600090613ee990830184613472565b9695505050505050565b600060208284031215613f0557600080fd5b8151610de481613413565b634e487b7160e01b600052601260045260246000fd5b600082613f3557613f35613f10565b500490565b600082613f4957613f49613f10565b50069056fe696e73756666696369656e745f7065726d697373696f6e730000000000000000a2646970667358221220369f5beb0343bb365615bcd46b5a581309dc65224cfba67d9aa4378b5a3d999464736f6c634300080c0033608060405234801561001057600080fd5b5061001a3361001f565b61006f565b600080546001600160a01b038381166001600160a01b0319831681178455604051919092169283917f8be0079c531659141344cd1fd0a4f28419497f9722a3daafe3b4186f6b6457e09190a35050565b6105748061007e6000396000f3fe6080604052600436106100555760003560e01c806351cff8d91461005a578063715018a61461007c5780638da5cb5b14610091578063e3a9db1a146100be578063f2fde38b14610102578063f340fa0114610122575b600080fd5b34801561006657600080fd5b5061007a6100753660046104bf565b610135565b005b34801561008857600080fd5b5061007a6101d7565b34801561009d57600080fd5b506000546040516001600160a01b0390911681526020015b60405180910390f35b3480156100ca57600080fd5b506100f46100d93660046104bf565b6001600160a01b031660009081526001602052604090205490565b6040519081526020016100b5565b34801561010e57600080fd5b5061007a61011d3660046104bf565b61020d565b61007a6101303660046104bf565b6102a8565b6000546001600160a01b031633146101685760405162461bcd60e51b815260040161015f906104e3565b60405180910390fd5b6001600160a01b0381166000818152600160205260408120805491905590610190908261033c565b816001600160a01b03167f7084f5476618d8e60b11ef0d7d3f06914655adb8793e28ff7f018d4c76d505d5826040516101cb91815260200190565b60405180910390a25050565b6000546001600160a01b031633146102015760405162461bcd60e51b815260040161015f906104e3565b61020b600061045a565b565b6000546001600160a01b031633146102375760405162461bcd60e51b815260040161015f906104e3565b6001600160a01b03811661029c5760405162461bcd60e51b815260206004820152602660248201527f4f776e61626c653a206e6577206f776e657220697320746865207a65726f206160448201526564647265737360d01b606482015260840161015f565b6102a58161045a565b50565b6000546001600160a01b031633146102d25760405162461bcd60e51b815260040161015f906104e3565b6001600160a01b0381166000908152600160205260408120805434928392916102fc908490610518565b90915550506040518181526001600160a01b038316907f2da466a7b24304f47e87fa2e1e5a81b9831ce54fec19055ce277ca2f39ba42c4906020016101cb565b8047101561038c5760405162461bcd60e51b815260206004820152601d60248201527f416464726573733a20696e73756666696369656e742062616c616e6365000000604482015260640161015f565b6000826001600160a01b03168260405160006040518083038185875af1925050503d80600081146103d9576040519150601f19603f3d011682016040523d82523d6000602084013e6103de565b606091505b50509050806104555760405162461bcd60e51b815260206004820152603a60248201527f416464726573733a20756e61626c6520746f2073656e642076616c75652c207260448201527f6563697069656e74206d61792068617665207265766572746564000000000000606482015260840161015f565b505050565b600080546001600160a01b038381166001600160a01b0319831681178455604051919092169283917f8be0079c531659141344cd1fd0a4f28419497f9722a3daafe3b4186f6b6457e09190a35050565b6001600160a01b03811681146102a557600080fd5b6000602082840312156104d157600080fd5b81356104dc816104aa565b9392505050565b6020808252818101527f4f776e61626c653a2063616c6c6572206973206e6f7420746865206f776e6572604082015260600190565b6000821982111561053957634e487b7160e01b600052601160045260246000fd5b50019056fea2646970667358221220926b113de7e6c56861df80bd0b29c91551ada178780294fb38e7a0330ae51b7b64736f6c634300080c0033",
  "linkReferences": {},
  "deployedLinkReferences": {}
}