{
  "_format": "hh-sol-artifact-1",
  "contractName": "Node",
  "sourceName": "contracts/src/Node.sol",
  "abi": [
    {
      "inputs": [],
      "stateMutability": "nonpayable",
      "type": "constructor"
    },
    {
      "anonymous": false,
      "inputs": [
        {
          "indexed": true,
          "internalType": "address",
          "name": "owner",
          "type": "address"
        },
        {
          "indexed": true,
          "internalType": "address",
          "name": "approved",
          "type": "address"
        },
        {
          "indexed": true,
          "internalType": "uint256",
          "name": "tokenId",
          "type": "uint256"
        }
      ],
      "name": "Approval",
      "type": "event"
    },
    {
      "anonymous": false,
      "inputs": [
        {
          "indexed": true,
          "internalType": "address",
          "name": "owner",
          "type": "address"
        },
        {
          "indexed": true,
          "internalType": "address",
          "name": "operator",
          "type": "address"
        },
        {
          "indexed": false,
          "internalType": "bool",
          "name": "approved",
          "type": "bool"
        }
      ],
      "name": "ApprovalForAll",
      "type": "event"
    },
    {
      "anonymous": false,
      "inputs": [
        {
          "indexed": false,
          "internalType": "uint256",
          "name": "tokenId",
          "type": "uint256"
        },
        {
          "indexed": false,
          "internalType": "int256",
          "name": "connectionFee",
          "type": "int256"
        },
        {
          "indexed": false,
          "internalType": "address",
          "name": "sender",
          "type": "address"
        }
      ],
      "name": "ConnectionFeeSet",
      "type": "event"
    },
    {
      "anonymous": false,
      "inputs": [
        {
          "indexed": false,
          "internalType": "uint256",
          "name": "forTokenId",
          "type": "uint256"
        },
        {
          "indexed": false,
          "internalType": "uint256",
          "name": "toTokenId",
          "type": "uint256"
        },
        {
          "indexed": false,
          "internalType": "address",
          "name": "sender",
          "type": "address"
        }
      ],
      "name": "DelegatePermissionsRenounced",
      "type": "event"
    },
    {
      "anonymous": false,
      "inputs": [
        {
          "indexed": false,
          "internalType": "uint256",
          "name": "tokenId",
          "type": "uint256"
        },
        {
          "indexed": false,
          "internalType": "string",
          "name": "label",
          "type": "string"
        },
        {
          "indexed": false,
          "internalType": "address",
          "name": "sender",
          "type": "address"
        }
      ],
      "name": "NodeLabeled",
      "type": "event"
    },
    {
      "anonymous": false,
      "inputs": [
        {
          "indexed": false,
          "internalType": "uint256",
          "name": "from",
          "type": "uint256"
        },
        {
          "indexed": false,
          "internalType": "uint256",
          "name": "to",
          "type": "uint256"
        },
        {
          "indexed": false,
          "internalType": "address",
          "name": "sender",
          "type": "address"
        }
      ],
      "name": "NodesConnected",
      "type": "event"
    },
    {
      "anonymous": false,
      "inputs": [
        {
          "indexed": false,
          "internalType": "uint256",
          "name": "from",
          "type": "uint256"
        },
        {
          "indexed": false,
          "internalType": "uint256",
          "name": "to",
          "type": "uint256"
        },
        {
          "indexed": false,
          "internalType": "address",
          "name": "sender",
          "type": "address"
        }
      ],
      "name": "NodesDisconnected",
      "type": "event"
    },
    {
      "anonymous": false,
      "inputs": [
        {
          "indexed": false,
          "internalType": "uint256",
          "name": "tokenId",
          "type": "uint256"
        },
        {
          "indexed": false,
          "internalType": "bool",
          "name": "bypassed",
          "type": "bool"
        },
        {
          "indexed": false,
          "internalType": "address",
          "name": "sender",
          "type": "address"
        }
      ],
      "name": "PermissionsBypassSet",
      "type": "event"
    },
    {
      "anonymous": false,
      "inputs": [
        {
          "indexed": false,
          "internalType": "uint256",
          "name": "forTokenId",
          "type": "uint256"
        },
        {
          "indexed": false,
          "internalType": "uint256",
          "name": "toTokenId",
          "type": "uint256"
        },
        {
          "indexed": false,
          "internalType": "address",
          "name": "sender",
          "type": "address"
        }
      ],
      "name": "PermissionsDelegated",
      "type": "event"
    },
    {
      "anonymous": false,
      "inputs": [
        {
          "indexed": false,
          "internalType": "uint256",
          "name": "tokenId",
          "type": "uint256"
        },
        {
          "indexed": false,
          "internalType": "uint256",
          "name": "timestamp",
          "type": "uint256"
        },
        {
          "indexed": false,
          "internalType": "string",
          "name": "hash",
          "type": "string"
        },
        {
          "indexed": false,
          "internalType": "address",
          "name": "sender",
          "type": "address"
        }
      ],
      "name": "RevisionMade",
      "type": "event"
    },
    {
      "anonymous": false,
      "inputs": [
        {
          "indexed": false,
          "internalType": "uint256",
          "name": "tokenId",
          "type": "uint256"
        },
        {
          "indexed": false,
          "internalType": "uint256",
          "name": "role",
          "type": "uint256"
        },
        {
          "indexed": false,
          "internalType": "address",
          "name": "account",
          "type": "address"
        },
        {
          "indexed": false,
          "internalType": "address",
          "name": "sender",
          "type": "address"
        }
      ],
      "name": "RoleGranted",
      "type": "event"
    },
    {
      "anonymous": false,
      "inputs": [
        {
          "indexed": false,
          "internalType": "uint256",
          "name": "tokenId",
          "type": "uint256"
        },
        {
          "indexed": false,
          "internalType": "uint256",
          "name": "role",
          "type": "uint256"
        },
        {
          "indexed": false,
          "internalType": "address",
          "name": "account",
          "type": "address"
        },
        {
          "indexed": false,
          "internalType": "address",
          "name": "sender",
          "type": "address"
        }
      ],
      "name": "RoleRevoked",
      "type": "event"
    },
    {
      "anonymous": false,
      "inputs": [
        {
          "indexed": true,
          "internalType": "address",
          "name": "from",
          "type": "address"
        },
        {
          "indexed": true,
          "internalType": "address",
          "name": "to",
          "type": "address"
        },
        {
          "indexed": true,
          "internalType": "uint256",
          "name": "tokenId",
          "type": "uint256"
        }
      ],
      "name": "Transfer",
      "type": "event"
    },
    {
      "inputs": [],
      "name": "ADMIN_ROLE",
      "outputs": [
        {
          "internalType": "uint256",
          "name": "",
          "type": "uint256"
        }
      ],
      "stateMutability": "view",
      "type": "function"
    },
    {
      "inputs": [],
      "name": "EDITOR_ROLE",
      "outputs": [
        {
          "internalType": "uint256",
          "name": "",
          "type": "uint256"
        }
      ],
      "stateMutability": "view",
      "type": "function"
    },
    {
      "inputs": [],
      "name": "ERR_INSUFFICIENT_PERMISSIONS",
      "outputs": [
        {
          "internalType": "string",
          "name": "",
          "type": "string"
        }
      ],
      "stateMutability": "view",
      "type": "function"
    },
    {
      "inputs": [],
      "name": "ERR_NODE_NONEXISTENT",
      "outputs": [
        {
          "internalType": "string",
          "name": "",
          "type": "string"
        }
      ],
      "stateMutability": "view",
      "type": "function"
    },
    {
      "inputs": [],
      "name": "ERR_RECURSIVE_DELEGATION",
      "outputs": [
        {
          "internalType": "string",
          "name": "",
          "type": "string"
        }
      ],
      "stateMutability": "view",
      "type": "function"
    },
    {
      "inputs": [],
      "name": "FEE_FALLBACK",
      "outputs": [
        {
          "internalType": "int256",
          "name": "",
          "type": "int256"
        }
      ],
      "stateMutability": "view",
      "type": "function"
    },
    {
      "inputs": [
        {
          "internalType": "address",
          "name": "to",
          "type": "address"
        },
        {
          "internalType": "uint256",
          "name": "tokenId",
          "type": "uint256"
        }
      ],
      "name": "approve",
      "outputs": [],
      "stateMutability": "nonpayable",
      "type": "function"
    },
    {
      "inputs": [
        {
          "internalType": "address",
          "name": "owner",
          "type": "address"
        }
      ],
      "name": "balanceOf",
      "outputs": [
        {
          "internalType": "uint256",
          "name": "",
          "type": "uint256"
        }
      ],
      "stateMutability": "view",
      "type": "function"
    },
    {
      "inputs": [
        {
          "internalType": "uint256",
          "name": "tokenId",
          "type": "uint256"
        }
      ],
      "name": "burnNode",
      "outputs": [],
      "stateMutability": "nonpayable",
      "type": "function"
    },
    {
      "inputs": [
        {
          "internalType": "uint256",
          "name": "tokenId",
          "type": "uint256"
        },
        {
          "internalType": "address",
          "name": "account",
          "type": "address"
        }
      ],
      "name": "canEdit",
      "outputs": [
        {
          "internalType": "bool",
          "name": "",
          "type": "bool"
        }
      ],
      "stateMutability": "view",
      "type": "function"
    },
    {
      "inputs": [
        {
          "internalType": "uint256",
          "name": "from",
          "type": "uint256"
        },
        {
          "internalType": "uint256",
          "name": "to",
          "type": "uint256"
        }
      ],
      "name": "connectNodes",
      "outputs": [],
      "stateMutability": "nonpayable",
      "type": "function"
    },
    {
      "inputs": [
        {
          "internalType": "uint256",
          "name": "forTokenId",
          "type": "uint256"
        },
        {
          "internalType": "uint256",
          "name": "toTokenId",
          "type": "uint256"
        }
      ],
      "name": "delegatePermissions",
      "outputs": [],
      "stateMutability": "nonpayable",
      "type": "function"
    },
    {
      "inputs": [
        {
          "internalType": "uint256",
          "name": "from",
          "type": "uint256"
        },
        {
          "internalType": "uint256",
          "name": "to",
          "type": "uint256"
        }
      ],
      "name": "disconnectNodes",
      "outputs": [],
      "stateMutability": "nonpayable",
      "type": "function"
    },
    {
      "inputs": [
        {
          "internalType": "uint256",
          "name": "tokenId",
          "type": "uint256"
        }
      ],
      "name": "exists",
      "outputs": [
        {
          "internalType": "bool",
          "name": "",
          "type": "bool"
        }
      ],
      "stateMutability": "view",
      "type": "function"
    },
    {
      "inputs": [
        {
          "internalType": "uint256",
          "name": "tokenId",
          "type": "uint256"
        }
      ],
      "name": "getApproved",
      "outputs": [
        {
          "internalType": "address",
          "name": "",
          "type": "address"
        }
      ],
      "stateMutability": "view",
      "type": "function"
    },
    {
      "inputs": [
        {
          "internalType": "uint256",
          "name": "tokenId",
          "type": "uint256"
        },
        {
          "internalType": "string",
          "name": "label",
          "type": "string"
        }
      ],
      "name": "getBacklinkedNodeCountForNodeByLabel",
      "outputs": [
        {
          "internalType": "uint256",
          "name": "",
          "type": "uint256"
        }
      ],
      "stateMutability": "view",
      "type": "function"
    },
    {
      "inputs": [
        {
          "internalType": "uint256",
          "name": "tokenId",
          "type": "uint256"
        },
        {
          "internalType": "string",
          "name": "label",
          "type": "string"
        },
        {
          "internalType": "uint256",
          "name": "index",
          "type": "uint256"
        }
      ],
      "name": "getBacklinkedNodeForNodeByLabelAndIndex",
      "outputs": [
        {
          "internalType": "uint256",
          "name": "",
          "type": "uint256"
        }
      ],
      "stateMutability": "view",
      "type": "function"
    },
    {
      "inputs": [
        {
          "internalType": "uint256",
          "name": "tokenId",
          "type": "uint256"
        },
        {
          "internalType": "string",
          "name": "label",
          "type": "string"
        }
      ],
      "name": "getConnectedNodeCountForNodeByLabel",
      "outputs": [
        {
          "internalType": "uint256",
          "name": "",
          "type": "uint256"
        }
      ],
      "stateMutability": "view",
      "type": "function"
    },
    {
      "inputs": [
        {
          "internalType": "uint256",
          "name": "tokenId",
          "type": "uint256"
        },
        {
          "internalType": "string",
          "name": "label",
          "type": "string"
        },
        {
          "internalType": "uint256",
          "name": "index",
          "type": "uint256"
        }
      ],
      "name": "getConnectedNodeForNodeByLabelAndIndex",
      "outputs": [
        {
          "internalType": "uint256",
          "name": "",
          "type": "uint256"
        }
      ],
      "stateMutability": "view",
      "type": "function"
    },
    {
      "inputs": [
        {
          "internalType": "uint256",
          "name": "tokenId",
          "type": "uint256"
        }
      ],
      "name": "getConnectionFee",
      "outputs": [
        {
          "internalType": "int256",
          "name": "",
          "type": "int256"
        }
      ],
      "stateMutability": "view",
      "type": "function"
    },
    {
      "inputs": [
        {
          "internalType": "uint256",
          "name": "tokenId",
          "type": "uint256"
        },
        {
          "internalType": "uint256",
          "name": "index",
          "type": "uint256"
        }
      ],
      "name": "getDelegatesForAtIndex",
      "outputs": [
        {
          "internalType": "uint256",
          "name": "",
          "type": "uint256"
        }
      ],
      "stateMutability": "view",
      "type": "function"
    },
    {
      "inputs": [
        {
          "internalType": "uint256",
          "name": "tokenId",
          "type": "uint256"
        }
      ],
      "name": "getDelegatesForCount",
      "outputs": [
        {
          "internalType": "uint256",
          "name": "",
          "type": "uint256"
        }
      ],
      "stateMutability": "view",
      "type": "function"
    },
    {
      "inputs": [
        {
          "internalType": "uint256",
          "name": "tokenId",
          "type": "uint256"
        },
        {
          "internalType": "uint256",
          "name": "index",
          "type": "uint256"
        }
      ],
      "name": "getDelegatesToAtIndex",
      "outputs": [
        {
          "internalType": "uint256",
          "name": "",
          "type": "uint256"
        }
      ],
      "stateMutability": "view",
      "type": "function"
    },
    {
      "inputs": [
        {
          "internalType": "uint256",
          "name": "tokenId",
          "type": "uint256"
        }
      ],
      "name": "getDelegatesToCount",
      "outputs": [
        {
          "internalType": "uint256",
          "name": "",
          "type": "uint256"
        }
      ],
      "stateMutability": "view",
      "type": "function"
    },
    {
      "inputs": [
        {
          "internalType": "string",
          "name": "label",
          "type": "string"
        }
      ],
      "name": "getNodeCountForLabel",
      "outputs": [
        {
          "internalType": "uint256",
          "name": "",
          "type": "uint256"
        }
      ],
      "stateMutability": "view",
      "type": "function"
    },
    {
      "inputs": [
        {
          "internalType": "string",
          "name": "label",
          "type": "string"
        },
        {
          "internalType": "uint256",
          "name": "index",
          "type": "uint256"
        }
      ],
      "name": "getNodeForLabelAtIndex",
      "outputs": [
        {
          "internalType": "uint256",
          "name": "",
          "type": "uint256"
        }
      ],
      "stateMutability": "view",
      "type": "function"
    },
    {
      "inputs": [
        {
          "internalType": "uint256",
          "name": "tokenId",
          "type": "uint256"
        },
        {
          "internalType": "uint256",
          "name": "index",
          "type": "uint256"
        }
      ],
      "name": "getRevision",
      "outputs": [
        {
          "components": [
            {
              "internalType": "uint256",
              "name": "timestamp",
              "type": "uint256"
            },
            {
              "internalType": "string",
              "name": "hash",
              "type": "string"
            },
            {
              "internalType": "address",
              "name": "revisor",
              "type": "address"
            }
          ],
          "internalType": "struct Node.Revision",
          "name": "",
          "type": "tuple"
        }
      ],
      "stateMutability": "view",
      "type": "function"
    },
    {
      "inputs": [
        {
          "internalType": "uint256",
          "name": "tokenId",
          "type": "uint256"
        }
      ],
      "name": "getRevisionCount",
      "outputs": [
        {
          "internalType": "uint256",
          "name": "",
          "type": "uint256"
        }
      ],
      "stateMutability": "view",
      "type": "function"
    },
    {
      "inputs": [
        {
          "internalType": "uint256",
          "name": "tokenId",
          "type": "uint256"
        },
        {
          "internalType": "uint256",
          "name": "role",
          "type": "uint256"
        },
        {
          "internalType": "uint256",
          "name": "index",
          "type": "uint256"
        }
      ],
      "name": "getRoleMember",
      "outputs": [
        {
          "internalType": "address",
          "name": "",
          "type": "address"
        }
      ],
      "stateMutability": "view",
      "type": "function"
    },
    {
      "inputs": [
        {
          "internalType": "uint256",
          "name": "tokenId",
          "type": "uint256"
        },
        {
          "internalType": "uint256",
          "name": "role",
          "type": "uint256"
        }
      ],
      "name": "getRoleMemberCount",
      "outputs": [
        {
          "internalType": "uint256",
          "name": "",
          "type": "uint256"
        }
      ],
      "stateMutability": "view",
      "type": "function"
    },
    {
      "inputs": [
        {
          "internalType": "uint256",
          "name": "tokenId",
          "type": "uint256"
        },
        {
          "internalType": "uint256",
          "name": "role",
          "type": "uint256"
        },
        {
          "internalType": "address",
          "name": "account",
          "type": "address"
        }
      ],
      "name": "grantRole",
      "outputs": [],
      "stateMutability": "nonpayable",
      "type": "function"
    },
    {
      "inputs": [
        {
          "internalType": "uint256",
          "name": "tokenId",
          "type": "uint256"
        }
      ],
      "name": "hasPermissionsBypass",
      "outputs": [
        {
          "internalType": "bool",
          "name": "",
          "type": "bool"
        }
      ],
      "stateMutability": "view",
      "type": "function"
    },
    {
      "inputs": [
        {
          "internalType": "uint256",
          "name": "tokenId",
          "type": "uint256"
        },
        {
          "internalType": "uint256",
          "name": "role",
          "type": "uint256"
        },
        {
          "internalType": "address",
          "name": "account",
          "type": "address"
        }
      ],
      "name": "hasRole",
      "outputs": [
        {
          "internalType": "bool",
          "name": "",
          "type": "bool"
        }
      ],
      "stateMutability": "view",
      "type": "function"
    },
    {
      "inputs": [
        {
          "internalType": "address",
          "name": "owner",
          "type": "address"
        },
        {
          "internalType": "address",
          "name": "operator",
          "type": "address"
        }
      ],
      "name": "isApprovedForAll",
      "outputs": [
        {
          "internalType": "bool",
          "name": "",
          "type": "bool"
        }
      ],
      "stateMutability": "view",
      "type": "function"
    },
    {
      "inputs": [
        {
          "internalType": "uint256",
          "name": "tokenId",
          "type": "uint256"
        }
      ],
      "name": "labelFor",
      "outputs": [
        {
          "internalType": "string",
          "name": "",
          "type": "string"
        }
      ],
      "stateMutability": "view",
      "type": "function"
    },
    {
      "inputs": [
        {
          "internalType": "uint256",
          "name": "tokenId",
          "type": "uint256"
        },
        {
          "internalType": "string",
          "name": "hash",
          "type": "string"
        }
      ],
      "name": "makeRevision",
      "outputs": [],
      "stateMutability": "nonpayable",
      "type": "function"
    },
    {
      "inputs": [
        {
          "internalType": "string",
          "name": "label",
          "type": "string"
        },
        {
          "internalType": "string",
          "name": "hash",
          "type": "string"
        },
        {
          "internalType": "uint256[]",
          "name": "fromConnections",
          "type": "uint256[]"
        },
        {
          "internalType": "uint256[]",
          "name": "toConnections",
          "type": "uint256[]"
        }
      ],
      "name": "mintNode",
      "outputs": [],
      "stateMutability": "nonpayable",
      "type": "function"
    },
    {
      "inputs": [],
      "name": "name",
      "outputs": [
        {
          "internalType": "string",
          "name": "",
          "type": "string"
        }
      ],
      "stateMutability": "view",
      "type": "function"
    },
    {
      "inputs": [
        {
          "internalType": "uint256",
          "name": "tokenId",
          "type": "uint256"
        }
      ],
      "name": "ownerOf",
      "outputs": [
        {
          "internalType": "address",
          "name": "",
          "type": "address"
        }
      ],
      "stateMutability": "view",
      "type": "function"
    },
    {
      "inputs": [
        {
          "internalType": "uint256",
          "name": "forTokenId",
          "type": "uint256"
        },
        {
          "internalType": "uint256",
          "name": "toTokenId",
          "type": "uint256"
        }
      ],
      "name": "renounceDelegatePermissions",
      "outputs": [],
      "stateMutability": "nonpayable",
      "type": "function"
    },
    {
      "inputs": [
        {
          "internalType": "uint256",
          "name": "tokenId",
          "type": "uint256"
        },
        {
          "internalType": "uint256",
          "name": "role",
          "type": "uint256"
        }
      ],
      "name": "renounceRole",
      "outputs": [],
      "stateMutability": "nonpayable",
      "type": "function"
    },
    {
      "inputs": [
        {
          "internalType": "uint256",
          "name": "",
          "type": "uint256"
        },
        {
          "internalType": "uint256",
          "name": "",
          "type": "uint256"
        }
      ],
      "name": "revisions",
      "outputs": [
        {
          "internalType": "uint256",
          "name": "timestamp",
          "type": "uint256"
        },
        {
          "internalType": "string",
          "name": "hash",
          "type": "string"
        },
        {
          "internalType": "address",
          "name": "revisor",
          "type": "address"
        }
      ],
      "stateMutability": "view",
      "type": "function"
    },
    {
      "inputs": [
        {
          "internalType": "uint256",
          "name": "tokenId",
          "type": "uint256"
        },
        {
          "internalType": "uint256",
          "name": "role",
          "type": "uint256"
        },
        {
          "internalType": "address",
          "name": "account",
          "type": "address"
        }
      ],
      "name": "revokeRole",
      "outputs": [],
      "stateMutability": "nonpayable",
      "type": "function"
    },
    {
      "inputs": [
        {
          "internalType": "address",
          "name": "from",
          "type": "address"
        },
        {
          "internalType": "address",
          "name": "to",
          "type": "address"
        },
        {
          "internalType": "uint256",
          "name": "tokenId",
          "type": "uint256"
        }
      ],
      "name": "safeTransferFrom",
      "outputs": [],
      "stateMutability": "nonpayable",
      "type": "function"
    },
    {
      "inputs": [
        {
          "internalType": "address",
          "name": "from",
          "type": "address"
        },
        {
          "internalType": "address",
          "name": "to",
          "type": "address"
        },
        {
          "internalType": "uint256",
          "name": "tokenId",
          "type": "uint256"
        },
        {
          "internalType": "bytes",
          "name": "_data",
          "type": "bytes"
        }
      ],
      "name": "safeTransferFrom",
      "outputs": [],
      "stateMutability": "nonpayable",
      "type": "function"
    },
    {
      "inputs": [
        {
          "internalType": "address",
          "name": "operator",
          "type": "address"
        },
        {
          "internalType": "bool",
          "name": "approved",
          "type": "bool"
        }
      ],
      "name": "setApprovalForAll",
      "outputs": [],
      "stateMutability": "nonpayable",
      "type": "function"
    },
    {
      "inputs": [
        {
          "internalType": "uint256",
          "name": "tokenId",
          "type": "uint256"
        },
        {
          "internalType": "int256",
          "name": "connectionFee",
          "type": "int256"
        }
      ],
      "name": "setConnectionFee",
      "outputs": [],
      "stateMutability": "nonpayable",
      "type": "function"
    },
    {
      "inputs": [
        {
          "internalType": "uint256",
          "name": "tokenId",
          "type": "uint256"
        },
        {
          "internalType": "bool",
          "name": "shouldBypassPermissions",
          "type": "bool"
        }
      ],
      "name": "setPermissionsBypass",
      "outputs": [],
      "stateMutability": "nonpayable",
      "type": "function"
    },
    {
      "inputs": [
        {
          "internalType": "bytes4",
          "name": "interfaceId",
          "type": "bytes4"
        }
      ],
      "name": "supportsInterface",
      "outputs": [
        {
          "internalType": "bool",
          "name": "",
          "type": "bool"
        }
      ],
      "stateMutability": "view",
      "type": "function"
    },
    {
      "inputs": [],
      "name": "symbol",
      "outputs": [
        {
          "internalType": "string",
          "name": "",
          "type": "string"
        }
      ],
      "stateMutability": "view",
      "type": "function"
    },
    {
      "inputs": [
        {
          "internalType": "uint256",
          "name": "index",
          "type": "uint256"
        }
      ],
      "name": "tokenByIndex",
      "outputs": [
        {
          "internalType": "uint256",
          "name": "",
          "type": "uint256"
        }
      ],
      "stateMutability": "view",
      "type": "function"
    },
    {
      "inputs": [
        {
          "internalType": "address",
          "name": "owner",
          "type": "address"
        },
        {
          "internalType": "uint256",
          "name": "index",
          "type": "uint256"
        }
      ],
      "name": "tokenOfOwnerByIndex",
      "outputs": [
        {
          "internalType": "uint256",
          "name": "",
          "type": "uint256"
        }
      ],
      "stateMutability": "view",
      "type": "function"
    },
    {
      "inputs": [
        {
          "internalType": "uint256",
          "name": "tokenId",
          "type": "uint256"
        }
      ],
      "name": "tokenURI",
      "outputs": [
        {
          "internalType": "string",
          "name": "",
          "type": "string"
        }
      ],
      "stateMutability": "view",
      "type": "function"
    },
    {
      "inputs": [],
      "name": "totalSupply",
      "outputs": [
        {
          "internalType": "uint256",
          "name": "",
          "type": "uint256"
        }
      ],
      "stateMutability": "view",
      "type": "function"
    },
    {
      "inputs": [
        {
          "internalType": "address",
          "name": "from",
          "type": "address"
        },
        {
          "internalType": "address",
          "name": "to",
          "type": "address"
        },
        {
          "internalType": "uint256",
          "name": "tokenId",
          "type": "uint256"
        }
      ],
      "name": "transferFrom",
      "outputs": [],
      "stateMutability": "nonpayable",
      "type": "function"
    }
  ],
  "bytecode": "0x60806040523480156200001157600080fd5b50604051806040016040528060048152602001634e6f646560e01b815250604051806040016040528060048152602001634e4f444560e01b81525081600090805190602001906200006492919062000083565b5080516200007a90600190602084019062000083565b50505062000166565b828054620000919062000129565b90600052602060002090601f016020900481019282620000b5576000855562000100565b82601f10620000d057805160ff191683800117855562000100565b8280016001018555821562000100579182015b8281111562000100578251825591602001919060010190620000e3565b506200010e92915062000112565b5090565b5b808211156200010e576000815560010162000113565b600181811c908216806200013e57607f821691505b602082108114156200016057634e487b7160e01b600052602260045260246000fd5b50919050565b613e0d80620001766000396000f3fe608060405234801561001057600080fd5b506004361061035d5760003560e01c8063742ebced116101d3578063b88d4fde11610104578063e985e9c5116100a2578063f1052ef91161007c578063f1052ef9146107da578063f18efc0f146107fd578063f9f5d7d414610810578063ff0810c71461082357600080fd5b8063e985e9c514610778578063ea559dc2146107b4578063eb31f4c5146107c757600080fd5b8063d2eefc58116100de578063d2eefc581461072c578063dbe552d61461073f578063dd33ce5d14610752578063dd888a9f1461076557600080fd5b8063b88d4fde146106fc578063c44e0e7e1461070f578063c87b56dd1461071957600080fd5b80639bf1503211610171578063a853211a1161014b578063a853211a146106ac578063a937319a146106b4578063aadf7e16146106c7578063b2dcc623146106da57600080fd5b80639bf15032146106735780639cb99aba14610686578063a22cb4651461069957600080fd5b806385d6f217116101ad57806385d6f2171461060557806392d9632514610618578063959249f31461064b57806395d89b411461066b57600080fd5b8063742ebced146105d757806375b238fc146105ea5780637873e8d6146105f257600080fd5b80633aa817cc116102ad5780634f6ccce71161024b5780636192e3e8116102255780636192e3e8146105675780636352211e1461058757806368e661eb1461059a57806370a08231146105c457600080fd5b80634f6ccce71461052e5780635587850d146105415780635ca7d7f41461055457600080fd5b806342842e0e1161028757806342842e0e146104e25780634ab37a82146104f55780634b1d6a90146105085780634f558e791461051b57600080fd5b80633aa817cc146104a95780633af7a723146104bc5780633f83c673146104cf57600080fd5b806316b3a0871161031a57806323b872dd116102f457806323b872dd146104415780632edfd661146104545780632f745c59146104675780633a06529b1461047a57600080fd5b806316b3a0871461041357806318160ddd146104265780631aa720b11461042e57600080fd5b806301ffc9a71461036257806306fdde031461038a578063081812fc1461039f578063095ea7b3146103ca5780630f873998146103df57806313b308c414610400575b600080fd5b610375610370366004613480565b610836565b60405190151581526020015b60405180910390f35b610392610847565b60405161038191906134f5565b6103b26103ad366004613508565b6108d9565b6040516001600160a01b039091168152602001610381565b6103dd6103d836600461353d565b610966565b005b6103f26103ed366004613508565b610a7c565b604051908152602001610381565b6103f261040e366004613567565b610a93565b610392610421366004613508565b610ab2565b6008546103f2565b6103dd61043c3660046136c8565b610b54565b6103dd61044f366004613775565b610d17565b6103f2610462366004613567565b610d48565b6103f261047536600461353d565b610d60565b6103926040518060400160405280601081526020016f1b9bd91957db9bdb995e1a5cdd195b9d60821b81525081565b6103dd6104b7366004613567565b610df6565b6103756104ca3660046137b1565b610ee8565b6103f26104dd3660046137dd565b610f08565b6103dd6104f0366004613775565b610f3c565b6103dd610503366004613567565b610f57565b6103dd6105163660046137dd565b61111c565b610375610529366004613508565b6112ca565b6103f261053c366004613508565b6112d5565b6103dd61054f366004613508565b611368565b6103f2610562366004613824565b611415565b61057a610575366004613567565b611454565b6040516103819190613874565b6103b2610595366004613508565b611572565b610392604051806040016040528060188152602001600080516020613db883398151915281525081565b6103f26105d23660046138bb565b6115e9565b6103f26105e5366004613508565b611670565b6103f2600081565b6103dd610600366004613567565b611687565b6103f2610613366004613508565b611747565b610392604051806040016040528060148152602001733932b1bab939b4bb32afb232b632b3b0ba34b7b760611b81525081565b6103f2610659366004613508565b60009081526016602052604090205490565b61039261177a565b6103dd610681366004613567565b611789565b6103dd6106943660046138d6565b611a0f565b6103dd6106a736600461391b565b611b74565b6103f2600181565b6103dd6106c2366004613945565b611b7f565b6103f26106d5366004613968565b611c37565b6106ed6106e8366004613567565b611c4c565b6040516103819392919061399d565b6103dd61070a3660046139ce565b611d24565b6103f2620f423f81565b610392610727366004613508565b611d55565b6103dd61073a366004613567565b611d86565b6103f261074d366004613824565b611f33565b6103f2610760366004613a3e565b611f55565b6103dd610773366004613567565b611f6b565b610375610786366004613a83565b6001600160a01b03918216600090815260056020908152604080832093909416825291909152205460ff1690565b6103756107c23660046138d6565b6120d1565b6103dd6107d53660046138d6565b61217c565b6103756107e8366004613508565b60009081526015602052604090205460ff1690565b6103f261080b3660046137dd565b6122e0565b6103f261081e366004613567565b612301565b6103b2610831366004613aad565b612323565b600061084182612346565b92915050565b60606000805461085690613ad9565b80601f016020809104026020016040519081016040528092919081815260200182805461088290613ad9565b80156108cf5780601f106108a4576101008083540402835291602001916108cf565b820191906000526020600020905b8154815290600101906020018083116108b257829003601f168201915b5050505050905090565b60006108e48261236b565b61094a5760405162461bcd60e51b815260206004820152602c60248201527f4552433732313a20617070726f76656420717565727920666f72206e6f6e657860448201526b34b9ba32b73a103a37b5b2b760a11b60648201526084015b60405180910390fd5b506000908152600460205260409020546001600160a01b031690565b600061097182611572565b9050806001600160a01b0316836001600160a01b031614156109df5760405162461bcd60e51b815260206004820152602160248201527f4552433732313a20617070726f76616c20746f2063757272656e74206f776e656044820152603960f91b6064820152608401610941565b336001600160a01b03821614806109fb57506109fb8133610786565b610a6d5760405162461bcd60e51b815260206004820152603860248201527f4552433732313a20617070726f76652063616c6c6572206973206e6f74206f7760448201527f6e6572206e6f7220617070726f76656420666f7220616c6c00000000000000006064820152608401610941565b610a778383612388565b505050565b6000818152601460205260408120610841906123f6565b6000828152601360205260408120610aab9083612400565b9392505050565b6000818152600c60205260409020805460609190610acf90613ad9565b80601f0160208091040260200160405190810160405280929190818152602001828054610afb90613ad9565b8015610b485780601f10610b1d57610100808354040283529160200191610b48565b820191906000526020600020905b815481529060010190602001808311610b2b57829003601f168201915b50505050509050919050565b610b5d8461240c565b6000610b68600b5490565b9050610b78600b80546001019055565b610b823382612451565b60008181526010602052604090819020600019905551610bc1908290600d90610bac908990613b14565b9081526040519081900360200190209061246b565b506000818152600c602090815260409091208651610be19288019061339b565b507fbf8101b2b17e5c7b06cd4f1f02ab502a949e8514732a45353947a4dc2f7aa161818633604051610c159392919061399d565b60405180910390a160008181526011602090815260408083208380528252808320338085529252808320805460ff19166001179055517f3f9759be566576e968397b016ea9843c3e1d19bf1f59ae53cdfbd3b1a691407092610c7a9285928190613b30565b60405180910390a1610c8c818561111c565b60005b8351811015610ccd57610cbb848281518110610cad57610cad613b57565b602002602001015183610f57565b80610cc581613b83565b915050610c8f565b5060005b8251811015610d0f57610cfd82848381518110610cf057610cf0613b57565b6020026020010151610f57565b80610d0781613b83565b915050610cd1565b505050505050565b610d213382612477565b610d3d5760405162461bcd60e51b815260040161094190613b9e565b610a77838383612560565b6000828152601460205260408120610aab9083612400565b6000610d6b836115e9565b8210610dcd5760405162461bcd60e51b815260206004820152602b60248201527f455243373231456e756d657261626c653a206f776e657220696e646578206f7560448201526a74206f6620626f756e647360a81b6064820152608401610941565b506001600160a01b03919091166000908152600660209081526040808320938352929052205490565b81610e008161236b565b6040518060400160405280601081526020016f1b9bd91957db9bdb995e1a5cdd195b9d60821b81525090610e475760405162461bcd60e51b815260040161094191906134f5565b50610e538383336120d1565b15610ebf576000838152601160209081526040808320858452825280832033808552925291829020805460ff1916905590517f743dd6de0118c934baddbf165685269ac4f51fe0780281fdb64ea7ca8746ceff91610eb691869186918190613b30565b60405180910390a15b610ee2336000858152601260209081526040808320878452909152902090612707565b50505050565b6000610ef6836000846120d1565b80610aab5750610aab836001846120d1565b6000828152600f60205260408082209051610aab9190610f29908590613b14565b90815260200160405180910390206123f6565b610a7783838360405180602001604052806000815250611d24565b81610f618161236b565b6040518060400160405280601081526020016f1b9bd91957db9bdb995e1a5cdd195b9d60821b81525090610fa85760405162461bcd60e51b815260040161094191906134f5565b5081610fb38161236b565b6040518060400160405280601081526020016f1b9bd91957db9bdb995e1a5cdd195b9d60821b81525090610ffa5760405162461bcd60e51b815260040161094191906134f5565b50600083815260156020526040902054839060ff166111155761101d8133610ee8565b604051806040016040528060188152602001600080516020613db88339815191528152509061105f5760405162461bcd60e51b815260040161094191906134f5565b50600061106b86610ab2565b9050600061107886610ab2565b905061109f87600e600089815260200190815260200160002084604051610bac9190613b14565b506110c586600f60008a815260200190815260200160002083604051610bac9190613b14565b507feaf150e9f0b6be1dd0c5430caeff7ab7f397ab6a07e3fc101d920a2cd2e2dcc18787335b6040805193845260208401929092526001600160a01b03169082015260600160405180910390a150505b5050505050565b816111268161236b565b6040518060400160405280601081526020016f1b9bd91957db9bdb995e1a5cdd195b9d60821b8152509061116d5760405162461bcd60e51b815260040161094191906134f5565b50600083815260156020526040902054839060ff16610ee2576111908133610ee8565b604051806040016040528060188152602001600080516020613db8833981519152815250906111d25760405162461bcd60e51b815260040161094191906134f5565b506111dc8361240c565b60166000858152602001908152602001600020604051806060016040528042815260200185815260200161120d3390565b6001600160a01b0316905281546001818101845560009384526020938490208351600390930201918255838301518051939492936112539392850192919091019061339b565b5060409190910151600290910180546001600160a01b0319166001600160a01b03909216919091179055611287848461271c565b7f87e2bd723d2071701a8612fe3afcc134df220caad0d2a34e64c02b79569a2f93844285336040516112bc9493929190613bef565b60405180910390a150505050565b60006108418261236b565b60006112e060085490565b82106113435760405162461bcd60e51b815260206004820152602c60248201527f455243373231456e756d657261626c653a20676c6f62616c20696e646578206f60448201526b7574206f6620626f756e647360a01b6064820152608401610941565b6008828154811061135657611356613b57565b90600052602060002001549050919050565b806113728161236b565b6040518060400160405280601081526020016f1b9bd91957db9bdb995e1a5cdd195b9d60821b815250906113b95760405162461bcd60e51b815260040161094191906134f5565b506113c5335b83612477565b604051806040016040528060188152602001600080516020613db8833981519152815250906114075760405162461bcd60e51b815260040161094191906134f5565b50611411826127a7565b5050565b6000838152600e6020526040808220905161144c918491611437908790613b14565b90815260405190819003602001902090612400565b949350505050565b6114816040518060600160405280600081526020016060815260200160006001600160a01b031681525090565b60008381526016602052604090208054839081106114a1576114a1613b57565b9060005260206000209060030201604051806060016040529081600082015481526020016001820180546114d490613ad9565b80601f016020809104026020016040519081016040528092919081815260200182805461150090613ad9565b801561154d5780601f106115225761010080835404028352916020019161154d565b820191906000526020600020905b81548152906001019060200180831161153057829003601f168201915b5050509183525050600291909101546001600160a01b03166020909101529392505050565b6000818152600260205260408120546001600160a01b0316806108415760405162461bcd60e51b815260206004820152602960248201527f4552433732313a206f776e657220717565727920666f72206e6f6e657869737460448201526832b73a103a37b5b2b760b91b6064820152608401610941565b60006001600160a01b0382166116545760405162461bcd60e51b815260206004820152602a60248201527f4552433732313a2062616c616e636520717565727920666f7220746865207a65604482015269726f206164647265737360b01b6064820152608401610941565b506001600160a01b031660009081526003602052604090205490565b6000818152601360205260408120610841906123f6565b60008281526015602052604081205483919060ff16610ee2576116ab8282336120d1565b604051806040016040528060188152602001600080516020613db8833981519152815250906116ed5760405162461bcd60e51b815260040161094191906134f5565b5060008481526010602052604090208390557fbb20007b95b26bd38b683bc47845955ff684c507793c81548a38dffa87fd4c1e8484336040805193845260208401929092526001600160a01b0316908201526060016112bc565b6000818152601060205260408120548113156117675750620f423f919050565b5060009081526010602052604090205490565b60606001805461085690613ad9565b816117938161236b565b6040518060400160405280601081526020016f1b9bd91957db9bdb995e1a5cdd195b9d60821b815250906117da5760405162461bcd60e51b815260040161094191906134f5565b50816117e58161236b565b6040518060400160405280601081526020016f1b9bd91957db9bdb995e1a5cdd195b9d60821b8152509061182c5760405162461bcd60e51b815260040161094191906134f5565b5060008481526015602052604081205485919060ff16610d0f576118518282336120d1565b604051806040016040528060188152602001600080516020613db8833981519152815250906118935760405162461bcd60e51b815260040161094191906134f5565b506040805180820190915260148152733932b1bab939b4bb32afb232b632b3b0ba34b7b760611b6020820152868614156118e05760405162461bcd60e51b815260040161094191906134f5565b506118ea85611670565b6040805180820190915260148152733932b1bab939b4bb32afb232b632b3b0ba34b7b760611b602082015290156119345760405162461bcd60e51b815260040161094191906134f5565b5061193e86610a7c565b6040805180820190915260148152733932b1bab939b4bb32afb232b632b3b0ba34b7b760611b602082015290156119885760405162461bcd60e51b815260040161094191906134f5565b5060008681526013602052604090206119a1908661246b565b5060008581526014602052604090206119ba908761246b565b507ff756463748eb0d59b8dea527a9a6d0c7e1b813913b25797ba5d3603892b207048686335b6040805193845260208401929092526001600160a01b03169082015260600160405180910390a1505050505050565b82611a198161236b565b6040518060400160405280601081526020016f1b9bd91957db9bdb995e1a5cdd195b9d60821b81525090611a605760405162461bcd60e51b815260040161094191906134f5565b5060008481526015602052604081205485919060ff16610d0f57611a858282336120d1565b604051806040016040528060188152602001600080516020613db883398151915281525090611ac75760405162461bcd60e51b815260040161094191906134f5565b50611ad38686866120d1565b15611b4857600086815260116020908152604080832088845282528083206001600160a01b03881684529091529020805460ff191690557f743dd6de0118c934baddbf165685269ac4f51fe0780281fdb64ea7ca8746ceff86868633604051611b3f9493929190613b30565b60405180910390a15b60008681526012602090815260408083208884529091529020611b6b9085612707565b50505050505050565b6114113383836127b0565b611b8b826000336120d1565b604051806040016040528060188152602001600080516020613db883398151915281525090611bcd5760405162461bcd60e51b815260040161094191906134f5565b506000828152601560205260409020805460ff19168215151790557fe0b4110a3baee4f696784af62abd29a66eaa57537c9d08b1e88efa87c846180c8282336040805193845291151560208401526001600160a01b03169082015260600160405180910390a15050565b6000610841600d83604051610f299190613b14565b60166020528160005260406000208181548110611c6857600080fd5b906000526020600020906003020160009150915050806000015490806001018054611c9290613ad9565b80601f0160208091040260200160405190810160405280929190818152602001828054611cbe90613ad9565b8015611d0b5780601f10611ce057610100808354040283529160200191611d0b565b820191906000526020600020905b815481529060010190602001808311611cee57829003601f168201915b505050600290930154919250506001600160a01b031683565b611d2d336113bf565b611d495760405162461bcd60e51b815260040161094190613b9e565b610ee28484848461287f565b6060611d60826128b2565b604051602001611d709190613c27565b6040516020818303038152906040529050919050565b81611d908161236b565b6040518060400160405280601081526020016f1b9bd91957db9bdb995e1a5cdd195b9d60821b81525090611dd75760405162461bcd60e51b815260040161094191906134f5565b5081611de28161236b565b6040518060400160405280601081526020016f1b9bd91957db9bdb995e1a5cdd195b9d60821b81525090611e295760405162461bcd60e51b815260040161094191906134f5565b50600083815260156020526040902054839060ff1661111557611e4c8133610ee8565b604051806040016040528060188152602001600080516020613db883398151915281525090611e8e5760405162461bcd60e51b815260040161094191906134f5565b506000611e9a86610ab2565b90506000611ea786610ab2565b9050611ee387600e600089815260200190815260200160002084604051611ece9190613b14565b90815260405190819003602001902090612a30565b50611f0986600f60008a815260200190815260200160002083604051611ece9190613b14565b507f6557fb419f8fb38db07d7d39abcf73191eef47a23c96712b48f58f1b5230ee5d8787336110eb565b6000838152600f6020526040808220905161144c918491611437908790613b14565b6000610aab82600d856040516114379190613b14565b81611f758161236b565b6040518060400160405280601081526020016f1b9bd91957db9bdb995e1a5cdd195b9d60821b81525090611fbc5760405162461bcd60e51b815260040161094191906134f5565b5081611fc78161236b565b6040518060400160405280601081526020016f1b9bd91957db9bdb995e1a5cdd195b9d60821b8152509061200e5760405162461bcd60e51b815260040161094191906134f5565b5060008481526015602052604081205485919060ff16610d0f576120338282336120d1565b604051806040016040528060188152602001600080516020613db8833981519152815250906120755760405162461bcd60e51b815260040161094191906134f5565b50600086815260136020526040902061208e9086612a30565b5060008581526014602052604090206120a79087612a30565b507fe90abaaba0ad946d1629928fb2d2e7c2c3dbac7b21e98a78cf777e1e87ef80388686336119e0565b600083815260116020908152604080832085845282528083206001600160a01b038516845290915281205460ff161561210c57506001610aab565b60005b6000858152601360205260409020612126906123f6565b811015612171576000858152601360205260409020612150906121499083612400565b85856120d1565b1561215f576001915050610aab565b8061216981613b83565b91505061210f565b506000949350505050565b826121868161236b565b6040518060400160405280601081526020016f1b9bd91957db9bdb995e1a5cdd195b9d60821b815250906121cd5760405162461bcd60e51b815260040161094191906134f5565b5060008481526015602052604081205485919060ff16610d0f576121f28282336120d1565b604051806040016040528060188152602001600080516020613db8833981519152815250906122345760405162461bcd60e51b815260040161094191906134f5565b506122408686866120d1565b6122bd57600086815260116020908152604080832088845282528083206001600160a01b03881684529091529020805460ff191660011790557f3f9759be566576e968397b016ea9843c3e1d19bf1f59ae53cdfbd3b1a69140708686866122a43390565b6040516122b49493929190613b30565b60405180910390a15b60008681526012602090815260408083208884529091529020611b6b9085612a3c565b6000828152600e60205260408082209051610aab9190610f29908590613b14565b60008281526012602090815260408083208484529091528120610aab906123f6565b6000838152601260209081526040808320858452909152812061144c9083612400565b60006001600160e01b0319821663780e9d6360e01b1480610841575061084182612a51565b6000908152600260205260409020546001600160a01b0316151590565b600081815260046020526040902080546001600160a01b0319166001600160a01b03841690811790915581906123bd82611572565b6001600160a01b03167f8c5be1e5ebec7d5bd14f71427d1e84f3dd0314c0f7b2291e5b200ac8c7c3b92560405160405180910390a45050565b6000610841825490565b6000610aab8383612aa1565b600081511161244e5760405162461bcd60e51b815260206004820152600e60248201526d696e76616c69645f737472696e6760901b6044820152606401610941565b50565b611411828260405180602001604052806000815250612acb565b6000610aab8383612afe565b60006124828261236b565b6124e35760405162461bcd60e51b815260206004820152602c60248201527f4552433732313a206f70657261746f7220717565727920666f72206e6f6e657860448201526b34b9ba32b73a103a37b5b2b760a11b6064820152608401610941565b60006124ee83611572565b9050806001600160a01b0316846001600160a01b031614806125295750836001600160a01b031661251e846108d9565b6001600160a01b0316145b8061144c57506001600160a01b0380821660009081526005602090815260408083209388168352929052205460ff16949350505050565b826001600160a01b031661257382611572565b6001600160a01b0316146125d75760405162461bcd60e51b815260206004820152602560248201527f4552433732313a207472616e736665722066726f6d20696e636f72726563742060448201526437bbb732b960d91b6064820152608401610941565b6001600160a01b0382166126395760405162461bcd60e51b8152602060048201526024808201527f4552433732313a207472616e7366657220746f20746865207a65726f206164646044820152637265737360e01b6064820152608401610941565b612644838383612b4d565b61264f600082612388565b6001600160a01b0383166000908152600360205260408120805460019290612678908490613c59565b90915550506001600160a01b03821660009081526003602052604081208054600192906126a6908490613c70565b909155505060008181526002602052604080822080546001600160a01b0319166001600160a01b0386811691821790925591518493918716917fddf252ad1be2c89b69c2b068fc378daa952ba7f163c4a11628f55a4df523b3ef91a4505050565b6000610aab836001600160a01b038416612b58565b6127258261236b565b6127885760405162461bcd60e51b815260206004820152602e60248201527f45524337323155524953746f726167653a2055524920736574206f66206e6f6e60448201526d32bc34b9ba32b73a103a37b5b2b760911b6064820152608401610941565b6000828152600a602090815260409091208251610a779284019061339b565b61244e81612c4b565b816001600160a01b0316836001600160a01b031614156128125760405162461bcd60e51b815260206004820152601960248201527f4552433732313a20617070726f766520746f2063616c6c6572000000000000006044820152606401610941565b6001600160a01b03838116600081815260056020908152604080832094871680845294825291829020805460ff191686151590811790915591519182527f17307eab39ab6107e8899845ad3d59bd9653f200f220920489ca2b5937696c31910160405180910390a3505050565b61288a848484612560565b61289684848484612c8b565b610ee25760405162461bcd60e51b815260040161094190613c88565b60606128bd8261236b565b6129235760405162461bcd60e51b815260206004820152603160248201527f45524337323155524953746f726167653a2055524920717565727920666f72206044820152703737b732bc34b9ba32b73a103a37b5b2b760791b6064820152608401610941565b6000828152600a60205260408120805461293c90613ad9565b80601f016020809104026020016040519081016040528092919081815260200182805461296890613ad9565b80156129b55780601f1061298a576101008083540402835291602001916129b5565b820191906000526020600020905b81548152906001019060200180831161299857829003601f168201915b5050505050905060006129e2604080518082019091526007815266697066733a2f2f60c81b602082015290565b90508051600014156129f5575092915050565b815115612a27578082604051602001612a0f929190613cda565b60405160208183030381529060405292505050919050565b61144c84612d89565b6000610aab8383612b58565b6000610aab836001600160a01b038416612afe565b60006001600160e01b031982166380ac58cd60e01b1480612a8257506001600160e01b03198216635b5e139f60e01b145b8061084157506301ffc9a760e01b6001600160e01b0319831614610841565b6000826000018281548110612ab857612ab8613b57565b9060005260206000200154905092915050565b612ad58383612e6f565b612ae26000848484612c8b565b610a775760405162461bcd60e51b815260040161094190613c88565b6000818152600183016020526040812054612b4557508154600181810184556000848152602080822090930184905584548482528286019093526040902091909155610841565b506000610841565b610a77838383612fae565b60008181526001830160205260408120548015612c41576000612b7c600183613c59565b8554909150600090612b9090600190613c59565b9050818114612bf5576000866000018281548110612bb057612bb0613b57565b9060005260206000200154905080876000018481548110612bd357612bd3613b57565b6000918252602080832090910192909255918252600188019052604090208390555b8554869080612c0657612c06613d09565b600190038181906000526020600020016000905590558560010160008681526020019081526020016000206000905560019350505050610841565b6000915050610841565b612c5481613066565b6000818152600a602052604090208054612c6d90613ad9565b15905061244e576000818152600a6020526040812061244e9161341f565b60006001600160a01b0384163b15612d7e57604051630a85bd0160e11b81526001600160a01b0385169063150b7a0290612ccf903390899088908890600401613d1f565b6020604051808303816000875af1925050508015612d0a575060408051601f3d908101601f19168201909252612d0791810190613d5c565b60015b612d64573d808015612d38576040519150601f19603f3d011682016040523d82523d6000602084013e612d3d565b606091505b508051612d5c5760405162461bcd60e51b815260040161094190613c88565b805181602001fd5b6001600160e01b031916630a85bd0160e11b14905061144c565b506001949350505050565b6060612d948261236b565b612df85760405162461bcd60e51b815260206004820152602f60248201527f4552433732314d657461646174613a2055524920717565727920666f72206e6f60448201526e3732bc34b9ba32b73a103a37b5b2b760891b6064820152608401610941565b6000612e1e604080518082019091526007815266697066733a2f2f60c81b602082015290565b90506000815111612e3e5760405180602001604052806000815250610aab565b80612e488461310d565b604051602001612e59929190613cda565b6040516020818303038152906040529392505050565b6001600160a01b038216612ec55760405162461bcd60e51b815260206004820181905260248201527f4552433732313a206d696e7420746f20746865207a65726f20616464726573736044820152606401610941565b612ece8161236b565b15612f1b5760405162461bcd60e51b815260206004820152601c60248201527f4552433732313a20746f6b656e20616c7265616479206d696e746564000000006044820152606401610941565b612f2760008383612b4d565b6001600160a01b0382166000908152600360205260408120805460019290612f50908490613c70565b909155505060008181526002602052604080822080546001600160a01b0319166001600160a01b03861690811790915590518392907fddf252ad1be2c89b69c2b068fc378daa952ba7f163c4a11628f55a4df523b3ef908290a45050565b6001600160a01b0383166130095761300481600880546000838152600960205260408120829055600182018355919091527ff3f7a9fe364faab93b216da50a3214154f22a0a2b415b23a84c8169e8b636ee30155565b61302c565b816001600160a01b0316836001600160a01b03161461302c5761302c838261320b565b6001600160a01b03821661304357610a77816132a8565b826001600160a01b0316826001600160a01b031614610a7757610a778282613357565b600061307182611572565b905061307f81600084612b4d565b61308a600083612388565b6001600160a01b03811660009081526003602052604081208054600192906130b3908490613c59565b909155505060008281526002602052604080822080546001600160a01b0319169055518391906001600160a01b038416907fddf252ad1be2c89b69c2b068fc378daa952ba7f163c4a11628f55a4df523b3ef908390a45050565b6060816131315750506040805180820190915260018152600360fc1b602082015290565b8160005b811561315b578061314581613b83565b91506131549050600a83613d8f565b9150613135565b60008167ffffffffffffffff81111561317657613176613589565b6040519080825280601f01601f1916602001820160405280156131a0576020820181803683370190505b5090505b841561144c576131b5600183613c59565b91506131c2600a86613da3565b6131cd906030613c70565b60f81b8183815181106131e2576131e2613b57565b60200101906001600160f81b031916908160001a905350613204600a86613d8f565b94506131a4565b60006001613218846115e9565b6132229190613c59565b600083815260076020526040902054909150808214613275576001600160a01b03841660009081526006602090815260408083208584528252808320548484528184208190558352600790915290208190555b5060009182526007602090815260408084208490556001600160a01b039094168352600681528383209183525290812055565b6008546000906132ba90600190613c59565b600083815260096020526040812054600880549394509092849081106132e2576132e2613b57565b90600052602060002001549050806008838154811061330357613303613b57565b600091825260208083209091019290925582815260099091526040808220849055858252812055600880548061333b5761333b613d09565b6001900381819060005260206000200160009055905550505050565b6000613362836115e9565b6001600160a01b039093166000908152600660209081526040808320868452825280832085905593825260079052919091209190915550565b8280546133a790613ad9565b90600052602060002090601f0160209004810192826133c9576000855561340f565b82601f106133e257805160ff191683800117855561340f565b8280016001018555821561340f579182015b8281111561340f5782518255916020019190600101906133f4565b5061341b929150613455565b5090565b50805461342b90613ad9565b6000825580601f1061343b575050565b601f01602090049060005260206000209081019061244e91905b5b8082111561341b5760008155600101613456565b6001600160e01b03198116811461244e57600080fd5b60006020828403121561349257600080fd5b8135610aab8161346a565b60005b838110156134b85781810151838201526020016134a0565b83811115610ee25750506000910152565b600081518084526134e181602086016020860161349d565b601f01601f19169290920160200192915050565b602081526000610aab60208301846134c9565b60006020828403121561351a57600080fd5b5035919050565b80356001600160a01b038116811461353857600080fd5b919050565b6000806040838503121561355057600080fd5b61355983613521565b946020939093013593505050565b6000806040838503121561357a57600080fd5b50508035926020909101359150565b634e487b7160e01b600052604160045260246000fd5b604051601f8201601f1916810167ffffffffffffffff811182821017156135c8576135c8613589565b604052919050565b600067ffffffffffffffff8311156135ea576135ea613589565b6135fd601f8401601f191660200161359f565b905082815283838301111561361157600080fd5b828260208301376000602084830101529392505050565b600082601f83011261363957600080fd5b610aab838335602085016135d0565b600082601f83011261365957600080fd5b8135602067ffffffffffffffff82111561367557613675613589565b8160051b61368482820161359f565b928352848101820192828101908785111561369e57600080fd5b83870192505b848310156136bd578235825291830191908301906136a4565b979650505050505050565b600080600080608085870312156136de57600080fd5b843567ffffffffffffffff808211156136f657600080fd5b61370288838901613628565b9550602087013591508082111561371857600080fd5b61372488838901613628565b9450604087013591508082111561373a57600080fd5b61374688838901613648565b9350606087013591508082111561375c57600080fd5b5061376987828801613648565b91505092959194509250565b60008060006060848603121561378a57600080fd5b61379384613521565b92506137a160208501613521565b9150604084013590509250925092565b600080604083850312156137c457600080fd5b823591506137d460208401613521565b90509250929050565b600080604083850312156137f057600080fd5b82359150602083013567ffffffffffffffff81111561380e57600080fd5b61381a85828601613628565b9150509250929050565b60008060006060848603121561383957600080fd5b83359250602084013567ffffffffffffffff81111561385757600080fd5b61386386828701613628565b925050604084013590509250925092565b6020815281516020820152600060208301516060604084015261389a60808401826134c9565b604094909401516001600160a01b0316606093909301929092525090919050565b6000602082840312156138cd57600080fd5b610aab82613521565b6000806000606084860312156138eb57600080fd5b833592506020840135915061390260408501613521565b90509250925092565b8035801515811461353857600080fd5b6000806040838503121561392e57600080fd5b61393783613521565b91506137d46020840161390b565b6000806040838503121561395857600080fd5b823591506137d46020840161390b565b60006020828403121561397a57600080fd5b813567ffffffffffffffff81111561399157600080fd5b61144c84828501613628565b8381526060602082015260006139b660608301856134c9565b905060018060a01b0383166040830152949350505050565b600080600080608085870312156139e457600080fd5b6139ed85613521565b93506139fb60208601613521565b925060408501359150606085013567ffffffffffffffff811115613a1e57600080fd5b8501601f81018713613a2f57600080fd5b613769878235602084016135d0565b60008060408385031215613a5157600080fd5b823567ffffffffffffffff811115613a6857600080fd5b613a7485828601613628565b95602094909401359450505050565b60008060408385031215613a9657600080fd5b613a9f83613521565b91506137d460208401613521565b600080600060608486031215613ac257600080fd5b505081359360208301359350604090920135919050565b600181811c90821680613aed57607f821691505b60208210811415613b0e57634e487b7160e01b600052602260045260246000fd5b50919050565b60008251613b2681846020870161349d565b9190910192915050565b93845260208401929092526001600160a01b03908116604084015216606082015260800190565b634e487b7160e01b600052603260045260246000fd5b634e487b7160e01b600052601160045260246000fd5b6000600019821415613b9757613b97613b6d565b5060010190565b60208082526031908201527f4552433732313a207472616e736665722063616c6c6572206973206e6f74206f6040820152701ddb995c881b9bdc88185c1c1c9bdd9959607a1b606082015260800190565b848152836020820152608060408201526000613c0e60808301856134c9565b905060018060a01b038316606083015295945050505050565b60008251613c3981846020870161349d565b6d17b6b2ba30b230ba30973539b7b760911b920191825250600e01919050565b600082821015613c6b57613c6b613b6d565b500390565b60008219821115613c8357613c83613b6d565b500190565b60208082526032908201527f4552433732313a207472616e7366657220746f206e6f6e20455243373231526560408201527131b2b4bb32b91034b6b83632b6b2b73a32b960711b606082015260800190565b60008351613cec81846020880161349d565b835190830190613d0081836020880161349d565b01949350505050565b634e487b7160e01b600052603160045260246000fd5b6001600160a01b0385811682528416602082015260408101839052608060608201819052600090613d52908301846134c9565b9695505050505050565b600060208284031215613d6e57600080fd5b8151610aab8161346a565b634e487b7160e01b600052601260045260246000fd5b600082613d9e57613d9e613d79565b500490565b600082613db257613db2613d79565b50069056fe696e73756666696369656e745f7065726d697373696f6e730000000000000000a2646970667358221220417649f0580b4748c5aa3f7ff638852b50eb3232118643a7d6cd56ec79335aec64736f6c634300080c0033",
  "linkReferences": {},
  "deployedLinkReferences": {}
}