{
  "_format": "hh-sol-artifact-1",
  "contractName": "Node",
  "sourceName": "contracts/src/Node.sol",
  "abi": [
    {
      "inputs": [],
      "stateMutability": "nonpayable",
      "type": "constructor"
    },
    {
      "anonymous": false,
      "inputs": [
        {
          "indexed": true,
          "internalType": "address",
          "name": "owner",
          "type": "address"
        },
        {
          "indexed": true,
          "internalType": "address",
          "name": "approved",
          "type": "address"
        },
        {
          "indexed": true,
          "internalType": "uint256",
          "name": "tokenId",
          "type": "uint256"
        }
      ],
      "name": "Approval",
      "type": "event"
    },
    {
      "anonymous": false,
      "inputs": [
        {
          "indexed": true,
          "internalType": "address",
          "name": "owner",
          "type": "address"
        },
        {
          "indexed": true,
          "internalType": "address",
          "name": "operator",
          "type": "address"
        },
        {
          "indexed": false,
          "internalType": "bool",
          "name": "approved",
          "type": "bool"
        }
      ],
      "name": "ApprovalForAll",
      "type": "event"
    },
    {
      "anonymous": false,
      "inputs": [
        {
          "indexed": false,
          "internalType": "uint256",
          "name": "tokenId",
          "type": "uint256"
        },
        {
          "indexed": false,
          "internalType": "uint256",
          "name": "connectionFee",
          "type": "uint256"
        },
        {
          "indexed": false,
          "internalType": "address",
          "name": "sender",
          "type": "address"
        }
      ],
      "name": "ConnectionFeeSet",
      "type": "event"
    },
    {
      "anonymous": false,
      "inputs": [
        {
          "indexed": false,
          "internalType": "uint256",
          "name": "forTokenId",
          "type": "uint256"
        },
        {
          "indexed": false,
          "internalType": "uint256",
          "name": "toTokenId",
          "type": "uint256"
        },
        {
          "indexed": false,
          "internalType": "address",
          "name": "sender",
          "type": "address"
        }
      ],
      "name": "DelegatePermissionsRenounced",
      "type": "event"
    },
    {
      "anonymous": false,
      "inputs": [
        {
          "indexed": true,
          "internalType": "uint256",
          "name": "tokenId",
          "type": "uint256"
        },
        {
          "indexed": false,
          "internalType": "string",
          "name": "hash",
          "type": "string"
        },
        {
          "components": [
            {
              "internalType": "uint256",
              "name": "tokenId",
              "type": "uint256"
            },
            {
              "internalType": "string",
              "name": "name",
              "type": "string"
            }
          ],
          "indexed": false,
          "internalType": "struct Node.Edge[]",
          "name": "incomingEdges",
          "type": "tuple[]"
        },
        {
          "components": [
            {
              "internalType": "uint256",
              "name": "tokenId",
              "type": "uint256"
            },
            {
              "internalType": "string",
              "name": "name",
              "type": "string"
            }
          ],
          "indexed": false,
          "internalType": "struct Node.Edge[]",
          "name": "outgoingEdges",
          "type": "tuple[]"
        },
        {
          "indexed": false,
          "internalType": "address",
          "name": "sender",
          "type": "address"
        }
      ],
      "name": "Merge",
      "type": "event"
    },
    {
      "anonymous": false,
      "inputs": [
        {
          "indexed": true,
          "internalType": "uint256",
          "name": "tokenId",
          "type": "uint256"
        },
        {
          "indexed": false,
          "internalType": "string",
          "name": "label",
          "type": "string"
        },
        {
          "indexed": false,
          "internalType": "string",
          "name": "hash",
          "type": "string"
        },
        {
          "components": [
            {
              "internalType": "uint256",
              "name": "tokenId",
              "type": "uint256"
            },
            {
              "internalType": "string",
              "name": "name",
              "type": "string"
            }
          ],
          "indexed": false,
          "internalType": "struct Node.Edge[]",
          "name": "incomingEdges",
          "type": "tuple[]"
        },
        {
          "components": [
            {
              "internalType": "uint256",
              "name": "tokenId",
              "type": "uint256"
            },
            {
              "internalType": "string",
              "name": "name",
              "type": "string"
            }
          ],
          "indexed": false,
          "internalType": "struct Node.Edge[]",
          "name": "outgoingEdges",
          "type": "tuple[]"
        },
        {
          "indexed": false,
          "internalType": "address",
          "name": "sender",
          "type": "address"
        }
      ],
      "name": "Mint",
      "type": "event"
    },
    {
      "anonymous": false,
      "inputs": [
        {
          "indexed": false,
          "internalType": "uint256",
          "name": "tokenId",
          "type": "uint256"
        },
        {
          "indexed": false,
          "internalType": "bool",
          "name": "bypassed",
          "type": "bool"
        },
        {
          "indexed": false,
          "internalType": "address",
          "name": "sender",
          "type": "address"
        }
      ],
      "name": "PermissionsBypassSet",
      "type": "event"
    },
    {
      "anonymous": false,
      "inputs": [
        {
          "indexed": false,
          "internalType": "uint256",
          "name": "forTokenId",
          "type": "uint256"
        },
        {
          "indexed": false,
          "internalType": "uint256",
          "name": "toTokenId",
          "type": "uint256"
        },
        {
          "indexed": false,
          "internalType": "address",
          "name": "sender",
          "type": "address"
        }
      ],
      "name": "PermissionsDelegated",
      "type": "event"
    },
    {
      "anonymous": false,
      "inputs": [
        {
          "indexed": true,
          "internalType": "uint256",
          "name": "tokenId",
          "type": "uint256"
        },
        {
          "indexed": false,
          "internalType": "string",
          "name": "hash",
          "type": "string"
        },
        {
          "indexed": false,
          "internalType": "address",
          "name": "sender",
          "type": "address"
        }
      ],
      "name": "Revise",
      "type": "event"
    },
    {
      "anonymous": false,
      "inputs": [
        {
          "indexed": false,
          "internalType": "uint256",
          "name": "tokenId",
          "type": "uint256"
        },
        {
          "indexed": false,
          "internalType": "uint256",
          "name": "role",
          "type": "uint256"
        },
        {
          "indexed": false,
          "internalType": "address",
          "name": "account",
          "type": "address"
        },
        {
          "indexed": false,
          "internalType": "address",
          "name": "sender",
          "type": "address"
        }
      ],
      "name": "RoleGranted",
      "type": "event"
    },
    {
      "anonymous": false,
      "inputs": [
        {
          "indexed": false,
          "internalType": "uint256",
          "name": "tokenId",
          "type": "uint256"
        },
        {
          "indexed": false,
          "internalType": "uint256",
          "name": "role",
          "type": "uint256"
        },
        {
          "indexed": false,
          "internalType": "address",
          "name": "account",
          "type": "address"
        },
        {
          "indexed": false,
          "internalType": "address",
          "name": "sender",
          "type": "address"
        }
      ],
      "name": "RoleRevoked",
      "type": "event"
    },
    {
      "anonymous": false,
      "inputs": [
        {
          "indexed": true,
          "internalType": "address",
          "name": "from",
          "type": "address"
        },
        {
          "indexed": true,
          "internalType": "address",
          "name": "to",
          "type": "address"
        },
        {
          "indexed": true,
          "internalType": "uint256",
          "name": "tokenId",
          "type": "uint256"
        }
      ],
      "name": "Transfer",
      "type": "event"
    },
    {
      "stateMutability": "payable",
      "type": "fallback"
    },
    {
      "inputs": [],
      "name": "ADMIN_ROLE",
      "outputs": [
        {
          "internalType": "uint256",
          "name": "",
          "type": "uint256"
        }
      ],
      "stateMutability": "view",
      "type": "function"
    },
    {
      "inputs": [],
      "name": "EDITOR_ROLE",
      "outputs": [
        {
          "internalType": "uint256",
          "name": "",
          "type": "uint256"
        }
      ],
      "stateMutability": "view",
      "type": "function"
    },
    {
      "inputs": [],
      "name": "ERR_INSUFFICIENT_PERMISSIONS",
      "outputs": [
        {
          "internalType": "string",
          "name": "",
          "type": "string"
        }
      ],
      "stateMutability": "view",
      "type": "function"
    },
    {
      "inputs": [],
      "name": "ERR_NODE_NONEXISTENT",
      "outputs": [
        {
          "internalType": "string",
          "name": "",
          "type": "string"
        }
      ],
      "stateMutability": "view",
      "type": "function"
    },
    {
      "inputs": [],
      "name": "ERR_PROTOCOL_STEWARD_ONLY",
      "outputs": [
        {
          "internalType": "string",
          "name": "",
          "type": "string"
        }
      ],
      "stateMutability": "view",
      "type": "function"
    },
    {
      "inputs": [],
      "name": "ERR_RECURSIVE_DELEGATION",
      "outputs": [
        {
          "internalType": "string",
          "name": "",
          "type": "string"
        }
      ],
      "stateMutability": "view",
      "type": "function"
    },
    {
      "inputs": [],
      "name": "ERR_RESERVED_STRING",
      "outputs": [
        {
          "internalType": "string",
          "name": "",
          "type": "string"
        }
      ],
      "stateMutability": "view",
      "type": "function"
    },
    {
      "inputs": [
        {
          "internalType": "address",
          "name": "to",
          "type": "address"
        },
        {
          "internalType": "uint256",
          "name": "tokenId",
          "type": "uint256"
        }
      ],
      "name": "approve",
      "outputs": [],
      "stateMutability": "nonpayable",
      "type": "function"
    },
    {
      "inputs": [
        {
          "internalType": "address",
          "name": "owner",
          "type": "address"
        }
      ],
      "name": "balanceOf",
      "outputs": [
        {
          "internalType": "uint256",
          "name": "",
          "type": "uint256"
        }
      ],
      "stateMutability": "view",
      "type": "function"
    },
    {
      "inputs": [
        {
          "internalType": "uint256",
          "name": "tokenId",
          "type": "uint256"
        }
      ],
      "name": "burnNode",
      "outputs": [],
      "stateMutability": "nonpayable",
      "type": "function"
    },
    {
      "inputs": [
        {
          "internalType": "uint256",
          "name": "tokenId",
          "type": "uint256"
        },
        {
          "internalType": "address",
          "name": "account",
          "type": "address"
        }
      ],
      "name": "canEdit",
      "outputs": [
        {
          "internalType": "bool",
          "name": "",
          "type": "bool"
        }
      ],
      "stateMutability": "view",
      "type": "function"
    },
    {
      "inputs": [
        {
          "internalType": "uint256",
          "name": "tokenId",
          "type": "uint256"
        }
      ],
      "name": "creatorOf",
      "outputs": [
        {
          "internalType": "address",
          "name": "",
          "type": "address"
        }
      ],
      "stateMutability": "view",
      "type": "function"
    },
    {
      "inputs": [
        {
          "internalType": "uint256",
          "name": "forTokenId",
          "type": "uint256"
        },
        {
          "internalType": "uint256",
          "name": "toTokenId",
          "type": "uint256"
        }
      ],
      "name": "delegatePermissions",
      "outputs": [],
      "stateMutability": "nonpayable",
      "type": "function"
    },
    {
      "inputs": [],
      "name": "depositProtocolBalance",
      "outputs": [],
      "stateMutability": "nonpayable",
      "type": "function"
    },
    {
      "inputs": [
        {
          "internalType": "uint256",
          "name": "tokenId",
          "type": "uint256"
        }
      ],
      "name": "exists",
      "outputs": [
        {
          "internalType": "bool",
          "name": "",
          "type": "bool"
        }
      ],
      "stateMutability": "view",
      "type": "function"
    },
    {
      "inputs": [
        {
          "internalType": "uint256",
          "name": "tokenId",
          "type": "uint256"
        }
      ],
      "name": "getApproved",
      "outputs": [
        {
          "internalType": "address",
          "name": "",
          "type": "address"
        }
      ],
      "stateMutability": "view",
      "type": "function"
    },
    {
      "inputs": [
        {
          "internalType": "uint256",
          "name": "tokenId",
          "type": "uint256"
        }
      ],
      "name": "getConnectionFee",
      "outputs": [
        {
          "internalType": "uint256",
          "name": "",
          "type": "uint256"
        }
      ],
      "stateMutability": "view",
      "type": "function"
    },
    {
      "inputs": [],
      "name": "getProtocolMintFee",
      "outputs": [
        {
          "internalType": "uint256",
          "name": "",
          "type": "uint256"
        }
      ],
      "stateMutability": "view",
      "type": "function"
    },
    {
      "inputs": [
        {
          "internalType": "uint256",
          "name": "tokenId",
          "type": "uint256"
        },
        {
          "internalType": "uint256",
          "name": "role",
          "type": "uint256"
        },
        {
          "internalType": "address",
          "name": "account",
          "type": "address"
        }
      ],
      "name": "grantRole",
      "outputs": [],
      "stateMutability": "nonpayable",
      "type": "function"
    },
    {
      "inputs": [
        {
          "internalType": "uint256",
          "name": "tokenId",
          "type": "uint256"
        }
      ],
      "name": "hasPermissionsBypass",
      "outputs": [
        {
          "internalType": "bool",
          "name": "",
          "type": "bool"
        }
      ],
      "stateMutability": "view",
      "type": "function"
    },
    {
      "inputs": [
        {
          "internalType": "uint256",
          "name": "tokenId",
          "type": "uint256"
        },
        {
          "internalType": "uint256",
          "name": "role",
          "type": "uint256"
        },
        {
          "internalType": "address",
          "name": "account",
          "type": "address"
        }
      ],
      "name": "hasRole",
      "outputs": [
        {
          "internalType": "bool",
          "name": "",
          "type": "bool"
        }
      ],
      "stateMutability": "view",
      "type": "function"
    },
    {
      "inputs": [
        {
          "internalType": "address",
          "name": "owner",
          "type": "address"
        },
        {
          "internalType": "address",
          "name": "operator",
          "type": "address"
        }
      ],
      "name": "isApprovedForAll",
      "outputs": [
        {
          "internalType": "bool",
          "name": "",
          "type": "bool"
        }
      ],
      "stateMutability": "view",
      "type": "function"
    },
    {
      "inputs": [
        {
          "internalType": "uint256",
          "name": "tokenId",
          "type": "uint256"
        },
        {
          "internalType": "string",
          "name": "hash",
          "type": "string"
        },
        {
          "components": [
            {
              "internalType": "uint256",
              "name": "tokenId",
              "type": "uint256"
            },
            {
              "internalType": "string",
              "name": "name",
              "type": "string"
            }
          ],
          "internalType": "struct Node.Edge[]",
          "name": "incomingEdges",
          "type": "tuple[]"
        },
        {
          "components": [
            {
              "internalType": "uint256",
              "name": "tokenId",
              "type": "uint256"
            },
            {
              "internalType": "string",
              "name": "name",
              "type": "string"
            }
          ],
          "internalType": "struct Node.Edge[]",
          "name": "outgoingEdges",
          "type": "tuple[]"
        }
      ],
      "name": "merge",
      "outputs": [],
      "stateMutability": "payable",
      "type": "function"
    },
    {
      "inputs": [
        {
          "internalType": "string",
          "name": "label",
          "type": "string"
        },
        {
          "internalType": "string",
          "name": "hash",
          "type": "string"
        },
        {
          "components": [
            {
              "internalType": "uint256",
              "name": "tokenId",
              "type": "uint256"
            },
            {
              "internalType": "string",
              "name": "name",
              "type": "string"
            }
          ],
          "internalType": "struct Node.Edge[]",
          "name": "incomingEdges",
          "type": "tuple[]"
        },
        {
          "components": [
            {
              "internalType": "uint256",
              "name": "tokenId",
              "type": "uint256"
            },
            {
              "internalType": "string",
              "name": "name",
              "type": "string"
            }
          ],
          "internalType": "struct Node.Edge[]",
          "name": "outgoingEdges",
          "type": "tuple[]"
        },
        {
          "internalType": "uint256[]",
          "name": "delegatePermissionsTokenIds",
          "type": "uint256[]"
        }
      ],
      "name": "mint",
      "outputs": [],
      "stateMutability": "payable",
      "type": "function"
    },
    {
      "inputs": [],
      "name": "name",
      "outputs": [
        {
          "internalType": "string",
          "name": "",
          "type": "string"
        }
      ],
      "stateMutability": "view",
      "type": "function"
    },
    {
      "inputs": [
        {
          "internalType": "uint256",
          "name": "tokenId",
          "type": "uint256"
        }
      ],
      "name": "ownerOf",
      "outputs": [
        {
          "internalType": "address",
          "name": "",
          "type": "address"
        }
      ],
      "stateMutability": "view",
      "type": "function"
    },
    {
      "inputs": [
        {
          "internalType": "address",
          "name": "dest",
          "type": "address"
        }
      ],
      "name": "payments",
      "outputs": [
        {
          "internalType": "uint256",
          "name": "",
          "type": "uint256"
        }
      ],
      "stateMutability": "view",
      "type": "function"
    },
    {
      "inputs": [],
      "name": "protocolSteward",
      "outputs": [
        {
          "internalType": "address",
          "name": "",
          "type": "address"
        }
      ],
      "stateMutability": "view",
      "type": "function"
    },
    {
      "inputs": [
        {
          "internalType": "uint256",
          "name": "forTokenId",
          "type": "uint256"
        },
        {
          "internalType": "uint256",
          "name": "toTokenId",
          "type": "uint256"
        }
      ],
      "name": "renounceDelegatePermissions",
      "outputs": [],
      "stateMutability": "nonpayable",
      "type": "function"
    },
    {
      "inputs": [
        {
          "internalType": "uint256",
          "name": "tokenId",
          "type": "uint256"
        },
        {
          "internalType": "uint256",
          "name": "role",
          "type": "uint256"
        }
      ],
      "name": "renounceRole",
      "outputs": [],
      "stateMutability": "nonpayable",
      "type": "function"
    },
    {
      "inputs": [],
      "name": "resetDefaultRoyalty",
      "outputs": [],
      "stateMutability": "nonpayable",
      "type": "function"
    },
    {
      "inputs": [
        {
          "internalType": "uint256",
          "name": "tokenId",
          "type": "uint256"
        }
      ],
      "name": "resetTokenRoyalty",
      "outputs": [],
      "stateMutability": "nonpayable",
      "type": "function"
    },
    {
      "inputs": [
        {
          "internalType": "uint256",
          "name": "tokenId",
          "type": "uint256"
        },
        {
          "internalType": "string",
          "name": "hash",
          "type": "string"
        }
      ],
      "name": "revise",
      "outputs": [],
      "stateMutability": "nonpayable",
      "type": "function"
    },
    {
      "inputs": [
        {
          "internalType": "uint256",
          "name": "tokenId",
          "type": "uint256"
        },
        {
          "internalType": "uint256",
          "name": "role",
          "type": "uint256"
        },
        {
          "internalType": "address",
          "name": "account",
          "type": "address"
        }
      ],
      "name": "revokeRole",
      "outputs": [],
      "stateMutability": "nonpayable",
      "type": "function"
    },
    {
      "inputs": [
        {
          "internalType": "uint256",
          "name": "_tokenId",
          "type": "uint256"
        },
        {
          "internalType": "uint256",
          "name": "_salePrice",
          "type": "uint256"
        }
      ],
      "name": "royaltyInfo",
      "outputs": [
        {
          "internalType": "address",
          "name": "",
          "type": "address"
        },
        {
          "internalType": "uint256",
          "name": "",
          "type": "uint256"
        }
      ],
      "stateMutability": "view",
      "type": "function"
    },
    {
      "inputs": [
        {
          "internalType": "address",
          "name": "from",
          "type": "address"
        },
        {
          "internalType": "address",
          "name": "to",
          "type": "address"
        },
        {
          "internalType": "uint256",
          "name": "tokenId",
          "type": "uint256"
        }
      ],
      "name": "safeTransferFrom",
      "outputs": [],
      "stateMutability": "nonpayable",
      "type": "function"
    },
    {
      "inputs": [
        {
          "internalType": "address",
          "name": "from",
          "type": "address"
        },
        {
          "internalType": "address",
          "name": "to",
          "type": "address"
        },
        {
          "internalType": "uint256",
          "name": "tokenId",
          "type": "uint256"
        },
        {
          "internalType": "bytes",
          "name": "_data",
          "type": "bytes"
        }
      ],
      "name": "safeTransferFrom",
      "outputs": [],
      "stateMutability": "nonpayable",
      "type": "function"
    },
    {
      "inputs": [
        {
          "internalType": "address",
          "name": "operator",
          "type": "address"
        },
        {
          "internalType": "bool",
          "name": "approved",
          "type": "bool"
        }
      ],
      "name": "setApprovalForAll",
      "outputs": [],
      "stateMutability": "nonpayable",
      "type": "function"
    },
    {
      "inputs": [
        {
          "internalType": "uint256",
          "name": "tokenId",
          "type": "uint256"
        },
        {
          "internalType": "uint256",
          "name": "connectionFee",
          "type": "uint256"
        }
      ],
      "name": "setConnectionFee",
      "outputs": [],
      "stateMutability": "nonpayable",
      "type": "function"
    },
    {
      "inputs": [
        {
          "internalType": "address",
          "name": "receiver",
          "type": "address"
        },
        {
          "internalType": "uint96",
          "name": "feeNumerator",
          "type": "uint96"
        }
      ],
      "name": "setDefaultRoyalty",
      "outputs": [],
      "stateMutability": "nonpayable",
      "type": "function"
    },
    {
      "inputs": [
        {
          "internalType": "uint256",
          "name": "tokenId",
          "type": "uint256"
        },
        {
          "internalType": "bool",
          "name": "shouldBypassPermissions",
          "type": "bool"
        }
      ],
      "name": "setPermissionsBypass",
      "outputs": [],
      "stateMutability": "nonpayable",
      "type": "function"
    },
    {
      "inputs": [
        {
          "internalType": "uint256",
          "name": "protocolMintFee",
          "type": "uint256"
        }
      ],
      "name": "setProtocolMintFee",
      "outputs": [],
      "stateMutability": "nonpayable",
      "type": "function"
    },
    {
      "inputs": [
        {
          "internalType": "uint256",
          "name": "tokenId",
          "type": "uint256"
        },
        {
          "internalType": "address",
          "name": "receiver",
          "type": "address"
        },
        {
          "internalType": "uint96",
          "name": "feeNumerator",
          "type": "uint96"
        }
      ],
      "name": "setTokenRoyalty",
      "outputs": [],
      "stateMutability": "nonpayable",
      "type": "function"
    },
    {
      "inputs": [
        {
          "internalType": "string",
          "name": "a",
          "type": "string"
        },
        {
          "internalType": "string",
          "name": "b",
          "type": "string"
        }
      ],
      "name": "stringsAreEqual",
      "outputs": [
        {
          "internalType": "bool",
          "name": "",
          "type": "bool"
        }
      ],
      "stateMutability": "pure",
      "type": "function"
    },
    {
      "inputs": [
        {
          "internalType": "bytes4",
          "name": "interfaceId",
          "type": "bytes4"
        }
      ],
      "name": "supportsInterface",
      "outputs": [
        {
          "internalType": "bool",
          "name": "",
          "type": "bool"
        }
      ],
      "stateMutability": "view",
      "type": "function"
    },
    {
      "inputs": [],
      "name": "symbol",
      "outputs": [
        {
          "internalType": "string",
          "name": "",
          "type": "string"
        }
      ],
      "stateMutability": "view",
      "type": "function"
    },
    {
      "inputs": [
        {
          "internalType": "uint256",
          "name": "index",
          "type": "uint256"
        }
      ],
      "name": "tokenByIndex",
      "outputs": [
        {
          "internalType": "uint256",
          "name": "",
          "type": "uint256"
        }
      ],
      "stateMutability": "view",
      "type": "function"
    },
    {
      "inputs": [
        {
          "internalType": "address",
          "name": "owner",
          "type": "address"
        },
        {
          "internalType": "uint256",
          "name": "index",
          "type": "uint256"
        }
      ],
      "name": "tokenOfOwnerByIndex",
      "outputs": [
        {
          "internalType": "uint256",
          "name": "",
          "type": "uint256"
        }
      ],
      "stateMutability": "view",
      "type": "function"
    },
    {
      "inputs": [
        {
          "internalType": "uint256",
          "name": "tokenId",
          "type": "uint256"
        }
      ],
      "name": "tokenURI",
      "outputs": [
        {
          "internalType": "string",
          "name": "",
          "type": "string"
        }
      ],
      "stateMutability": "view",
      "type": "function"
    },
    {
      "inputs": [],
      "name": "totalSupply",
      "outputs": [
        {
          "internalType": "uint256",
          "name": "",
          "type": "uint256"
        }
      ],
      "stateMutability": "view",
      "type": "function"
    },
    {
      "inputs": [
        {
          "internalType": "address",
          "name": "from",
          "type": "address"
        },
        {
          "internalType": "address",
          "name": "to",
          "type": "address"
        },
        {
          "internalType": "uint256",
          "name": "tokenId",
          "type": "uint256"
        }
      ],
      "name": "transferFrom",
      "outputs": [],
      "stateMutability": "nonpayable",
      "type": "function"
    },
    {
      "inputs": [
        {
          "internalType": "address payable",
          "name": "payee",
          "type": "address"
        }
      ],
      "name": "withdrawPayments",
      "outputs": [],
      "stateMutability": "nonpayable",
      "type": "function"
    },
    {
      "stateMutability": "payable",
      "type": "receive"
    }
  ],
  "bytecode": "0x60a06040526000600e553480156200001657600080fd5b50604051806040016040528060048152602001634e6f646560e01b815250604051806040016040528060048152602001634e4f444560e01b815250816002908051906020019062000069929190620000c9565b5080516200007f906003906020840190620000c9565b50506001600d5550604051620000959062000158565b604051809103906000f080158015620000b2573d6000803e3d6000fd5b5060601b6001600160601b031916608052620001ba565b828054620000d7906200017d565b90600052602060002090601f016020900481019282620000fb576000855562000146565b82601f106200011657805160ff191683800117855562000146565b8280016001018555821562000146579182015b828111156200014657825182559160200191906001019062000129565b506200015492915062000166565b5090565b6105f280620050d983390190565b5b8082111562000154576000815560010162000167565b600181811c908216806200019257607f821691505b60208210811415620001b457634e487b7160e01b600052602260045260246000fd5b50919050565b60805160601c614ed6620002036000396000818161030a0152818161039d015281816110da0152818161178b0152818161225d015281816124fe0152612e4f0152614ed66000f3fe6080604052600436106103035760003560e01c806375b238fc11610190578063ac3b5bf8116100dc578063e2982c2111610095578063eb31f4c51161006f578063eb31f4c514610a96578063ee437dae14610ab6578063f1052ef914610acb578063fe0a03e614610afb5761039b565b8063e2982c2114610a0d578063e985e9c514610a2d578063ea559dc214610a765761039b565b8063ac3b5bf814610965578063ade6109814610985578063b88d4fde1461099a578063c87b56dd146109ba578063dbd3fd7f146109da578063dd888a9f146109ed5761039b565b806392d96325116101495780639cb99aba116101235780639cb99aba146108f0578063a22cb46514610910578063a853211a14610930578063a937319a146109455761039b565b806392d963251461087b57806395d89b41146108bb5780639bf15032146108d05761039b565b806375b238fc146107a9578063790ef4fa146107be5780637ea50765146107de57806381a30f161461081957806385d6f2171461082e5780638a616bc01461085b5761039b565b80633af7a7231161024f5780635587850d116102085780636352211e116101e25780636352211e1461071257806368e661eb146107325780636f6333401461076957806370a08231146107895761039b565b80635587850d146106b2578063589a1743146106d25780635944c753146106f25761039b565b80633af7a723146105d157806342842e0e146105f157806344c3d3fb146106115780634f558e79146106315780634f6ccce71461065157806352b6f21d146106715761039b565b806323b872dd116102bc5780632fc7bfab116102965780632fc7bfab1461054257806331b3eb94146105555780633a06529b146105755780633aa817cc146105b15761039b565b806323b872dd146104c35780632a55205a146104e35780632f745c59146105225761039b565b806301ffc9a7146103d357806304634d8d1461040857806306fdde031461042a578063081812fc1461044c578063095ea7b31461048457806318160ddd146104a45761039b565b3661039b577f00000000000000000000000000000000000000000000000000000000000000006001600160a01b031663f340fa0134610340610b0c565b6040516001600160e01b031960e085901b1681526001600160a01b0390911660048201526024016000604051808303818588803b15801561038057600080fd5b505af1158015610394573d6000803e3d6000fd5b5050505050005b7f00000000000000000000000000000000000000000000000000000000000000006001600160a01b031663f340fa0134610340610b0c565b3480156103df57600080fd5b506103f36103ee3660046145d0565b610b1d565b60405190151581526020015b60405180910390f35b34801561041457600080fd5b506104286104233660046145a4565b610b2e565b005b34801561043657600080fd5b5061043f610b44565b6040516103ff9190614a65565b34801561045857600080fd5b5061046c610467366004614740565b610bd6565b6040516001600160a01b0390911681526020016103ff565b34801561049057600080fd5b5061042861049f366004614578565b610c63565b3480156104b057600080fd5b50600a545b6040519081526020016103ff565b3480156104cf57600080fd5b506104286104de366004614482565b610d79565b3480156104ef57600080fd5b506105036104fe3660046148bb565b610daa565b604080516001600160a01b0390931683526020830191909152016103ff565b34801561052e57600080fd5b506104b561053d366004614578565b610e56565b610428610550366004614835565b610eec565b34801561056157600080fd5b5061042861057036600461442c565b611063565b34801561058157600080fd5b5061043f6040518060400160405280601081526020016f1b9bd91957db9bdb995e1a5cdd195b9d60821b81525081565b3480156105bd57600080fd5b506104286105cc3660046148bb565b61113e565b3480156105dd57600080fd5b506103f36105ec366004614772565b61120b565b3480156105fd57600080fd5b5061042861060c366004614482565b611232565b34801561061d57600080fd5b5061042861062c3660046147f8565b61124d565b34801561063d57600080fd5b506103f361064c366004614740565b6113a5565b34801561065d57600080fd5b506104b561066c366004614740565b6113b0565b34801561067d57600080fd5b5061043f604051806040016040528060158152602001741bdb9b1e57dc1c9bdd1bd8dbdb17dcdd195dd85c99605a1b81525081565b3480156106be57600080fd5b506104286106cd366004614740565b611443565b3480156106de57600080fd5b5061046c6106ed366004614740565b6114f6565b3480156106fe57600080fd5b5061042861070d366004614797565b61155b565b34801561071e57600080fd5b5061046c61072d366004614740565b61161d565b34801561073e57600080fd5b5061043f604051806040016040528060188152602001600080516020614e8183398151915281525081565b34801561077557600080fd5b506103f361078436600461460a565b611694565b34801561079557600080fd5b506104b56107a436600461442c565b6116ed565b3480156107b557600080fd5b506104b5600081565b3480156107ca57600080fd5b506104286107d9366004614740565b611774565b3480156107ea57600080fd5b5061043f6040518060400160405280600f81526020016e72657365727665645f737472696e6760881b81525081565b34801561082557600080fd5b50610428611781565b34801561083a57600080fd5b506104b5610849366004614740565b60009081526013602052604090205490565b34801561086757600080fd5b50610428610876366004614740565b611815565b34801561088757600080fd5b5061043f604051806040016040528060148152602001733932b1bab939b4bb32afb232b632b3b0ba34b7b760611b81525081565b3480156108c757600080fd5b5061043f6118d8565b3480156108dc57600080fd5b506104286108eb3660046148bb565b6118e7565b3480156108fc57600080fd5b5061042861090b3660046148dd565b611d0d565b34801561091c57600080fd5b5061042861092b366004614543565b611ebe565b34801561093c57600080fd5b506104b5600181565b34801561095157600080fd5b506104286109603660046147d5565b611ec9565b34801561097157600080fd5b506104286109803660046148bb565b611f81565b34801561099157600080fd5b50600e546104b5565b3480156109a657600080fd5b506104286109b53660046144c3565b612032565b3480156109c657600080fd5b5061043f6109d5366004614740565b61206a565b6104286109e836600461466e565b61209b565b3480156109f957600080fd5b50610428610a083660046148bb565b612304565b348015610a1957600080fd5b506104b5610a2836600461442c565b6124dc565b348015610a3957600080fd5b506103f3610a48366004614449565b6001600160a01b03918216600090815260076020908152604080832093909416825291909152205460ff1690565b348015610a8257600080fd5b506103f3610a913660046148dd565b61257a565b348015610aa257600080fd5b50610428610ab13660046148dd565b612625565b348015610ac257600080fd5b506104286127d5565b348015610ad757600080fd5b506103f3610ae6366004614740565b60009081526017602052604090205460ff1690565b348015610b0757600080fd5b5061046c5b6000610b18600161161d565b905090565b6000610b28826127e8565b92915050565b610b366127f3565b610b408282612855565b5050565b606060028054610b5390614d7d565b80601f0160208091040260200160405190810160405280929190818152602001828054610b7f90614d7d565b8015610bcc5780601f10610ba157610100808354040283529160200191610bcc565b820191906000526020600020905b815481529060010190602001808311610baf57829003601f168201915b5050505050905090565b6000610be18261290f565b610c475760405162461bcd60e51b815260206004820152602c60248201527f4552433732313a20617070726f76656420717565727920666f72206e6f6e657860448201526b34b9ba32b73a103a37b5b2b760a11b60648201526084015b60405180910390fd5b506000908152600660205260409020546001600160a01b031690565b6000610c6e8261161d565b9050806001600160a01b0316836001600160a01b03161415610cdc5760405162461bcd60e51b815260206004820152602160248201527f4552433732313a20617070726f76616c20746f2063757272656e74206f776e656044820152603960f91b6064820152608401610c3e565b336001600160a01b0382161480610cf85750610cf88133610a48565b610d6a5760405162461bcd60e51b815260206004820152603860248201527f4552433732313a20617070726f76652063616c6c6572206973206e6f74206f7760448201527f6e6572206e6f7220617070726f76656420666f7220616c6c00000000000000006064820152608401610c3e565b610d74838361292c565b505050565b610d83338261299a565b610d9f5760405162461bcd60e51b8152600401610c3e90614baf565b610d74838383612a84565b60008281526001602090815260408083208151808301909252546001600160a01b038116808352600160a01b9091046001600160601b0316928201929092528291610e1f5750604080518082019091526000546001600160a01b0381168252600160a01b90046001600160601b031660208201525b602081015160009061271090610e3e906001600160601b031687614d1b565b610e489190614d07565b915196919550909350505050565b6000610e61836116ed565b8210610ec35760405162461bcd60e51b815260206004820152602b60248201527f455243373231456e756d657261626c653a206f776e657220696e646578206f7560448201526a74206f6620626f756e647360a81b6064820152608401610c3e565b506001600160a01b03919091166000908152600860209081526040808320938352929052205490565b83610ef68161290f565b6040518060400160405280601081526020016f1b9bd91957db9bdb995e1a5cdd195b9d60821b81525090610f3d5760405162461bcd60e51b8152600401610c3e9190614a65565b50600085815260176020526040902054859060ff16610fff57610f60813361120b565b604051806040016040528060188152602001600080516020614e8183398151915281525090610fa25760405162461bcd60e51b8152600401610c3e9190614a65565b50610fac85612c2b565b610fb68686612c6d565b857f236bb16971ddcd63b572657e5dd00a13bce4f2c2b7edb3d22ba10b0021efedb186868633604051610fec9493929190614aa2565b60405180910390a2610fff868585612cf8565b61100885612c2b565b6110128686612c6d565b857f236bb16971ddcd63b572657e5dd00a13bce4f2c2b7edb3d22ba10b0021efedb1868686336040516110489493929190614aa2565b60405180910390a261105b868585612cf8565b505050505050565b6002600d5414156110b65760405162461bcd60e51b815260206004820152601f60248201527f5265656e7472616e637947756172643a207265656e7472616e742063616c6c006044820152606401610c3e565b6002600d556040516351cff8d960e01b81526001600160a01b0382811660048301527f000000000000000000000000000000000000000000000000000000000000000016906351cff8d990602401600060405180830381600087803b15801561111e57600080fd5b505af1158015611132573d6000803e3d6000fd5b50506001600d55505050565b816111488161290f565b6040518060400160405280601081526020016f1b9bd91957db9bdb995e1a5cdd195b9d60821b8152509061118f5760405162461bcd60e51b8152600401610c3e9190614a65565b5061119b83833361257a565b15610d74576000838152601460209081526040808320858452825280832033808552925291829020805460ff1916905590517f743dd6de0118c934baddbf165685269ac4f51fe0780281fdb64ea7ca8746ceff916111fe91869186918190614c4a565b60405180910390a1505050565b60006112198360008461257a565b8061122b575061122b8360018461257a565b9392505050565b610d7483838360405180602001604052806000815250612032565b816112578161290f565b6040518060400160405280601081526020016f1b9bd91957db9bdb995e1a5cdd195b9d60821b8152509061129e5760405162461bcd60e51b8152600401610c3e9190614a65565b50600083815260176020526040902054839060ff16611352576112c1813361120b565b604051806040016040528060188152602001600080516020614e81833981519152815250906113035760405162461bcd60e51b8152600401610c3e9190614a65565b5061130d83612c2b565b6113178484612c6d565b837f8a98cc625a75c2dc14883da513c5ce302b8ae3422734382fb4edcfddfde37cdf8433604051611349929190614a78565b60405180910390a25b61135b83612c2b565b6113658484612c6d565b837f8a98cc625a75c2dc14883da513c5ce302b8ae3422734382fb4edcfddfde37cdf8433604051611397929190614a78565b60405180910390a250505050565b6000610b288261290f565b60006113bb600a5490565b821061141e5760405162461bcd60e51b815260206004820152602c60248201527f455243373231456e756d657261626c653a20676c6f62616c20696e646578206f60448201526b7574206f6620626f756e647360a01b6064820152608401610c3e565b600a828154811061143157611431614e29565b90600052602060002001549050919050565b8061144d8161290f565b6040518060400160405280601081526020016f1b9bd91957db9bdb995e1a5cdd195b9d60821b815250906114945760405162461bcd60e51b8152600401610c3e9190614a65565b5081336114a08261161d565b6001600160a01b031614604051806040016040528060188152602001600080516020614e81833981519152815250906114ec5760405162461bcd60e51b8152600401610c3e9190614a65565b50610d7483613308565b6000818152601260205260408120546001600160a01b031680610b285760405162461bcd60e51b815260206004820152601860248201527f4552433732313a20696e76616c696420746f6b656e20494400000000000000006044820152606401610c3e565b82336115668261161d565b6001600160a01b031614604051806040016040528060188152602001600080516020614e81833981519152815250906115b25760405162461bcd60e51b8152600401610c3e9190614a65565b5083336115be826114f6565b6001600160a01b031614604051806040016040528060188152602001600080516020614e818339815191528152509061160a5760405162461bcd60e51b8152600401610c3e9190614a65565b50611616858585613311565b5050505050565b6000818152600460205260408120546001600160a01b031680610b285760405162461bcd60e51b815260206004820152602960248201527f4552433732313a206f776e657220717565727920666f72206e6f6e657869737460448201526832b73a103a37b5b2b760b91b6064820152608401610c3e565b6000816040516020016116a791906149ab565b60405160208183030381529060405280519060200120836040516020016116ce91906149ab565b6040516020818303038152906040528051906020012014905092915050565b60006001600160a01b0382166117585760405162461bcd60e51b815260206004820152602a60248201527f4552433732313a2062616c616e636520717565727920666f7220746865207a65604482015269726f206164647265737360b01b6064820152608401610c3e565b506001600160a01b031660009081526005602052604090205490565b61177c6127f3565b600e55565b6117896127f3565b7f00000000000000000000000000000000000000000000000000000000000000006001600160a01b031663f340fa01476117c1610b0c565b6040516001600160e01b031960e085901b1681526001600160a01b0390911660048201526024016000604051808303818588803b15801561180157600080fd5b505af1158015611616573d6000803e3d6000fd5b80336118208261161d565b6001600160a01b031614604051806040016040528060188152602001600080516020614e818339815191528152509061186c5760405162461bcd60e51b8152600401610c3e9190614a65565b508133611878826114f6565b6001600160a01b031614604051806040016040528060188152602001600080516020614e81833981519152815250906118c45760405162461bcd60e51b8152600401610c3e9190614a65565b505050600090815260016020526040812055565b606060038054610b5390614d7d565b816118f18161290f565b6040518060400160405280601081526020016f1b9bd91957db9bdb995e1a5cdd195b9d60821b815250906119385760405162461bcd60e51b8152600401610c3e9190614a65565b50816119438161290f565b6040518060400160405280601081526020016f1b9bd91957db9bdb995e1a5cdd195b9d60821b8152509061198a5760405162461bcd60e51b8152600401610c3e9190614a65565b5060008481526017602052604081205485919060ff16611b75576119af82823361257a565b604051806040016040528060188152602001600080516020614e81833981519152815250906119f15760405162461bcd60e51b8152600401610c3e9190614a65565b506040805180820190915260148152733932b1bab939b4bb32afb232b632b3b0ba34b7b760611b602082015286861415611a3e5760405162461bcd60e51b8152600401610c3e9190614a65565b506000858152601560205260409020611a56906133dc565b6040805180820190915260148152733932b1bab939b4bb32afb232b632b3b0ba34b7b760611b60208201529015611aa05760405162461bcd60e51b8152600401610c3e9190614a65565b506000868152601660205260409020611ab8906133dc565b6040805180820190915260148152733932b1bab939b4bb32afb232b632b3b0ba34b7b760611b60208201529015611b025760405162461bcd60e51b8152600401610c3e9190614a65565b506000868152601560205260409020611b1b90866133e6565b506000858152601660205260409020611b3490876133e6565b506040805187815260208101879052338183015290517ff756463748eb0d59b8dea527a9a6d0c7e1b813913b25797ba5d3603892b207049181900360600190a15b6040805180820190915260148152733932b1bab939b4bb32afb232b632b3b0ba34b7b760611b602082015286861415611bc15760405162461bcd60e51b8152600401610c3e9190614a65565b506000858152601560205260409020611bd9906133dc565b6040805180820190915260148152733932b1bab939b4bb32afb232b632b3b0ba34b7b760611b60208201529015611c235760405162461bcd60e51b8152600401610c3e9190614a65565b506000868152601660205260409020611c3b906133dc565b6040805180820190915260148152733932b1bab939b4bb32afb232b632b3b0ba34b7b760611b60208201529015611c855760405162461bcd60e51b8152600401610c3e9190614a65565b506000868152601560205260409020611c9e90866133e6565b506000858152601660205260409020611cb790876133e6565b507ff756463748eb0d59b8dea527a9a6d0c7e1b813913b25797ba5d3603892b207048686335b6040805193845260208401929092526001600160a01b0316908201526060015b60405180910390a1505050505050565b82611d178161290f565b6040518060400160405280601081526020016f1b9bd91957db9bdb995e1a5cdd195b9d60821b81525090611d5e5760405162461bcd60e51b8152600401610c3e9190614a65565b5060008481526017602052604081205485919060ff16611e4657611d8382823361257a565b604051806040016040528060188152602001600080516020614e8183398151915281525090611dc55760405162461bcd60e51b8152600401610c3e9190614a65565b50611dd186868661257a565b15611e4657600086815260146020908152604080832088845282528083206001600160a01b03881684529091529020805460ff191690557f743dd6de0118c934baddbf165685269ac4f51fe0780281fdb64ea7ca8746ceff86868633604051611e3d9493929190614c4a565b60405180910390a15b611e5186868661257a565b1561105b57600086815260146020908152604080832088845282528083206001600160a01b03881684529091529020805460ff191690557f743dd6de0118c934baddbf165685269ac4f51fe0780281fdb64ea7ca8746ceff868686335b604051611cfd9493929190614c4a565b610b403383836133f2565b611ed58260003361257a565b604051806040016040528060188152602001600080516020614e8183398151915281525090611f175760405162461bcd60e51b8152600401610c3e9190614a65565b506000828152601760205260409020805460ff19168215151790557fe0b4110a3baee4f696784af62abd29a66eaa57537c9d08b1e88efa87c846180c8282336040805193845291151560208401526001600160a01b03169082015260600160405180910390a15050565b8133611f8c8261161d565b6001600160a01b031614604051806040016040528060188152602001600080516020614e8183398151915281525090611fd85760405162461bcd60e51b8152600401610c3e9190614a65565b5060008381526013602052604090208290557f1f0ddf3115a5d0fceb59847eee42b4335f88b04f1d62262da57189e7432a7d6a8383336040805193845260208401929092526001600160a01b0316908201526060016111fe565b61203c338361299a565b6120585760405162461bcd60e51b8152600401610c3e90614baf565b612064848484846134c1565b50505050565b6060612075826134f4565b60405160200161208591906149f6565b6040516020818303038152906040529050919050565b84604051806040016040528060018152602001605f60f81b8152506120c08282613672565b156040518060400160405280600f81526020016e72657365727665645f737472696e6760881b815250906121075760405162461bcd60e51b8152600401610c3e9190614a65565b5061211187612c2b565b61211a86612c2b565b612128600f80546001019055565b6000612133600f5490565b9050807e87cb72211b7017110b6e2676b860d8bc248f2161d7a6abac1896f0fc1e428b898989893360405161216c959493929190614af5565b60405180910390a261217e3382613738565b6121888188612c6d565b60008181526013602090815260408083208390556012825280832080546001600160a01b03191633908117909155601483528184208480528352818420818552909252808320805460ff19166001179055517f3f9759be566576e968397b016ea9843c3e1d19bf1f59ae53cdfbd3b1a6914070926122099285928190614c4a565b60405180910390a160005b8451811015612252576122408286838151811061223357612233614e29565b60200260200101516118e7565b8061224a81614db8565b915050612214565b50600e54156122ef577f00000000000000000000000000000000000000000000000000000000000000006001600160a01b031663f340fa01600e54612295610b0c565b6040516001600160e01b031960e085901b1681526001600160a01b0390911660048201526024016000604051808303818588803b1580156122d557600080fd5b505af11580156122e9573d6000803e3d6000fd5b50505050505b6122fa818787612cf8565b5050505050505050565b8161230e8161290f565b6040518060400160405280601081526020016f1b9bd91957db9bdb995e1a5cdd195b9d60821b815250906123555760405162461bcd60e51b8152600401610c3e9190614a65565b50816123608161290f565b6040518060400160405280601081526020016f1b9bd91957db9bdb995e1a5cdd195b9d60821b815250906123a75760405162461bcd60e51b8152600401610c3e9190614a65565b5060008481526017602052604081205485919060ff16612481576123cc82823361257a565b604051806040016040528060188152602001600080516020614e818339815191528152509061240e5760405162461bcd60e51b8152600401610c3e9190614a65565b5060008681526015602052604090206124279086613752565b5060008581526016602052604090206124409087613752565b506040805187815260208101879052338183015290517fe90abaaba0ad946d1629928fb2d2e7c2c3dbac7b21e98a78cf777e1e87ef80389181900360600190a15b60008681526015602052604090206124999086613752565b5060008581526016602052604090206124b29087613752565b507fe90abaaba0ad946d1629928fb2d2e7c2c3dbac7b21e98a78cf777e1e87ef8038868633611cdd565b6040516371d4ed8d60e11b81526001600160a01b0382811660048301526000917f00000000000000000000000000000000000000000000000000000000000000009091169063e3a9db1a9060240160206040518083038186803b15801561254257600080fd5b505afa158015612556573d6000803e3d6000fd5b505050506040513d601f19601f82011682018060405250810190610b289190614759565b600083815260146020908152604080832085845282528083206001600160a01b038516845290915281205460ff16156125b55750600161122b565b60005b60008581526015602052604090206125cf906133dc565b81101561261a5760008581526015602052604090206125f9906125f2908361375e565b858561257a565b1561260857600191505061122b565b8061261281614db8565b9150506125b8565b506000949350505050565b8261262f8161290f565b6040518060400160405280601081526020016f1b9bd91957db9bdb995e1a5cdd195b9d60821b815250906126765760405162461bcd60e51b8152600401610c3e9190614a65565b5060008481526017602052604081205485919060ff166127665761269b82823361257a565b604051806040016040528060188152602001600080516020614e81833981519152815250906126dd5760405162461bcd60e51b8152600401610c3e9190614a65565b506126e986868661257a565b61276657600086815260146020908152604080832088845282528083206001600160a01b03881684529091529020805460ff191660011790557f3f9759be566576e968397b016ea9843c3e1d19bf1f59ae53cdfbd3b1a691407086868661274d3390565b60405161275d9493929190614c4a565b60405180910390a15b61277186868661257a565b61105b57600086815260146020908152604080832088845282528083206001600160a01b03881684529091529020805460ff191660011790557f3f9759be566576e968397b016ea9843c3e1d19bf1f59ae53cdfbd3b1a6914070868686611eae3390565b6127dd6127f3565b6127e660008055565b565b6000610b288261376a565b336127fc610b0c565b6001600160a01b031614604051806040016040528060158152602001741bdb9b1e57dc1c9bdd1bd8dbdb17dcdd195dd85c99605a1b815250906128525760405162461bcd60e51b8152600401610c3e9190614a65565b50565b6127106001600160601b03821611156128805760405162461bcd60e51b8152600401610c3e90614c00565b6001600160a01b0382166128d65760405162461bcd60e51b815260206004820152601960248201527f455243323938313a20696e76616c6964207265636569766572000000000000006044820152606401610c3e565b604080518082019091526001600160a01b039092168083526001600160601b039091166020909201829052600160a01b90910217600055565b6000908152600460205260409020546001600160a01b0316151590565b600081815260066020526040902080546001600160a01b0319166001600160a01b03841690811790915581906129618261161d565b6001600160a01b03167f8c5be1e5ebec7d5bd14f71427d1e84f3dd0314c0f7b2291e5b200ac8c7c3b92560405160405180910390a45050565b60006129a58261290f565b612a065760405162461bcd60e51b815260206004820152602c60248201527f4552433732313a206f70657261746f7220717565727920666f72206e6f6e657860448201526b34b9ba32b73a103a37b5b2b760a11b6064820152608401610c3e565b6000612a118361161d565b9050806001600160a01b0316846001600160a01b03161480612a5857506001600160a01b0380821660009081526007602090815260408083209388168352929052205460ff165b80612a7c5750836001600160a01b0316612a7184610bd6565b6001600160a01b0316145b949350505050565b826001600160a01b0316612a978261161d565b6001600160a01b031614612afb5760405162461bcd60e51b815260206004820152602560248201527f4552433732313a207472616e736665722066726f6d20696e636f72726563742060448201526437bbb732b960d91b6064820152608401610c3e565b6001600160a01b038216612b5d5760405162461bcd60e51b8152602060048201526024808201527f4552433732313a207472616e7366657220746f20746865207a65726f206164646044820152637265737360e01b6064820152608401610c3e565b612b6883838361378f565b612b7360008261292c565b6001600160a01b0383166000908152600560205260408120805460019290612b9c908490614d3a565b90915550506001600160a01b0382166000908152600560205260408120805460019290612bca908490614cef565b909155505060008181526004602052604080822080546001600160a01b0319166001600160a01b0386811691821790925591518493918716917fddf252ad1be2c89b69c2b068fc378daa952ba7f163c4a11628f55a4df523b3ef91a4505050565b60008151116128525760405162461bcd60e51b815260206004820152600e60248201526d696e76616c69645f737472696e6760901b6044820152606401610c3e565b612c768261290f565b612cd95760405162461bcd60e51b815260206004820152602e60248201527f45524337323155524953746f726167653a2055524920736574206f66206e6f6e60448201526d32bc34b9ba32b73a103a37b5b2b760911b6064820152608401610c3e565b6000828152600c602090815260409091208251610d749284019061413f565b60005b8251811015612f13576000838281518110612d1857612d18614e29565b60200260200101519050612d2f816000015161290f565b6040518060400160405280601081526020016f1b9bd91957db9bdb995e1a5cdd195b9d60821b81525090612d765760405162461bcd60e51b8152600401610c3e9190614a65565b50612d9e8160200151604051806040016040528060018152602001605f60f81b815250613672565b156040518060400160405280600f81526020016e72657365727665645f737472696e6760881b81525090612de55760405162461bcd60e51b8152600401610c3e9190614a65565b5080516000908152601360205260408120549050612e0433835161299a565b158015612e1a57508151612e18903361120b565b155b8015612e265750600081115b8015612e48575081516000878152601060205260409020612e469161379a565b155b15612ee4577f00000000000000000000000000000000000000000000000000000000000000006001600160a01b031663f340fa0182612e8a856000015161161d565b6040516001600160e01b031960e085901b1681526001600160a01b0390911660048201526024016000604051808303818588803b158015612eca57600080fd5b505af1158015612ede573d6000803e3d6000fd5b50505050505b81516000878152601060205260409020612efd916133e6565b5050508080612f0b90614db8565b915050612cfb565b50600083815260116020908152604080832080548251818502810185019093528083529192909190849084015b8282101561300e578382906000526020600020906002020160405180604001604052908160008201548152602001600182018054612f7d90614d7d565b80601f0160208091040260200160405190810160405280929190818152602001828054612fa990614d7d565b8015612ff65780601f10612fcb57610100808354040283529160200191612ff6565b820191906000526020600020905b815481529060010190602001808311612fd957829003601f168201915b50505050508152505081526020019060010190612f40565b505050600086815260116020526040812092935061302d9291506141c3565b60005b82518110156131e757600083828151811061304d5761304d614e29565b60200260200101519050613064816000015161290f565b6040518060400160405280601081526020016f1b9bd91957db9bdb995e1a5cdd195b9d60821b815250906130ab5760405162461bcd60e51b8152600401610c3e9190614a65565b506000805b84518110156131185760008582815181106130cd576130cd614e29565b60200260200101519050836000015181600001511480156130fb57506130fb81602001518560200151611694565b1561310557600192505b508061311081614db8565b9150506130b0565b50801580156131385750815160009081526017602052604090205460ff16155b1561318d578151613149903361120b565b604051806040016040528060188152602001600080516020614e818339815191528152509061318b5760405162461bcd60e51b8152600401610c3e9190614a65565b505b600087815260116020908152604082208054600181810183559184529282902085516002909402019283558482015180518694936131cf93850192019061413f565b505050505080806131df90614db8565b915050613030565b5060005b815181101561161657600082828151811061320857613208614e29565b602002602001015190506000805b855181101561327e57600086828151811061323357613233614e29565b6020026020010151905080600001518460000151148015613261575061326184602001518260200151611694565b1561326b57600192505b508061327681614db8565b915050613216565b508015801561329e5750815160009081526017602052604090205460ff16155b156132f35781516132af903361120b565b604051806040016040528060188152602001600080516020614e81833981519152815250906132f15760405162461bcd60e51b8152600401610c3e9190614a65565b505b5050808061330090614db8565b9150506131eb565b612852816137b2565b6127106001600160601b038216111561333c5760405162461bcd60e51b8152600401610c3e90614c00565b6001600160a01b0382166133925760405162461bcd60e51b815260206004820152601b60248201527f455243323938313a20496e76616c696420706172616d657465727300000000006044820152606401610c3e565b6040805180820182526001600160a01b0393841681526001600160601b0392831660208083019182526000968752600190529190942093519051909116600160a01b029116179055565b6000610b28825490565b600061122b83836137cc565b816001600160a01b0316836001600160a01b031614156134545760405162461bcd60e51b815260206004820152601960248201527f4552433732313a20617070726f766520746f2063616c6c6572000000000000006044820152606401610c3e565b6001600160a01b03838116600081815260076020908152604080832094871680845294825291829020805460ff191686151590811790915591519182527f17307eab39ab6107e8899845ad3d59bd9653f200f220920489ca2b5937696c31910160405180910390a3505050565b6134cc848484612a84565b6134d88484848461381b565b6120645760405162461bcd60e51b8152600401610c3e90614b5d565b60606134ff8261290f565b6135655760405162461bcd60e51b815260206004820152603160248201527f45524337323155524953746f726167653a2055524920717565727920666f72206044820152703737b732bc34b9ba32b73a103a37b5b2b760791b6064820152608401610c3e565b6000828152600c60205260408120805461357e90614d7d565b80601f01602080910402602001604051908101604052809291908181526020018280546135aa90614d7d565b80156135f75780601f106135cc576101008083540402835291602001916135f7565b820191906000526020600020905b8154815290600101906020018083116135da57829003601f168201915b505050505090506000613624604080518082019091526007815266697066733a2f2f60c81b602082015290565b9050805160001415613637575092915050565b8151156136695780826040516020016136519291906149c7565b60405160208183030381529060405292505050919050565b612a7c84613928565b805182516000918391859111156136bc5760405162461bcd60e51b815260206004820152600e60248201526d696e76616c69645f737472696e6760901b6044820152606401610c3e565b600160005b835181101561372e578381815181106136dc576136dc614e29565b602001015160f81c60f81b6001600160f81b03191683828151811061370357613703614e29565b01602001516001600160f81b0319161461371c57600091505b8061372681614db8565b9150506136c1565b5095945050505050565b610b40828260405180602001604052806000815250613a0e565b600061122b8383613a41565b600061122b8383613b34565b60006001600160e01b0319821663780e9d6360e01b1480610b285750610b2882613b5e565b610d74838383613b9e565b6000818152600183016020526040812054151561122b565b6137bb81613c56565b600090815260016020526040812055565b600081815260018301602052604081205461381357508154600181810184556000848152602080822090930184905584548482528286019093526040902091909155610b28565b506000610b28565b60006001600160a01b0384163b1561391d57604051630a85bd0160e11b81526001600160a01b0385169063150b7a029061385f903390899088908890600401614a28565b602060405180830381600087803b15801561387957600080fd5b505af19250505080156138a9575060408051601f3d908101601f191682019092526138a6918101906145ed565b60015b613903573d8080156138d7576040519150601f19603f3d011682016040523d82523d6000602084013e6138dc565b606091505b5080516138fb5760405162461bcd60e51b8152600401610c3e90614b5d565b805181602001fd5b6001600160e01b031916630a85bd0160e11b149050612a7c565b506001949350505050565b60606139338261290f565b6139975760405162461bcd60e51b815260206004820152602f60248201527f4552433732314d657461646174613a2055524920717565727920666f72206e6f60448201526e3732bc34b9ba32b73a103a37b5b2b760891b6064820152608401610c3e565b60006139bd604080518082019091526007815266697066733a2f2f60c81b602082015290565b905060008151116139dd576040518060200160405280600081525061122b565b806139e784613c96565b6040516020016139f89291906149c7565b6040516020818303038152906040529392505050565b613a188383613d94565b613a25600084848461381b565b610d745760405162461bcd60e51b8152600401610c3e90614b5d565b60008181526001830160205260408120548015613b2a576000613a65600183614d3a565b8554909150600090613a7990600190614d3a565b9050818114613ade576000866000018281548110613a9957613a99614e29565b9060005260206000200154905080876000018481548110613abc57613abc614e29565b6000918252602080832090910192909255918252600188019052604090208390555b8554869080613aef57613aef614e13565b600190038181906000526020600020016000905590558560010160008681526020019081526020016000206000905560019350505050610b28565b6000915050610b28565b6000826000018281548110613b4b57613b4b614e29565b9060005260206000200154905092915050565b60006001600160e01b031982166380ac58cd60e01b1480613b8f57506001600160e01b03198216635b5e139f60e01b145b80610b285750610b2882613ed3565b6001600160a01b038316613bf957613bf481600a80546000838152600b60205260408120829055600182018355919091527fc65a7bb8d6351c1cf70c95a316cc6a92839c986682d98bc35f958f4883f9d2a80155565b613c1c565b816001600160a01b0316836001600160a01b031614613c1c57613c1c8382613f08565b6001600160a01b038216613c3357610d7481613fa5565b826001600160a01b0316826001600160a01b031614610d7457610d748282614054565b613c5f81614098565b6000818152600c602052604090208054613c7890614d7d565b159050612852576000818152600c60205260408120612852916141e4565b606081613cba5750506040805180820190915260018152600360fc1b602082015290565b8160005b8115613ce45780613cce81614db8565b9150613cdd9050600a83614d07565b9150613cbe565b60008167ffffffffffffffff811115613cff57613cff614e3f565b6040519080825280601f01601f191660200182016040528015613d29576020820181803683370190505b5090505b8415612a7c57613d3e600183614d3a565b9150613d4b600a86614dd3565b613d56906030614cef565b60f81b818381518110613d6b57613d6b614e29565b60200101906001600160f81b031916908160001a905350613d8d600a86614d07565b9450613d2d565b6001600160a01b038216613dea5760405162461bcd60e51b815260206004820181905260248201527f4552433732313a206d696e7420746f20746865207a65726f20616464726573736044820152606401610c3e565b613df38161290f565b15613e405760405162461bcd60e51b815260206004820152601c60248201527f4552433732313a20746f6b656e20616c7265616479206d696e746564000000006044820152606401610c3e565b613e4c6000838361378f565b6001600160a01b0382166000908152600560205260408120805460019290613e75908490614cef565b909155505060008181526004602052604080822080546001600160a01b0319166001600160a01b03861690811790915590518392907fddf252ad1be2c89b69c2b068fc378daa952ba7f163c4a11628f55a4df523b3ef908290a45050565b60006001600160e01b0319821663152a902d60e11b1480610b2857506301ffc9a760e01b6001600160e01b0319831614610b28565b60006001613f15846116ed565b613f1f9190614d3a565b600083815260096020526040902054909150808214613f72576001600160a01b03841660009081526008602090815260408083208584528252808320548484528184208190558352600990915290208190555b5060009182526009602090815260408084208490556001600160a01b039094168352600881528383209183525290812055565b600a54600090613fb790600190614d3a565b6000838152600b6020526040812054600a8054939450909284908110613fdf57613fdf614e29565b9060005260206000200154905080600a838154811061400057614000614e29565b6000918252602080832090910192909255828152600b9091526040808220849055858252812055600a80548061403857614038614e13565b6001900381819060005260206000200160009055905550505050565b600061405f836116ed565b6001600160a01b039093166000908152600860209081526040808320868452825280832085905593825260099052919091209190915550565b60006140a38261161d565b90506140b18160008461378f565b6140bc60008361292c565b6001600160a01b03811660009081526005602052604081208054600192906140e5908490614d3a565b909155505060008281526004602052604080822080546001600160a01b0319169055518391906001600160a01b038416907fddf252ad1be2c89b69c2b068fc378daa952ba7f163c4a11628f55a4df523b3ef908390a45050565b82805461414b90614d7d565b90600052602060002090601f01602090048101928261416d57600085556141b3565b82601f1061418657805160ff19168380011785556141b3565b828001600101855582156141b3579182015b828111156141b3578251825591602001919060010190614198565b506141bf92915061421a565b5090565b5080546000825560020290600052602060002090810190612852919061422f565b5080546141f090614d7d565b6000825580601f10614200575050565b601f01602090049060005260206000209081019061285291905b5b808211156141bf576000815560010161421b565b808211156141bf57600080825561424960018301826141e4565b5060020161422f565b600067ffffffffffffffff83111561426c5761426c614e3f565b61427f601f8401601f1916602001614c9a565b905082815283838301111561429357600080fd5b828260208301376000602084830101529392505050565b600082601f8301126142bb57600080fd5b813560206142d06142cb83614ccb565b614c9a565b80838252828201915082860187848660051b89010111156142f057600080fd5b60005b8581101561437357813567ffffffffffffffff8082111561431357600080fd5b908901906040828c03601f190181131561432c57600080fd5b614334614c71565b83890135815290830135908282111561434c57600080fd5b61435a8d8a848701016143f5565b818a0152875250505092840192908401906001016142f3565b5090979650505050505050565b600082601f83011261439157600080fd5b813560206143a16142cb83614ccb565b80838252828201915082860187848660051b89010111156143c157600080fd5b60005b85811015614373578135845292840192908401906001016143c4565b803580151581146143f057600080fd5b919050565b600082601f83011261440657600080fd5b61122b83833560208501614252565b80356001600160601b03811681146143f057600080fd5b60006020828403121561443e57600080fd5b813561122b81614e55565b6000806040838503121561445c57600080fd5b823561446781614e55565b9150602083013561447781614e55565b809150509250929050565b60008060006060848603121561449757600080fd5b83356144a281614e55565b925060208401356144b281614e55565b929592945050506040919091013590565b600080600080608085870312156144d957600080fd5b84356144e481614e55565b935060208501356144f481614e55565b925060408501359150606085013567ffffffffffffffff81111561451757600080fd5b8501601f8101871361452857600080fd5b61453787823560208401614252565b91505092959194509250565b6000806040838503121561455657600080fd5b823561456181614e55565b915061456f602084016143e0565b90509250929050565b6000806040838503121561458b57600080fd5b823561459681614e55565b946020939093013593505050565b600080604083850312156145b757600080fd5b82356145c281614e55565b915061456f60208401614415565b6000602082840312156145e257600080fd5b813561122b81614e6a565b6000602082840312156145ff57600080fd5b815161122b81614e6a565b6000806040838503121561461d57600080fd5b823567ffffffffffffffff8082111561463557600080fd5b614641868387016143f5565b9350602085013591508082111561465757600080fd5b50614664858286016143f5565b9150509250929050565b600080600080600060a0868803121561468657600080fd5b853567ffffffffffffffff8082111561469e57600080fd5b6146aa89838a016143f5565b965060208801359150808211156146c057600080fd5b6146cc89838a016143f5565b955060408801359150808211156146e257600080fd5b6146ee89838a016142aa565b9450606088013591508082111561470457600080fd5b61471089838a016142aa565b9350608088013591508082111561472657600080fd5b5061473388828901614380565b9150509295509295909350565b60006020828403121561475257600080fd5b5035919050565b60006020828403121561476b57600080fd5b5051919050565b6000806040838503121561478557600080fd5b82359150602083013561447781614e55565b6000806000606084860312156147ac57600080fd5b8335925060208401356147be81614e55565b91506147cc60408501614415565b90509250925092565b600080604083850312156147e857600080fd5b8235915061456f602084016143e0565b6000806040838503121561480b57600080fd5b82359150602083013567ffffffffffffffff81111561482957600080fd5b614664858286016143f5565b6000806000806080858703121561484b57600080fd5b84359350602085013567ffffffffffffffff8082111561486a57600080fd5b614876888389016143f5565b9450604087013591508082111561488c57600080fd5b614898888389016142aa565b935060608701359150808211156148ae57600080fd5b50614537878288016142aa565b600080604083850312156148ce57600080fd5b50508035926020909101359150565b6000806000606084860312156148f257600080fd5b8335925060208401359150604084013561490b81614e55565b809150509250925092565b600081518084526020808501808196508360051b8101915082860160005b85811015614972578284038952815180518552850151604086860181905261495e8187018361497f565b9a87019a9550505090840190600101614934565b5091979650505050505050565b60008151808452614997816020860160208601614d51565b601f01601f19169290920160200192915050565b600082516149bd818460208701614d51565b9190910192915050565b600083516149d9818460208801614d51565b8351908301906149ed818360208801614d51565b01949350505050565b60008251614a08818460208701614d51565b6d17b6b2ba30b230ba30973539b7b760911b920191825250600e01919050565b6001600160a01b0385811682528416602082015260408101839052608060608201819052600090614a5b9083018461497f565b9695505050505050565b60208152600061122b602083018461497f565b604081526000614a8b604083018561497f565b905060018060a01b03831660208301529392505050565b608081526000614ab5608083018761497f565b8281036020840152614ac78187614916565b90508281036040840152614adb8186614916565b91505060018060a01b038316606083015295945050505050565b60a081526000614b0860a083018861497f565b8281036020840152614b1a818861497f565b90508281036040840152614b2e8187614916565b90508281036060840152614b428186614916565b91505060018060a01b03831660808301529695505050505050565b60208082526032908201527f4552433732313a207472616e7366657220746f206e6f6e20455243373231526560408201527131b2b4bb32b91034b6b83632b6b2b73a32b960711b606082015260800190565b60208082526031908201527f4552433732313a207472616e736665722063616c6c6572206973206e6f74206f6040820152701ddb995c881b9bdc88185c1c1c9bdd9959607a1b606082015260800190565b6020808252602a908201527f455243323938313a20726f79616c7479206665652077696c6c206578636565646040820152692073616c65507269636560b01b606082015260800190565b93845260208401929092526001600160a01b03908116604084015216606082015260800190565b6040805190810167ffffffffffffffff81118282101715614c9457614c94614e3f565b60405290565b604051601f8201601f1916810167ffffffffffffffff81118282101715614cc357614cc3614e3f565b604052919050565b600067ffffffffffffffff821115614ce557614ce5614e3f565b5060051b60200190565b60008219821115614d0257614d02614de7565b500190565b600082614d1657614d16614dfd565b500490565b6000816000190483118215151615614d3557614d35614de7565b500290565b600082821015614d4c57614d4c614de7565b500390565b60005b83811015614d6c578181015183820152602001614d54565b838111156120645750506000910152565b600181811c90821680614d9157607f821691505b60208210811415614db257634e487b7160e01b600052602260045260246000fd5b50919050565b6000600019821415614dcc57614dcc614de7565b5060010190565b600082614de257614de2614dfd565b500690565b634e487b7160e01b600052601160045260246000fd5b634e487b7160e01b600052601260045260246000fd5b634e487b7160e01b600052603160045260246000fd5b634e487b7160e01b600052603260045260246000fd5b634e487b7160e01b600052604160045260246000fd5b6001600160a01b038116811461285257600080fd5b6001600160e01b03198116811461285257600080fdfe696e73756666696369656e745f7065726d697373696f6e730000000000000000a2646970667358221220b8e1ddadfd416f699ac7c1a9ce563c858e28823002e927e31679e7e98420326364736f6c63430008070033608060405234801561001057600080fd5b5061001a3361001f565b61006f565b600080546001600160a01b038381166001600160a01b0319831681178455604051919092169283917f8be0079c531659141344cd1fd0a4f28419497f9722a3daafe3b4186f6b6457e09190a35050565b6105748061007e6000396000f3fe6080604052600436106100555760003560e01c806351cff8d91461005a578063715018a61461007c5780638da5cb5b14610091578063e3a9db1a146100be578063f2fde38b14610102578063f340fa0114610122575b600080fd5b34801561006657600080fd5b5061007a6100753660046104aa565b610135565b005b34801561008857600080fd5b5061007a6101d7565b34801561009d57600080fd5b506000546040516001600160a01b0390911681526020015b60405180910390f35b3480156100ca57600080fd5b506100f46100d93660046104aa565b6001600160a01b031660009081526001602052604090205490565b6040519081526020016100b5565b34801561010e57600080fd5b5061007a61011d3660046104aa565b61020d565b61007a6101303660046104aa565b6102a8565b6000546001600160a01b031633146101685760405162461bcd60e51b815260040161015f906104ce565b60405180910390fd5b6001600160a01b0381166000818152600160205260408120805491905590610190908261033c565b816001600160a01b03167f7084f5476618d8e60b11ef0d7d3f06914655adb8793e28ff7f018d4c76d505d5826040516101cb91815260200190565b60405180910390a25050565b6000546001600160a01b031633146102015760405162461bcd60e51b815260040161015f906104ce565b61020b600061045a565b565b6000546001600160a01b031633146102375760405162461bcd60e51b815260040161015f906104ce565b6001600160a01b03811661029c5760405162461bcd60e51b815260206004820152602660248201527f4f776e61626c653a206e6577206f776e657220697320746865207a65726f206160448201526564647265737360d01b606482015260840161015f565b6102a58161045a565b50565b6000546001600160a01b031633146102d25760405162461bcd60e51b815260040161015f906104ce565b6001600160a01b0381166000908152600160205260408120805434928392916102fc908490610503565b90915550506040518181526001600160a01b038316907f2da466a7b24304f47e87fa2e1e5a81b9831ce54fec19055ce277ca2f39ba42c4906020016101cb565b8047101561038c5760405162461bcd60e51b815260206004820152601d60248201527f416464726573733a20696e73756666696369656e742062616c616e6365000000604482015260640161015f565b6000826001600160a01b03168260405160006040518083038185875af1925050503d80600081146103d9576040519150601f19603f3d011682016040523d82523d6000602084013e6103de565b606091505b50509050806104555760405162461bcd60e51b815260206004820152603a60248201527f416464726573733a20756e61626c6520746f2073656e642076616c75652c207260448201527f6563697069656e74206d61792068617665207265766572746564000000000000606482015260840161015f565b505050565b600080546001600160a01b038381166001600160a01b0319831681178455604051919092169283917f8be0079c531659141344cd1fd0a4f28419497f9722a3daafe3b4186f6b6457e09190a35050565b6000602082840312156104bc57600080fd5b81356104c781610529565b9392505050565b6020808252818101527f4f776e61626c653a2063616c6c6572206973206e6f7420746865206f776e6572604082015260600190565b6000821982111561052457634e487b7160e01b600052601160045260246000fd5b500190565b6001600160a01b03811681146102a557600080fdfea26469706673582212201464ef5ea1e512fc2964c4be04b842d7e31b50876950d68c99bdbf0c1d48c12164736f6c63430008070033",
  "linkReferences": {},
  "deployedLinkReferences": {}
}