{
  "_format": "hh-sol-artifact-1",
  "contractName": "Node",
  "sourceName": "contracts/src/Node.sol",
  "abi": [
    {
      "inputs": [],
      "stateMutability": "nonpayable",
      "type": "constructor"
    },
    {
      "anonymous": false,
      "inputs": [
        {
          "indexed": true,
          "internalType": "address",
          "name": "owner",
          "type": "address"
        },
        {
          "indexed": true,
          "internalType": "address",
          "name": "approved",
          "type": "address"
        },
        {
          "indexed": true,
          "internalType": "uint256",
          "name": "tokenId",
          "type": "uint256"
        }
      ],
      "name": "Approval",
      "type": "event"
    },
    {
      "anonymous": false,
      "inputs": [
        {
          "indexed": true,
          "internalType": "address",
          "name": "owner",
          "type": "address"
        },
        {
          "indexed": true,
          "internalType": "address",
          "name": "operator",
          "type": "address"
        },
        {
          "indexed": false,
          "internalType": "bool",
          "name": "approved",
          "type": "bool"
        }
      ],
      "name": "ApprovalForAll",
      "type": "event"
    },
    {
      "anonymous": false,
      "inputs": [
        {
          "indexed": false,
          "internalType": "uint256",
          "name": "tokenId",
          "type": "uint256"
        },
        {
          "indexed": true,
          "internalType": "uint256",
          "name": "role",
          "type": "uint256"
        },
        {
          "indexed": true,
          "internalType": "address",
          "name": "account",
          "type": "address"
        },
        {
          "indexed": true,
          "internalType": "address",
          "name": "sender",
          "type": "address"
        }
      ],
      "name": "RoleGranted",
      "type": "event"
    },
    {
      "anonymous": false,
      "inputs": [
        {
          "indexed": false,
          "internalType": "uint256",
          "name": "tokenId",
          "type": "uint256"
        },
        {
          "indexed": true,
          "internalType": "uint256",
          "name": "role",
          "type": "uint256"
        },
        {
          "indexed": true,
          "internalType": "address",
          "name": "account",
          "type": "address"
        },
        {
          "indexed": true,
          "internalType": "address",
          "name": "sender",
          "type": "address"
        }
      ],
      "name": "RoleRevoked",
      "type": "event"
    },
    {
      "anonymous": false,
      "inputs": [
        {
          "indexed": true,
          "internalType": "address",
          "name": "from",
          "type": "address"
        },
        {
          "indexed": true,
          "internalType": "address",
          "name": "to",
          "type": "address"
        },
        {
          "indexed": true,
          "internalType": "uint256",
          "name": "tokenId",
          "type": "uint256"
        }
      ],
      "name": "Transfer",
      "type": "event"
    },
    {
      "inputs": [],
      "name": "ADMIN_ROLE",
      "outputs": [
        {
          "internalType": "uint256",
          "name": "",
          "type": "uint256"
        }
      ],
      "stateMutability": "view",
      "type": "function"
    },
    {
      "inputs": [],
      "name": "EDITOR_ROLE",
      "outputs": [
        {
          "internalType": "uint256",
          "name": "",
          "type": "uint256"
        }
      ],
      "stateMutability": "view",
      "type": "function"
    },
    {
      "inputs": [
        {
          "internalType": "address",
          "name": "to",
          "type": "address"
        },
        {
          "internalType": "uint256",
          "name": "tokenId",
          "type": "uint256"
        }
      ],
      "name": "approve",
      "outputs": [],
      "stateMutability": "nonpayable",
      "type": "function"
    },
    {
      "inputs": [
        {
          "internalType": "address",
          "name": "owner",
          "type": "address"
        }
      ],
      "name": "balanceOf",
      "outputs": [
        {
          "internalType": "uint256",
          "name": "",
          "type": "uint256"
        }
      ],
      "stateMutability": "view",
      "type": "function"
    },
    {
      "inputs": [
        {
          "internalType": "uint256",
          "name": "tokenId",
          "type": "uint256"
        }
      ],
      "name": "burn",
      "outputs": [],
      "stateMutability": "nonpayable",
      "type": "function"
    },
    {
      "inputs": [
        {
          "internalType": "uint256",
          "name": "tokenId",
          "type": "uint256"
        },
        {
          "internalType": "address",
          "name": "account",
          "type": "address"
        }
      ],
      "name": "canEdit",
      "outputs": [
        {
          "internalType": "bool",
          "name": "",
          "type": "bool"
        }
      ],
      "stateMutability": "view",
      "type": "function"
    },
    {
      "inputs": [
        {
          "internalType": "uint256",
          "name": "from",
          "type": "uint256"
        },
        {
          "internalType": "uint256",
          "name": "to",
          "type": "uint256"
        }
      ],
      "name": "connectNodes",
      "outputs": [],
      "stateMutability": "nonpayable",
      "type": "function"
    },
    {
      "inputs": [
        {
          "internalType": "uint256",
          "name": "from",
          "type": "uint256"
        },
        {
          "internalType": "uint256",
          "name": "to",
          "type": "uint256"
        }
      ],
      "name": "disconnectNodes",
      "outputs": [],
      "stateMutability": "nonpayable",
      "type": "function"
    },
    {
      "inputs": [
        {
          "internalType": "uint256",
          "name": "tokenId",
          "type": "uint256"
        }
      ],
      "name": "exists",
      "outputs": [
        {
          "internalType": "bool",
          "name": "",
          "type": "bool"
        }
      ],
      "stateMutability": "view",
      "type": "function"
    },
    {
      "inputs": [
        {
          "internalType": "uint256",
          "name": "tokenId",
          "type": "uint256"
        }
      ],
      "name": "getApproved",
      "outputs": [
        {
          "internalType": "address",
          "name": "",
          "type": "address"
        }
      ],
      "stateMutability": "view",
      "type": "function"
    },
    {
      "inputs": [
        {
          "internalType": "uint256",
          "name": "tokenId",
          "type": "uint256"
        },
        {
          "internalType": "string",
          "name": "label",
          "type": "string"
        }
      ],
      "name": "getBacklinkedNodeCountForNodeByLabel",
      "outputs": [
        {
          "internalType": "uint256",
          "name": "",
          "type": "uint256"
        }
      ],
      "stateMutability": "view",
      "type": "function"
    },
    {
      "inputs": [
        {
          "internalType": "uint256",
          "name": "tokenId",
          "type": "uint256"
        },
        {
          "internalType": "string",
          "name": "label",
          "type": "string"
        },
        {
          "internalType": "uint256",
          "name": "index",
          "type": "uint256"
        }
      ],
      "name": "getBacklinkedNodeForNodeByLabelAndIndex",
      "outputs": [
        {
          "internalType": "uint256",
          "name": "",
          "type": "uint256"
        }
      ],
      "stateMutability": "view",
      "type": "function"
    },
    {
      "inputs": [
        {
          "internalType": "uint256",
          "name": "tokenId",
          "type": "uint256"
        },
        {
          "internalType": "string",
          "name": "label",
          "type": "string"
        }
      ],
      "name": "getConnectedNodeCountForNodeByLabel",
      "outputs": [
        {
          "internalType": "uint256",
          "name": "",
          "type": "uint256"
        }
      ],
      "stateMutability": "view",
      "type": "function"
    },
    {
      "inputs": [
        {
          "internalType": "uint256",
          "name": "tokenId",
          "type": "uint256"
        },
        {
          "internalType": "string",
          "name": "label",
          "type": "string"
        },
        {
          "internalType": "uint256",
          "name": "index",
          "type": "uint256"
        }
      ],
      "name": "getConnectedNodeForNodeByLabelAndIndex",
      "outputs": [
        {
          "internalType": "uint256",
          "name": "",
          "type": "uint256"
        }
      ],
      "stateMutability": "view",
      "type": "function"
    },
    {
      "inputs": [
        {
          "internalType": "string",
          "name": "label",
          "type": "string"
        }
      ],
      "name": "getNodeCountForLabel",
      "outputs": [
        {
          "internalType": "uint256",
          "name": "",
          "type": "uint256"
        }
      ],
      "stateMutability": "view",
      "type": "function"
    },
    {
      "inputs": [
        {
          "internalType": "string",
          "name": "label",
          "type": "string"
        },
        {
          "internalType": "uint256",
          "name": "index",
          "type": "uint256"
        }
      ],
      "name": "getNodeForLabelAtIndex",
      "outputs": [
        {
          "internalType": "uint256",
          "name": "",
          "type": "uint256"
        }
      ],
      "stateMutability": "view",
      "type": "function"
    },
    {
      "inputs": [
        {
          "internalType": "uint256",
          "name": "tokenId",
          "type": "uint256"
        },
        {
          "internalType": "uint256",
          "name": "index",
          "type": "uint256"
        }
      ],
      "name": "getRevision",
      "outputs": [
        {
          "components": [
            {
              "internalType": "uint256",
              "name": "timestamp",
              "type": "uint256"
            },
            {
              "internalType": "string",
              "name": "hash",
              "type": "string"
            }
          ],
          "internalType": "struct Base.Revision",
          "name": "",
          "type": "tuple"
        }
      ],
      "stateMutability": "view",
      "type": "function"
    },
    {
      "inputs": [
        {
          "internalType": "uint256",
          "name": "tokenId",
          "type": "uint256"
        }
      ],
      "name": "getRevisionCount",
      "outputs": [
        {
          "internalType": "uint256",
          "name": "",
          "type": "uint256"
        }
      ],
      "stateMutability": "view",
      "type": "function"
    },
    {
      "inputs": [
        {
          "internalType": "uint256",
          "name": "tokenId",
          "type": "uint256"
        },
        {
          "internalType": "uint256",
          "name": "role",
          "type": "uint256"
        },
        {
          "internalType": "uint256",
          "name": "index",
          "type": "uint256"
        }
      ],
      "name": "getRoleMember",
      "outputs": [
        {
          "internalType": "address",
          "name": "",
          "type": "address"
        }
      ],
      "stateMutability": "view",
      "type": "function"
    },
    {
      "inputs": [
        {
          "internalType": "uint256",
          "name": "tokenId",
          "type": "uint256"
        },
        {
          "internalType": "uint256",
          "name": "role",
          "type": "uint256"
        }
      ],
      "name": "getRoleMemberCount",
      "outputs": [
        {
          "internalType": "uint256",
          "name": "",
          "type": "uint256"
        }
      ],
      "stateMutability": "view",
      "type": "function"
    },
    {
      "inputs": [
        {
          "internalType": "uint256",
          "name": "tokenId",
          "type": "uint256"
        },
        {
          "internalType": "uint256",
          "name": "role",
          "type": "uint256"
        },
        {
          "internalType": "address",
          "name": "account",
          "type": "address"
        }
      ],
      "name": "grantRole",
      "outputs": [],
      "stateMutability": "nonpayable",
      "type": "function"
    },
    {
      "inputs": [
        {
          "internalType": "uint256",
          "name": "tokenId",
          "type": "uint256"
        },
        {
          "internalType": "uint256",
          "name": "role",
          "type": "uint256"
        },
        {
          "internalType": "address",
          "name": "account",
          "type": "address"
        }
      ],
      "name": "hasRole",
      "outputs": [
        {
          "internalType": "bool",
          "name": "",
          "type": "bool"
        }
      ],
      "stateMutability": "view",
      "type": "function"
    },
    {
      "inputs": [
        {
          "internalType": "address",
          "name": "owner",
          "type": "address"
        },
        {
          "internalType": "address",
          "name": "operator",
          "type": "address"
        }
      ],
      "name": "isApprovedForAll",
      "outputs": [
        {
          "internalType": "bool",
          "name": "",
          "type": "bool"
        }
      ],
      "stateMutability": "view",
      "type": "function"
    },
    {
      "inputs": [
        {
          "internalType": "uint256",
          "name": "tokenId",
          "type": "uint256"
        }
      ],
      "name": "labelFor",
      "outputs": [
        {
          "internalType": "string",
          "name": "",
          "type": "string"
        }
      ],
      "stateMutability": "view",
      "type": "function"
    },
    {
      "inputs": [
        {
          "internalType": "uint256",
          "name": "tokenId",
          "type": "uint256"
        },
        {
          "internalType": "string",
          "name": "hash",
          "type": "string"
        }
      ],
      "name": "makeRevision",
      "outputs": [],
      "stateMutability": "nonpayable",
      "type": "function"
    },
    {
      "inputs": [
        {
          "internalType": "string",
          "name": "hash",
          "type": "string"
        }
      ],
      "name": "mint",
      "outputs": [
        {
          "internalType": "uint256",
          "name": "",
          "type": "uint256"
        }
      ],
      "stateMutability": "nonpayable",
      "type": "function"
    },
    {
      "inputs": [
        {
          "internalType": "string",
          "name": "label",
          "type": "string"
        },
        {
          "internalType": "string",
          "name": "hash",
          "type": "string"
        },
        {
          "internalType": "uint256[]",
          "name": "fromConnections",
          "type": "uint256[]"
        },
        {
          "internalType": "uint256[]",
          "name": "toConnections",
          "type": "uint256[]"
        }
      ],
      "name": "mintNode",
      "outputs": [],
      "stateMutability": "nonpayable",
      "type": "function"
    },
    {
      "inputs": [],
      "name": "name",
      "outputs": [
        {
          "internalType": "string",
          "name": "",
          "type": "string"
        }
      ],
      "stateMutability": "view",
      "type": "function"
    },
    {
      "inputs": [
        {
          "internalType": "uint256",
          "name": "tokenId",
          "type": "uint256"
        }
      ],
      "name": "ownerOf",
      "outputs": [
        {
          "internalType": "address",
          "name": "",
          "type": "address"
        }
      ],
      "stateMutability": "view",
      "type": "function"
    },
    {
      "inputs": [
        {
          "internalType": "uint256",
          "name": "tokenId",
          "type": "uint256"
        },
        {
          "internalType": "uint256",
          "name": "role",
          "type": "uint256"
        }
      ],
      "name": "renounceRole",
      "outputs": [],
      "stateMutability": "nonpayable",
      "type": "function"
    },
    {
      "inputs": [
        {
          "internalType": "uint256",
          "name": "",
          "type": "uint256"
        },
        {
          "internalType": "uint256",
          "name": "",
          "type": "uint256"
        }
      ],
      "name": "revisions",
      "outputs": [
        {
          "internalType": "uint256",
          "name": "timestamp",
          "type": "uint256"
        },
        {
          "internalType": "string",
          "name": "hash",
          "type": "string"
        }
      ],
      "stateMutability": "view",
      "type": "function"
    },
    {
      "inputs": [
        {
          "internalType": "uint256",
          "name": "tokenId",
          "type": "uint256"
        },
        {
          "internalType": "uint256",
          "name": "role",
          "type": "uint256"
        },
        {
          "internalType": "address",
          "name": "account",
          "type": "address"
        }
      ],
      "name": "revokeRole",
      "outputs": [],
      "stateMutability": "nonpayable",
      "type": "function"
    },
    {
      "inputs": [
        {
          "internalType": "address",
          "name": "from",
          "type": "address"
        },
        {
          "internalType": "address",
          "name": "to",
          "type": "address"
        },
        {
          "internalType": "uint256",
          "name": "tokenId",
          "type": "uint256"
        }
      ],
      "name": "safeTransferFrom",
      "outputs": [],
      "stateMutability": "nonpayable",
      "type": "function"
    },
    {
      "inputs": [
        {
          "internalType": "address",
          "name": "from",
          "type": "address"
        },
        {
          "internalType": "address",
          "name": "to",
          "type": "address"
        },
        {
          "internalType": "uint256",
          "name": "tokenId",
          "type": "uint256"
        },
        {
          "internalType": "bytes",
          "name": "_data",
          "type": "bytes"
        }
      ],
      "name": "safeTransferFrom",
      "outputs": [],
      "stateMutability": "nonpayable",
      "type": "function"
    },
    {
      "inputs": [
        {
          "internalType": "address",
          "name": "operator",
          "type": "address"
        },
        {
          "internalType": "bool",
          "name": "approved",
          "type": "bool"
        }
      ],
      "name": "setApprovalForAll",
      "outputs": [],
      "stateMutability": "nonpayable",
      "type": "function"
    },
    {
      "inputs": [
        {
          "internalType": "bytes4",
          "name": "interfaceId",
          "type": "bytes4"
        }
      ],
      "name": "supportsInterface",
      "outputs": [
        {
          "internalType": "bool",
          "name": "",
          "type": "bool"
        }
      ],
      "stateMutability": "view",
      "type": "function"
    },
    {
      "inputs": [],
      "name": "symbol",
      "outputs": [
        {
          "internalType": "string",
          "name": "",
          "type": "string"
        }
      ],
      "stateMutability": "view",
      "type": "function"
    },
    {
      "inputs": [
        {
          "internalType": "uint256",
          "name": "index",
          "type": "uint256"
        }
      ],
      "name": "tokenByIndex",
      "outputs": [
        {
          "internalType": "uint256",
          "name": "",
          "type": "uint256"
        }
      ],
      "stateMutability": "view",
      "type": "function"
    },
    {
      "inputs": [
        {
          "internalType": "address",
          "name": "owner",
          "type": "address"
        },
        {
          "internalType": "uint256",
          "name": "index",
          "type": "uint256"
        }
      ],
      "name": "tokenOfOwnerByIndex",
      "outputs": [
        {
          "internalType": "uint256",
          "name": "",
          "type": "uint256"
        }
      ],
      "stateMutability": "view",
      "type": "function"
    },
    {
      "inputs": [
        {
          "internalType": "uint256",
          "name": "tokenId",
          "type": "uint256"
        }
      ],
      "name": "tokenURI",
      "outputs": [
        {
          "internalType": "string",
          "name": "",
          "type": "string"
        }
      ],
      "stateMutability": "view",
      "type": "function"
    },
    {
      "inputs": [],
      "name": "totalSupply",
      "outputs": [
        {
          "internalType": "uint256",
          "name": "",
          "type": "uint256"
        }
      ],
      "stateMutability": "view",
      "type": "function"
    },
    {
      "inputs": [
        {
          "internalType": "address",
          "name": "from",
          "type": "address"
        },
        {
          "internalType": "address",
          "name": "to",
          "type": "address"
        },
        {
          "internalType": "uint256",
          "name": "tokenId",
          "type": "uint256"
        }
      ],
      "name": "transferFrom",
      "outputs": [],
      "stateMutability": "nonpayable",
      "type": "function"
    }
  ],
  "bytecode": "0x60806040523480156200001157600080fd5b50604051806040016040528060048152602001634e6f646560e01b815250604051806040016040528060048152602001634e4f444560e01b81525081600090805190602001906200006492919062000083565b5080516200007a90600190602084019062000083565b50505062000166565b828054620000919062000129565b90600052602060002090601f016020900481019282620000b5576000855562000100565b82601f10620000d057805160ff191683800117855562000100565b8280016001018555821562000100579182015b8281111562000100578251825591602001919060010190620000e3565b506200010e92915062000112565b5090565b5b808211156200010e576000815560010162000113565b600181811c908216806200013e57607f821691505b602082108114156200016057634e487b7160e01b600052602260045260246000fd5b50919050565b612e6780620001766000396000f3fe608060405234801561001057600080fd5b506004361061025e5760003560e01c806370a0823111610146578063c87b56dd116100c3578063e985e9c511610087578063e985e9c514610546578063ea559dc214610582578063eb31f4c514610595578063f18efc0f146105a8578063f9f5d7d4146105bb578063ff0810c7146105ce57600080fd5b8063c87b56dd146104e7578063d2eefc58146104fa578063d85d3d271461050d578063dbe552d614610520578063dd33ce5d1461053357600080fd5b8063a22cb4651161010a578063a22cb46514610485578063a853211a14610498578063aadf7e16146104a0578063b2dcc623146104b3578063b88d4fde146104d457600080fd5b806370a082311461042f57806375b238fc14610442578063959249f31461044a57806395d89b411461046a5780639cb99aba1461047257600080fd5b80633af7a723116101df5780634b1d6a90116101a35780634b1d6a90146103b05780634f558e79146103c35780634f6ccce7146103d65780635ca7d7f4146103e95780636192e3e8146103fc5780636352211e1461041c57600080fd5b80633af7a723146103515780633f83c6731461036457806342842e0e1461037757806342966c681461038a5780634ab37a821461039d57600080fd5b806318160ddd1161022657806318160ddd146102f35780631aa720b11461030557806323b872dd146103185780632f745c591461032b5780633aa817cc1461033e57600080fd5b806301ffc9a71461026357806306fdde031461028b578063081812fc146102a0578063095ea7b3146102cb57806316b3a087146102e0575b600080fd5b6102766102713660046125b4565b6105e1565b60405190151581526020015b60405180910390f35b6102936105f2565b6040516102829190612629565b6102b36102ae36600461263c565b610684565b6040516001600160a01b039091168152602001610282565b6102de6102d9366004612671565b610711565b005b6102936102ee36600461263c565b610827565b6008545b604051908152602001610282565b6102de6103133660046127da565b61090f565b6102de610326366004612887565b61096d565b6102f7610339366004612671565b61099f565b6102de61034c3660046128c3565b610a35565b61027661035f3660046128e5565b610ac8565b6102f7610372366004612911565b610aef565b6102de610385366004612887565b610b23565b6102de61039836600461263c565b610b3e565b6102de6103ab3660046128c3565b610bb8565b6102de6103be366004612911565b610c28565b6102766103d136600461263c565b610c93565b6102f76103e436600461263c565b610c9e565b6102f76103f7366004612958565b610d31565b61040f61040a3660046128c3565b610d70565b60405161028291906129a8565b6102b361042a36600461263c565b610e62565b6102f761043d3660046129cd565b610ed9565b6102f7600081565b6102f761045836600461263c565b6000908152600e602052604090205490565b610293610f60565b6102de6104803660046129e8565b610f6f565b6102de610493366004612a1d565b61101a565b6102f7600181565b6102f76104ae366004612a59565b611029565b6104c66104c13660046128c3565b61103e565b604051610282929190612a8e565b6102de6104e2366004612aa7565b611107565b6102936104f536600461263c565b61113f565b6102de6105083660046128c3565b611170565b6102f761051b366004612a59565b6111f1565b6102f761052e366004612958565b611285565b6102f7610541366004612b17565b6112a7565b610276610554366004612b5c565b6001600160a01b03918216600090815260056020908152604080832093909416825291909152205460ff1690565b6102766105903660046129e8565b6112bd565b6102de6105a33660046129e8565b6112ef565b6102f76105b6366004612911565b6113b9565b6102f76105c93660046128c3565b6113da565b6102b36105dc366004612b86565b6113fc565b60006105ec8261141f565b92915050565b60606000805461060190612bb2565b80601f016020809104026020016040519081016040528092919081815260200182805461062d90612bb2565b801561067a5780601f1061064f5761010080835404028352916020019161067a565b820191906000526020600020905b81548152906001019060200180831161065d57829003601f168201915b5050505050905090565b600061068f82611444565b6106f55760405162461bcd60e51b815260206004820152602c60248201527f4552433732313a20617070726f76656420717565727920666f72206e6f6e657860448201526b34b9ba32b73a103a37b5b2b760a11b60648201526084015b60405180910390fd5b506000908152600460205260409020546001600160a01b031690565b600061071c82610e62565b9050806001600160a01b0316836001600160a01b0316141561078a5760405162461bcd60e51b815260206004820152602160248201527f4552433732313a20617070726f76616c20746f2063757272656e74206f776e656044820152603960f91b60648201526084016106ec565b336001600160a01b03821614806107a657506107a68133610554565b6108185760405162461bcd60e51b815260206004820152603860248201527f4552433732313a20617070726f76652063616c6c6572206973206e6f74206f7760448201527f6e6572206e6f7220617070726f76656420666f7220616c6c000000000000000060648201526084016106ec565b6108228383611461565b505050565b606061083282610c93565b6108715760405162461bcd60e51b815260206004820152601060248201526f1b9bd91957db9bdb995e1a5cdd195b9d60821b60448201526064016106ec565b6000828152600f60205260409020805461088a90612bb2565b80601f01602080910402602001604051908101604052809291908181526020018280546108b690612bb2565b80156109035780601f106108d857610100808354040283529160200191610903565b820191906000526020600020905b8154815290600101906020018083116108e657829003601f168201915b50505050509050919050565b600061091a846111f1565b9050610945816010876040516109309190612bed565b908152604051908190036020019020906114cf565b506000818152600f602090815260409091208651610965928801906124cf565b505050505050565b610978335b826114db565b6109945760405162461bcd60e51b81526004016106ec90612c09565b6108228383836115c1565b60006109aa83610ed9565b8210610a0c5760405162461bcd60e51b815260206004820152602b60248201527f455243373231456e756d657261626c653a206f776e657220696e646578206f7560448201526a74206f6620626f756e647360a81b60648201526084016106ec565b506001600160a01b03919091166000908152600660209081526040808320938352929052205490565b610a408282336112bd565b15610aa5576000828152600c6020908152604080832084845282528083203380855290835292819020805460ff1916905551848152829184917f743dd6de0118c934baddbf165685269ac4f51fe0780281fdb64ea7ca8746ceff910160405180910390a45b610822336000848152600d60209081526040808320868452909152902090611768565b6000610ad6836000846112bd565b80610ae85750610ae8836001846112bd565b9392505050565b6000828152601260205260408082209051610ae89190610b10908590612bed565b908152602001604051809103902061177d565b61082283838360405180602001604052806000815250611107565b610b4733610972565b610bac5760405162461bcd60e51b815260206004820152603060248201527f4552433732314275726e61626c653a2063616c6c6572206973206e6f74206f7760448201526f1b995c881b9bdc88185c1c1c9bdd995960821b60648201526084016106ec565b610bb581611787565b50565b80610bc38133611790565b6000610bce84610827565b90506000610bdb84610827565b9050610c028560116000878152602001908152602001600020846040516109309190612bed565b506109658460126000888152602001908152602001600020836040516109309190612bed565b81610c338133611790565b6000838152600e602090815260408083208151808301909252428252818301868152815460018181018455928652948490208351600290960201948555518051929493610c8693928501929101906124cf565b50505061082283836117e1565b60006105ec82611444565b6000610ca960085490565b8210610d0c5760405162461bcd60e51b815260206004820152602c60248201527f455243373231456e756d657261626c653a20676c6f62616c20696e646578206f60448201526b7574206f6620626f756e647360a01b60648201526084016106ec565b60088281548110610d1f57610d1f612c5a565b90600052602060002001549050919050565b6000838152601160205260408082209051610d68918491610d53908790612bed565b9081526040519081900360200190209061186c565b949350505050565b6040805180820190915260008152606060208201526000838152600e60205260409020805483908110610da557610da5612c5a565b906000526020600020906002020160405180604001604052908160008201548152602001600182018054610dd890612bb2565b80601f0160208091040260200160405190810160405280929190818152602001828054610e0490612bb2565b8015610e515780601f10610e2657610100808354040283529160200191610e51565b820191906000526020600020905b815481529060010190602001808311610e3457829003601f168201915b505050505081525050905092915050565b6000818152600260205260408120546001600160a01b0316806105ec5760405162461bcd60e51b815260206004820152602960248201527f4552433732313a206f776e657220717565727920666f72206e6f6e657869737460448201526832b73a103a37b5b2b760b91b60648201526084016106ec565b60006001600160a01b038216610f445760405162461bcd60e51b815260206004820152602a60248201527f4552433732313a2062616c616e636520717565727920666f7220746865207a65604482015269726f206164647265737360b01b60648201526084016106ec565b506001600160a01b031660009081526003602052604090205490565b60606001805461060190612bb2565b826000610f7d828233611878565b610f888585856112bd565b15610ff7576000858152600c6020908152604080832087845282528083206001600160a01b03871680855290835292819020805460ff191690555187815233929187917f743dd6de0118c934baddbf165685269ac4f51fe0780281fdb64ea7ca8746ceff910160405180910390a45b6000858152600d6020908152604080832087845290915290206109659084611768565b6110253383836118ca565b5050565b60006105ec601083604051610b109190612bed565b600e602052816000526040600020818154811061105a57600080fd5b90600052602060002090600202016000915091505080600001549080600101805461108490612bb2565b80601f01602080910402602001604051908101604052809291908181526020018280546110b090612bb2565b80156110fd5780601f106110d2576101008083540402835291602001916110fd565b820191906000526020600020905b8154815290600101906020018083116110e057829003601f168201915b5050505050905082565b61111133836114db565b61112d5760405162461bcd60e51b81526004016106ec90612c09565b61113984848484611999565b50505050565b606061114a826119cc565b60405160200161115a9190612c70565b6040516020818303038152906040529050919050565b600061117b83610827565b9050600061118883610827565b90506111c48360116000878152602001908152602001600020836040516111af9190612bed565b90815260405190819003602001902090611b4a565b506111ea8460126000868152602001908152602001600020846040516111af9190612bed565b5050505050565b6000806111fd600b5490565b905061120d600b80546001019055565b6112173382611b56565b6000818152600c60209081526040808320838052825280832033808552908352818420805460ff1916600117905590518481529092839290917f3f9759be566576e968397b016ea9843c3e1d19bf1f59ae53cdfbd3b1a6914070910160405180910390a46105ec8184610c28565b6000838152601260205260408082209051610d68918491610d53908790612bed565b6000610ae882601085604051610d539190612bed565b6000928352600c602090815260408085209385529281528284206001600160a01b039290921684525290205460ff1690565b8260006112fd828233611878565b6113088585856112bd565b611396576000858152600c6020908152604080832087845282528083206001600160a01b03871684529091529020805460ff191660011790556113483390565b6001600160a01b0316836001600160a01b0316857f3f9759be566576e968397b016ea9843c3e1d19bf1f59ae53cdfbd3b1a69140708860405161138d91815260200190565b60405180910390a45b6000858152600d6020908152604080832087845290915290206109659084611b70565b6000828152601160205260408082209051610ae89190610b10908590612bed565b6000828152600d602090815260408083208484529091528120610ae89061177d565b6000838152600d602090815260408083208584529091528120610d68908361186c565b60006001600160e01b0319821663780e9d6360e01b14806105ec57506105ec82611b85565b6000908152600260205260409020546001600160a01b0316151590565b600081815260046020526040902080546001600160a01b0319166001600160a01b038416908117909155819061149682610e62565b6001600160a01b03167f8c5be1e5ebec7d5bd14f71427d1e84f3dd0314c0f7b2291e5b200ac8c7c3b92560405160405180910390a45050565b6000610ae88383611bd5565b60006114e682611444565b6115475760405162461bcd60e51b815260206004820152602c60248201527f4552433732313a206f70657261746f7220717565727920666f72206e6f6e657860448201526b34b9ba32b73a103a37b5b2b760a11b60648201526084016106ec565b600061155283610e62565b9050806001600160a01b0316846001600160a01b0316148061158d5750836001600160a01b031661158284610684565b6001600160a01b0316145b80610d6857506001600160a01b0380821660009081526005602090815260408083209388168352929052205460ff16610d68565b826001600160a01b03166115d482610e62565b6001600160a01b0316146116385760405162461bcd60e51b815260206004820152602560248201527f4552433732313a207472616e736665722066726f6d20696e636f72726563742060448201526437bbb732b960d91b60648201526084016106ec565b6001600160a01b03821661169a5760405162461bcd60e51b8152602060048201526024808201527f4552433732313a207472616e7366657220746f20746865207a65726f206164646044820152637265737360e01b60648201526084016106ec565b6116a5838383611c24565b6116b0600082611461565b6001600160a01b03831660009081526003602052604081208054600192906116d9908490612cb8565b90915550506001600160a01b0382166000908152600360205260408120805460019290611707908490612ccf565b909155505060008181526002602052604080822080546001600160a01b0319166001600160a01b0386811691821790925591518493918716917fddf252ad1be2c89b69c2b068fc378daa952ba7f163c4a11628f55a4df523b3ef91a4505050565b6000610ae8836001600160a01b038416611c2f565b60006105ec825490565b610bb581611d22565b61179a8282610ac8565b6110255760405162461bcd60e51b8152602060048201526018602482015277696e73756666696369656e745f7065726d697373696f6e7360401b60448201526064016106ec565b6117ea82611444565b61184d5760405162461bcd60e51b815260206004820152602e60248201527f45524337323155524953746f726167653a2055524920736574206f66206e6f6e60448201526d32bc34b9ba32b73a103a37b5b2b760911b60648201526084016106ec565b6000828152600a602090815260409091208251610822928401906124cf565b6000610ae88383611d62565b6118838383836112bd565b6108225760405162461bcd60e51b8152602060048201526018602482015277696e73756666696369656e745f7065726d697373696f6e7360401b60448201526064016106ec565b816001600160a01b0316836001600160a01b0316141561192c5760405162461bcd60e51b815260206004820152601960248201527f4552433732313a20617070726f766520746f2063616c6c65720000000000000060448201526064016106ec565b6001600160a01b03838116600081815260056020908152604080832094871680845294825291829020805460ff191686151590811790915591519182527f17307eab39ab6107e8899845ad3d59bd9653f200f220920489ca2b5937696c31910160405180910390a3505050565b6119a48484846115c1565b6119b084848484611d8c565b6111395760405162461bcd60e51b81526004016106ec90612ce7565b60606119d782611444565b611a3d5760405162461bcd60e51b815260206004820152603160248201527f45524337323155524953746f726167653a2055524920717565727920666f72206044820152703737b732bc34b9ba32b73a103a37b5b2b760791b60648201526084016106ec565b6000828152600a602052604081208054611a5690612bb2565b80601f0160208091040260200160405190810160405280929190818152602001828054611a8290612bb2565b8015611acf5780601f10611aa457610100808354040283529160200191611acf565b820191906000526020600020905b815481529060010190602001808311611ab257829003601f168201915b505050505090506000611afc604080518082019091526007815266697066733a2f2f60c81b602082015290565b9050805160001415611b0f575092915050565b815115611b41578082604051602001611b29929190612d39565b60405160208183030381529060405292505050919050565b610d6884611e8a565b6000610ae88383611c2f565b611025828260405180602001604052806000815250611f70565b6000610ae8836001600160a01b038416611bd5565b60006001600160e01b031982166380ac58cd60e01b1480611bb657506001600160e01b03198216635b5e139f60e01b145b806105ec57506301ffc9a760e01b6001600160e01b03198316146105ec565b6000818152600183016020526040812054611c1c575081546001818101845560008481526020808220909301849055845484825282860190935260409020919091556105ec565b5060006105ec565b610822838383611fa3565b60008181526001830160205260408120548015611d18576000611c53600183612cb8565b8554909150600090611c6790600190612cb8565b9050818114611ccc576000866000018281548110611c8757611c87612c5a565b9060005260206000200154905080876000018481548110611caa57611caa612c5a565b6000918252602080832090910192909255918252600188019052604090208390555b8554869080611cdd57611cdd612d68565b6001900381819060005260206000200160009055905585600101600086815260200190815260200160002060009055600193505050506105ec565b60009150506105ec565b611d2b8161205b565b6000818152600a602052604090208054611d4490612bb2565b159050610bb5576000818152600a60205260408120610bb591612553565b6000826000018281548110611d7957611d79612c5a565b9060005260206000200154905092915050565b60006001600160a01b0384163b15611e7f57604051630a85bd0160e11b81526001600160a01b0385169063150b7a0290611dd0903390899088908890600401612d7e565b6020604051808303816000875af1925050508015611e0b575060408051601f3d908101601f19168201909252611e0891810190612dbb565b60015b611e65573d808015611e39576040519150601f19603f3d011682016040523d82523d6000602084013e611e3e565b606091505b508051611e5d5760405162461bcd60e51b81526004016106ec90612ce7565b805181602001fd5b6001600160e01b031916630a85bd0160e11b149050610d68565b506001949350505050565b6060611e9582611444565b611ef95760405162461bcd60e51b815260206004820152602f60248201527f4552433732314d657461646174613a2055524920717565727920666f72206e6f60448201526e3732bc34b9ba32b73a103a37b5b2b760891b60648201526084016106ec565b6000611f1f604080518082019091526007815266697066733a2f2f60c81b602082015290565b90506000815111611f3f5760405180602001604052806000815250610ae8565b80611f4984612102565b604051602001611f5a929190612d39565b6040516020818303038152906040529392505050565b611f7a8383612200565b611f876000848484611d8c565b6108225760405162461bcd60e51b81526004016106ec90612ce7565b6001600160a01b038316611ffe57611ff981600880546000838152600960205260408120829055600182018355919091527ff3f7a9fe364faab93b216da50a3214154f22a0a2b415b23a84c8169e8b636ee30155565b612021565b816001600160a01b0316836001600160a01b03161461202157612021838261233f565b6001600160a01b03821661203857610822816123dc565b826001600160a01b0316826001600160a01b03161461082257610822828261248b565b600061206682610e62565b905061207481600084611c24565b61207f600083611461565b6001600160a01b03811660009081526003602052604081208054600192906120a8908490612cb8565b909155505060008281526002602052604080822080546001600160a01b0319169055518391906001600160a01b038416907fddf252ad1be2c89b69c2b068fc378daa952ba7f163c4a11628f55a4df523b3ef908390a45050565b6060816121265750506040805180820190915260018152600360fc1b602082015290565b8160005b8115612150578061213a81612dd8565b91506121499050600a83612e09565b915061212a565b60008167ffffffffffffffff81111561216b5761216b61269b565b6040519080825280601f01601f191660200182016040528015612195576020820181803683370190505b5090505b8415610d68576121aa600183612cb8565b91506121b7600a86612e1d565b6121c2906030612ccf565b60f81b8183815181106121d7576121d7612c5a565b60200101906001600160f81b031916908160001a9053506121f9600a86612e09565b9450612199565b6001600160a01b0382166122565760405162461bcd60e51b815260206004820181905260248201527f4552433732313a206d696e7420746f20746865207a65726f206164647265737360448201526064016106ec565b61225f81611444565b156122ac5760405162461bcd60e51b815260206004820152601c60248201527f4552433732313a20746f6b656e20616c7265616479206d696e7465640000000060448201526064016106ec565b6122b860008383611c24565b6001600160a01b03821660009081526003602052604081208054600192906122e1908490612ccf565b909155505060008181526002602052604080822080546001600160a01b0319166001600160a01b03861690811790915590518392907fddf252ad1be2c89b69c2b068fc378daa952ba7f163c4a11628f55a4df523b3ef908290a45050565b6000600161234c84610ed9565b6123569190612cb8565b6000838152600760205260409020549091508082146123a9576001600160a01b03841660009081526006602090815260408083208584528252808320548484528184208190558352600790915290208190555b5060009182526007602090815260408084208490556001600160a01b039094168352600681528383209183525290812055565b6008546000906123ee90600190612cb8565b6000838152600960205260408120546008805493945090928490811061241657612416612c5a565b90600052602060002001549050806008838154811061243757612437612c5a565b600091825260208083209091019290925582815260099091526040808220849055858252812055600880548061246f5761246f612d68565b6001900381819060005260206000200160009055905550505050565b600061249683610ed9565b6001600160a01b039093166000908152600660209081526040808320868452825280832085905593825260079052919091209190915550565b8280546124db90612bb2565b90600052602060002090601f0160209004810192826124fd5760008555612543565b82601f1061251657805160ff1916838001178555612543565b82800160010185558215612543579182015b82811115612543578251825591602001919060010190612528565b5061254f929150612589565b5090565b50805461255f90612bb2565b6000825580601f1061256f575050565b601f016020900490600052602060002090810190610bb591905b5b8082111561254f576000815560010161258a565b6001600160e01b031981168114610bb557600080fd5b6000602082840312156125c657600080fd5b8135610ae88161259e565b60005b838110156125ec5781810151838201526020016125d4565b838111156111395750506000910152565b600081518084526126158160208601602086016125d1565b601f01601f19169290920160200192915050565b602081526000610ae860208301846125fd565b60006020828403121561264e57600080fd5b5035919050565b80356001600160a01b038116811461266c57600080fd5b919050565b6000806040838503121561268457600080fd5b61268d83612655565b946020939093013593505050565b634e487b7160e01b600052604160045260246000fd5b604051601f8201601f1916810167ffffffffffffffff811182821017156126da576126da61269b565b604052919050565b600067ffffffffffffffff8311156126fc576126fc61269b565b61270f601f8401601f19166020016126b1565b905082815283838301111561272357600080fd5b828260208301376000602084830101529392505050565b600082601f83011261274b57600080fd5b610ae8838335602085016126e2565b600082601f83011261276b57600080fd5b8135602067ffffffffffffffff8211156127875761278761269b565b8160051b6127968282016126b1565b92835284810182019282810190878511156127b057600080fd5b83870192505b848310156127cf578235825291830191908301906127b6565b979650505050505050565b600080600080608085870312156127f057600080fd5b843567ffffffffffffffff8082111561280857600080fd5b6128148883890161273a565b9550602087013591508082111561282a57600080fd5b6128368883890161273a565b9450604087013591508082111561284c57600080fd5b6128588883890161275a565b9350606087013591508082111561286e57600080fd5b5061287b8782880161275a565b91505092959194509250565b60008060006060848603121561289c57600080fd5b6128a584612655565b92506128b360208501612655565b9150604084013590509250925092565b600080604083850312156128d657600080fd5b50508035926020909101359150565b600080604083850312156128f857600080fd5b8235915061290860208401612655565b90509250929050565b6000806040838503121561292457600080fd5b82359150602083013567ffffffffffffffff81111561294257600080fd5b61294e8582860161273a565b9150509250929050565b60008060006060848603121561296d57600080fd5b83359250602084013567ffffffffffffffff81111561298b57600080fd5b6129978682870161273a565b925050604084013590509250925092565b602081528151602082015260006020830151604080840152610d6860608401826125fd565b6000602082840312156129df57600080fd5b610ae882612655565b6000806000606084860312156129fd57600080fd5b8335925060208401359150612a1460408501612655565b90509250925092565b60008060408385031215612a3057600080fd5b612a3983612655565b915060208301358015158114612a4e57600080fd5b809150509250929050565b600060208284031215612a6b57600080fd5b813567ffffffffffffffff811115612a8257600080fd5b610d688482850161273a565b828152604060208201526000610d6860408301846125fd565b60008060008060808587031215612abd57600080fd5b612ac685612655565b9350612ad460208601612655565b925060408501359150606085013567ffffffffffffffff811115612af757600080fd5b8501601f81018713612b0857600080fd5b61287b878235602084016126e2565b60008060408385031215612b2a57600080fd5b823567ffffffffffffffff811115612b4157600080fd5b612b4d8582860161273a565b95602094909401359450505050565b60008060408385031215612b6f57600080fd5b612b7883612655565b915061290860208401612655565b600080600060608486031215612b9b57600080fd5b505081359360208301359350604090920135919050565b600181811c90821680612bc657607f821691505b60208210811415612be757634e487b7160e01b600052602260045260246000fd5b50919050565b60008251612bff8184602087016125d1565b9190910192915050565b60208082526031908201527f4552433732313a207472616e736665722063616c6c6572206973206e6f74206f6040820152701ddb995c881b9bdc88185c1c1c9bdd9959607a1b606082015260800190565b634e487b7160e01b600052603260045260246000fd5b60008251612c828184602087016125d1565b6d17b6b2ba30b230ba30973539b7b760911b920191825250600e01919050565b634e487b7160e01b600052601160045260246000fd5b600082821015612cca57612cca612ca2565b500390565b60008219821115612ce257612ce2612ca2565b500190565b60208082526032908201527f4552433732313a207472616e7366657220746f206e6f6e20455243373231526560408201527131b2b4bb32b91034b6b83632b6b2b73a32b960711b606082015260800190565b60008351612d4b8184602088016125d1565b835190830190612d5f8183602088016125d1565b01949350505050565b634e487b7160e01b600052603160045260246000fd5b6001600160a01b0385811682528416602082015260408101839052608060608201819052600090612db1908301846125fd565b9695505050505050565b600060208284031215612dcd57600080fd5b8151610ae88161259e565b6000600019821415612dec57612dec612ca2565b5060010190565b634e487b7160e01b600052601260045260246000fd5b600082612e1857612e18612df3565b500490565b600082612e2c57612e2c612df3565b50069056fea26469706673582212209564c4d887363f5f00e1dd37d152ee8004a2f6ff9d618e089f5cad17d02716fa64736f6c634300080c0033",
  "linkReferences": {},
  "deployedLinkReferences": {}
}