{
  "_format": "hh-sol-artifact-1",
  "contractName": "Node",
  "sourceName": "contracts/src/Node.sol",
  "abi": [
    {
      "inputs": [],
      "stateMutability": "nonpayable",
      "type": "constructor"
    },
    {
      "anonymous": false,
      "inputs": [
        {
          "indexed": true,
          "internalType": "address",
          "name": "owner",
          "type": "address"
        },
        {
          "indexed": true,
          "internalType": "address",
          "name": "approved",
          "type": "address"
        },
        {
          "indexed": true,
          "internalType": "uint256",
          "name": "tokenId",
          "type": "uint256"
        }
      ],
      "name": "Approval",
      "type": "event"
    },
    {
      "anonymous": false,
      "inputs": [
        {
          "indexed": true,
          "internalType": "address",
          "name": "owner",
          "type": "address"
        },
        {
          "indexed": true,
          "internalType": "address",
          "name": "operator",
          "type": "address"
        },
        {
          "indexed": false,
          "internalType": "bool",
          "name": "approved",
          "type": "bool"
        }
      ],
      "name": "ApprovalForAll",
      "type": "event"
    },
    {
      "anonymous": false,
      "inputs": [
        {
          "indexed": false,
          "internalType": "uint256",
          "name": "tokenId",
          "type": "uint256"
        },
        {
          "indexed": false,
          "internalType": "uint256",
          "name": "connectionFee",
          "type": "uint256"
        },
        {
          "indexed": false,
          "internalType": "address",
          "name": "sender",
          "type": "address"
        }
      ],
      "name": "ConnectionFeeSet",
      "type": "event"
    },
    {
      "anonymous": false,
      "inputs": [
        {
          "indexed": false,
          "internalType": "uint256",
          "name": "forTokenId",
          "type": "uint256"
        },
        {
          "indexed": false,
          "internalType": "uint256",
          "name": "toTokenId",
          "type": "uint256"
        },
        {
          "indexed": false,
          "internalType": "address",
          "name": "sender",
          "type": "address"
        }
      ],
      "name": "DelegatePermissionsRenounced",
      "type": "event"
    },
    {
      "anonymous": false,
      "inputs": [
        {
          "indexed": true,
          "internalType": "uint256",
          "name": "tokenId",
          "type": "uint256"
        },
        {
          "indexed": false,
          "internalType": "string",
          "name": "hash",
          "type": "string"
        },
        {
          "components": [
            {
              "internalType": "uint256",
              "name": "tokenId",
              "type": "uint256"
            },
            {
              "internalType": "string",
              "name": "name",
              "type": "string"
            }
          ],
          "indexed": false,
          "internalType": "struct Node.Edge[]",
          "name": "incomingEdges",
          "type": "tuple[]"
        },
        {
          "components": [
            {
              "internalType": "uint256",
              "name": "tokenId",
              "type": "uint256"
            },
            {
              "internalType": "string",
              "name": "name",
              "type": "string"
            }
          ],
          "indexed": false,
          "internalType": "struct Node.Edge[]",
          "name": "outgoingEdges",
          "type": "tuple[]"
        },
        {
          "indexed": false,
          "internalType": "address",
          "name": "sender",
          "type": "address"
        }
      ],
      "name": "Merge",
      "type": "event"
    },
    {
      "anonymous": false,
      "inputs": [
        {
          "indexed": true,
          "internalType": "uint256",
          "name": "tokenId",
          "type": "uint256"
        },
        {
          "indexed": false,
          "internalType": "string",
          "name": "label",
          "type": "string"
        },
        {
          "indexed": false,
          "internalType": "string",
          "name": "hash",
          "type": "string"
        },
        {
          "components": [
            {
              "internalType": "uint256",
              "name": "tokenId",
              "type": "uint256"
            },
            {
              "internalType": "string",
              "name": "name",
              "type": "string"
            }
          ],
          "indexed": false,
          "internalType": "struct Node.Edge[]",
          "name": "incomingEdges",
          "type": "tuple[]"
        },
        {
          "components": [
            {
              "internalType": "uint256",
              "name": "tokenId",
              "type": "uint256"
            },
            {
              "internalType": "string",
              "name": "name",
              "type": "string"
            }
          ],
          "indexed": false,
          "internalType": "struct Node.Edge[]",
          "name": "outgoingEdges",
          "type": "tuple[]"
        },
        {
          "indexed": false,
          "internalType": "address",
          "name": "sender",
          "type": "address"
        }
      ],
      "name": "Mint",
      "type": "event"
    },
    {
      "anonymous": false,
      "inputs": [
        {
          "indexed": false,
          "internalType": "uint256",
          "name": "tokenId",
          "type": "uint256"
        },
        {
          "indexed": false,
          "internalType": "bool",
          "name": "bypassed",
          "type": "bool"
        },
        {
          "indexed": false,
          "internalType": "address",
          "name": "sender",
          "type": "address"
        }
      ],
      "name": "PermissionsBypassSet",
      "type": "event"
    },
    {
      "anonymous": false,
      "inputs": [
        {
          "indexed": false,
          "internalType": "uint256",
          "name": "forTokenId",
          "type": "uint256"
        },
        {
          "indexed": false,
          "internalType": "uint256",
          "name": "toTokenId",
          "type": "uint256"
        },
        {
          "indexed": false,
          "internalType": "address",
          "name": "sender",
          "type": "address"
        }
      ],
      "name": "PermissionsDelegated",
      "type": "event"
    },
    {
      "anonymous": false,
      "inputs": [
        {
          "indexed": true,
          "internalType": "uint256",
          "name": "tokenId",
          "type": "uint256"
        },
        {
          "indexed": false,
          "internalType": "string",
          "name": "hash",
          "type": "string"
        },
        {
          "indexed": false,
          "internalType": "address",
          "name": "sender",
          "type": "address"
        }
      ],
      "name": "Revise",
      "type": "event"
    },
    {
      "anonymous": false,
      "inputs": [
        {
          "indexed": false,
          "internalType": "uint256",
          "name": "tokenId",
          "type": "uint256"
        },
        {
          "indexed": false,
          "internalType": "uint256",
          "name": "role",
          "type": "uint256"
        },
        {
          "indexed": false,
          "internalType": "address",
          "name": "account",
          "type": "address"
        },
        {
          "indexed": false,
          "internalType": "address",
          "name": "sender",
          "type": "address"
        }
      ],
      "name": "RoleGranted",
      "type": "event"
    },
    {
      "anonymous": false,
      "inputs": [
        {
          "indexed": false,
          "internalType": "uint256",
          "name": "tokenId",
          "type": "uint256"
        },
        {
          "indexed": false,
          "internalType": "uint256",
          "name": "role",
          "type": "uint256"
        },
        {
          "indexed": false,
          "internalType": "address",
          "name": "account",
          "type": "address"
        },
        {
          "indexed": false,
          "internalType": "address",
          "name": "sender",
          "type": "address"
        }
      ],
      "name": "RoleRevoked",
      "type": "event"
    },
    {
      "anonymous": false,
      "inputs": [
        {
          "indexed": true,
          "internalType": "address",
          "name": "from",
          "type": "address"
        },
        {
          "indexed": true,
          "internalType": "address",
          "name": "to",
          "type": "address"
        },
        {
          "indexed": true,
          "internalType": "uint256",
          "name": "tokenId",
          "type": "uint256"
        }
      ],
      "name": "Transfer",
      "type": "event"
    },
    {
      "stateMutability": "payable",
      "type": "fallback"
    },
    {
      "inputs": [],
      "name": "ADMIN_ROLE",
      "outputs": [
        {
          "internalType": "uint256",
          "name": "",
          "type": "uint256"
        }
      ],
      "stateMutability": "view",
      "type": "function"
    },
    {
      "inputs": [],
      "name": "EDITOR_ROLE",
      "outputs": [
        {
          "internalType": "uint256",
          "name": "",
          "type": "uint256"
        }
      ],
      "stateMutability": "view",
      "type": "function"
    },
    {
      "inputs": [],
      "name": "ERR_INSUFFICIENT_PERMISSIONS",
      "outputs": [
        {
          "internalType": "string",
          "name": "",
          "type": "string"
        }
      ],
      "stateMutability": "view",
      "type": "function"
    },
    {
      "inputs": [],
      "name": "ERR_NODE_NONEXISTENT",
      "outputs": [
        {
          "internalType": "string",
          "name": "",
          "type": "string"
        }
      ],
      "stateMutability": "view",
      "type": "function"
    },
    {
      "inputs": [],
      "name": "ERR_PROTOCOL_STEWARD_ONLY",
      "outputs": [
        {
          "internalType": "string",
          "name": "",
          "type": "string"
        }
      ],
      "stateMutability": "view",
      "type": "function"
    },
    {
      "inputs": [],
      "name": "ERR_RECURSIVE_DELEGATION",
      "outputs": [
        {
          "internalType": "string",
          "name": "",
          "type": "string"
        }
      ],
      "stateMutability": "view",
      "type": "function"
    },
    {
      "inputs": [],
      "name": "ERR_RESERVED_STRING",
      "outputs": [
        {
          "internalType": "string",
          "name": "",
          "type": "string"
        }
      ],
      "stateMutability": "view",
      "type": "function"
    },
    {
      "inputs": [
        {
          "internalType": "address",
          "name": "to",
          "type": "address"
        },
        {
          "internalType": "uint256",
          "name": "tokenId",
          "type": "uint256"
        }
      ],
      "name": "approve",
      "outputs": [],
      "stateMutability": "nonpayable",
      "type": "function"
    },
    {
      "inputs": [
        {
          "internalType": "address",
          "name": "owner",
          "type": "address"
        }
      ],
      "name": "balanceOf",
      "outputs": [
        {
          "internalType": "uint256",
          "name": "",
          "type": "uint256"
        }
      ],
      "stateMutability": "view",
      "type": "function"
    },
    {
      "inputs": [
        {
          "internalType": "uint256",
          "name": "tokenId",
          "type": "uint256"
        }
      ],
      "name": "burnNode",
      "outputs": [],
      "stateMutability": "nonpayable",
      "type": "function"
    },
    {
      "inputs": [
        {
          "internalType": "uint256",
          "name": "tokenId",
          "type": "uint256"
        },
        {
          "internalType": "address",
          "name": "account",
          "type": "address"
        }
      ],
      "name": "canEdit",
      "outputs": [
        {
          "internalType": "bool",
          "name": "",
          "type": "bool"
        }
      ],
      "stateMutability": "view",
      "type": "function"
    },
    {
      "inputs": [
        {
          "internalType": "uint256",
          "name": "forTokenId",
          "type": "uint256"
        },
        {
          "internalType": "uint256",
          "name": "toTokenId",
          "type": "uint256"
        }
      ],
      "name": "delegatePermissions",
      "outputs": [],
      "stateMutability": "nonpayable",
      "type": "function"
    },
    {
      "inputs": [],
      "name": "depositProtocolBalance",
      "outputs": [],
      "stateMutability": "nonpayable",
      "type": "function"
    },
    {
      "inputs": [
        {
          "internalType": "uint256",
          "name": "tokenId",
          "type": "uint256"
        }
      ],
      "name": "exists",
      "outputs": [
        {
          "internalType": "bool",
          "name": "",
          "type": "bool"
        }
      ],
      "stateMutability": "view",
      "type": "function"
    },
    {
      "inputs": [
        {
          "internalType": "uint256",
          "name": "tokenId",
          "type": "uint256"
        }
      ],
      "name": "getApproved",
      "outputs": [
        {
          "internalType": "address",
          "name": "",
          "type": "address"
        }
      ],
      "stateMutability": "view",
      "type": "function"
    },
    {
      "inputs": [
        {
          "internalType": "uint256",
          "name": "tokenId",
          "type": "uint256"
        }
      ],
      "name": "getConnectionFee",
      "outputs": [
        {
          "internalType": "uint256",
          "name": "",
          "type": "uint256"
        }
      ],
      "stateMutability": "view",
      "type": "function"
    },
    {
      "inputs": [],
      "name": "getProtocolMintFee",
      "outputs": [
        {
          "internalType": "uint256",
          "name": "",
          "type": "uint256"
        }
      ],
      "stateMutability": "view",
      "type": "function"
    },
    {
      "inputs": [
        {
          "internalType": "uint256",
          "name": "tokenId",
          "type": "uint256"
        },
        {
          "internalType": "uint256",
          "name": "role",
          "type": "uint256"
        },
        {
          "internalType": "address",
          "name": "account",
          "type": "address"
        }
      ],
      "name": "grantRole",
      "outputs": [],
      "stateMutability": "nonpayable",
      "type": "function"
    },
    {
      "inputs": [
        {
          "internalType": "uint256",
          "name": "tokenId",
          "type": "uint256"
        }
      ],
      "name": "hasPermissionsBypass",
      "outputs": [
        {
          "internalType": "bool",
          "name": "",
          "type": "bool"
        }
      ],
      "stateMutability": "view",
      "type": "function"
    },
    {
      "inputs": [
        {
          "internalType": "uint256",
          "name": "tokenId",
          "type": "uint256"
        },
        {
          "internalType": "uint256",
          "name": "role",
          "type": "uint256"
        },
        {
          "internalType": "address",
          "name": "account",
          "type": "address"
        }
      ],
      "name": "hasRole",
      "outputs": [
        {
          "internalType": "bool",
          "name": "",
          "type": "bool"
        }
      ],
      "stateMutability": "view",
      "type": "function"
    },
    {
      "inputs": [
        {
          "internalType": "address",
          "name": "owner",
          "type": "address"
        },
        {
          "internalType": "address",
          "name": "operator",
          "type": "address"
        }
      ],
      "name": "isApprovedForAll",
      "outputs": [
        {
          "internalType": "bool",
          "name": "",
          "type": "bool"
        }
      ],
      "stateMutability": "view",
      "type": "function"
    },
    {
      "inputs": [
        {
          "internalType": "uint256",
          "name": "tokenId",
          "type": "uint256"
        },
        {
          "internalType": "string",
          "name": "hash",
          "type": "string"
        },
        {
          "components": [
            {
              "internalType": "uint256",
              "name": "tokenId",
              "type": "uint256"
            },
            {
              "internalType": "string",
              "name": "name",
              "type": "string"
            }
          ],
          "internalType": "struct Node.Edge[]",
          "name": "incomingEdges",
          "type": "tuple[]"
        },
        {
          "components": [
            {
              "internalType": "uint256",
              "name": "tokenId",
              "type": "uint256"
            },
            {
              "internalType": "string",
              "name": "name",
              "type": "string"
            }
          ],
          "internalType": "struct Node.Edge[]",
          "name": "outgoingEdges",
          "type": "tuple[]"
        }
      ],
      "name": "merge",
      "outputs": [],
      "stateMutability": "payable",
      "type": "function"
    },
    {
      "inputs": [
        {
          "internalType": "string",
          "name": "label",
          "type": "string"
        },
        {
          "internalType": "string",
          "name": "hash",
          "type": "string"
        },
        {
          "components": [
            {
              "internalType": "uint256",
              "name": "tokenId",
              "type": "uint256"
            },
            {
              "internalType": "string",
              "name": "name",
              "type": "string"
            }
          ],
          "internalType": "struct Node.Edge[]",
          "name": "incomingEdges",
          "type": "tuple[]"
        },
        {
          "components": [
            {
              "internalType": "uint256",
              "name": "tokenId",
              "type": "uint256"
            },
            {
              "internalType": "string",
              "name": "name",
              "type": "string"
            }
          ],
          "internalType": "struct Node.Edge[]",
          "name": "outgoingEdges",
          "type": "tuple[]"
        },
        {
          "internalType": "uint256[]",
          "name": "delegatePermissionsTokenIds",
          "type": "uint256[]"
        }
      ],
      "name": "mint",
      "outputs": [],
      "stateMutability": "payable",
      "type": "function"
    },
    {
      "inputs": [],
      "name": "name",
      "outputs": [
        {
          "internalType": "string",
          "name": "",
          "type": "string"
        }
      ],
      "stateMutability": "view",
      "type": "function"
    },
    {
      "inputs": [
        {
          "internalType": "uint256",
          "name": "tokenId",
          "type": "uint256"
        }
      ],
      "name": "ownerOf",
      "outputs": [
        {
          "internalType": "address",
          "name": "",
          "type": "address"
        }
      ],
      "stateMutability": "view",
      "type": "function"
    },
    {
      "inputs": [
        {
          "internalType": "address",
          "name": "dest",
          "type": "address"
        }
      ],
      "name": "payments",
      "outputs": [
        {
          "internalType": "uint256",
          "name": "",
          "type": "uint256"
        }
      ],
      "stateMutability": "view",
      "type": "function"
    },
    {
      "inputs": [],
      "name": "protocolSteward",
      "outputs": [
        {
          "internalType": "address",
          "name": "",
          "type": "address"
        }
      ],
      "stateMutability": "view",
      "type": "function"
    },
    {
      "inputs": [
        {
          "internalType": "uint256",
          "name": "forTokenId",
          "type": "uint256"
        },
        {
          "internalType": "uint256",
          "name": "toTokenId",
          "type": "uint256"
        }
      ],
      "name": "renounceDelegatePermissions",
      "outputs": [],
      "stateMutability": "nonpayable",
      "type": "function"
    },
    {
      "inputs": [
        {
          "internalType": "uint256",
          "name": "tokenId",
          "type": "uint256"
        },
        {
          "internalType": "uint256",
          "name": "role",
          "type": "uint256"
        }
      ],
      "name": "renounceRole",
      "outputs": [],
      "stateMutability": "nonpayable",
      "type": "function"
    },
    {
      "inputs": [],
      "name": "resetDefaultRoyalty",
      "outputs": [],
      "stateMutability": "nonpayable",
      "type": "function"
    },
    {
      "inputs": [
        {
          "internalType": "uint256",
          "name": "tokenId",
          "type": "uint256"
        }
      ],
      "name": "resetTokenRoyalty",
      "outputs": [],
      "stateMutability": "nonpayable",
      "type": "function"
    },
    {
      "inputs": [
        {
          "internalType": "uint256",
          "name": "tokenId",
          "type": "uint256"
        },
        {
          "internalType": "string",
          "name": "hash",
          "type": "string"
        }
      ],
      "name": "revise",
      "outputs": [],
      "stateMutability": "nonpayable",
      "type": "function"
    },
    {
      "inputs": [
        {
          "internalType": "uint256",
          "name": "tokenId",
          "type": "uint256"
        },
        {
          "internalType": "uint256",
          "name": "role",
          "type": "uint256"
        },
        {
          "internalType": "address",
          "name": "account",
          "type": "address"
        }
      ],
      "name": "revokeRole",
      "outputs": [],
      "stateMutability": "nonpayable",
      "type": "function"
    },
    {
      "inputs": [
        {
          "internalType": "uint256",
          "name": "_tokenId",
          "type": "uint256"
        },
        {
          "internalType": "uint256",
          "name": "_salePrice",
          "type": "uint256"
        }
      ],
      "name": "royaltyInfo",
      "outputs": [
        {
          "internalType": "address",
          "name": "",
          "type": "address"
        },
        {
          "internalType": "uint256",
          "name": "",
          "type": "uint256"
        }
      ],
      "stateMutability": "view",
      "type": "function"
    },
    {
      "inputs": [
        {
          "internalType": "address",
          "name": "from",
          "type": "address"
        },
        {
          "internalType": "address",
          "name": "to",
          "type": "address"
        },
        {
          "internalType": "uint256",
          "name": "tokenId",
          "type": "uint256"
        }
      ],
      "name": "safeTransferFrom",
      "outputs": [],
      "stateMutability": "nonpayable",
      "type": "function"
    },
    {
      "inputs": [
        {
          "internalType": "address",
          "name": "from",
          "type": "address"
        },
        {
          "internalType": "address",
          "name": "to",
          "type": "address"
        },
        {
          "internalType": "uint256",
          "name": "tokenId",
          "type": "uint256"
        },
        {
          "internalType": "bytes",
          "name": "_data",
          "type": "bytes"
        }
      ],
      "name": "safeTransferFrom",
      "outputs": [],
      "stateMutability": "nonpayable",
      "type": "function"
    },
    {
      "inputs": [
        {
          "internalType": "address",
          "name": "operator",
          "type": "address"
        },
        {
          "internalType": "bool",
          "name": "approved",
          "type": "bool"
        }
      ],
      "name": "setApprovalForAll",
      "outputs": [],
      "stateMutability": "nonpayable",
      "type": "function"
    },
    {
      "inputs": [
        {
          "internalType": "uint256",
          "name": "tokenId",
          "type": "uint256"
        },
        {
          "internalType": "uint256",
          "name": "connectionFee",
          "type": "uint256"
        }
      ],
      "name": "setConnectionFee",
      "outputs": [],
      "stateMutability": "nonpayable",
      "type": "function"
    },
    {
      "inputs": [
        {
          "internalType": "address",
          "name": "receiver",
          "type": "address"
        },
        {
          "internalType": "uint96",
          "name": "feeNumerator",
          "type": "uint96"
        }
      ],
      "name": "setDefaultRoyalty",
      "outputs": [],
      "stateMutability": "nonpayable",
      "type": "function"
    },
    {
      "inputs": [
        {
          "internalType": "uint256",
          "name": "tokenId",
          "type": "uint256"
        },
        {
          "internalType": "bool",
          "name": "shouldBypassPermissions",
          "type": "bool"
        }
      ],
      "name": "setPermissionsBypass",
      "outputs": [],
      "stateMutability": "nonpayable",
      "type": "function"
    },
    {
      "inputs": [
        {
          "internalType": "uint256",
          "name": "protocolMintFee",
          "type": "uint256"
        }
      ],
      "name": "setProtocolMintFee",
      "outputs": [],
      "stateMutability": "nonpayable",
      "type": "function"
    },
    {
      "inputs": [
        {
          "internalType": "uint256",
          "name": "tokenId",
          "type": "uint256"
        },
        {
          "internalType": "address",
          "name": "receiver",
          "type": "address"
        },
        {
          "internalType": "uint96",
          "name": "feeNumerator",
          "type": "uint96"
        }
      ],
      "name": "setTokenRoyalty",
      "outputs": [],
      "stateMutability": "nonpayable",
      "type": "function"
    },
    {
      "inputs": [
        {
          "internalType": "string",
          "name": "a",
          "type": "string"
        },
        {
          "internalType": "string",
          "name": "b",
          "type": "string"
        }
      ],
      "name": "stringsAreEqual",
      "outputs": [
        {
          "internalType": "bool",
          "name": "",
          "type": "bool"
        }
      ],
      "stateMutability": "pure",
      "type": "function"
    },
    {
      "inputs": [
        {
          "internalType": "bytes4",
          "name": "interfaceId",
          "type": "bytes4"
        }
      ],
      "name": "supportsInterface",
      "outputs": [
        {
          "internalType": "bool",
          "name": "",
          "type": "bool"
        }
      ],
      "stateMutability": "view",
      "type": "function"
    },
    {
      "inputs": [],
      "name": "symbol",
      "outputs": [
        {
          "internalType": "string",
          "name": "",
          "type": "string"
        }
      ],
      "stateMutability": "view",
      "type": "function"
    },
    {
      "inputs": [
        {
          "internalType": "uint256",
          "name": "index",
          "type": "uint256"
        }
      ],
      "name": "tokenByIndex",
      "outputs": [
        {
          "internalType": "uint256",
          "name": "",
          "type": "uint256"
        }
      ],
      "stateMutability": "view",
      "type": "function"
    },
    {
      "inputs": [
        {
          "internalType": "address",
          "name": "owner",
          "type": "address"
        },
        {
          "internalType": "uint256",
          "name": "index",
          "type": "uint256"
        }
      ],
      "name": "tokenOfOwnerByIndex",
      "outputs": [
        {
          "internalType": "uint256",
          "name": "",
          "type": "uint256"
        }
      ],
      "stateMutability": "view",
      "type": "function"
    },
    {
      "inputs": [
        {
          "internalType": "uint256",
          "name": "tokenId",
          "type": "uint256"
        }
      ],
      "name": "tokenURI",
      "outputs": [
        {
          "internalType": "string",
          "name": "",
          "type": "string"
        }
      ],
      "stateMutability": "view",
      "type": "function"
    },
    {
      "inputs": [],
      "name": "totalSupply",
      "outputs": [
        {
          "internalType": "uint256",
          "name": "",
          "type": "uint256"
        }
      ],
      "stateMutability": "view",
      "type": "function"
    },
    {
      "inputs": [
        {
          "internalType": "address",
          "name": "from",
          "type": "address"
        },
        {
          "internalType": "address",
          "name": "to",
          "type": "address"
        },
        {
          "internalType": "uint256",
          "name": "tokenId",
          "type": "uint256"
        }
      ],
      "name": "transferFrom",
      "outputs": [],
      "stateMutability": "nonpayable",
      "type": "function"
    },
    {
      "inputs": [
        {
          "internalType": "address payable",
          "name": "payee",
          "type": "address"
        }
      ],
      "name": "withdrawPayments",
      "outputs": [],
      "stateMutability": "nonpayable",
      "type": "function"
    },
    {
      "stateMutability": "payable",
      "type": "receive"
    }
  ],
  "bytecode": "0x60a06040526000600e553480156200001657600080fd5b50604051806040016040528060048152602001634e6f646560e01b815250604051806040016040528060048152602001634e4f444560e01b815250816002908051906020019062000069929190620000c9565b5080516200007f906003906020840190620000c9565b50506001600d5550604051620000959062000158565b604051809103906000f080158015620000b2573d6000803e3d6000fd5b5060601b6001600160601b031916608052620001ba565b828054620000d7906200017d565b90600052602060002090601f016020900481019282620000fb576000855562000146565b82601f106200011657805160ff191683800117855562000146565b8280016001018555821562000146579182015b828111156200014657825182559160200191906001019062000129565b506200015492915062000166565b5090565b6105f28062004f6e83390190565b5b8082111562000154576000815560010162000167565b600181811c908216806200019257607f821691505b60208210811415620001b457634e487b7160e01b600052602260045260246000fd5b50919050565b60805160601c614d6b62000203600039600081816102ef015281816103820152818161109f01528181611692015281816120f2015281816123930152612ce40152614d6b6000f3fe6080604052600436106102e85760003560e01c806375b238fc11610190578063ac3b5bf8116100dc578063e2982c2111610095578063eb31f4c51161006f578063eb31f4c514610a5b578063ee437dae14610a7b578063f1052ef914610a90578063fe0a03e614610ac057610380565b8063e2982c21146109d2578063e985e9c5146109f2578063ea559dc214610a3b57610380565b8063ac3b5bf81461092a578063ade610981461094a578063b88d4fde1461095f578063c87b56dd1461097f578063dbd3fd7f1461099f578063dd888a9f146109b257610380565b806392d96325116101495780639cb99aba116101235780639cb99aba146108b5578063a22cb465146108d5578063a853211a146108f5578063a937319a1461090a57610380565b806392d963251461084057806395d89b41146108805780639bf150321461089557610380565b806375b238fc1461076e578063790ef4fa146107835780637ea50765146107a357806381a30f16146107de57806385d6f217146107f35780638a616bc01461082057610380565b80633aa817cc1161024f57806352b6f21d116102085780636352211e116101e25780636352211e146106d757806368e661eb146106f75780636f6333401461072e57806370a082311461074e57610380565b806352b6f21d146106565780635587850d146106975780635944c753146106b757610380565b80633aa817cc146105965780633af7a723146105b657806342842e0e146105d657806344c3d3fb146105f65780634f558e79146106165780634f6ccce71461063657610380565b806323b872dd116102a157806323b872dd146104a85780632a55205a146104c85780632f745c59146105075780632fc7bfab1461052757806331b3eb941461053a5780633a06529b1461055a57610380565b806301ffc9a7146103b857806304634d8d146103ed57806306fdde031461040f578063081812fc14610431578063095ea7b31461046957806318160ddd1461048957610380565b36610380577f00000000000000000000000000000000000000000000000000000000000000006001600160a01b031663f340fa0134610325610ad1565b6040516001600160e01b031960e085901b1681526001600160a01b0390911660048201526024016000604051808303818588803b15801561036557600080fd5b505af1158015610379573d6000803e3d6000fd5b5050505050005b7f00000000000000000000000000000000000000000000000000000000000000006001600160a01b031663f340fa0134610325610ad1565b3480156103c457600080fd5b506103d86103d3366004614465565b610ae2565b60405190151581526020015b60405180910390f35b3480156103f957600080fd5b5061040d610408366004614439565b610af3565b005b34801561041b57600080fd5b50610424610b09565b6040516103e491906148fa565b34801561043d57600080fd5b5061045161044c3660046145d5565b610b9b565b6040516001600160a01b0390911681526020016103e4565b34801561047557600080fd5b5061040d61048436600461440d565b610c28565b34801561049557600080fd5b50600a545b6040519081526020016103e4565b3480156104b457600080fd5b5061040d6104c3366004614317565b610d3e565b3480156104d457600080fd5b506104e86104e3366004614750565b610d6f565b604080516001600160a01b0390931683526020830191909152016103e4565b34801561051357600080fd5b5061049a61052236600461440d565b610e1b565b61040d6105353660046146ca565b610eb1565b34801561054657600080fd5b5061040d6105553660046142c1565b611028565b34801561056657600080fd5b506104246040518060400160405280601081526020016f1b9bd91957db9bdb995e1a5cdd195b9d60821b81525081565b3480156105a257600080fd5b5061040d6105b1366004614750565b611103565b3480156105c257600080fd5b506103d86105d1366004614607565b6111d0565b3480156105e257600080fd5b5061040d6105f1366004614317565b6111f7565b34801561060257600080fd5b5061040d61061136600461468d565b611212565b34801561062257600080fd5b506103d86106313660046145d5565b61136a565b34801561064257600080fd5b5061049a6106513660046145d5565b611375565b34801561066257600080fd5b50610424604051806040016040528060158152602001741bdb9b1e57dc1c9bdd1bd8dbdb17dcdd195dd85c99605a1b81525081565b3480156106a357600080fd5b5061040d6106b23660046145d5565b611408565b3480156106c357600080fd5b5061040d6106d236600461462c565b6114bb565b3480156106e357600080fd5b506104516106f23660046145d5565b611524565b34801561070357600080fd5b50610424604051806040016040528060188152602001600080516020614d1683398151915281525081565b34801561073a57600080fd5b506103d861074936600461449f565b61159b565b34801561075a57600080fd5b5061049a6107693660046142c1565b6115f4565b34801561077a57600080fd5b5061049a600081565b34801561078f57600080fd5b5061040d61079e3660046145d5565b61167b565b3480156107af57600080fd5b506104246040518060400160405280600f81526020016e72657365727665645f737472696e6760881b81525081565b3480156107ea57600080fd5b5061040d611688565b3480156107ff57600080fd5b5061049a61080e3660046145d5565b60009081526012602052604090205490565b34801561082c57600080fd5b5061040d61083b3660046145d5565b611723565b34801561084c57600080fd5b50610424604051806040016040528060148152602001733932b1bab939b4bb32afb232b632b3b0ba34b7b760611b81525081565b34801561088c57600080fd5b5061042461178d565b3480156108a157600080fd5b5061040d6108b0366004614750565b61179c565b3480156108c157600080fd5b5061040d6108d0366004614772565b611bc2565b3480156108e157600080fd5b5061040d6108f03660046143d8565b611d73565b34801561090157600080fd5b5061049a600181565b34801561091657600080fd5b5061040d61092536600461466a565b611d7e565b34801561093657600080fd5b5061040d610945366004614750565b611e36565b34801561095657600080fd5b50600e5461049a565b34801561096b57600080fd5b5061040d61097a366004614358565b611ee7565b34801561098b57600080fd5b5061042461099a3660046145d5565b611f19565b61040d6109ad366004614503565b611f4a565b3480156109be57600080fd5b5061040d6109cd366004614750565b612199565b3480156109de57600080fd5b5061049a6109ed3660046142c1565b612371565b3480156109fe57600080fd5b506103d8610a0d3660046142de565b6001600160a01b03918216600090815260076020908152604080832093909416825291909152205460ff1690565b348015610a4757600080fd5b506103d8610a56366004614772565b61240f565b348015610a6757600080fd5b5061040d610a76366004614772565b6124ba565b348015610a8757600080fd5b5061040d61266a565b348015610a9c57600080fd5b506103d8610aab3660046145d5565b60009081526016602052604090205460ff1690565b348015610acc57600080fd5b506104515b6000610add6001611524565b905090565b6000610aed8261267d565b92915050565b610afb612688565b610b0582826126ea565b5050565b606060028054610b1890614c12565b80601f0160208091040260200160405190810160405280929190818152602001828054610b4490614c12565b8015610b915780601f10610b6657610100808354040283529160200191610b91565b820191906000526020600020905b815481529060010190602001808311610b7457829003601f168201915b5050505050905090565b6000610ba6826127a4565b610c0c5760405162461bcd60e51b815260206004820152602c60248201527f4552433732313a20617070726f76656420717565727920666f72206e6f6e657860448201526b34b9ba32b73a103a37b5b2b760a11b60648201526084015b60405180910390fd5b506000908152600660205260409020546001600160a01b031690565b6000610c3382611524565b9050806001600160a01b0316836001600160a01b03161415610ca15760405162461bcd60e51b815260206004820152602160248201527f4552433732313a20617070726f76616c20746f2063757272656e74206f776e656044820152603960f91b6064820152608401610c03565b336001600160a01b0382161480610cbd5750610cbd8133610a0d565b610d2f5760405162461bcd60e51b815260206004820152603860248201527f4552433732313a20617070726f76652063616c6c6572206973206e6f74206f7760448201527f6e6572206e6f7220617070726f76656420666f7220616c6c00000000000000006064820152608401610c03565b610d3983836127c1565b505050565b610d48338261282f565b610d645760405162461bcd60e51b8152600401610c0390614a44565b610d39838383612919565b60008281526001602090815260408083208151808301909252546001600160a01b038116808352600160a01b9091046001600160601b0316928201929092528291610de45750604080518082019091526000546001600160a01b0381168252600160a01b90046001600160601b031660208201525b602081015160009061271090610e03906001600160601b031687614bb0565b610e0d9190614b9c565b915196919550909350505050565b6000610e26836115f4565b8210610e885760405162461bcd60e51b815260206004820152602b60248201527f455243373231456e756d657261626c653a206f776e657220696e646578206f7560448201526a74206f6620626f756e647360a81b6064820152608401610c03565b506001600160a01b03919091166000908152600860209081526040808320938352929052205490565b83610ebb816127a4565b6040518060400160405280601081526020016f1b9bd91957db9bdb995e1a5cdd195b9d60821b81525090610f025760405162461bcd60e51b8152600401610c0391906148fa565b50600085815260166020526040902054859060ff16610fc457610f2581336111d0565b604051806040016040528060188152602001600080516020614d1683398151915281525090610f675760405162461bcd60e51b8152600401610c0391906148fa565b50610f7185612ac0565b610f7b8686612b02565b857f236bb16971ddcd63b572657e5dd00a13bce4f2c2b7edb3d22ba10b0021efedb186868633604051610fb19493929190614937565b60405180910390a2610fc4868585612b8d565b610fcd85612ac0565b610fd78686612b02565b857f236bb16971ddcd63b572657e5dd00a13bce4f2c2b7edb3d22ba10b0021efedb18686863360405161100d9493929190614937565b60405180910390a2611020868585612b8d565b505050505050565b6002600d54141561107b5760405162461bcd60e51b815260206004820152601f60248201527f5265656e7472616e637947756172643a207265656e7472616e742063616c6c006044820152606401610c03565b6002600d556040516351cff8d960e01b81526001600160a01b0382811660048301527f000000000000000000000000000000000000000000000000000000000000000016906351cff8d990602401600060405180830381600087803b1580156110e357600080fd5b505af11580156110f7573d6000803e3d6000fd5b50506001600d55505050565b8161110d816127a4565b6040518060400160405280601081526020016f1b9bd91957db9bdb995e1a5cdd195b9d60821b815250906111545760405162461bcd60e51b8152600401610c0391906148fa565b5061116083833361240f565b15610d39576000838152601360209081526040808320858452825280832033808552925291829020805460ff1916905590517f743dd6de0118c934baddbf165685269ac4f51fe0780281fdb64ea7ca8746ceff916111c391869186918190614adf565b60405180910390a1505050565b60006111de8360008461240f565b806111f057506111f08360018461240f565b9392505050565b610d3983838360405180602001604052806000815250611ee7565b8161121c816127a4565b6040518060400160405280601081526020016f1b9bd91957db9bdb995e1a5cdd195b9d60821b815250906112635760405162461bcd60e51b8152600401610c0391906148fa565b50600083815260166020526040902054839060ff166113175761128681336111d0565b604051806040016040528060188152602001600080516020614d16833981519152815250906112c85760405162461bcd60e51b8152600401610c0391906148fa565b506112d283612ac0565b6112dc8484612b02565b837f8a98cc625a75c2dc14883da513c5ce302b8ae3422734382fb4edcfddfde37cdf843360405161130e92919061490d565b60405180910390a25b61132083612ac0565b61132a8484612b02565b837f8a98cc625a75c2dc14883da513c5ce302b8ae3422734382fb4edcfddfde37cdf843360405161135c92919061490d565b60405180910390a250505050565b6000610aed826127a4565b6000611380600a5490565b82106113e35760405162461bcd60e51b815260206004820152602c60248201527f455243373231456e756d657261626c653a20676c6f62616c20696e646578206f60448201526b7574206f6620626f756e647360a01b6064820152608401610c03565b600a82815481106113f6576113f6614cbe565b90600052602060002001549050919050565b80611412816127a4565b6040518060400160405280601081526020016f1b9bd91957db9bdb995e1a5cdd195b9d60821b815250906114595760405162461bcd60e51b8152600401610c0391906148fa565b50813361146582611524565b6001600160a01b031614604051806040016040528060188152602001600080516020614d16833981519152815250906114b15760405162461bcd60e51b8152600401610c0391906148fa565b50610d398361319d565b82336114c682611524565b6001600160a01b031614604051806040016040528060188152602001600080516020614d16833981519152815250906115125760405162461bcd60e51b8152600401610c0391906148fa565b5061151e8484846131a6565b50505050565b6000818152600460205260408120546001600160a01b031680610aed5760405162461bcd60e51b815260206004820152602960248201527f4552433732313a206f776e657220717565727920666f72206e6f6e657869737460448201526832b73a103a37b5b2b760b91b6064820152608401610c03565b6000816040516020016115ae9190614840565b60405160208183030381529060405280519060200120836040516020016115d59190614840565b6040516020818303038152906040528051906020012014905092915050565b60006001600160a01b03821661165f5760405162461bcd60e51b815260206004820152602a60248201527f4552433732313a2062616c616e636520717565727920666f7220746865207a65604482015269726f206164647265737360b01b6064820152608401610c03565b506001600160a01b031660009081526005602052604090205490565b611683612688565b600e55565b611690612688565b7f00000000000000000000000000000000000000000000000000000000000000006001600160a01b031663f340fa01476116c8610ad1565b6040516001600160e01b031960e085901b1681526001600160a01b0390911660048201526024016000604051808303818588803b15801561170857600080fd5b505af115801561171c573d6000803e3d6000fd5b5050505050565b803361172e82611524565b6001600160a01b031614604051806040016040528060188152602001600080516020614d168339815191528152509061177a5760405162461bcd60e51b8152600401610c0391906148fa565b5050600090815260016020526040812055565b606060038054610b1890614c12565b816117a6816127a4565b6040518060400160405280601081526020016f1b9bd91957db9bdb995e1a5cdd195b9d60821b815250906117ed5760405162461bcd60e51b8152600401610c0391906148fa565b50816117f8816127a4565b6040518060400160405280601081526020016f1b9bd91957db9bdb995e1a5cdd195b9d60821b8152509061183f5760405162461bcd60e51b8152600401610c0391906148fa565b5060008481526016602052604081205485919060ff16611a2a5761186482823361240f565b604051806040016040528060188152602001600080516020614d16833981519152815250906118a65760405162461bcd60e51b8152600401610c0391906148fa565b506040805180820190915260148152733932b1bab939b4bb32afb232b632b3b0ba34b7b760611b6020820152868614156118f35760405162461bcd60e51b8152600401610c0391906148fa565b50600085815260146020526040902061190b90613271565b6040805180820190915260148152733932b1bab939b4bb32afb232b632b3b0ba34b7b760611b602082015290156119555760405162461bcd60e51b8152600401610c0391906148fa565b50600086815260156020526040902061196d90613271565b6040805180820190915260148152733932b1bab939b4bb32afb232b632b3b0ba34b7b760611b602082015290156119b75760405162461bcd60e51b8152600401610c0391906148fa565b5060008681526014602052604090206119d0908661327b565b5060008581526015602052604090206119e9908761327b565b506040805187815260208101879052338183015290517ff756463748eb0d59b8dea527a9a6d0c7e1b813913b25797ba5d3603892b207049181900360600190a15b6040805180820190915260148152733932b1bab939b4bb32afb232b632b3b0ba34b7b760611b602082015286861415611a765760405162461bcd60e51b8152600401610c0391906148fa565b506000858152601460205260409020611a8e90613271565b6040805180820190915260148152733932b1bab939b4bb32afb232b632b3b0ba34b7b760611b60208201529015611ad85760405162461bcd60e51b8152600401610c0391906148fa565b506000868152601560205260409020611af090613271565b6040805180820190915260148152733932b1bab939b4bb32afb232b632b3b0ba34b7b760611b60208201529015611b3a5760405162461bcd60e51b8152600401610c0391906148fa565b506000868152601460205260409020611b53908661327b565b506000858152601560205260409020611b6c908761327b565b507ff756463748eb0d59b8dea527a9a6d0c7e1b813913b25797ba5d3603892b207048686335b6040805193845260208401929092526001600160a01b0316908201526060015b60405180910390a1505050505050565b82611bcc816127a4565b6040518060400160405280601081526020016f1b9bd91957db9bdb995e1a5cdd195b9d60821b81525090611c135760405162461bcd60e51b8152600401610c0391906148fa565b5060008481526016602052604081205485919060ff16611cfb57611c3882823361240f565b604051806040016040528060188152602001600080516020614d1683398151915281525090611c7a5760405162461bcd60e51b8152600401610c0391906148fa565b50611c8686868661240f565b15611cfb57600086815260136020908152604080832088845282528083206001600160a01b03881684529091529020805460ff191690557f743dd6de0118c934baddbf165685269ac4f51fe0780281fdb64ea7ca8746ceff86868633604051611cf29493929190614adf565b60405180910390a15b611d0686868661240f565b1561102057600086815260136020908152604080832088845282528083206001600160a01b03881684529091529020805460ff191690557f743dd6de0118c934baddbf165685269ac4f51fe0780281fdb64ea7ca8746ceff868686335b604051611bb29493929190614adf565b610b05338383613287565b611d8a8260003361240f565b604051806040016040528060188152602001600080516020614d1683398151915281525090611dcc5760405162461bcd60e51b8152600401610c0391906148fa565b506000828152601660205260409020805460ff19168215151790557fe0b4110a3baee4f696784af62abd29a66eaa57537c9d08b1e88efa87c846180c8282336040805193845291151560208401526001600160a01b03169082015260600160405180910390a15050565b8133611e4182611524565b6001600160a01b031614604051806040016040528060188152602001600080516020614d1683398151915281525090611e8d5760405162461bcd60e51b8152600401610c0391906148fa565b5060008381526012602052604090208290557f1f0ddf3115a5d0fceb59847eee42b4335f88b04f1d62262da57189e7432a7d6a8383336040805193845260208401929092526001600160a01b0316908201526060016111c3565b611ef1338361282f565b611f0d5760405162461bcd60e51b8152600401610c0390614a44565b61151e84848484613356565b6060611f2482613389565b604051602001611f34919061488b565b6040516020818303038152906040529050919050565b84604051806040016040528060018152602001605f60f81b815250611f6f8282613507565b156040518060400160405280600f81526020016e72657365727665645f737472696e6760881b81525090611fb65760405162461bcd60e51b8152600401610c0391906148fa565b50611fc087612ac0565b611fc986612ac0565b611fd7600f80546001019055565b6000611fe2600f5490565b9050807e87cb72211b7017110b6e2676b860d8bc248f2161d7a6abac1896f0fc1e428b898989893360405161201b95949392919061498a565b60405180910390a261202d33826135cd565b6120378188612b02565b6000818152601260209081526040808320839055601382528083208380528252808320338085529252808320805460ff19166001179055517f3f9759be566576e968397b016ea9843c3e1d19bf1f59ae53cdfbd3b1a69140709261209e9285928190614adf565b60405180910390a160005b84518110156120e7576120d5828683815181106120c8576120c8614cbe565b602002602001015161179c565b806120df81614c4d565b9150506120a9565b50600e5415612184577f00000000000000000000000000000000000000000000000000000000000000006001600160a01b031663f340fa01600e5461212a610ad1565b6040516001600160e01b031960e085901b1681526001600160a01b0390911660048201526024016000604051808303818588803b15801561216a57600080fd5b505af115801561217e573d6000803e3d6000fd5b50505050505b61218f818787612b8d565b5050505050505050565b816121a3816127a4565b6040518060400160405280601081526020016f1b9bd91957db9bdb995e1a5cdd195b9d60821b815250906121ea5760405162461bcd60e51b8152600401610c0391906148fa565b50816121f5816127a4565b6040518060400160405280601081526020016f1b9bd91957db9bdb995e1a5cdd195b9d60821b8152509061223c5760405162461bcd60e51b8152600401610c0391906148fa565b5060008481526016602052604081205485919060ff166123165761226182823361240f565b604051806040016040528060188152602001600080516020614d16833981519152815250906122a35760405162461bcd60e51b8152600401610c0391906148fa565b5060008681526014602052604090206122bc90866135e7565b5060008581526015602052604090206122d590876135e7565b506040805187815260208101879052338183015290517fe90abaaba0ad946d1629928fb2d2e7c2c3dbac7b21e98a78cf777e1e87ef80389181900360600190a15b600086815260146020526040902061232e90866135e7565b50600085815260156020526040902061234790876135e7565b507fe90abaaba0ad946d1629928fb2d2e7c2c3dbac7b21e98a78cf777e1e87ef8038868633611b92565b6040516371d4ed8d60e11b81526001600160a01b0382811660048301526000917f00000000000000000000000000000000000000000000000000000000000000009091169063e3a9db1a9060240160206040518083038186803b1580156123d757600080fd5b505afa1580156123eb573d6000803e3d6000fd5b505050506040513d601f19601f82011682018060405250810190610aed91906145ee565b600083815260136020908152604080832085845282528083206001600160a01b038516845290915281205460ff161561244a575060016111f0565b60005b600085815260146020526040902061246490613271565b8110156124af57600085815260146020526040902061248e9061248790836135f3565b858561240f565b1561249d5760019150506111f0565b806124a781614c4d565b91505061244d565b506000949350505050565b826124c4816127a4565b6040518060400160405280601081526020016f1b9bd91957db9bdb995e1a5cdd195b9d60821b8152509061250b5760405162461bcd60e51b8152600401610c0391906148fa565b5060008481526016602052604081205485919060ff166125fb5761253082823361240f565b604051806040016040528060188152602001600080516020614d16833981519152815250906125725760405162461bcd60e51b8152600401610c0391906148fa565b5061257e86868661240f565b6125fb57600086815260136020908152604080832088845282528083206001600160a01b03881684529091529020805460ff191660011790557f3f9759be566576e968397b016ea9843c3e1d19bf1f59ae53cdfbd3b1a69140708686866125e23390565b6040516125f29493929190614adf565b60405180910390a15b61260686868661240f565b61102057600086815260136020908152604080832088845282528083206001600160a01b03881684529091529020805460ff191660011790557f3f9759be566576e968397b016ea9843c3e1d19bf1f59ae53cdfbd3b1a6914070868686611d633390565b612672612688565b61267b60008055565b565b6000610aed826135ff565b33612691610ad1565b6001600160a01b031614604051806040016040528060158152602001741bdb9b1e57dc1c9bdd1bd8dbdb17dcdd195dd85c99605a1b815250906126e75760405162461bcd60e51b8152600401610c0391906148fa565b50565b6127106001600160601b03821611156127155760405162461bcd60e51b8152600401610c0390614a95565b6001600160a01b03821661276b5760405162461bcd60e51b815260206004820152601960248201527f455243323938313a20696e76616c6964207265636569766572000000000000006044820152606401610c03565b604080518082019091526001600160a01b039092168083526001600160601b039091166020909201829052600160a01b90910217600055565b6000908152600460205260409020546001600160a01b0316151590565b600081815260066020526040902080546001600160a01b0319166001600160a01b03841690811790915581906127f682611524565b6001600160a01b03167f8c5be1e5ebec7d5bd14f71427d1e84f3dd0314c0f7b2291e5b200ac8c7c3b92560405160405180910390a45050565b600061283a826127a4565b61289b5760405162461bcd60e51b815260206004820152602c60248201527f4552433732313a206f70657261746f7220717565727920666f72206e6f6e657860448201526b34b9ba32b73a103a37b5b2b760a11b6064820152608401610c03565b60006128a683611524565b9050806001600160a01b0316846001600160a01b031614806128ed57506001600160a01b0380821660009081526007602090815260408083209388168352929052205460ff165b806129115750836001600160a01b031661290684610b9b565b6001600160a01b0316145b949350505050565b826001600160a01b031661292c82611524565b6001600160a01b0316146129905760405162461bcd60e51b815260206004820152602560248201527f4552433732313a207472616e736665722066726f6d20696e636f72726563742060448201526437bbb732b960d91b6064820152608401610c03565b6001600160a01b0382166129f25760405162461bcd60e51b8152602060048201526024808201527f4552433732313a207472616e7366657220746f20746865207a65726f206164646044820152637265737360e01b6064820152608401610c03565b6129fd838383613624565b612a086000826127c1565b6001600160a01b0383166000908152600560205260408120805460019290612a31908490614bcf565b90915550506001600160a01b0382166000908152600560205260408120805460019290612a5f908490614b84565b909155505060008181526004602052604080822080546001600160a01b0319166001600160a01b0386811691821790925591518493918716917fddf252ad1be2c89b69c2b068fc378daa952ba7f163c4a11628f55a4df523b3ef91a4505050565b60008151116126e75760405162461bcd60e51b815260206004820152600e60248201526d696e76616c69645f737472696e6760901b6044820152606401610c03565b612b0b826127a4565b612b6e5760405162461bcd60e51b815260206004820152602e60248201527f45524337323155524953746f726167653a2055524920736574206f66206e6f6e60448201526d32bc34b9ba32b73a103a37b5b2b760911b6064820152608401610c03565b6000828152600c602090815260409091208251610d3992840190613fd4565b60005b8251811015612da8576000838281518110612bad57612bad614cbe565b60200260200101519050612bc481600001516127a4565b6040518060400160405280601081526020016f1b9bd91957db9bdb995e1a5cdd195b9d60821b81525090612c0b5760405162461bcd60e51b8152600401610c0391906148fa565b50612c338160200151604051806040016040528060018152602001605f60f81b815250613507565b156040518060400160405280600f81526020016e72657365727665645f737472696e6760881b81525090612c7a5760405162461bcd60e51b8152600401610c0391906148fa565b5080516000908152601260205260408120549050612c9933835161282f565b158015612caf57508151612cad90336111d0565b155b8015612cbb5750600081115b8015612cdd575081516000878152601060205260409020612cdb9161362f565b155b15612d79577f00000000000000000000000000000000000000000000000000000000000000006001600160a01b031663f340fa0182612d1f8560000151611524565b6040516001600160e01b031960e085901b1681526001600160a01b0390911660048201526024016000604051808303818588803b158015612d5f57600080fd5b505af1158015612d73573d6000803e3d6000fd5b50505050505b81516000878152601060205260409020612d929161327b565b5050508080612da090614c4d565b915050612b90565b50600083815260116020908152604080832080548251818502810185019093528083529192909190849084015b82821015612ea3578382906000526020600020906002020160405180604001604052908160008201548152602001600182018054612e1290614c12565b80601f0160208091040260200160405190810160405280929190818152602001828054612e3e90614c12565b8015612e8b5780601f10612e6057610100808354040283529160200191612e8b565b820191906000526020600020905b815481529060010190602001808311612e6e57829003601f168201915b50505050508152505081526020019060010190612dd5565b5050506000868152601160205260408120929350612ec2929150614058565b60005b825181101561307c576000838281518110612ee257612ee2614cbe565b60200260200101519050612ef981600001516127a4565b6040518060400160405280601081526020016f1b9bd91957db9bdb995e1a5cdd195b9d60821b81525090612f405760405162461bcd60e51b8152600401610c0391906148fa565b506000805b8451811015612fad576000858281518110612f6257612f62614cbe565b6020026020010151905083600001518160000151148015612f905750612f908160200151856020015161159b565b15612f9a57600192505b5080612fa581614c4d565b915050612f45565b5080158015612fcd5750815160009081526016602052604090205460ff16155b15613022578151612fde90336111d0565b604051806040016040528060188152602001600080516020614d16833981519152815250906130205760405162461bcd60e51b8152600401610c0391906148fa565b505b60008781526011602090815260408220805460018181018355918452928290208551600290940201928355848201518051869493613064938501920190613fd4565b5050505050808061307490614c4d565b915050612ec5565b5060005b815181101561171c57600082828151811061309d5761309d614cbe565b602002602001015190506000805b85518110156131135760008682815181106130c8576130c8614cbe565b60200260200101519050806000015184600001511480156130f657506130f68460200151826020015161159b565b1561310057600192505b508061310b81614c4d565b9150506130ab565b50801580156131335750815160009081526016602052604090205460ff16155b1561318857815161314490336111d0565b604051806040016040528060188152602001600080516020614d16833981519152815250906131865760405162461bcd60e51b8152600401610c0391906148fa565b505b5050808061319590614c4d565b915050613080565b6126e781613647565b6127106001600160601b03821611156131d15760405162461bcd60e51b8152600401610c0390614a95565b6001600160a01b0382166132275760405162461bcd60e51b815260206004820152601b60248201527f455243323938313a20496e76616c696420706172616d657465727300000000006044820152606401610c03565b6040805180820182526001600160a01b0393841681526001600160601b0392831660208083019182526000968752600190529190942093519051909116600160a01b029116179055565b6000610aed825490565b60006111f08383613661565b816001600160a01b0316836001600160a01b031614156132e95760405162461bcd60e51b815260206004820152601960248201527f4552433732313a20617070726f766520746f2063616c6c6572000000000000006044820152606401610c03565b6001600160a01b03838116600081815260076020908152604080832094871680845294825291829020805460ff191686151590811790915591519182527f17307eab39ab6107e8899845ad3d59bd9653f200f220920489ca2b5937696c31910160405180910390a3505050565b613361848484612919565b61336d848484846136b0565b61151e5760405162461bcd60e51b8152600401610c03906149f2565b6060613394826127a4565b6133fa5760405162461bcd60e51b815260206004820152603160248201527f45524337323155524953746f726167653a2055524920717565727920666f72206044820152703737b732bc34b9ba32b73a103a37b5b2b760791b6064820152608401610c03565b6000828152600c60205260408120805461341390614c12565b80601f016020809104026020016040519081016040528092919081815260200182805461343f90614c12565b801561348c5780601f106134615761010080835404028352916020019161348c565b820191906000526020600020905b81548152906001019060200180831161346f57829003601f168201915b5050505050905060006134b9604080518082019091526007815266697066733a2f2f60c81b602082015290565b90508051600014156134cc575092915050565b8151156134fe5780826040516020016134e692919061485c565b60405160208183030381529060405292505050919050565b612911846137bd565b805182516000918391859111156135515760405162461bcd60e51b815260206004820152600e60248201526d696e76616c69645f737472696e6760901b6044820152606401610c03565b600160005b83518110156135c35783818151811061357157613571614cbe565b602001015160f81c60f81b6001600160f81b03191683828151811061359857613598614cbe565b01602001516001600160f81b031916146135b157600091505b806135bb81614c4d565b915050613556565b5095945050505050565b610b058282604051806020016040528060008152506138a3565b60006111f083836138d6565b60006111f083836139c9565b60006001600160e01b0319821663780e9d6360e01b1480610aed5750610aed826139f3565b610d39838383613a33565b600081815260018301602052604081205415156111f0565b61365081613aeb565b600090815260016020526040812055565b60008181526001830160205260408120546136a857508154600181810184556000848152602080822090930184905584548482528286019093526040902091909155610aed565b506000610aed565b60006001600160a01b0384163b156137b257604051630a85bd0160e11b81526001600160a01b0385169063150b7a02906136f49033908990889088906004016148bd565b602060405180830381600087803b15801561370e57600080fd5b505af192505050801561373e575060408051601f3d908101601f1916820190925261373b91810190614482565b60015b613798573d80801561376c576040519150601f19603f3d011682016040523d82523d6000602084013e613771565b606091505b5080516137905760405162461bcd60e51b8152600401610c03906149f2565b805181602001fd5b6001600160e01b031916630a85bd0160e11b149050612911565b506001949350505050565b60606137c8826127a4565b61382c5760405162461bcd60e51b815260206004820152602f60248201527f4552433732314d657461646174613a2055524920717565727920666f72206e6f60448201526e3732bc34b9ba32b73a103a37b5b2b760891b6064820152608401610c03565b6000613852604080518082019091526007815266697066733a2f2f60c81b602082015290565b9050600081511161387257604051806020016040528060008152506111f0565b8061387c84613b2b565b60405160200161388d92919061485c565b6040516020818303038152906040529392505050565b6138ad8383613c29565b6138ba60008484846136b0565b610d395760405162461bcd60e51b8152600401610c03906149f2565b600081815260018301602052604081205480156139bf5760006138fa600183614bcf565b855490915060009061390e90600190614bcf565b905081811461397357600086600001828154811061392e5761392e614cbe565b906000526020600020015490508087600001848154811061395157613951614cbe565b6000918252602080832090910192909255918252600188019052604090208390555b855486908061398457613984614ca8565b600190038181906000526020600020016000905590558560010160008681526020019081526020016000206000905560019350505050610aed565b6000915050610aed565b60008260000182815481106139e0576139e0614cbe565b9060005260206000200154905092915050565b60006001600160e01b031982166380ac58cd60e01b1480613a2457506001600160e01b03198216635b5e139f60e01b145b80610aed5750610aed82613d68565b6001600160a01b038316613a8e57613a8981600a80546000838152600b60205260408120829055600182018355919091527fc65a7bb8d6351c1cf70c95a316cc6a92839c986682d98bc35f958f4883f9d2a80155565b613ab1565b816001600160a01b0316836001600160a01b031614613ab157613ab18382613d9d565b6001600160a01b038216613ac857610d3981613e3a565b826001600160a01b0316826001600160a01b031614610d3957610d398282613ee9565b613af481613f2d565b6000818152600c602052604090208054613b0d90614c12565b1590506126e7576000818152600c602052604081206126e791614079565b606081613b4f5750506040805180820190915260018152600360fc1b602082015290565b8160005b8115613b795780613b6381614c4d565b9150613b729050600a83614b9c565b9150613b53565b60008167ffffffffffffffff811115613b9457613b94614cd4565b6040519080825280601f01601f191660200182016040528015613bbe576020820181803683370190505b5090505b841561291157613bd3600183614bcf565b9150613be0600a86614c68565b613beb906030614b84565b60f81b818381518110613c0057613c00614cbe565b60200101906001600160f81b031916908160001a905350613c22600a86614b9c565b9450613bc2565b6001600160a01b038216613c7f5760405162461bcd60e51b815260206004820181905260248201527f4552433732313a206d696e7420746f20746865207a65726f20616464726573736044820152606401610c03565b613c88816127a4565b15613cd55760405162461bcd60e51b815260206004820152601c60248201527f4552433732313a20746f6b656e20616c7265616479206d696e746564000000006044820152606401610c03565b613ce160008383613624565b6001600160a01b0382166000908152600560205260408120805460019290613d0a908490614b84565b909155505060008181526004602052604080822080546001600160a01b0319166001600160a01b03861690811790915590518392907fddf252ad1be2c89b69c2b068fc378daa952ba7f163c4a11628f55a4df523b3ef908290a45050565b60006001600160e01b0319821663152a902d60e11b1480610aed57506301ffc9a760e01b6001600160e01b0319831614610aed565b60006001613daa846115f4565b613db49190614bcf565b600083815260096020526040902054909150808214613e07576001600160a01b03841660009081526008602090815260408083208584528252808320548484528184208190558352600990915290208190555b5060009182526009602090815260408084208490556001600160a01b039094168352600881528383209183525290812055565b600a54600090613e4c90600190614bcf565b6000838152600b6020526040812054600a8054939450909284908110613e7457613e74614cbe565b9060005260206000200154905080600a8381548110613e9557613e95614cbe565b6000918252602080832090910192909255828152600b9091526040808220849055858252812055600a805480613ecd57613ecd614ca8565b6001900381819060005260206000200160009055905550505050565b6000613ef4836115f4565b6001600160a01b039093166000908152600860209081526040808320868452825280832085905593825260099052919091209190915550565b6000613f3882611524565b9050613f4681600084613624565b613f516000836127c1565b6001600160a01b0381166000908152600560205260408120805460019290613f7a908490614bcf565b909155505060008281526004602052604080822080546001600160a01b0319169055518391906001600160a01b038416907fddf252ad1be2c89b69c2b068fc378daa952ba7f163c4a11628f55a4df523b3ef908390a45050565b828054613fe090614c12565b90600052602060002090601f0160209004810192826140025760008555614048565b82601f1061401b57805160ff1916838001178555614048565b82800160010185558215614048579182015b8281111561404857825182559160200191906001019061402d565b506140549291506140af565b5090565b50805460008255600202906000526020600020908101906126e791906140c4565b50805461408590614c12565b6000825580601f10614095575050565b601f0160209004906000526020600020908101906126e791905b5b8082111561405457600081556001016140b0565b808211156140545760008082556140de6001830182614079565b506002016140c4565b600067ffffffffffffffff83111561410157614101614cd4565b614114601f8401601f1916602001614b2f565b905082815283838301111561412857600080fd5b828260208301376000602084830101529392505050565b600082601f83011261415057600080fd5b8135602061416561416083614b60565b614b2f565b80838252828201915082860187848660051b890101111561418557600080fd5b60005b8581101561420857813567ffffffffffffffff808211156141a857600080fd5b908901906040828c03601f19018113156141c157600080fd5b6141c9614b06565b8389013581529083013590828211156141e157600080fd5b6141ef8d8a8487010161428a565b818a015287525050509284019290840190600101614188565b5090979650505050505050565b600082601f83011261422657600080fd5b8135602061423661416083614b60565b80838252828201915082860187848660051b890101111561425657600080fd5b60005b8581101561420857813584529284019290840190600101614259565b8035801515811461428557600080fd5b919050565b600082601f83011261429b57600080fd5b6111f0838335602085016140e7565b80356001600160601b038116811461428557600080fd5b6000602082840312156142d357600080fd5b81356111f081614cea565b600080604083850312156142f157600080fd5b82356142fc81614cea565b9150602083013561430c81614cea565b809150509250929050565b60008060006060848603121561432c57600080fd5b833561433781614cea565b9250602084013561434781614cea565b929592945050506040919091013590565b6000806000806080858703121561436e57600080fd5b843561437981614cea565b9350602085013561438981614cea565b925060408501359150606085013567ffffffffffffffff8111156143ac57600080fd5b8501601f810187136143bd57600080fd5b6143cc878235602084016140e7565b91505092959194509250565b600080604083850312156143eb57600080fd5b82356143f681614cea565b915061440460208401614275565b90509250929050565b6000806040838503121561442057600080fd5b823561442b81614cea565b946020939093013593505050565b6000806040838503121561444c57600080fd5b823561445781614cea565b9150614404602084016142aa565b60006020828403121561447757600080fd5b81356111f081614cff565b60006020828403121561449457600080fd5b81516111f081614cff565b600080604083850312156144b257600080fd5b823567ffffffffffffffff808211156144ca57600080fd5b6144d68683870161428a565b935060208501359150808211156144ec57600080fd5b506144f98582860161428a565b9150509250929050565b600080600080600060a0868803121561451b57600080fd5b853567ffffffffffffffff8082111561453357600080fd5b61453f89838a0161428a565b9650602088013591508082111561455557600080fd5b61456189838a0161428a565b9550604088013591508082111561457757600080fd5b61458389838a0161413f565b9450606088013591508082111561459957600080fd5b6145a589838a0161413f565b935060808801359150808211156145bb57600080fd5b506145c888828901614215565b9150509295509295909350565b6000602082840312156145e757600080fd5b5035919050565b60006020828403121561460057600080fd5b5051919050565b6000806040838503121561461a57600080fd5b82359150602083013561430c81614cea565b60008060006060848603121561464157600080fd5b83359250602084013561465381614cea565b9150614661604085016142aa565b90509250925092565b6000806040838503121561467d57600080fd5b8235915061440460208401614275565b600080604083850312156146a057600080fd5b82359150602083013567ffffffffffffffff8111156146be57600080fd5b6144f98582860161428a565b600080600080608085870312156146e057600080fd5b84359350602085013567ffffffffffffffff808211156146ff57600080fd5b61470b8883890161428a565b9450604087013591508082111561472157600080fd5b61472d8883890161413f565b9350606087013591508082111561474357600080fd5b506143cc8782880161413f565b6000806040838503121561476357600080fd5b50508035926020909101359150565b60008060006060848603121561478757600080fd5b833592506020840135915060408401356147a081614cea565b809150509250925092565b600081518084526020808501808196508360051b8101915082860160005b8581101561480757828403895281518051855285015160408686018190526147f381870183614814565b9a87019a95505050908401906001016147c9565b5091979650505050505050565b6000815180845261482c816020860160208601614be6565b601f01601f19169290920160200192915050565b60008251614852818460208701614be6565b9190910192915050565b6000835161486e818460208801614be6565b835190830190614882818360208801614be6565b01949350505050565b6000825161489d818460208701614be6565b6d17b6b2ba30b230ba30973539b7b760911b920191825250600e01919050565b6001600160a01b03858116825284166020820152604081018390526080606082018190526000906148f090830184614814565b9695505050505050565b6020815260006111f06020830184614814565b6040815260006149206040830185614814565b905060018060a01b03831660208301529392505050565b60808152600061494a6080830187614814565b828103602084015261495c81876147ab565b9050828103604084015261497081866147ab565b91505060018060a01b038316606083015295945050505050565b60a08152600061499d60a0830188614814565b82810360208401526149af8188614814565b905082810360408401526149c381876147ab565b905082810360608401526149d781866147ab565b91505060018060a01b03831660808301529695505050505050565b60208082526032908201527f4552433732313a207472616e7366657220746f206e6f6e20455243373231526560408201527131b2b4bb32b91034b6b83632b6b2b73a32b960711b606082015260800190565b60208082526031908201527f4552433732313a207472616e736665722063616c6c6572206973206e6f74206f6040820152701ddb995c881b9bdc88185c1c1c9bdd9959607a1b606082015260800190565b6020808252602a908201527f455243323938313a20726f79616c7479206665652077696c6c206578636565646040820152692073616c65507269636560b01b606082015260800190565b93845260208401929092526001600160a01b03908116604084015216606082015260800190565b6040805190810167ffffffffffffffff81118282101715614b2957614b29614cd4565b60405290565b604051601f8201601f1916810167ffffffffffffffff81118282101715614b5857614b58614cd4565b604052919050565b600067ffffffffffffffff821115614b7a57614b7a614cd4565b5060051b60200190565b60008219821115614b9757614b97614c7c565b500190565b600082614bab57614bab614c92565b500490565b6000816000190483118215151615614bca57614bca614c7c565b500290565b600082821015614be157614be1614c7c565b500390565b60005b83811015614c01578181015183820152602001614be9565b8381111561151e5750506000910152565b600181811c90821680614c2657607f821691505b60208210811415614c4757634e487b7160e01b600052602260045260246000fd5b50919050565b6000600019821415614c6157614c61614c7c565b5060010190565b600082614c7757614c77614c92565b500690565b634e487b7160e01b600052601160045260246000fd5b634e487b7160e01b600052601260045260246000fd5b634e487b7160e01b600052603160045260246000fd5b634e487b7160e01b600052603260045260246000fd5b634e487b7160e01b600052604160045260246000fd5b6001600160a01b03811681146126e757600080fd5b6001600160e01b0319811681146126e757600080fdfe696e73756666696369656e745f7065726d697373696f6e730000000000000000a2646970667358221220763b64126fb897bc92e9e306537779d0a60b937cb5e44dff7deae57c29b0393864736f6c63430008070033608060405234801561001057600080fd5b5061001a3361001f565b61006f565b600080546001600160a01b038381166001600160a01b0319831681178455604051919092169283917f8be0079c531659141344cd1fd0a4f28419497f9722a3daafe3b4186f6b6457e09190a35050565b6105748061007e6000396000f3fe6080604052600436106100555760003560e01c806351cff8d91461005a578063715018a61461007c5780638da5cb5b14610091578063e3a9db1a146100be578063f2fde38b14610102578063f340fa0114610122575b600080fd5b34801561006657600080fd5b5061007a6100753660046104aa565b610135565b005b34801561008857600080fd5b5061007a6101d7565b34801561009d57600080fd5b506000546040516001600160a01b0390911681526020015b60405180910390f35b3480156100ca57600080fd5b506100f46100d93660046104aa565b6001600160a01b031660009081526001602052604090205490565b6040519081526020016100b5565b34801561010e57600080fd5b5061007a61011d3660046104aa565b61020d565b61007a6101303660046104aa565b6102a8565b6000546001600160a01b031633146101685760405162461bcd60e51b815260040161015f906104ce565b60405180910390fd5b6001600160a01b0381166000818152600160205260408120805491905590610190908261033c565b816001600160a01b03167f7084f5476618d8e60b11ef0d7d3f06914655adb8793e28ff7f018d4c76d505d5826040516101cb91815260200190565b60405180910390a25050565b6000546001600160a01b031633146102015760405162461bcd60e51b815260040161015f906104ce565b61020b600061045a565b565b6000546001600160a01b031633146102375760405162461bcd60e51b815260040161015f906104ce565b6001600160a01b03811661029c5760405162461bcd60e51b815260206004820152602660248201527f4f776e61626c653a206e6577206f776e657220697320746865207a65726f206160448201526564647265737360d01b606482015260840161015f565b6102a58161045a565b50565b6000546001600160a01b031633146102d25760405162461bcd60e51b815260040161015f906104ce565b6001600160a01b0381166000908152600160205260408120805434928392916102fc908490610503565b90915550506040518181526001600160a01b038316907f2da466a7b24304f47e87fa2e1e5a81b9831ce54fec19055ce277ca2f39ba42c4906020016101cb565b8047101561038c5760405162461bcd60e51b815260206004820152601d60248201527f416464726573733a20696e73756666696369656e742062616c616e6365000000604482015260640161015f565b6000826001600160a01b03168260405160006040518083038185875af1925050503d80600081146103d9576040519150601f19603f3d011682016040523d82523d6000602084013e6103de565b606091505b50509050806104555760405162461bcd60e51b815260206004820152603a60248201527f416464726573733a20756e61626c6520746f2073656e642076616c75652c207260448201527f6563697069656e74206d61792068617665207265766572746564000000000000606482015260840161015f565b505050565b600080546001600160a01b038381166001600160a01b0319831681178455604051919092169283917f8be0079c531659141344cd1fd0a4f28419497f9722a3daafe3b4186f6b6457e09190a35050565b6000602082840312156104bc57600080fd5b81356104c781610529565b9392505050565b6020808252818101527f4f776e61626c653a2063616c6c6572206973206e6f7420746865206f776e6572604082015260600190565b6000821982111561052457634e487b7160e01b600052601160045260246000fd5b500190565b6001600160a01b03811681146102a557600080fdfea26469706673582212201464ef5ea1e512fc2964c4be04b842d7e31b50876950d68c99bdbf0c1d48c12164736f6c63430008070033",
  "linkReferences": {},
  "deployedLinkReferences": {}
}