{
  "_format": "hh-sol-artifact-1",
  "contractName": "Node",
  "sourceName": "contracts/src/Node.sol",
  "abi": [
    {
      "inputs": [],
      "stateMutability": "nonpayable",
      "type": "constructor"
    },
    {
      "anonymous": false,
      "inputs": [
        {
          "indexed": true,
          "internalType": "address",
          "name": "owner",
          "type": "address"
        },
        {
          "indexed": true,
          "internalType": "address",
          "name": "approved",
          "type": "address"
        },
        {
          "indexed": true,
          "internalType": "uint256",
          "name": "tokenId",
          "type": "uint256"
        }
      ],
      "name": "Approval",
      "type": "event"
    },
    {
      "anonymous": false,
      "inputs": [
        {
          "indexed": true,
          "internalType": "address",
          "name": "owner",
          "type": "address"
        },
        {
          "indexed": true,
          "internalType": "address",
          "name": "operator",
          "type": "address"
        },
        {
          "indexed": false,
          "internalType": "bool",
          "name": "approved",
          "type": "bool"
        }
      ],
      "name": "ApprovalForAll",
      "type": "event"
    },
    {
      "anonymous": false,
      "inputs": [
        {
          "indexed": false,
          "internalType": "uint256",
          "name": "tokenId",
          "type": "uint256"
        },
        {
          "indexed": false,
          "internalType": "uint256",
          "name": "connectionFee",
          "type": "uint256"
        },
        {
          "indexed": false,
          "internalType": "address",
          "name": "sender",
          "type": "address"
        }
      ],
      "name": "ConnectionFeeSet",
      "type": "event"
    },
    {
      "anonymous": false,
      "inputs": [
        {
          "indexed": false,
          "internalType": "uint256",
          "name": "forTokenId",
          "type": "uint256"
        },
        {
          "indexed": false,
          "internalType": "uint256",
          "name": "toTokenId",
          "type": "uint256"
        },
        {
          "indexed": false,
          "internalType": "address",
          "name": "sender",
          "type": "address"
        }
      ],
      "name": "DelegatePermissionsRenounced",
      "type": "event"
    },
    {
      "anonymous": false,
      "inputs": [
        {
          "indexed": true,
          "internalType": "uint256",
          "name": "tokenId",
          "type": "uint256"
        },
        {
          "indexed": false,
          "internalType": "string",
          "name": "hash",
          "type": "string"
        },
        {
          "components": [
            {
              "internalType": "uint256",
              "name": "tokenId",
              "type": "uint256"
            },
            {
              "internalType": "string",
              "name": "name",
              "type": "string"
            }
          ],
          "indexed": false,
          "internalType": "struct Node.Edge[]",
          "name": "incomingEdges",
          "type": "tuple[]"
        },
        {
          "components": [
            {
              "internalType": "uint256",
              "name": "tokenId",
              "type": "uint256"
            },
            {
              "internalType": "string",
              "name": "name",
              "type": "string"
            }
          ],
          "indexed": false,
          "internalType": "struct Node.Edge[]",
          "name": "outgoingEdges",
          "type": "tuple[]"
        },
        {
          "indexed": false,
          "internalType": "address",
          "name": "sender",
          "type": "address"
        }
      ],
      "name": "Merge",
      "type": "event"
    },
    {
      "anonymous": false,
      "inputs": [
        {
          "indexed": true,
          "internalType": "uint256",
          "name": "tokenId",
          "type": "uint256"
        },
        {
          "indexed": false,
          "internalType": "string",
          "name": "label",
          "type": "string"
        },
        {
          "indexed": false,
          "internalType": "string",
          "name": "hash",
          "type": "string"
        },
        {
          "components": [
            {
              "internalType": "uint256",
              "name": "tokenId",
              "type": "uint256"
            },
            {
              "internalType": "string",
              "name": "name",
              "type": "string"
            }
          ],
          "indexed": false,
          "internalType": "struct Node.Edge[]",
          "name": "incomingEdges",
          "type": "tuple[]"
        },
        {
          "components": [
            {
              "internalType": "uint256",
              "name": "tokenId",
              "type": "uint256"
            },
            {
              "internalType": "string",
              "name": "name",
              "type": "string"
            }
          ],
          "indexed": false,
          "internalType": "struct Node.Edge[]",
          "name": "outgoingEdges",
          "type": "tuple[]"
        },
        {
          "indexed": false,
          "internalType": "address",
          "name": "sender",
          "type": "address"
        }
      ],
      "name": "Mint",
      "type": "event"
    },
    {
      "anonymous": false,
      "inputs": [
        {
          "indexed": false,
          "internalType": "uint256",
          "name": "tokenId",
          "type": "uint256"
        },
        {
          "indexed": false,
          "internalType": "bool",
          "name": "bypassed",
          "type": "bool"
        },
        {
          "indexed": false,
          "internalType": "address",
          "name": "sender",
          "type": "address"
        }
      ],
      "name": "PermissionsBypassSet",
      "type": "event"
    },
    {
      "anonymous": false,
      "inputs": [
        {
          "indexed": false,
          "internalType": "uint256",
          "name": "forTokenId",
          "type": "uint256"
        },
        {
          "indexed": false,
          "internalType": "uint256",
          "name": "toTokenId",
          "type": "uint256"
        },
        {
          "indexed": false,
          "internalType": "address",
          "name": "sender",
          "type": "address"
        }
      ],
      "name": "PermissionsDelegated",
      "type": "event"
    },
    {
      "anonymous": false,
      "inputs": [
        {
          "indexed": true,
          "internalType": "uint256",
          "name": "tokenId",
          "type": "uint256"
        },
        {
          "indexed": false,
          "internalType": "string",
          "name": "hash",
          "type": "string"
        },
        {
          "indexed": false,
          "internalType": "address",
          "name": "sender",
          "type": "address"
        }
      ],
      "name": "Revise",
      "type": "event"
    },
    {
      "anonymous": false,
      "inputs": [
        {
          "indexed": false,
          "internalType": "uint256",
          "name": "tokenId",
          "type": "uint256"
        },
        {
          "indexed": false,
          "internalType": "uint256",
          "name": "role",
          "type": "uint256"
        },
        {
          "indexed": false,
          "internalType": "address",
          "name": "account",
          "type": "address"
        },
        {
          "indexed": false,
          "internalType": "address",
          "name": "sender",
          "type": "address"
        }
      ],
      "name": "RoleGranted",
      "type": "event"
    },
    {
      "anonymous": false,
      "inputs": [
        {
          "indexed": false,
          "internalType": "uint256",
          "name": "tokenId",
          "type": "uint256"
        },
        {
          "indexed": false,
          "internalType": "uint256",
          "name": "role",
          "type": "uint256"
        },
        {
          "indexed": false,
          "internalType": "address",
          "name": "account",
          "type": "address"
        },
        {
          "indexed": false,
          "internalType": "address",
          "name": "sender",
          "type": "address"
        }
      ],
      "name": "RoleRevoked",
      "type": "event"
    },
    {
      "anonymous": false,
      "inputs": [
        {
          "indexed": true,
          "internalType": "address",
          "name": "from",
          "type": "address"
        },
        {
          "indexed": true,
          "internalType": "address",
          "name": "to",
          "type": "address"
        },
        {
          "indexed": true,
          "internalType": "uint256",
          "name": "tokenId",
          "type": "uint256"
        }
      ],
      "name": "Transfer",
      "type": "event"
    },
    {
      "inputs": [],
      "name": "ADMIN_ROLE",
      "outputs": [
        {
          "internalType": "uint256",
          "name": "",
          "type": "uint256"
        }
      ],
      "stateMutability": "view",
      "type": "function"
    },
    {
      "inputs": [],
      "name": "EDITOR_ROLE",
      "outputs": [
        {
          "internalType": "uint256",
          "name": "",
          "type": "uint256"
        }
      ],
      "stateMutability": "view",
      "type": "function"
    },
    {
      "inputs": [],
      "name": "ERR_INSUFFICIENT_PERMISSIONS",
      "outputs": [
        {
          "internalType": "string",
          "name": "",
          "type": "string"
        }
      ],
      "stateMutability": "view",
      "type": "function"
    },
    {
      "inputs": [],
      "name": "ERR_NODE_NONEXISTENT",
      "outputs": [
        {
          "internalType": "string",
          "name": "",
          "type": "string"
        }
      ],
      "stateMutability": "view",
      "type": "function"
    },
    {
      "inputs": [],
      "name": "ERR_RECURSIVE_DELEGATION",
      "outputs": [
        {
          "internalType": "string",
          "name": "",
          "type": "string"
        }
      ],
      "stateMutability": "view",
      "type": "function"
    },
    {
      "inputs": [
        {
          "internalType": "address",
          "name": "to",
          "type": "address"
        },
        {
          "internalType": "uint256",
          "name": "tokenId",
          "type": "uint256"
        }
      ],
      "name": "approve",
      "outputs": [],
      "stateMutability": "nonpayable",
      "type": "function"
    },
    {
      "inputs": [
        {
          "internalType": "address",
          "name": "owner",
          "type": "address"
        }
      ],
      "name": "balanceOf",
      "outputs": [
        {
          "internalType": "uint256",
          "name": "",
          "type": "uint256"
        }
      ],
      "stateMutability": "view",
      "type": "function"
    },
    {
      "inputs": [
        {
          "internalType": "uint256",
          "name": "tokenId",
          "type": "uint256"
        }
      ],
      "name": "burnNode",
      "outputs": [],
      "stateMutability": "nonpayable",
      "type": "function"
    },
    {
      "inputs": [
        {
          "internalType": "uint256",
          "name": "tokenId",
          "type": "uint256"
        },
        {
          "internalType": "address",
          "name": "account",
          "type": "address"
        }
      ],
      "name": "canEdit",
      "outputs": [
        {
          "internalType": "bool",
          "name": "",
          "type": "bool"
        }
      ],
      "stateMutability": "view",
      "type": "function"
    },
    {
      "inputs": [
        {
          "internalType": "uint256",
          "name": "forTokenId",
          "type": "uint256"
        },
        {
          "internalType": "uint256",
          "name": "toTokenId",
          "type": "uint256"
        }
      ],
      "name": "delegatePermissions",
      "outputs": [],
      "stateMutability": "nonpayable",
      "type": "function"
    },
    {
      "inputs": [
        {
          "internalType": "uint256",
          "name": "tokenId",
          "type": "uint256"
        }
      ],
      "name": "exists",
      "outputs": [
        {
          "internalType": "bool",
          "name": "",
          "type": "bool"
        }
      ],
      "stateMutability": "view",
      "type": "function"
    },
    {
      "inputs": [
        {
          "internalType": "uint256",
          "name": "tokenId",
          "type": "uint256"
        }
      ],
      "name": "getApproved",
      "outputs": [
        {
          "internalType": "address",
          "name": "",
          "type": "address"
        }
      ],
      "stateMutability": "view",
      "type": "function"
    },
    {
      "inputs": [
        {
          "internalType": "uint256",
          "name": "tokenId",
          "type": "uint256"
        }
      ],
      "name": "getConnectionFee",
      "outputs": [
        {
          "internalType": "uint256",
          "name": "",
          "type": "uint256"
        }
      ],
      "stateMutability": "view",
      "type": "function"
    },
    {
      "inputs": [
        {
          "internalType": "uint256",
          "name": "tokenId",
          "type": "uint256"
        },
        {
          "internalType": "uint256",
          "name": "role",
          "type": "uint256"
        },
        {
          "internalType": "address",
          "name": "account",
          "type": "address"
        }
      ],
      "name": "grantRole",
      "outputs": [],
      "stateMutability": "nonpayable",
      "type": "function"
    },
    {
      "inputs": [
        {
          "internalType": "uint256",
          "name": "tokenId",
          "type": "uint256"
        }
      ],
      "name": "hasPermissionsBypass",
      "outputs": [
        {
          "internalType": "bool",
          "name": "",
          "type": "bool"
        }
      ],
      "stateMutability": "view",
      "type": "function"
    },
    {
      "inputs": [
        {
          "internalType": "uint256",
          "name": "tokenId",
          "type": "uint256"
        },
        {
          "internalType": "uint256",
          "name": "role",
          "type": "uint256"
        },
        {
          "internalType": "address",
          "name": "account",
          "type": "address"
        }
      ],
      "name": "hasRole",
      "outputs": [
        {
          "internalType": "bool",
          "name": "",
          "type": "bool"
        }
      ],
      "stateMutability": "view",
      "type": "function"
    },
    {
      "inputs": [
        {
          "internalType": "address",
          "name": "owner",
          "type": "address"
        },
        {
          "internalType": "address",
          "name": "operator",
          "type": "address"
        }
      ],
      "name": "isApprovedForAll",
      "outputs": [
        {
          "internalType": "bool",
          "name": "",
          "type": "bool"
        }
      ],
      "stateMutability": "view",
      "type": "function"
    },
    {
      "inputs": [
        {
          "internalType": "uint256",
          "name": "tokenId",
          "type": "uint256"
        },
        {
          "internalType": "string",
          "name": "hash",
          "type": "string"
        },
        {
          "components": [
            {
              "internalType": "uint256",
              "name": "tokenId",
              "type": "uint256"
            },
            {
              "internalType": "string",
              "name": "name",
              "type": "string"
            }
          ],
          "internalType": "struct Node.Edge[]",
          "name": "incomingEdges",
          "type": "tuple[]"
        },
        {
          "components": [
            {
              "internalType": "uint256",
              "name": "tokenId",
              "type": "uint256"
            },
            {
              "internalType": "string",
              "name": "name",
              "type": "string"
            }
          ],
          "internalType": "struct Node.Edge[]",
          "name": "outgoingEdges",
          "type": "tuple[]"
        }
      ],
      "name": "merge",
      "outputs": [],
      "stateMutability": "payable",
      "type": "function"
    },
    {
      "inputs": [
        {
          "internalType": "string",
          "name": "label",
          "type": "string"
        },
        {
          "internalType": "string",
          "name": "hash",
          "type": "string"
        },
        {
          "components": [
            {
              "internalType": "uint256",
              "name": "tokenId",
              "type": "uint256"
            },
            {
              "internalType": "string",
              "name": "name",
              "type": "string"
            }
          ],
          "internalType": "struct Node.Edge[]",
          "name": "incomingEdges",
          "type": "tuple[]"
        },
        {
          "components": [
            {
              "internalType": "uint256",
              "name": "tokenId",
              "type": "uint256"
            },
            {
              "internalType": "string",
              "name": "name",
              "type": "string"
            }
          ],
          "internalType": "struct Node.Edge[]",
          "name": "outgoingEdges",
          "type": "tuple[]"
        }
      ],
      "name": "mint",
      "outputs": [],
      "stateMutability": "payable",
      "type": "function"
    },
    {
      "inputs": [],
      "name": "name",
      "outputs": [
        {
          "internalType": "string",
          "name": "",
          "type": "string"
        }
      ],
      "stateMutability": "view",
      "type": "function"
    },
    {
      "inputs": [
        {
          "internalType": "uint256",
          "name": "tokenId",
          "type": "uint256"
        }
      ],
      "name": "ownerOf",
      "outputs": [
        {
          "internalType": "address",
          "name": "",
          "type": "address"
        }
      ],
      "stateMutability": "view",
      "type": "function"
    },
    {
      "inputs": [
        {
          "internalType": "address",
          "name": "dest",
          "type": "address"
        }
      ],
      "name": "payments",
      "outputs": [
        {
          "internalType": "uint256",
          "name": "",
          "type": "uint256"
        }
      ],
      "stateMutability": "view",
      "type": "function"
    },
    {
      "inputs": [
        {
          "internalType": "uint256",
          "name": "forTokenId",
          "type": "uint256"
        },
        {
          "internalType": "uint256",
          "name": "toTokenId",
          "type": "uint256"
        }
      ],
      "name": "renounceDelegatePermissions",
      "outputs": [],
      "stateMutability": "nonpayable",
      "type": "function"
    },
    {
      "inputs": [
        {
          "internalType": "uint256",
          "name": "tokenId",
          "type": "uint256"
        },
        {
          "internalType": "uint256",
          "name": "role",
          "type": "uint256"
        }
      ],
      "name": "renounceRole",
      "outputs": [],
      "stateMutability": "nonpayable",
      "type": "function"
    },
    {
      "inputs": [
        {
          "internalType": "uint256",
          "name": "tokenId",
          "type": "uint256"
        },
        {
          "internalType": "string",
          "name": "hash",
          "type": "string"
        }
      ],
      "name": "revise",
      "outputs": [],
      "stateMutability": "nonpayable",
      "type": "function"
    },
    {
      "inputs": [
        {
          "internalType": "uint256",
          "name": "tokenId",
          "type": "uint256"
        },
        {
          "internalType": "uint256",
          "name": "role",
          "type": "uint256"
        },
        {
          "internalType": "address",
          "name": "account",
          "type": "address"
        }
      ],
      "name": "revokeRole",
      "outputs": [],
      "stateMutability": "nonpayable",
      "type": "function"
    },
    {
      "inputs": [
        {
          "internalType": "address",
          "name": "from",
          "type": "address"
        },
        {
          "internalType": "address",
          "name": "to",
          "type": "address"
        },
        {
          "internalType": "uint256",
          "name": "tokenId",
          "type": "uint256"
        }
      ],
      "name": "safeTransferFrom",
      "outputs": [],
      "stateMutability": "nonpayable",
      "type": "function"
    },
    {
      "inputs": [
        {
          "internalType": "address",
          "name": "from",
          "type": "address"
        },
        {
          "internalType": "address",
          "name": "to",
          "type": "address"
        },
        {
          "internalType": "uint256",
          "name": "tokenId",
          "type": "uint256"
        },
        {
          "internalType": "bytes",
          "name": "_data",
          "type": "bytes"
        }
      ],
      "name": "safeTransferFrom",
      "outputs": [],
      "stateMutability": "nonpayable",
      "type": "function"
    },
    {
      "inputs": [
        {
          "internalType": "address",
          "name": "operator",
          "type": "address"
        },
        {
          "internalType": "bool",
          "name": "approved",
          "type": "bool"
        }
      ],
      "name": "setApprovalForAll",
      "outputs": [],
      "stateMutability": "nonpayable",
      "type": "function"
    },
    {
      "inputs": [
        {
          "internalType": "uint256",
          "name": "tokenId",
          "type": "uint256"
        },
        {
          "internalType": "uint256",
          "name": "connectionFee",
          "type": "uint256"
        }
      ],
      "name": "setConnectionFee",
      "outputs": [],
      "stateMutability": "nonpayable",
      "type": "function"
    },
    {
      "inputs": [
        {
          "internalType": "uint256",
          "name": "tokenId",
          "type": "uint256"
        },
        {
          "internalType": "bool",
          "name": "shouldBypassPermissions",
          "type": "bool"
        }
      ],
      "name": "setPermissionsBypass",
      "outputs": [],
      "stateMutability": "nonpayable",
      "type": "function"
    },
    {
      "inputs": [
        {
          "internalType": "bytes4",
          "name": "interfaceId",
          "type": "bytes4"
        }
      ],
      "name": "supportsInterface",
      "outputs": [
        {
          "internalType": "bool",
          "name": "",
          "type": "bool"
        }
      ],
      "stateMutability": "view",
      "type": "function"
    },
    {
      "inputs": [],
      "name": "symbol",
      "outputs": [
        {
          "internalType": "string",
          "name": "",
          "type": "string"
        }
      ],
      "stateMutability": "view",
      "type": "function"
    },
    {
      "inputs": [
        {
          "internalType": "uint256",
          "name": "index",
          "type": "uint256"
        }
      ],
      "name": "tokenByIndex",
      "outputs": [
        {
          "internalType": "uint256",
          "name": "",
          "type": "uint256"
        }
      ],
      "stateMutability": "view",
      "type": "function"
    },
    {
      "inputs": [
        {
          "internalType": "address",
          "name": "owner",
          "type": "address"
        },
        {
          "internalType": "uint256",
          "name": "index",
          "type": "uint256"
        }
      ],
      "name": "tokenOfOwnerByIndex",
      "outputs": [
        {
          "internalType": "uint256",
          "name": "",
          "type": "uint256"
        }
      ],
      "stateMutability": "view",
      "type": "function"
    },
    {
      "inputs": [
        {
          "internalType": "uint256",
          "name": "tokenId",
          "type": "uint256"
        }
      ],
      "name": "tokenURI",
      "outputs": [
        {
          "internalType": "string",
          "name": "",
          "type": "string"
        }
      ],
      "stateMutability": "view",
      "type": "function"
    },
    {
      "inputs": [],
      "name": "totalSupply",
      "outputs": [
        {
          "internalType": "uint256",
          "name": "",
          "type": "uint256"
        }
      ],
      "stateMutability": "view",
      "type": "function"
    },
    {
      "inputs": [
        {
          "internalType": "address",
          "name": "from",
          "type": "address"
        },
        {
          "internalType": "address",
          "name": "to",
          "type": "address"
        },
        {
          "internalType": "uint256",
          "name": "tokenId",
          "type": "uint256"
        }
      ],
      "name": "transferFrom",
      "outputs": [],
      "stateMutability": "nonpayable",
      "type": "function"
    },
    {
      "inputs": [
        {
          "internalType": "address payable",
          "name": "payee",
          "type": "address"
        }
      ],
      "name": "withdrawPayments",
      "outputs": [],
      "stateMutability": "nonpayable",
      "type": "function"
    }
  ],
  "bytecode": "0x60a06040523480156200001157600080fd5b50604051806040016040528060048152602001634e6f646560e01b815250604051806040016040528060048152602001634e4f444560e01b815250816000908051906020019062000064929190620000c0565b5080516200007a906001906020840190620000c0565b50506001600b555060405162000090906200014f565b604051809103906000f080158015620000ad573d6000803e3d6000fd5b506001600160a01b0316608052620001b1565b828054620000ce9062000174565b90600052602060002090601f016020900481019282620000f257600085556200013d565b82601f106200010d57805160ff19168380011785556200013d565b828001600101855582156200013d579182015b828111156200013d57825182559160200191906001019062000120565b506200014b9291506200015d565b5090565b6105f28062003c1283390190565b5b808211156200014b57600081556001016200015e565b600181811c908216806200018957607f821691505b60208210811415620001ab57634e487b7160e01b600052602260045260246000fd5b50919050565b608051613a37620001db60003960008181610d44015281816119b0015261213f0152613a376000f3fe6080604052600436106102305760003560e01c806368e661eb1161012e578063a937319a116100ab578063e2982c211161006f578063e2982c21146106ca578063e985e9c5146106ea578063ea559dc214610733578063eb31f4c514610753578063f1052ef91461077357600080fd5b8063a937319a1461062a578063ac3b5bf81461064a578063b88d4fde1461066a578063c87b56dd1461068a578063dd888a9f146106aa57600080fd5b806395d89b41116100f257806395d89b41146105a05780639bf15032146105b55780639cb99aba146105d5578063a22cb465146105f5578063a853211a1461061557600080fd5b806368e661eb146104c757806370a08231146104fe57806375b238fc1461051e57806385d6f2171461053357806392d963251461056057600080fd5b806331b3eb94116101bc57806344c3d3fb1161018057806344c3d3fb146104275780634f558e79146104475780634f6ccce7146104675780635587850d146104875780636352211e146104a757600080fd5b806331b3eb941461036b5780633a06529b1461038b5780633aa817cc146103c75780633af7a723146103e757806342842e0e1461040757600080fd5b806318160ddd1161020357806318160ddd146102e657806323b872dd146103055780632a93153a146103255780632f745c59146103385780632fc7bfab1461035857600080fd5b806301ffc9a71461023557806306fdde031461026a578063081812fc1461028c578063095ea7b3146102c4575b600080fd5b34801561024157600080fd5b50610255610250366004613028565b6107a3565b60405190151581526020015b60405180910390f35b34801561027657600080fd5b5061027f6107b4565b604051610261919061309d565b34801561029857600080fd5b506102ac6102a73660046130b0565b610846565b6040516001600160a01b039091168152602001610261565b3480156102d057600080fd5b506102e46102df3660046130de565b6108d3565b005b3480156102f257600080fd5b506008545b604051908152602001610261565b34801561031157600080fd5b506102e461032036600461310a565b6109e9565b6102e4610333366004613310565b610a1a565b34801561034457600080fd5b506102f76103533660046130de565b610b1b565b6102e46103663660046133bd565b610bb1565b34801561037757600080fd5b506102e46103863660046133f2565b610ccd565b34801561039757600080fd5b5061027f6040518060400160405280601081526020016f1b9bd91957db9bdb995e1a5cdd195b9d60821b81525081565b3480156103d357600080fd5b506102e46103e236600461340f565b610da8565b3480156103f357600080fd5b50610255610402366004613431565b610e9a565b34801561041357600080fd5b506102e461042236600461310a565b610ec1565b34801561043357600080fd5b506102e4610442366004613461565b610edc565b34801561045357600080fd5b506102556104623660046130b0565b610fe6565b34801561047357600080fd5b506102f76104823660046130b0565b610ff1565b34801561049357600080fd5b506102e46104a23660046130b0565b611084565b3480156104b357600080fd5b506102ac6104c23660046130b0565b611131565b3480156104d357600080fd5b5061027f6040518060400160405280601881526020016000805160206139e283398151915281525081565b34801561050a57600080fd5b506102f76105193660046133f2565b6111a8565b34801561052a57600080fd5b506102f7600081565b34801561053f57600080fd5b506102f761054e3660046130b0565b6000908152600e602052604090205490565b34801561056c57600080fd5b5061027f604051806040016040528060148152602001733932b1bab939b4bb32afb232b632b3b0ba34b7b760611b81525081565b3480156105ac57600080fd5b5061027f61122f565b3480156105c157600080fd5b506102e46105d036600461340f565b61123e565b3480156105e157600080fd5b506102e46105f03660046134a8565b6114e0565b34801561060157600080fd5b506102e46106103660046134f6565b611645565b34801561062157600080fd5b506102f7600181565b34801561063657600080fd5b506102e461064536600461352b565b611650565b34801561065657600080fd5b506102e461066536600461340f565b611708565b34801561067657600080fd5b506102e461068536600461354e565b6117c6565b34801561069657600080fd5b5061027f6106a53660046130b0565b6117f7565b3480156106b657600080fd5b506102e46106c536600461340f565b611828565b3480156106d657600080fd5b506102f76106e53660046133f2565b61198e565b3480156106f657600080fd5b506102556107053660046135c2565b6001600160a01b03918216600090815260056020908152604080832093909416825291909152205460ff1690565b34801561073f57600080fd5b5061025561074e3660046134a8565b611a1d565b34801561075f57600080fd5b506102e461076e3660046134a8565b611ac8565b34801561077f57600080fd5b5061025561078e3660046130b0565b60009081526013602052604090205460ff1690565b60006107ae82611c2c565b92915050565b6060600080546107c3906135f0565b80601f01602080910402602001604051908101604052809291908181526020018280546107ef906135f0565b801561083c5780601f106108115761010080835404028352916020019161083c565b820191906000526020600020905b81548152906001019060200180831161081f57829003601f168201915b5050505050905090565b600061085182611c51565b6108b75760405162461bcd60e51b815260206004820152602c60248201527f4552433732313a20617070726f76656420717565727920666f72206e6f6e657860448201526b34b9ba32b73a103a37b5b2b760a11b60648201526084015b60405180910390fd5b506000908152600460205260409020546001600160a01b031690565b60006108de82611131565b9050806001600160a01b0316836001600160a01b0316141561094c5760405162461bcd60e51b815260206004820152602160248201527f4552433732313a20617070726f76616c20746f2063757272656e74206f776e656044820152603960f91b60648201526084016108ae565b336001600160a01b038216148061096857506109688133610705565b6109da5760405162461bcd60e51b815260206004820152603860248201527f4552433732313a20617070726f76652063616c6c6572206973206e6f74206f7760448201527f6e6572206e6f7220617070726f76656420666f7220616c6c000000000000000060648201526084016108ae565b6109e48383611c6e565b505050565b6109f33382611cdc565b610a0f5760405162461bcd60e51b81526004016108ae9061362b565b6109e4838383611dc6565b610a2384611f6d565b610a2c83611f6d565b610a3a600c80546001019055565b6000610a45600c5490565b9050807e87cb72211b7017110b6e2676b860d8bc248f2161d7a6abac1896f0fc1e428b8686868633604051610a7e9594939291906136e5565b60405180910390a2610a903382611fb2565b610a9a8185611fcc565b6000818152600e60209081526040808320839055600f82528083208380528252808320338085529252808320805460ff19166001179055517f3f9759be566576e968397b016ea9843c3e1d19bf1f59ae53cdfbd3b1a691407092610b01928592819061374d565b60405180910390a1610b14818484612057565b5050505050565b6000610b26836111a8565b8210610b885760405162461bcd60e51b815260206004820152602b60248201527f455243373231456e756d657261626c653a206f776e657220696e646578206f7560448201526a74206f6620626f756e647360a81b60648201526084016108ae565b506001600160a01b03919091166000908152600660209081526040808320938352929052205490565b83610bbb81611c51565b6040518060400160405280601081526020016f1b9bd91957db9bdb995e1a5cdd195b9d60821b81525090610c025760405162461bcd60e51b81526004016108ae919061309d565b50600085815260136020526040902054859060ff16610cc557610c258133610e9a565b6040518060400160405280601881526020016000805160206139e283398151915281525090610c675760405162461bcd60e51b81526004016108ae919061309d565b50610c7185611f6d565b610c7b8686611fcc565b610c86868585612057565b857f236bb16971ddcd63b572657e5dd00a13bce4f2c2b7edb3d22ba10b0021efedb186868633604051610cbc9493929190613774565b60405180910390a25b505050505050565b6002600b541415610d205760405162461bcd60e51b815260206004820152601f60248201527f5265656e7472616e637947756172643a207265656e7472616e742063616c6c0060448201526064016108ae565b6002600b556040516351cff8d960e01b81526001600160a01b0382811660048301527f000000000000000000000000000000000000000000000000000000000000000016906351cff8d990602401600060405180830381600087803b158015610d8857600080fd5b505af1158015610d9c573d6000803e3d6000fd5b50506001600b55505050565b81610db281611c51565b6040518060400160405280601081526020016f1b9bd91957db9bdb995e1a5cdd195b9d60821b81525090610df95760405162461bcd60e51b81526004016108ae919061309d565b50610e05838333611a1d565b15610e71576000838152600f60209081526040808320858452825280832033808552925291829020805460ff1916905590517f743dd6de0118c934baddbf165685269ac4f51fe0780281fdb64ea7ca8746ceff91610e689186918691819061374d565b60405180910390a15b610e94336000858152601060209081526040808320878452909152902090612300565b50505050565b6000610ea883600084611a1d565b80610eba5750610eba83600184611a1d565b9392505050565b6109e4838383604051806020016040528060008152506117c6565b81610ee681611c51565b6040518060400160405280601081526020016f1b9bd91957db9bdb995e1a5cdd195b9d60821b81525090610f2d5760405162461bcd60e51b81526004016108ae919061309d565b50600083815260136020526040902054839060ff16610e9457610f508133610e9a565b6040518060400160405280601881526020016000805160206139e283398151915281525090610f925760405162461bcd60e51b81526004016108ae919061309d565b50610f9c83611f6d565b610fa68484611fcc565b837f8a98cc625a75c2dc14883da513c5ce302b8ae3422734382fb4edcfddfde37cdf8433604051610fd89291906137c7565b60405180910390a250505050565b60006107ae82611c51565b6000610ffc60085490565b821061105f5760405162461bcd60e51b815260206004820152602c60248201527f455243373231456e756d657261626c653a20676c6f62616c20696e646578206f60448201526b7574206f6620626f756e647360a01b60648201526084016108ae565b60088281548110611072576110726137f1565b90600052602060002001549050919050565b8061108e81611c51565b6040518060400160405280601081526020016f1b9bd91957db9bdb995e1a5cdd195b9d60821b815250906110d55760405162461bcd60e51b81526004016108ae919061309d565b506110e1335b83611cdc565b6040518060400160405280601881526020016000805160206139e2833981519152815250906111235760405162461bcd60e51b81526004016108ae919061309d565b5061112d82612315565b5050565b6000818152600260205260408120546001600160a01b0316806107ae5760405162461bcd60e51b815260206004820152602960248201527f4552433732313a206f776e657220717565727920666f72206e6f6e657869737460448201526832b73a103a37b5b2b760b91b60648201526084016108ae565b60006001600160a01b0382166112135760405162461bcd60e51b815260206004820152602a60248201527f4552433732313a2062616c616e636520717565727920666f7220746865207a65604482015269726f206164647265737360b01b60648201526084016108ae565b506001600160a01b031660009081526003602052604090205490565b6060600180546107c3906135f0565b8161124881611c51565b6040518060400160405280601081526020016f1b9bd91957db9bdb995e1a5cdd195b9d60821b8152509061128f5760405162461bcd60e51b81526004016108ae919061309d565b508161129a81611c51565b6040518060400160405280601081526020016f1b9bd91957db9bdb995e1a5cdd195b9d60821b815250906112e15760405162461bcd60e51b81526004016108ae919061309d565b5060008481526013602052604081205485919060ff16610cc557611306828233611a1d565b6040518060400160405280601881526020016000805160206139e2833981519152815250906113485760405162461bcd60e51b81526004016108ae919061309d565b506040805180820190915260148152733932b1bab939b4bb32afb232b632b3b0ba34b7b760611b6020820152868614156113955760405162461bcd60e51b81526004016108ae919061309d565b5060008581526011602052604090206113ad9061231e565b6040805180820190915260148152733932b1bab939b4bb32afb232b632b3b0ba34b7b760611b602082015290156113f75760405162461bcd60e51b81526004016108ae919061309d565b50600086815260126020526040902061140f9061231e565b6040805180820190915260148152733932b1bab939b4bb32afb232b632b3b0ba34b7b760611b602082015290156114595760405162461bcd60e51b81526004016108ae919061309d565b5060008681526011602052604090206114729086612328565b50600085815260126020526040902061148b9087612328565b507ff756463748eb0d59b8dea527a9a6d0c7e1b813913b25797ba5d3603892b207048686335b6040805193845260208401929092526001600160a01b03169082015260600160405180910390a1505050505050565b826114ea81611c51565b6040518060400160405280601081526020016f1b9bd91957db9bdb995e1a5cdd195b9d60821b815250906115315760405162461bcd60e51b81526004016108ae919061309d565b5060008481526013602052604081205485919060ff16610cc557611556828233611a1d565b6040518060400160405280601881526020016000805160206139e2833981519152815250906115985760405162461bcd60e51b81526004016108ae919061309d565b506115a4868686611a1d565b15611619576000868152600f6020908152604080832088845282528083206001600160a01b03881684529091529020805460ff191690557f743dd6de0118c934baddbf165685269ac4f51fe0780281fdb64ea7ca8746ceff86868633604051611610949392919061374d565b60405180910390a15b6000868152601060209081526040808320888452909152902061163c9085612300565b50505050505050565b61112d338383612334565b61165c82600033611a1d565b6040518060400160405280601881526020016000805160206139e28339815191528152509061169e5760405162461bcd60e51b81526004016108ae919061309d565b506000828152601360205260409020805460ff19168215151790557fe0b4110a3baee4f696784af62abd29a66eaa57537c9d08b1e88efa87c846180c8282336040805193845291151560208401526001600160a01b03169082015260600160405180910390a15050565b60008281526013602052604081205483919060ff16610e945761172c828233611a1d565b6040518060400160405280601881526020016000805160206139e28339815191528152509061176e5760405162461bcd60e51b81526004016108ae919061309d565b506000848152600e60209081526040918290208590558151868152908101859052338183015290517f1f0ddf3115a5d0fceb59847eee42b4335f88b04f1d62262da57189e7432a7d6a9181900360600190a150505050565b6117cf336110db565b6117eb5760405162461bcd60e51b81526004016108ae9061362b565b610e9484848484612403565b606061180282612436565b6040516020016118129190613807565b6040516020818303038152906040529050919050565b8161183281611c51565b6040518060400160405280601081526020016f1b9bd91957db9bdb995e1a5cdd195b9d60821b815250906118795760405162461bcd60e51b81526004016108ae919061309d565b508161188481611c51565b6040518060400160405280601081526020016f1b9bd91957db9bdb995e1a5cdd195b9d60821b815250906118cb5760405162461bcd60e51b81526004016108ae919061309d565b5060008481526013602052604081205485919060ff16610cc5576118f0828233611a1d565b6040518060400160405280601881526020016000805160206139e2833981519152815250906119325760405162461bcd60e51b81526004016108ae919061309d565b50600086815260116020526040902061194b90866125b4565b50600085815260126020526040902061196490876125b4565b507fe90abaaba0ad946d1629928fb2d2e7c2c3dbac7b21e98a78cf777e1e87ef80388686336114b1565b6040516371d4ed8d60e11b81526001600160a01b0382811660048301526000917f00000000000000000000000000000000000000000000000000000000000000009091169063e3a9db1a90602401602060405180830381865afa1580156119f9573d6000803e3d6000fd5b505050506040513d601f19601f820116820180604052508101906107ae9190613839565b6000838152600f6020908152604080832085845282528083206001600160a01b038516845290915281205460ff1615611a5857506001610eba565b60005b6000858152601160205260409020611a729061231e565b811015611abd576000858152601160205260409020611a9c90611a9590836125c0565b8585611a1d565b15611aab576001915050610eba565b80611ab581613868565b915050611a5b565b506000949350505050565b82611ad281611c51565b6040518060400160405280601081526020016f1b9bd91957db9bdb995e1a5cdd195b9d60821b81525090611b195760405162461bcd60e51b81526004016108ae919061309d565b5060008481526013602052604081205485919060ff16610cc557611b3e828233611a1d565b6040518060400160405280601881526020016000805160206139e283398151915281525090611b805760405162461bcd60e51b81526004016108ae919061309d565b50611b8c868686611a1d565b611c09576000868152600f6020908152604080832088845282528083206001600160a01b03881684529091529020805460ff191660011790557f3f9759be566576e968397b016ea9843c3e1d19bf1f59ae53cdfbd3b1a6914070868686611bf03390565b604051611c00949392919061374d565b60405180910390a15b6000868152601060209081526040808320888452909152902061163c90856125cc565b60006001600160e01b0319821663780e9d6360e01b14806107ae57506107ae826125e1565b6000908152600260205260409020546001600160a01b0316151590565b600081815260046020526040902080546001600160a01b0319166001600160a01b0384169081179091558190611ca382611131565b6001600160a01b03167f8c5be1e5ebec7d5bd14f71427d1e84f3dd0314c0f7b2291e5b200ac8c7c3b92560405160405180910390a45050565b6000611ce782611c51565b611d485760405162461bcd60e51b815260206004820152602c60248201527f4552433732313a206f70657261746f7220717565727920666f72206e6f6e657860448201526b34b9ba32b73a103a37b5b2b760a11b60648201526084016108ae565b6000611d5383611131565b9050806001600160a01b0316846001600160a01b03161480611d8e5750836001600160a01b0316611d8384610846565b6001600160a01b0316145b80611dbe57506001600160a01b0380821660009081526005602090815260408083209388168352929052205460ff165b949350505050565b826001600160a01b0316611dd982611131565b6001600160a01b031614611e3d5760405162461bcd60e51b815260206004820152602560248201527f4552433732313a207472616e736665722066726f6d20696e636f72726563742060448201526437bbb732b960d91b60648201526084016108ae565b6001600160a01b038216611e9f5760405162461bcd60e51b8152602060048201526024808201527f4552433732313a207472616e7366657220746f20746865207a65726f206164646044820152637265737360e01b60648201526084016108ae565b611eaa838383612631565b611eb5600082611c6e565b6001600160a01b0383166000908152600360205260408120805460019290611ede908490613883565b90915550506001600160a01b0382166000908152600360205260408120805460019290611f0c90849061389a565b909155505060008181526002602052604080822080546001600160a01b0319166001600160a01b0386811691821790925591518493918716917fddf252ad1be2c89b69c2b068fc378daa952ba7f163c4a11628f55a4df523b3ef91a4505050565b6000815111611faf5760405162461bcd60e51b815260206004820152600e60248201526d696e76616c69645f737472696e6760901b60448201526064016108ae565b50565b61112d82826040518060200160405280600081525061263c565b611fd582611c51565b6120385760405162461bcd60e51b815260206004820152602e60248201527f45524337323155524953746f726167653a2055524920736574206f66206e6f6e60448201526d32bc34b9ba32b73a103a37b5b2b760911b60648201526084016108ae565b6000828152600a6020908152604090912082516109e492840190612f43565b60005b8251811015612205576000838281518110612077576120776137f1565b6020026020010151905061208e8160000151611c51565b6040518060400160405280601081526020016f1b9bd91957db9bdb995e1a5cdd195b9d60821b815250906120d55760405162461bcd60e51b81526004016108ae919061309d565b5080516000908152600e602052604081205490506120f4338351611cdc565b15801561210a575081516121089033610e9a565b155b80156121165750600081115b8015612138575081516000878152600d602052604090206121369161266f565b155b156121f0577f00000000000000000000000000000000000000000000000000000000000000006001600160a01b031663f340fa018261217a8560000151611131565b6040516001600160e01b031960e085901b1681526001600160a01b0390911660048201526024016000604051808303818588803b1580156121ba57600080fd5b505af11580156121ce573d6000803e3d6000fd5b5050845160008a8152600d602052604090206121ee945092509050612328565b505b505080806121fd90613868565b91505061205a565b5060005b8151811015610e94576000828281518110612226576122266137f1565b6020026020010151905061223d8160000151611c51565b6040518060400160405280601081526020016f1b9bd91957db9bdb995e1a5cdd195b9d60821b815250906122845760405162461bcd60e51b81526004016108ae919061309d565b50805160009081526013602052604090205460ff166122ed5780516122a99033610e9a565b6040518060400160405280601881526020016000805160206139e2833981519152815250906122eb5760405162461bcd60e51b81526004016108ae919061309d565b505b50806122f881613868565b915050612209565b6000610eba836001600160a01b038416612687565b611faf8161277a565b60006107ae825490565b6000610eba83836127ba565b816001600160a01b0316836001600160a01b031614156123965760405162461bcd60e51b815260206004820152601960248201527f4552433732313a20617070726f766520746f2063616c6c65720000000000000060448201526064016108ae565b6001600160a01b03838116600081815260056020908152604080832094871680845294825291829020805460ff191686151590811790915591519182527f17307eab39ab6107e8899845ad3d59bd9653f200f220920489ca2b5937696c31910160405180910390a3505050565b61240e848484611dc6565b61241a84848484612809565b610e945760405162461bcd60e51b81526004016108ae906138b2565b606061244182611c51565b6124a75760405162461bcd60e51b815260206004820152603160248201527f45524337323155524953746f726167653a2055524920717565727920666f72206044820152703737b732bc34b9ba32b73a103a37b5b2b760791b60648201526084016108ae565b6000828152600a6020526040812080546124c0906135f0565b80601f01602080910402602001604051908101604052809291908181526020018280546124ec906135f0565b80156125395780601f1061250e57610100808354040283529160200191612539565b820191906000526020600020905b81548152906001019060200180831161251c57829003601f168201915b505050505090506000612566604080518082019091526007815266697066733a2f2f60c81b602082015290565b9050805160001415612579575092915050565b8151156125ab578082604051602001612593929190613904565b60405160208183030381529060405292505050919050565b611dbe84612907565b6000610eba8383612687565b6000610eba83836129ed565b6000610eba836001600160a01b0384166127ba565b60006001600160e01b031982166380ac58cd60e01b148061261257506001600160e01b03198216635b5e139f60e01b145b806107ae57506301ffc9a760e01b6001600160e01b03198316146107ae565b6109e4838383612a17565b6126468383612acf565b6126536000848484612809565b6109e45760405162461bcd60e51b81526004016108ae906138b2565b60008181526001830160205260408120541515610eba565b600081815260018301602052604081205480156127705760006126ab600183613883565b85549091506000906126bf90600190613883565b90508181146127245760008660000182815481106126df576126df6137f1565b9060005260206000200154905080876000018481548110612702576127026137f1565b6000918252602080832090910192909255918252600188019052604090208390555b855486908061273557612735613933565b6001900381819060005260206000200160009055905585600101600086815260200190815260200160002060009055600193505050506107ae565b60009150506107ae565b61278381612c0e565b6000818152600a60205260409020805461279c906135f0565b159050611faf576000818152600a60205260408120611faf91612fc7565b6000818152600183016020526040812054612801575081546001818101845560008481526020808220909301849055845484825282860190935260409020919091556107ae565b5060006107ae565b60006001600160a01b0384163b156128fc57604051630a85bd0160e11b81526001600160a01b0385169063150b7a029061284d903390899088908890600401613949565b6020604051808303816000875af1925050508015612888575060408051601f3d908101601f1916820190925261288591810190613986565b60015b6128e2573d8080156128b6576040519150601f19603f3d011682016040523d82523d6000602084013e6128bb565b606091505b5080516128da5760405162461bcd60e51b81526004016108ae906138b2565b805181602001fd5b6001600160e01b031916630a85bd0160e11b149050611dbe565b506001949350505050565b606061291282611c51565b6129765760405162461bcd60e51b815260206004820152602f60248201527f4552433732314d657461646174613a2055524920717565727920666f72206e6f60448201526e3732bc34b9ba32b73a103a37b5b2b760891b60648201526084016108ae565b600061299c604080518082019091526007815266697066733a2f2f60c81b602082015290565b905060008151116129bc5760405180602001604052806000815250610eba565b806129c684612cb5565b6040516020016129d7929190613904565b6040516020818303038152906040529392505050565b6000826000018281548110612a0457612a046137f1565b9060005260206000200154905092915050565b6001600160a01b038316612a7257612a6d81600880546000838152600960205260408120829055600182018355919091527ff3f7a9fe364faab93b216da50a3214154f22a0a2b415b23a84c8169e8b636ee30155565b612a95565b816001600160a01b0316836001600160a01b031614612a9557612a958382612db3565b6001600160a01b038216612aac576109e481612e50565b826001600160a01b0316826001600160a01b0316146109e4576109e48282612eff565b6001600160a01b038216612b255760405162461bcd60e51b815260206004820181905260248201527f4552433732313a206d696e7420746f20746865207a65726f206164647265737360448201526064016108ae565b612b2e81611c51565b15612b7b5760405162461bcd60e51b815260206004820152601c60248201527f4552433732313a20746f6b656e20616c7265616479206d696e7465640000000060448201526064016108ae565b612b8760008383612631565b6001600160a01b0382166000908152600360205260408120805460019290612bb090849061389a565b909155505060008181526002602052604080822080546001600160a01b0319166001600160a01b03861690811790915590518392907fddf252ad1be2c89b69c2b068fc378daa952ba7f163c4a11628f55a4df523b3ef908290a45050565b6000612c1982611131565b9050612c2781600084612631565b612c32600083611c6e565b6001600160a01b0381166000908152600360205260408120805460019290612c5b908490613883565b909155505060008281526002602052604080822080546001600160a01b0319169055518391906001600160a01b038416907fddf252ad1be2c89b69c2b068fc378daa952ba7f163c4a11628f55a4df523b3ef908390a45050565b606081612cd95750506040805180820190915260018152600360fc1b602082015290565b8160005b8115612d035780612ced81613868565b9150612cfc9050600a836139b9565b9150612cdd565b60008167ffffffffffffffff811115612d1e57612d1e61314b565b6040519080825280601f01601f191660200182016040528015612d48576020820181803683370190505b5090505b8415611dbe57612d5d600183613883565b9150612d6a600a866139cd565b612d7590603061389a565b60f81b818381518110612d8a57612d8a6137f1565b60200101906001600160f81b031916908160001a905350612dac600a866139b9565b9450612d4c565b60006001612dc0846111a8565b612dca9190613883565b600083815260076020526040902054909150808214612e1d576001600160a01b03841660009081526006602090815260408083208584528252808320548484528184208190558352600790915290208190555b5060009182526007602090815260408084208490556001600160a01b039094168352600681528383209183525290812055565b600854600090612e6290600190613883565b60008381526009602052604081205460088054939450909284908110612e8a57612e8a6137f1565b906000526020600020015490508060088381548110612eab57612eab6137f1565b6000918252602080832090910192909255828152600990915260408082208490558582528120556008805480612ee357612ee3613933565b6001900381819060005260206000200160009055905550505050565b6000612f0a836111a8565b6001600160a01b039093166000908152600660209081526040808320868452825280832085905593825260079052919091209190915550565b828054612f4f906135f0565b90600052602060002090601f016020900481019282612f715760008555612fb7565b82601f10612f8a57805160ff1916838001178555612fb7565b82800160010185558215612fb7579182015b82811115612fb7578251825591602001919060010190612f9c565b50612fc3929150612ffd565b5090565b508054612fd3906135f0565b6000825580601f10612fe3575050565b601f016020900490600052602060002090810190611faf91905b5b80821115612fc35760008155600101612ffe565b6001600160e01b031981168114611faf57600080fd5b60006020828403121561303a57600080fd5b8135610eba81613012565b60005b83811015613060578181015183820152602001613048565b83811115610e945750506000910152565b60008151808452613089816020860160208601613045565b601f01601f19169290920160200192915050565b602081526000610eba6020830184613071565b6000602082840312156130c257600080fd5b5035919050565b6001600160a01b0381168114611faf57600080fd5b600080604083850312156130f157600080fd5b82356130fc816130c9565b946020939093013593505050565b60008060006060848603121561311f57600080fd5b833561312a816130c9565b9250602084013561313a816130c9565b929592945050506040919091013590565b634e487b7160e01b600052604160045260246000fd5b6040805190810167ffffffffffffffff811182821017156131845761318461314b565b60405290565b604051601f8201601f1916810167ffffffffffffffff811182821017156131b3576131b361314b565b604052919050565b600067ffffffffffffffff8311156131d5576131d561314b565b6131e8601f8401601f191660200161318a565b90508281528383830111156131fc57600080fd5b828260208301376000602084830101529392505050565b600082601f83011261322457600080fd5b610eba838335602085016131bb565b600082601f83011261324457600080fd5b8135602067ffffffffffffffff808311156132615761326161314b565b8260051b61327083820161318a565b938452858101830193838101908886111561328a57600080fd5b84880192505b85831015613304578235848111156132a85760008081fd5b88016040818b03601f19018113156132c05760008081fd5b6132c8613161565b8288013581529082013590868211156132e15760008081fd5b6132ef8c8984860101613213565b81890152845250509184019190840190613290565b98975050505050505050565b6000806000806080858703121561332657600080fd5b843567ffffffffffffffff8082111561333e57600080fd5b61334a88838901613213565b9550602087013591508082111561336057600080fd5b61336c88838901613213565b9450604087013591508082111561338257600080fd5b61338e88838901613233565b935060608701359150808211156133a457600080fd5b506133b187828801613233565b91505092959194509250565b600080600080608085870312156133d357600080fd5b84359350602085013567ffffffffffffffff8082111561336057600080fd5b60006020828403121561340457600080fd5b8135610eba816130c9565b6000806040838503121561342257600080fd5b50508035926020909101359150565b6000806040838503121561344457600080fd5b823591506020830135613456816130c9565b809150509250929050565b6000806040838503121561347457600080fd5b82359150602083013567ffffffffffffffff81111561349257600080fd5b61349e85828601613213565b9150509250929050565b6000806000606084860312156134bd57600080fd5b833592506020840135915060408401356134d6816130c9565b809150509250925092565b803580151581146134f157600080fd5b919050565b6000806040838503121561350957600080fd5b8235613514816130c9565b9150613522602084016134e1565b90509250929050565b6000806040838503121561353e57600080fd5b82359150613522602084016134e1565b6000806000806080858703121561356457600080fd5b843561356f816130c9565b9350602085013561357f816130c9565b925060408501359150606085013567ffffffffffffffff8111156135a257600080fd5b8501601f810187136135b357600080fd5b6133b1878235602084016131bb565b600080604083850312156135d557600080fd5b82356135e0816130c9565b91506020830135613456816130c9565b600181811c9082168061360457607f821691505b6020821081141561362557634e487b7160e01b600052602260045260246000fd5b50919050565b60208082526031908201527f4552433732313a207472616e736665722063616c6c6572206973206e6f74206f6040820152701ddb995c881b9bdc88185c1c1c9bdd9959607a1b606082015260800190565b600081518084526020808501808196508360051b8101915082860160005b858110156136d857828403895281518051855285015160408686018190526136c481870183613071565b9a87019a955050509084019060010161369a565b5091979650505050505050565b60a0815260006136f860a0830188613071565b828103602084015261370a8188613071565b9050828103604084015261371e818761367c565b90508281036060840152613732818661367c565b91505060018060a01b03831660808301529695505050505050565b93845260208401929092526001600160a01b03908116604084015216606082015260800190565b6080815260006137876080830187613071565b8281036020840152613799818761367c565b905082810360408401526137ad818661367c565b91505060018060a01b038316606083015295945050505050565b6040815260006137da6040830185613071565b905060018060a01b03831660208301529392505050565b634e487b7160e01b600052603260045260246000fd5b60008251613819818460208701613045565b6d17b6b2ba30b230ba30973539b7b760911b920191825250600e01919050565b60006020828403121561384b57600080fd5b5051919050565b634e487b7160e01b600052601160045260246000fd5b600060001982141561387c5761387c613852565b5060010190565b60008282101561389557613895613852565b500390565b600082198211156138ad576138ad613852565b500190565b60208082526032908201527f4552433732313a207472616e7366657220746f206e6f6e20455243373231526560408201527131b2b4bb32b91034b6b83632b6b2b73a32b960711b606082015260800190565b60008351613916818460208801613045565b83519083019061392a818360208801613045565b01949350505050565b634e487b7160e01b600052603160045260246000fd5b6001600160a01b038581168252841660208201526040810183905260806060820181905260009061397c90830184613071565b9695505050505050565b60006020828403121561399857600080fd5b8151610eba81613012565b634e487b7160e01b600052601260045260246000fd5b6000826139c8576139c86139a3565b500490565b6000826139dc576139dc6139a3565b50069056fe696e73756666696369656e745f7065726d697373696f6e730000000000000000a2646970667358221220d40dc1ac10c21708b115cbe9d70b25d08636b00bf46cbd98a3e9f3949f751b0264736f6c634300080c0033608060405234801561001057600080fd5b5061001a3361001f565b61006f565b600080546001600160a01b038381166001600160a01b0319831681178455604051919092169283917f8be0079c531659141344cd1fd0a4f28419497f9722a3daafe3b4186f6b6457e09190a35050565b6105748061007e6000396000f3fe6080604052600436106100555760003560e01c806351cff8d91461005a578063715018a61461007c5780638da5cb5b14610091578063e3a9db1a146100be578063f2fde38b14610102578063f340fa0114610122575b600080fd5b34801561006657600080fd5b5061007a6100753660046104bf565b610135565b005b34801561008857600080fd5b5061007a6101d7565b34801561009d57600080fd5b506000546040516001600160a01b0390911681526020015b60405180910390f35b3480156100ca57600080fd5b506100f46100d93660046104bf565b6001600160a01b031660009081526001602052604090205490565b6040519081526020016100b5565b34801561010e57600080fd5b5061007a61011d3660046104bf565b61020d565b61007a6101303660046104bf565b6102a8565b6000546001600160a01b031633146101685760405162461bcd60e51b815260040161015f906104e3565b60405180910390fd5b6001600160a01b0381166000818152600160205260408120805491905590610190908261033c565b816001600160a01b03167f7084f5476618d8e60b11ef0d7d3f06914655adb8793e28ff7f018d4c76d505d5826040516101cb91815260200190565b60405180910390a25050565b6000546001600160a01b031633146102015760405162461bcd60e51b815260040161015f906104e3565b61020b600061045a565b565b6000546001600160a01b031633146102375760405162461bcd60e51b815260040161015f906104e3565b6001600160a01b03811661029c5760405162461bcd60e51b815260206004820152602660248201527f4f776e61626c653a206e6577206f776e657220697320746865207a65726f206160448201526564647265737360d01b606482015260840161015f565b6102a58161045a565b50565b6000546001600160a01b031633146102d25760405162461bcd60e51b815260040161015f906104e3565b6001600160a01b0381166000908152600160205260408120805434928392916102fc908490610518565b90915550506040518181526001600160a01b038316907f2da466a7b24304f47e87fa2e1e5a81b9831ce54fec19055ce277ca2f39ba42c4906020016101cb565b8047101561038c5760405162461bcd60e51b815260206004820152601d60248201527f416464726573733a20696e73756666696369656e742062616c616e6365000000604482015260640161015f565b6000826001600160a01b03168260405160006040518083038185875af1925050503d80600081146103d9576040519150601f19603f3d011682016040523d82523d6000602084013e6103de565b606091505b50509050806104555760405162461bcd60e51b815260206004820152603a60248201527f416464726573733a20756e61626c6520746f2073656e642076616c75652c207260448201527f6563697069656e74206d61792068617665207265766572746564000000000000606482015260840161015f565b505050565b600080546001600160a01b038381166001600160a01b0319831681178455604051919092169283917f8be0079c531659141344cd1fd0a4f28419497f9722a3daafe3b4186f6b6457e09190a35050565b6001600160a01b03811681146102a557600080fd5b6000602082840312156104d157600080fd5b81356104dc816104aa565b9392505050565b6020808252818101527f4f776e61626c653a2063616c6c6572206973206e6f7420746865206f776e6572604082015260600190565b6000821982111561053957634e487b7160e01b600052601160045260246000fd5b50019056fea2646970667358221220926b113de7e6c56861df80bd0b29c91551ada178780294fb38e7a0330ae51b7b64736f6c634300080c0033",
  "linkReferences": {},
  "deployedLinkReferences": {}
}