{
  "_format": "hh-sol-artifact-1",
  "contractName": "Node",
  "sourceName": "contracts/src/Node.sol",
  "abi": [
    {
      "inputs": [],
      "stateMutability": "nonpayable",
      "type": "constructor"
    },
    {
      "anonymous": false,
      "inputs": [
        {
          "indexed": true,
          "internalType": "address",
          "name": "owner",
          "type": "address"
        },
        {
          "indexed": true,
          "internalType": "address",
          "name": "approved",
          "type": "address"
        },
        {
          "indexed": true,
          "internalType": "uint256",
          "name": "tokenId",
          "type": "uint256"
        }
      ],
      "name": "Approval",
      "type": "event"
    },
    {
      "anonymous": false,
      "inputs": [
        {
          "indexed": true,
          "internalType": "address",
          "name": "owner",
          "type": "address"
        },
        {
          "indexed": true,
          "internalType": "address",
          "name": "operator",
          "type": "address"
        },
        {
          "indexed": false,
          "internalType": "bool",
          "name": "approved",
          "type": "bool"
        }
      ],
      "name": "ApprovalForAll",
      "type": "event"
    },
    {
      "anonymous": false,
      "inputs": [
        {
          "indexed": false,
          "internalType": "uint256",
          "name": "tokenId",
          "type": "uint256"
        },
        {
          "indexed": true,
          "internalType": "uint256",
          "name": "timestamp",
          "type": "uint256"
        },
        {
          "indexed": true,
          "internalType": "string",
          "name": "hash",
          "type": "string"
        },
        {
          "indexed": true,
          "internalType": "address",
          "name": "sender",
          "type": "address"
        }
      ],
      "name": "RevisionMade",
      "type": "event"
    },
    {
      "anonymous": false,
      "inputs": [
        {
          "indexed": false,
          "internalType": "uint256",
          "name": "tokenId",
          "type": "uint256"
        },
        {
          "indexed": true,
          "internalType": "uint256",
          "name": "role",
          "type": "uint256"
        },
        {
          "indexed": true,
          "internalType": "address",
          "name": "account",
          "type": "address"
        },
        {
          "indexed": true,
          "internalType": "address",
          "name": "sender",
          "type": "address"
        }
      ],
      "name": "RoleGranted",
      "type": "event"
    },
    {
      "anonymous": false,
      "inputs": [
        {
          "indexed": false,
          "internalType": "uint256",
          "name": "tokenId",
          "type": "uint256"
        },
        {
          "indexed": true,
          "internalType": "uint256",
          "name": "role",
          "type": "uint256"
        },
        {
          "indexed": true,
          "internalType": "address",
          "name": "account",
          "type": "address"
        },
        {
          "indexed": true,
          "internalType": "address",
          "name": "sender",
          "type": "address"
        }
      ],
      "name": "RoleRevoked",
      "type": "event"
    },
    {
      "anonymous": false,
      "inputs": [
        {
          "indexed": true,
          "internalType": "address",
          "name": "from",
          "type": "address"
        },
        {
          "indexed": true,
          "internalType": "address",
          "name": "to",
          "type": "address"
        },
        {
          "indexed": true,
          "internalType": "uint256",
          "name": "tokenId",
          "type": "uint256"
        }
      ],
      "name": "Transfer",
      "type": "event"
    },
    {
      "inputs": [],
      "name": "ADMIN_ROLE",
      "outputs": [
        {
          "internalType": "uint256",
          "name": "",
          "type": "uint256"
        }
      ],
      "stateMutability": "view",
      "type": "function"
    },
    {
      "inputs": [],
      "name": "EDITOR_ROLE",
      "outputs": [
        {
          "internalType": "uint256",
          "name": "",
          "type": "uint256"
        }
      ],
      "stateMutability": "view",
      "type": "function"
    },
    {
      "inputs": [],
      "name": "ERR_INSUFFICIENT_PERMISSIONS",
      "outputs": [
        {
          "internalType": "string",
          "name": "",
          "type": "string"
        }
      ],
      "stateMutability": "view",
      "type": "function"
    },
    {
      "inputs": [],
      "name": "ERR_NODE_NONEXISTENT",
      "outputs": [
        {
          "internalType": "string",
          "name": "",
          "type": "string"
        }
      ],
      "stateMutability": "view",
      "type": "function"
    },
    {
      "inputs": [],
      "name": "ERR_RECURSIVE_DELEGATION",
      "outputs": [
        {
          "internalType": "string",
          "name": "",
          "type": "string"
        }
      ],
      "stateMutability": "view",
      "type": "function"
    },
    {
      "inputs": [
        {
          "internalType": "address",
          "name": "to",
          "type": "address"
        },
        {
          "internalType": "uint256",
          "name": "tokenId",
          "type": "uint256"
        }
      ],
      "name": "approve",
      "outputs": [],
      "stateMutability": "nonpayable",
      "type": "function"
    },
    {
      "inputs": [
        {
          "internalType": "address",
          "name": "owner",
          "type": "address"
        }
      ],
      "name": "balanceOf",
      "outputs": [
        {
          "internalType": "uint256",
          "name": "",
          "type": "uint256"
        }
      ],
      "stateMutability": "view",
      "type": "function"
    },
    {
      "inputs": [
        {
          "internalType": "uint256",
          "name": "tokenId",
          "type": "uint256"
        }
      ],
      "name": "burnNode",
      "outputs": [],
      "stateMutability": "nonpayable",
      "type": "function"
    },
    {
      "inputs": [
        {
          "internalType": "uint256",
          "name": "tokenId",
          "type": "uint256"
        },
        {
          "internalType": "address",
          "name": "account",
          "type": "address"
        }
      ],
      "name": "canEdit",
      "outputs": [
        {
          "internalType": "bool",
          "name": "",
          "type": "bool"
        }
      ],
      "stateMutability": "view",
      "type": "function"
    },
    {
      "inputs": [
        {
          "internalType": "uint256",
          "name": "from",
          "type": "uint256"
        },
        {
          "internalType": "uint256",
          "name": "to",
          "type": "uint256"
        }
      ],
      "name": "connectNodes",
      "outputs": [],
      "stateMutability": "nonpayable",
      "type": "function"
    },
    {
      "inputs": [
        {
          "internalType": "uint256",
          "name": "forTokenId",
          "type": "uint256"
        },
        {
          "internalType": "uint256",
          "name": "toTokenId",
          "type": "uint256"
        }
      ],
      "name": "delegatePermissions",
      "outputs": [],
      "stateMutability": "nonpayable",
      "type": "function"
    },
    {
      "inputs": [
        {
          "internalType": "uint256",
          "name": "from",
          "type": "uint256"
        },
        {
          "internalType": "uint256",
          "name": "to",
          "type": "uint256"
        }
      ],
      "name": "disconnectNodes",
      "outputs": [],
      "stateMutability": "nonpayable",
      "type": "function"
    },
    {
      "inputs": [
        {
          "internalType": "uint256",
          "name": "tokenId",
          "type": "uint256"
        }
      ],
      "name": "exists",
      "outputs": [
        {
          "internalType": "bool",
          "name": "",
          "type": "bool"
        }
      ],
      "stateMutability": "view",
      "type": "function"
    },
    {
      "inputs": [
        {
          "internalType": "uint256",
          "name": "tokenId",
          "type": "uint256"
        }
      ],
      "name": "getApproved",
      "outputs": [
        {
          "internalType": "address",
          "name": "",
          "type": "address"
        }
      ],
      "stateMutability": "view",
      "type": "function"
    },
    {
      "inputs": [
        {
          "internalType": "uint256",
          "name": "tokenId",
          "type": "uint256"
        },
        {
          "internalType": "string",
          "name": "label",
          "type": "string"
        }
      ],
      "name": "getBacklinkedNodeCountForNodeByLabel",
      "outputs": [
        {
          "internalType": "uint256",
          "name": "",
          "type": "uint256"
        }
      ],
      "stateMutability": "view",
      "type": "function"
    },
    {
      "inputs": [
        {
          "internalType": "uint256",
          "name": "tokenId",
          "type": "uint256"
        },
        {
          "internalType": "string",
          "name": "label",
          "type": "string"
        },
        {
          "internalType": "uint256",
          "name": "index",
          "type": "uint256"
        }
      ],
      "name": "getBacklinkedNodeForNodeByLabelAndIndex",
      "outputs": [
        {
          "internalType": "uint256",
          "name": "",
          "type": "uint256"
        }
      ],
      "stateMutability": "view",
      "type": "function"
    },
    {
      "inputs": [
        {
          "internalType": "uint256",
          "name": "tokenId",
          "type": "uint256"
        },
        {
          "internalType": "string",
          "name": "label",
          "type": "string"
        }
      ],
      "name": "getConnectedNodeCountForNodeByLabel",
      "outputs": [
        {
          "internalType": "uint256",
          "name": "",
          "type": "uint256"
        }
      ],
      "stateMutability": "view",
      "type": "function"
    },
    {
      "inputs": [
        {
          "internalType": "uint256",
          "name": "tokenId",
          "type": "uint256"
        },
        {
          "internalType": "string",
          "name": "label",
          "type": "string"
        },
        {
          "internalType": "uint256",
          "name": "index",
          "type": "uint256"
        }
      ],
      "name": "getConnectedNodeForNodeByLabelAndIndex",
      "outputs": [
        {
          "internalType": "uint256",
          "name": "",
          "type": "uint256"
        }
      ],
      "stateMutability": "view",
      "type": "function"
    },
    {
      "inputs": [
        {
          "internalType": "uint256",
          "name": "tokenId",
          "type": "uint256"
        },
        {
          "internalType": "uint256",
          "name": "index",
          "type": "uint256"
        }
      ],
      "name": "getDelegatesForAtIndex",
      "outputs": [
        {
          "internalType": "uint256",
          "name": "",
          "type": "uint256"
        }
      ],
      "stateMutability": "view",
      "type": "function"
    },
    {
      "inputs": [
        {
          "internalType": "uint256",
          "name": "tokenId",
          "type": "uint256"
        }
      ],
      "name": "getDelegatesForCount",
      "outputs": [
        {
          "internalType": "uint256",
          "name": "",
          "type": "uint256"
        }
      ],
      "stateMutability": "view",
      "type": "function"
    },
    {
      "inputs": [
        {
          "internalType": "uint256",
          "name": "tokenId",
          "type": "uint256"
        },
        {
          "internalType": "uint256",
          "name": "index",
          "type": "uint256"
        }
      ],
      "name": "getDelegatesToAtIndex",
      "outputs": [
        {
          "internalType": "uint256",
          "name": "",
          "type": "uint256"
        }
      ],
      "stateMutability": "view",
      "type": "function"
    },
    {
      "inputs": [
        {
          "internalType": "uint256",
          "name": "tokenId",
          "type": "uint256"
        }
      ],
      "name": "getDelegatesToCount",
      "outputs": [
        {
          "internalType": "uint256",
          "name": "",
          "type": "uint256"
        }
      ],
      "stateMutability": "view",
      "type": "function"
    },
    {
      "inputs": [
        {
          "internalType": "string",
          "name": "label",
          "type": "string"
        }
      ],
      "name": "getNodeCountForLabel",
      "outputs": [
        {
          "internalType": "uint256",
          "name": "",
          "type": "uint256"
        }
      ],
      "stateMutability": "view",
      "type": "function"
    },
    {
      "inputs": [
        {
          "internalType": "string",
          "name": "label",
          "type": "string"
        },
        {
          "internalType": "uint256",
          "name": "index",
          "type": "uint256"
        }
      ],
      "name": "getNodeForLabelAtIndex",
      "outputs": [
        {
          "internalType": "uint256",
          "name": "",
          "type": "uint256"
        }
      ],
      "stateMutability": "view",
      "type": "function"
    },
    {
      "inputs": [
        {
          "internalType": "uint256",
          "name": "tokenId",
          "type": "uint256"
        },
        {
          "internalType": "uint256",
          "name": "index",
          "type": "uint256"
        }
      ],
      "name": "getRevision",
      "outputs": [
        {
          "components": [
            {
              "internalType": "uint256",
              "name": "timestamp",
              "type": "uint256"
            },
            {
              "internalType": "string",
              "name": "hash",
              "type": "string"
            },
            {
              "internalType": "address",
              "name": "revisor",
              "type": "address"
            }
          ],
          "internalType": "struct Node.Revision",
          "name": "",
          "type": "tuple"
        }
      ],
      "stateMutability": "view",
      "type": "function"
    },
    {
      "inputs": [
        {
          "internalType": "uint256",
          "name": "tokenId",
          "type": "uint256"
        }
      ],
      "name": "getRevisionCount",
      "outputs": [
        {
          "internalType": "uint256",
          "name": "",
          "type": "uint256"
        }
      ],
      "stateMutability": "view",
      "type": "function"
    },
    {
      "inputs": [
        {
          "internalType": "uint256",
          "name": "tokenId",
          "type": "uint256"
        },
        {
          "internalType": "uint256",
          "name": "role",
          "type": "uint256"
        },
        {
          "internalType": "uint256",
          "name": "index",
          "type": "uint256"
        }
      ],
      "name": "getRoleMember",
      "outputs": [
        {
          "internalType": "address",
          "name": "",
          "type": "address"
        }
      ],
      "stateMutability": "view",
      "type": "function"
    },
    {
      "inputs": [
        {
          "internalType": "uint256",
          "name": "tokenId",
          "type": "uint256"
        },
        {
          "internalType": "uint256",
          "name": "role",
          "type": "uint256"
        }
      ],
      "name": "getRoleMemberCount",
      "outputs": [
        {
          "internalType": "uint256",
          "name": "",
          "type": "uint256"
        }
      ],
      "stateMutability": "view",
      "type": "function"
    },
    {
      "inputs": [
        {
          "internalType": "uint256",
          "name": "tokenId",
          "type": "uint256"
        },
        {
          "internalType": "uint256",
          "name": "role",
          "type": "uint256"
        },
        {
          "internalType": "address",
          "name": "account",
          "type": "address"
        }
      ],
      "name": "grantRole",
      "outputs": [],
      "stateMutability": "nonpayable",
      "type": "function"
    },
    {
      "inputs": [
        {
          "internalType": "uint256",
          "name": "tokenId",
          "type": "uint256"
        },
        {
          "internalType": "uint256",
          "name": "role",
          "type": "uint256"
        },
        {
          "internalType": "address",
          "name": "account",
          "type": "address"
        }
      ],
      "name": "hasRole",
      "outputs": [
        {
          "internalType": "bool",
          "name": "",
          "type": "bool"
        }
      ],
      "stateMutability": "view",
      "type": "function"
    },
    {
      "inputs": [
        {
          "internalType": "address",
          "name": "owner",
          "type": "address"
        },
        {
          "internalType": "address",
          "name": "operator",
          "type": "address"
        }
      ],
      "name": "isApprovedForAll",
      "outputs": [
        {
          "internalType": "bool",
          "name": "",
          "type": "bool"
        }
      ],
      "stateMutability": "view",
      "type": "function"
    },
    {
      "inputs": [
        {
          "internalType": "uint256",
          "name": "tokenId",
          "type": "uint256"
        }
      ],
      "name": "labelFor",
      "outputs": [
        {
          "internalType": "string",
          "name": "",
          "type": "string"
        }
      ],
      "stateMutability": "view",
      "type": "function"
    },
    {
      "inputs": [
        {
          "internalType": "uint256",
          "name": "tokenId",
          "type": "uint256"
        },
        {
          "internalType": "string",
          "name": "hash",
          "type": "string"
        }
      ],
      "name": "makeRevision",
      "outputs": [],
      "stateMutability": "nonpayable",
      "type": "function"
    },
    {
      "inputs": [
        {
          "internalType": "string",
          "name": "label",
          "type": "string"
        },
        {
          "internalType": "string",
          "name": "hash",
          "type": "string"
        },
        {
          "internalType": "uint256[]",
          "name": "fromConnections",
          "type": "uint256[]"
        },
        {
          "internalType": "uint256[]",
          "name": "toConnections",
          "type": "uint256[]"
        }
      ],
      "name": "mintNode",
      "outputs": [],
      "stateMutability": "nonpayable",
      "type": "function"
    },
    {
      "inputs": [],
      "name": "name",
      "outputs": [
        {
          "internalType": "string",
          "name": "",
          "type": "string"
        }
      ],
      "stateMutability": "view",
      "type": "function"
    },
    {
      "inputs": [
        {
          "internalType": "uint256",
          "name": "tokenId",
          "type": "uint256"
        }
      ],
      "name": "ownerOf",
      "outputs": [
        {
          "internalType": "address",
          "name": "",
          "type": "address"
        }
      ],
      "stateMutability": "view",
      "type": "function"
    },
    {
      "inputs": [
        {
          "internalType": "uint256",
          "name": "forTokenId",
          "type": "uint256"
        },
        {
          "internalType": "uint256",
          "name": "toTokenId",
          "type": "uint256"
        }
      ],
      "name": "renounceDelegatePermissions",
      "outputs": [],
      "stateMutability": "nonpayable",
      "type": "function"
    },
    {
      "inputs": [
        {
          "internalType": "uint256",
          "name": "tokenId",
          "type": "uint256"
        },
        {
          "internalType": "uint256",
          "name": "role",
          "type": "uint256"
        }
      ],
      "name": "renounceRole",
      "outputs": [],
      "stateMutability": "nonpayable",
      "type": "function"
    },
    {
      "inputs": [
        {
          "internalType": "uint256",
          "name": "",
          "type": "uint256"
        },
        {
          "internalType": "uint256",
          "name": "",
          "type": "uint256"
        }
      ],
      "name": "revisions",
      "outputs": [
        {
          "internalType": "uint256",
          "name": "timestamp",
          "type": "uint256"
        },
        {
          "internalType": "string",
          "name": "hash",
          "type": "string"
        },
        {
          "internalType": "address",
          "name": "revisor",
          "type": "address"
        }
      ],
      "stateMutability": "view",
      "type": "function"
    },
    {
      "inputs": [
        {
          "internalType": "uint256",
          "name": "tokenId",
          "type": "uint256"
        },
        {
          "internalType": "uint256",
          "name": "role",
          "type": "uint256"
        },
        {
          "internalType": "address",
          "name": "account",
          "type": "address"
        }
      ],
      "name": "revokeRole",
      "outputs": [],
      "stateMutability": "nonpayable",
      "type": "function"
    },
    {
      "inputs": [
        {
          "internalType": "address",
          "name": "from",
          "type": "address"
        },
        {
          "internalType": "address",
          "name": "to",
          "type": "address"
        },
        {
          "internalType": "uint256",
          "name": "tokenId",
          "type": "uint256"
        }
      ],
      "name": "safeTransferFrom",
      "outputs": [],
      "stateMutability": "nonpayable",
      "type": "function"
    },
    {
      "inputs": [
        {
          "internalType": "address",
          "name": "from",
          "type": "address"
        },
        {
          "internalType": "address",
          "name": "to",
          "type": "address"
        },
        {
          "internalType": "uint256",
          "name": "tokenId",
          "type": "uint256"
        },
        {
          "internalType": "bytes",
          "name": "_data",
          "type": "bytes"
        }
      ],
      "name": "safeTransferFrom",
      "outputs": [],
      "stateMutability": "nonpayable",
      "type": "function"
    },
    {
      "inputs": [
        {
          "internalType": "address",
          "name": "operator",
          "type": "address"
        },
        {
          "internalType": "bool",
          "name": "approved",
          "type": "bool"
        }
      ],
      "name": "setApprovalForAll",
      "outputs": [],
      "stateMutability": "nonpayable",
      "type": "function"
    },
    {
      "inputs": [
        {
          "internalType": "bytes4",
          "name": "interfaceId",
          "type": "bytes4"
        }
      ],
      "name": "supportsInterface",
      "outputs": [
        {
          "internalType": "bool",
          "name": "",
          "type": "bool"
        }
      ],
      "stateMutability": "view",
      "type": "function"
    },
    {
      "inputs": [],
      "name": "symbol",
      "outputs": [
        {
          "internalType": "string",
          "name": "",
          "type": "string"
        }
      ],
      "stateMutability": "view",
      "type": "function"
    },
    {
      "inputs": [
        {
          "internalType": "uint256",
          "name": "index",
          "type": "uint256"
        }
      ],
      "name": "tokenByIndex",
      "outputs": [
        {
          "internalType": "uint256",
          "name": "",
          "type": "uint256"
        }
      ],
      "stateMutability": "view",
      "type": "function"
    },
    {
      "inputs": [
        {
          "internalType": "address",
          "name": "owner",
          "type": "address"
        },
        {
          "internalType": "uint256",
          "name": "index",
          "type": "uint256"
        }
      ],
      "name": "tokenOfOwnerByIndex",
      "outputs": [
        {
          "internalType": "uint256",
          "name": "",
          "type": "uint256"
        }
      ],
      "stateMutability": "view",
      "type": "function"
    },
    {
      "inputs": [
        {
          "internalType": "uint256",
          "name": "tokenId",
          "type": "uint256"
        }
      ],
      "name": "tokenURI",
      "outputs": [
        {
          "internalType": "string",
          "name": "",
          "type": "string"
        }
      ],
      "stateMutability": "view",
      "type": "function"
    },
    {
      "inputs": [],
      "name": "totalSupply",
      "outputs": [
        {
          "internalType": "uint256",
          "name": "",
          "type": "uint256"
        }
      ],
      "stateMutability": "view",
      "type": "function"
    },
    {
      "inputs": [
        {
          "internalType": "address",
          "name": "from",
          "type": "address"
        },
        {
          "internalType": "address",
          "name": "to",
          "type": "address"
        },
        {
          "internalType": "uint256",
          "name": "tokenId",
          "type": "uint256"
        }
      ],
      "name": "transferFrom",
      "outputs": [],
      "stateMutability": "nonpayable",
      "type": "function"
    }
  ],
  "bytecode": "0x60806040523480156200001157600080fd5b50604051806040016040528060048152602001634e6f646560e01b815250604051806040016040528060048152602001634e4f444560e01b81525081600090805190602001906200006492919062000083565b5080516200007a90600190602084019062000083565b50505062000166565b828054620000919062000129565b90600052602060002090601f016020900481019282620000b5576000855562000100565b82601f10620000d057805160ff191683800117855562000100565b8280016001018555821562000100579182015b8281111562000100578251825591602001919060010190620000e3565b506200010e92915062000112565b5090565b5b808211156200010e576000815560010162000113565b600181811c908216806200013e57607f821691505b602082108114156200016057634e487b7160e01b600052602260045260246000fd5b50919050565b6139d680620001766000396000f3fe608060405234801561001057600080fd5b50600436106102d65760003560e01c806368e661eb11610182578063b2dcc623116100e9578063dd888a9f116100a2578063eb31f4c51161007c578063eb31f4c5146106fd578063f18efc0f14610710578063f9f5d7d414610723578063ff0810c71461073657600080fd5b8063dd888a9f1461069b578063e985e9c5146106ae578063ea559dc2146106ea57600080fd5b8063b2dcc6231461061a578063b88d4fde1461063c578063c87b56dd1461064f578063d2eefc5814610662578063dbe552d614610675578063dd33ce5d1461068857600080fd5b806395d89b411161013b57806395d89b41146105be5780639bf15032146105c65780639cb99aba146105d9578063a22cb465146105ec578063a853211a146105ff578063aadf7e161461060757600080fd5b806368e661eb1461051357806370a082311461053d578063742ebced1461055057806375b238fc1461056357806392d963251461056b578063959249f31461059e57600080fd5b80633a06529b116102415780634b1d6a90116101fa5780635587850d116101d45780635587850d146104ba5780635ca7d7f4146104cd5780636192e3e8146104e05780636352211e1461050057600080fd5b80634b1d6a90146104815780634f558e79146104945780634f6ccce7146104a757600080fd5b80633a06529b146103f35780633aa817cc146104225780633af7a723146104355780633f83c6731461044857806342842e0e1461045b5780634ab37a821461046e57600080fd5b806316b3a0871161029357806316b3a0871461038c57806318160ddd1461039f5780631aa720b1146103a757806323b872dd146103ba5780632edfd661146103cd5780632f745c59146103e057600080fd5b806301ffc9a7146102db57806306fdde0314610303578063081812fc14610318578063095ea7b3146103435780630f8739981461035857806313b308c414610379575b600080fd5b6102ee6102e93660046130c9565b610749565b60405190151581526020015b60405180910390f35b61030b61075a565b6040516102fa919061313e565b61032b610326366004613151565b6107ec565b6040516001600160a01b0390911681526020016102fa565b610356610351366004613186565b610879565b005b61036b610366366004613151565b61098f565b6040519081526020016102fa565b61036b6103873660046131b0565b6109a6565b61030b61039a366004613151565b6109c5565b60085461036b565b6103566103b5366004613311565b610a67565b6103566103c83660046133be565b610bd8565b61036b6103db3660046131b0565b610c09565b61036b6103ee366004613186565b610c21565b61030b6040518060400160405280601081526020016f1b9bd91957db9bdb995e1a5cdd195b9d60821b81525081565b6103566104303660046131b0565b610cb7565b6102ee6104433660046133fa565b610da2565b61036b610456366004613426565b610dc2565b6103566104693660046133be565b610df6565b61035661047c3660046131b0565b610e11565b61035661048f366004613426565b610f72565b6102ee6104a2366004613151565b61111e565b61036b6104b5366004613151565b611129565b6103566104c8366004613151565b6111bc565b61036b6104db36600461346d565b611269565b6104f36104ee3660046131b0565b6112a8565b6040516102fa91906134bd565b61032b61050e366004613151565b6113c6565b61030b60405180604001604052806018815260200160008051602061398183398151915281525081565b61036b61054b366004613504565b61143d565b61036b61055e366004613151565b6114c4565b61036b600081565b61030b604051806040016040528060148152602001733932b1bab939b4bb32afb232b632b3b0ba34b7b760611b81525081565b61036b6105ac366004613151565b60009081526014602052604090205490565b61030b6114db565b6103566105d43660046131b0565b6114ea565b6103566105e736600461351f565b611761565b6103566105fa366004613554565b6118aa565b61036b600181565b61036b610615366004613590565b6118b5565b61062d6106283660046131b0565b6118ca565b6040516102fa939291906135c5565b61035661064a3660046135f6565b6119a2565b61030b61065d366004613151565b6119d3565b6103566106703660046131b0565b611a04565b61036b61068336600461346d565b611b70565b61036b610696366004613666565b611b92565b6103566106a93660046131b0565b611ba8565b6102ee6106bc3660046136ab565b6001600160a01b03918216600090815260056020908152604080832093909416825291909152205460ff1690565b6102ee6106f836600461351f565b611d1f565b61035661070b36600461351f565b611dca565b61036b61071e366004613426565b611f29565b61036b6107313660046131b0565b611f4a565b61032b6107443660046136d5565b611f6c565b600061075482611f8f565b92915050565b60606000805461076990613701565b80601f016020809104026020016040519081016040528092919081815260200182805461079590613701565b80156107e25780601f106107b7576101008083540402835291602001916107e2565b820191906000526020600020905b8154815290600101906020018083116107c557829003601f168201915b5050505050905090565b60006107f782611fb4565b61085d5760405162461bcd60e51b815260206004820152602c60248201527f4552433732313a20617070726f76656420717565727920666f72206e6f6e657860448201526b34b9ba32b73a103a37b5b2b760a11b60648201526084015b60405180910390fd5b506000908152600460205260409020546001600160a01b031690565b6000610884826113c6565b9050806001600160a01b0316836001600160a01b031614156108f25760405162461bcd60e51b815260206004820152602160248201527f4552433732313a20617070726f76616c20746f2063757272656e74206f776e656044820152603960f91b6064820152608401610854565b336001600160a01b038216148061090e575061090e81336106bc565b6109805760405162461bcd60e51b815260206004820152603860248201527f4552433732313a20617070726f76652063616c6c6572206973206e6f74206f7760448201527f6e6572206e6f7220617070726f76656420666f7220616c6c00000000000000006064820152608401610854565b61098a8383611fd1565b505050565b60008181526013602052604081206107549061203f565b60008281526012602052604081206109be9083612049565b9392505050565b6000818152600c602052604090208054606091906109e290613701565b80601f0160208091040260200160405190810160405280929190818152602001828054610a0e90613701565b8015610a5b5780601f10610a3057610100808354040283529160200191610a5b565b820191906000526020600020905b815481529060010190602001808311610a3e57829003601f168201915b50505050509050919050565b610a7084612055565b6000610a7b600b5490565b9050610a8b600b80546001019055565b610a95338261209a565b610abe81600d87604051610aa9919061373c565b908152604051908190036020019020906120b4565b506000818152600c602090815260409091208651610ade92880190612fe4565b506000818152601060209081526040808320838052825280832033808552908352818420805460ff1916600117905590518481529092839290917f3f9759be566576e968397b016ea9843c3e1d19bf1f59ae53cdfbd3b1a6914070910160405180910390a4610b4d8185610f72565b60005b8351811015610b8e57610b7c848281518110610b6e57610b6e613758565b602002602001015183610e11565b80610b8681613784565b915050610b50565b5060005b8251811015610bd057610bbe82848381518110610bb157610bb1613758565b6020026020010151610e11565b80610bc881613784565b915050610b92565b505050505050565b610be233826120c0565b610bfe5760405162461bcd60e51b81526004016108549061379f565b61098a8383836121a9565b60008281526013602052604081206109be9083612049565b6000610c2c8361143d565b8210610c8e5760405162461bcd60e51b815260206004820152602b60248201527f455243373231456e756d657261626c653a206f776e657220696e646578206f7560448201526a74206f6620626f756e647360a81b6064820152608401610854565b506001600160a01b03919091166000908152600660209081526040808320938352929052205490565b81610cc181611fb4565b6040518060400160405280601081526020016f1b9bd91957db9bdb995e1a5cdd195b9d60821b81525090610d085760405162461bcd60e51b8152600401610854919061313e565b50610d14838333611d1f565b15610d7957600083815260106020908152604080832085845282528083203380855290835292819020805460ff1916905551858152829185917f743dd6de0118c934baddbf165685269ac4f51fe0780281fdb64ea7ca8746ceff910160405180910390a45b610d9c336000858152601160209081526040808320878452909152902090612350565b50505050565b6000610db083600084611d1f565b806109be57506109be83600184611d1f565b6000828152600f602052604080822090516109be9190610de390859061373c565b908152602001604051809103902061203f565b61098a838383604051806020016040528060008152506119a2565b81610e1b81611fb4565b6040518060400160405280601081526020016f1b9bd91957db9bdb995e1a5cdd195b9d60821b81525090610e625760405162461bcd60e51b8152600401610854919061313e565b5081610e6d81611fb4565b6040518060400160405280601081526020016f1b9bd91957db9bdb995e1a5cdd195b9d60821b81525090610eb45760405162461bcd60e51b8152600401610854919061313e565b5082610ec08133610da2565b60405180604001604052806018815260200160008051602061398183398151915281525090610f025760405162461bcd60e51b8152600401610854919061313e565b506000610f0e866109c5565b90506000610f1b866109c5565b9050610f4287600e600089815260200190815260200160002084604051610aa9919061373c565b50610f6886600f60008a815260200190815260200160002083604051610aa9919061373c565b5050505050505050565b81610f7c81611fb4565b6040518060400160405280601081526020016f1b9bd91957db9bdb995e1a5cdd195b9d60821b81525090610fc35760405162461bcd60e51b8152600401610854919061313e565b5082610fcf8133610da2565b604051806040016040528060188152602001600080516020613981833981519152815250906110115760405162461bcd60e51b8152600401610854919061313e565b5061101b83612055565b60146000858152602001908152602001600020604051806060016040528042815260200185815260200161104c3390565b6001600160a01b03169052815460018181018455600093845260209384902083516003909302019182558383015180519394929361109293928501929190910190612fe4565b5060409190910151600290910180546001600160a01b0319166001600160a01b039092169190911790556110c68484612365565b60405133906110d690859061373c565b6040518091039020427f87e2bd723d2071701a8612fe3afcc134df220caad0d2a34e64c02b79569a2f938760405161111091815260200190565b60405180910390a450505050565b600061075482611fb4565b600061113460085490565b82106111975760405162461bcd60e51b815260206004820152602c60248201527f455243373231456e756d657261626c653a20676c6f62616c20696e646578206f60448201526b7574206f6620626f756e647360a01b6064820152608401610854565b600882815481106111aa576111aa613758565b90600052602060002001549050919050565b806111c681611fb4565b6040518060400160405280601081526020016f1b9bd91957db9bdb995e1a5cdd195b9d60821b8152509061120d5760405162461bcd60e51b8152600401610854919061313e565b50611219335b836120c0565b6040518060400160405280601881526020016000805160206139818339815191528152509061125b5760405162461bcd60e51b8152600401610854919061313e565b50611265826123f0565b5050565b6000838152600e602052604080822090516112a091849161128b90879061373c565b90815260405190819003602001902090612049565b949350505050565b6112d56040518060600160405280600081526020016060815260200160006001600160a01b031681525090565b60008381526014602052604090208054839081106112f5576112f5613758565b90600052602060002090600302016040518060600160405290816000820154815260200160018201805461132890613701565b80601f016020809104026020016040519081016040528092919081815260200182805461135490613701565b80156113a15780601f10611376576101008083540402835291602001916113a1565b820191906000526020600020905b81548152906001019060200180831161138457829003601f168201915b5050509183525050600291909101546001600160a01b03166020909101529392505050565b6000818152600260205260408120546001600160a01b0316806107545760405162461bcd60e51b815260206004820152602960248201527f4552433732313a206f776e657220717565727920666f72206e6f6e657869737460448201526832b73a103a37b5b2b760b91b6064820152608401610854565b60006001600160a01b0382166114a85760405162461bcd60e51b815260206004820152602a60248201527f4552433732313a2062616c616e636520717565727920666f7220746865207a65604482015269726f206164647265737360b01b6064820152608401610854565b506001600160a01b031660009081526003602052604090205490565b60008181526012602052604081206107549061203f565b60606001805461076990613701565b816114f481611fb4565b6040518060400160405280601081526020016f1b9bd91957db9bdb995e1a5cdd195b9d60821b8152509061153b5760405162461bcd60e51b8152600401610854919061313e565b508161154681611fb4565b6040518060400160405280601081526020016f1b9bd91957db9bdb995e1a5cdd195b9d60821b8152509061158d5760405162461bcd60e51b8152600401610854919061313e565b5083600061159c828233611d1f565b604051806040016040528060188152602001600080516020613981833981519152815250906115de5760405162461bcd60e51b8152600401610854919061313e565b508460006115ed828233611d1f565b6040518060400160405280601881526020016000805160206139818339815191528152509061162f5760405162461bcd60e51b8152600401610854919061313e565b506040805180820190915260148152733932b1bab939b4bb32afb232b632b3b0ba34b7b760611b60208201528888141561167c5760405162461bcd60e51b8152600401610854919061313e565b50611686876114c4565b6040805180820190915260148152733932b1bab939b4bb32afb232b632b3b0ba34b7b760611b602082015290156116d05760405162461bcd60e51b8152600401610854919061313e565b506116da8861098f565b6040805180820190915260148152733932b1bab939b4bb32afb232b632b3b0ba34b7b760611b602082015290156117245760405162461bcd60e51b8152600401610854919061313e565b50600088815260126020526040902061173d90886120b4565b50600087815260136020526040902061175690896120b4565b505050505050505050565b8261176b81611fb4565b6040518060400160405280601081526020016f1b9bd91957db9bdb995e1a5cdd195b9d60821b815250906117b25760405162461bcd60e51b8152600401610854919061313e565b508360006117c1828233611d1f565b604051806040016040528060188152602001600080516020613981833981519152815250906118035760405162461bcd60e51b8152600401610854919061313e565b5061180f868686611d1f565b1561187e57600086815260106020908152604080832088845282528083206001600160a01b03881680855290835292819020805460ff191690555188815233929188917f743dd6de0118c934baddbf165685269ac4f51fe0780281fdb64ea7ca8746ceff910160405180910390a45b600086815260116020908152604080832088845290915290206118a19085612350565b50505050505050565b6112653383836123f9565b6000610754600d83604051610de3919061373c565b601460205281600052604060002081815481106118e657600080fd5b90600052602060002090600302016000915091505080600001549080600101805461191090613701565b80601f016020809104026020016040519081016040528092919081815260200182805461193c90613701565b80156119895780601f1061195e57610100808354040283529160200191611989565b820191906000526020600020905b81548152906001019060200180831161196c57829003601f168201915b505050600290930154919250506001600160a01b031683565b6119ab33611213565b6119c75760405162461bcd60e51b81526004016108549061379f565b610d9c848484846124c8565b60606119de826124fb565b6040516020016119ee91906137f0565b6040516020818303038152906040529050919050565b81611a0e81611fb4565b6040518060400160405280601081526020016f1b9bd91957db9bdb995e1a5cdd195b9d60821b81525090611a555760405162461bcd60e51b8152600401610854919061313e565b5081611a6081611fb4565b6040518060400160405280601081526020016f1b9bd91957db9bdb995e1a5cdd195b9d60821b81525090611aa75760405162461bcd60e51b8152600401610854919061313e565b5082611ab38133610da2565b60405180604001604052806018815260200160008051602061398183398151915281525090611af55760405162461bcd60e51b8152600401610854919061313e565b506000611b01866109c5565b90506000611b0e866109c5565b9050611b4a87600e600089815260200190815260200160002084604051611b35919061373c565b90815260405190819003602001902090612679565b50610f6886600f60008a815260200190815260200160002083604051611b35919061373c565b6000838152600f602052604080822090516112a091849161128b90879061373c565b60006109be82600d8560405161128b919061373c565b81611bb281611fb4565b6040518060400160405280601081526020016f1b9bd91957db9bdb995e1a5cdd195b9d60821b81525090611bf95760405162461bcd60e51b8152600401610854919061313e565b5081611c0481611fb4565b6040518060400160405280601081526020016f1b9bd91957db9bdb995e1a5cdd195b9d60821b81525090611c4b5760405162461bcd60e51b8152600401610854919061313e565b50836000611c5a828233611d1f565b60405180604001604052806018815260200160008051602061398183398151915281525090611c9c5760405162461bcd60e51b8152600401610854919061313e565b50846000611cab828233611d1f565b60405180604001604052806018815260200160008051602061398183398151915281525090611ced5760405162461bcd60e51b8152600401610854919061313e565b506000888152601260205260409020611d069088612679565b5060008781526013602052604090206117569089612679565b600083815260106020908152604080832085845282528083206001600160a01b038516845290915281205460ff1615611d5a575060016109be565b60005b6000858152601260205260409020611d749061203f565b811015611dbf576000858152601260205260409020611d9e90611d979083612049565b8585611d1f565b15611dad5760019150506109be565b80611db781613784565b915050611d5d565b506000949350505050565b82611dd481611fb4565b6040518060400160405280601081526020016f1b9bd91957db9bdb995e1a5cdd195b9d60821b81525090611e1b5760405162461bcd60e51b8152600401610854919061313e565b50836000611e2a828233611d1f565b60405180604001604052806018815260200160008051602061398183398151915281525090611e6c5760405162461bcd60e51b8152600401610854919061313e565b50611e78868686611d1f565b611f0657600086815260106020908152604080832088845282528083206001600160a01b03881684529091529020805460ff19166001179055611eb83390565b6001600160a01b0316846001600160a01b0316867f3f9759be566576e968397b016ea9843c3e1d19bf1f59ae53cdfbd3b1a691407089604051611efd91815260200190565b60405180910390a45b600086815260116020908152604080832088845290915290206118a19085612685565b6000828152600e602052604080822090516109be9190610de390859061373c565b600082815260116020908152604080832084845290915281206109be9061203f565b600083815260116020908152604080832085845290915281206112a09083612049565b60006001600160e01b0319821663780e9d6360e01b148061075457506107548261269a565b6000908152600260205260409020546001600160a01b0316151590565b600081815260046020526040902080546001600160a01b0319166001600160a01b0384169081179091558190612006826113c6565b6001600160a01b03167f8c5be1e5ebec7d5bd14f71427d1e84f3dd0314c0f7b2291e5b200ac8c7c3b92560405160405180910390a45050565b6000610754825490565b60006109be83836126ea565b60008151116120975760405162461bcd60e51b815260206004820152600e60248201526d696e76616c69645f737472696e6760901b6044820152606401610854565b50565b611265828260405180602001604052806000815250612714565b60006109be8383612747565b60006120cb82611fb4565b61212c5760405162461bcd60e51b815260206004820152602c60248201527f4552433732313a206f70657261746f7220717565727920666f72206e6f6e657860448201526b34b9ba32b73a103a37b5b2b760a11b6064820152608401610854565b6000612137836113c6565b9050806001600160a01b0316846001600160a01b031614806121725750836001600160a01b0316612167846107ec565b6001600160a01b0316145b806112a057506001600160a01b0380821660009081526005602090815260408083209388168352929052205460ff16949350505050565b826001600160a01b03166121bc826113c6565b6001600160a01b0316146122205760405162461bcd60e51b815260206004820152602560248201527f4552433732313a207472616e736665722066726f6d20696e636f72726563742060448201526437bbb732b960d91b6064820152608401610854565b6001600160a01b0382166122825760405162461bcd60e51b8152602060048201526024808201527f4552433732313a207472616e7366657220746f20746865207a65726f206164646044820152637265737360e01b6064820152608401610854565b61228d838383612796565b612298600082611fd1565b6001600160a01b03831660009081526003602052604081208054600192906122c1908490613822565b90915550506001600160a01b03821660009081526003602052604081208054600192906122ef908490613839565b909155505060008181526002602052604080822080546001600160a01b0319166001600160a01b0386811691821790925591518493918716917fddf252ad1be2c89b69c2b068fc378daa952ba7f163c4a11628f55a4df523b3ef91a4505050565b60006109be836001600160a01b0384166127a1565b61236e82611fb4565b6123d15760405162461bcd60e51b815260206004820152602e60248201527f45524337323155524953746f726167653a2055524920736574206f66206e6f6e60448201526d32bc34b9ba32b73a103a37b5b2b760911b6064820152608401610854565b6000828152600a60209081526040909120825161098a92840190612fe4565b61209781612894565b816001600160a01b0316836001600160a01b0316141561245b5760405162461bcd60e51b815260206004820152601960248201527f4552433732313a20617070726f766520746f2063616c6c6572000000000000006044820152606401610854565b6001600160a01b03838116600081815260056020908152604080832094871680845294825291829020805460ff191686151590811790915591519182527f17307eab39ab6107e8899845ad3d59bd9653f200f220920489ca2b5937696c31910160405180910390a3505050565b6124d38484846121a9565b6124df848484846128d4565b610d9c5760405162461bcd60e51b815260040161085490613851565b606061250682611fb4565b61256c5760405162461bcd60e51b815260206004820152603160248201527f45524337323155524953746f726167653a2055524920717565727920666f72206044820152703737b732bc34b9ba32b73a103a37b5b2b760791b6064820152608401610854565b6000828152600a60205260408120805461258590613701565b80601f01602080910402602001604051908101604052809291908181526020018280546125b190613701565b80156125fe5780601f106125d3576101008083540402835291602001916125fe565b820191906000526020600020905b8154815290600101906020018083116125e157829003601f168201915b50505050509050600061262b604080518082019091526007815266697066733a2f2f60c81b602082015290565b905080516000141561263e575092915050565b8151156126705780826040516020016126589291906138a3565b60405160208183030381529060405292505050919050565b6112a0846129d2565b60006109be83836127a1565b60006109be836001600160a01b038416612747565b60006001600160e01b031982166380ac58cd60e01b14806126cb57506001600160e01b03198216635b5e139f60e01b145b8061075457506301ffc9a760e01b6001600160e01b0319831614610754565b600082600001828154811061270157612701613758565b9060005260206000200154905092915050565b61271e8383612ab8565b61272b60008484846128d4565b61098a5760405162461bcd60e51b815260040161085490613851565b600081815260018301602052604081205461278e57508154600181810184556000848152602080822090930184905584548482528286019093526040902091909155610754565b506000610754565b61098a838383612bf7565b6000818152600183016020526040812054801561288a5760006127c5600183613822565b85549091506000906127d990600190613822565b905081811461283e5760008660000182815481106127f9576127f9613758565b906000526020600020015490508087600001848154811061281c5761281c613758565b6000918252602080832090910192909255918252600188019052604090208390555b855486908061284f5761284f6138d2565b600190038181906000526020600020016000905590558560010160008681526020019081526020016000206000905560019350505050610754565b6000915050610754565b61289d81612caf565b6000818152600a6020526040902080546128b690613701565b159050612097576000818152600a6020526040812061209791613068565b60006001600160a01b0384163b156129c757604051630a85bd0160e11b81526001600160a01b0385169063150b7a02906129189033908990889088906004016138e8565b6020604051808303816000875af1925050508015612953575060408051601f3d908101601f1916820190925261295091810190613925565b60015b6129ad573d808015612981576040519150601f19603f3d011682016040523d82523d6000602084013e612986565b606091505b5080516129a55760405162461bcd60e51b815260040161085490613851565b805181602001fd5b6001600160e01b031916630a85bd0160e11b1490506112a0565b506001949350505050565b60606129dd82611fb4565b612a415760405162461bcd60e51b815260206004820152602f60248201527f4552433732314d657461646174613a2055524920717565727920666f72206e6f60448201526e3732bc34b9ba32b73a103a37b5b2b760891b6064820152608401610854565b6000612a67604080518082019091526007815266697066733a2f2f60c81b602082015290565b90506000815111612a8757604051806020016040528060008152506109be565b80612a9184612d56565b604051602001612aa29291906138a3565b6040516020818303038152906040529392505050565b6001600160a01b038216612b0e5760405162461bcd60e51b815260206004820181905260248201527f4552433732313a206d696e7420746f20746865207a65726f20616464726573736044820152606401610854565b612b1781611fb4565b15612b645760405162461bcd60e51b815260206004820152601c60248201527f4552433732313a20746f6b656e20616c7265616479206d696e746564000000006044820152606401610854565b612b7060008383612796565b6001600160a01b0382166000908152600360205260408120805460019290612b99908490613839565b909155505060008181526002602052604080822080546001600160a01b0319166001600160a01b03861690811790915590518392907fddf252ad1be2c89b69c2b068fc378daa952ba7f163c4a11628f55a4df523b3ef908290a45050565b6001600160a01b038316612c5257612c4d81600880546000838152600960205260408120829055600182018355919091527ff3f7a9fe364faab93b216da50a3214154f22a0a2b415b23a84c8169e8b636ee30155565b612c75565b816001600160a01b0316836001600160a01b031614612c7557612c758382612e54565b6001600160a01b038216612c8c5761098a81612ef1565b826001600160a01b0316826001600160a01b03161461098a5761098a8282612fa0565b6000612cba826113c6565b9050612cc881600084612796565b612cd3600083611fd1565b6001600160a01b0381166000908152600360205260408120805460019290612cfc908490613822565b909155505060008281526002602052604080822080546001600160a01b0319169055518391906001600160a01b038416907fddf252ad1be2c89b69c2b068fc378daa952ba7f163c4a11628f55a4df523b3ef908390a45050565b606081612d7a5750506040805180820190915260018152600360fc1b602082015290565b8160005b8115612da45780612d8e81613784565b9150612d9d9050600a83613958565b9150612d7e565b60008167ffffffffffffffff811115612dbf57612dbf6131d2565b6040519080825280601f01601f191660200182016040528015612de9576020820181803683370190505b5090505b84156112a057612dfe600183613822565b9150612e0b600a8661396c565b612e16906030613839565b60f81b818381518110612e2b57612e2b613758565b60200101906001600160f81b031916908160001a905350612e4d600a86613958565b9450612ded565b60006001612e618461143d565b612e6b9190613822565b600083815260076020526040902054909150808214612ebe576001600160a01b03841660009081526006602090815260408083208584528252808320548484528184208190558352600790915290208190555b5060009182526007602090815260408084208490556001600160a01b039094168352600681528383209183525290812055565b600854600090612f0390600190613822565b60008381526009602052604081205460088054939450909284908110612f2b57612f2b613758565b906000526020600020015490508060088381548110612f4c57612f4c613758565b6000918252602080832090910192909255828152600990915260408082208490558582528120556008805480612f8457612f846138d2565b6001900381819060005260206000200160009055905550505050565b6000612fab8361143d565b6001600160a01b039093166000908152600660209081526040808320868452825280832085905593825260079052919091209190915550565b828054612ff090613701565b90600052602060002090601f0160209004810192826130125760008555613058565b82601f1061302b57805160ff1916838001178555613058565b82800160010185558215613058579182015b8281111561305857825182559160200191906001019061303d565b5061306492915061309e565b5090565b50805461307490613701565b6000825580601f10613084575050565b601f01602090049060005260206000209081019061209791905b5b80821115613064576000815560010161309f565b6001600160e01b03198116811461209757600080fd5b6000602082840312156130db57600080fd5b81356109be816130b3565b60005b838110156131015781810151838201526020016130e9565b83811115610d9c5750506000910152565b6000815180845261312a8160208601602086016130e6565b601f01601f19169290920160200192915050565b6020815260006109be6020830184613112565b60006020828403121561316357600080fd5b5035919050565b80356001600160a01b038116811461318157600080fd5b919050565b6000806040838503121561319957600080fd5b6131a28361316a565b946020939093013593505050565b600080604083850312156131c357600080fd5b50508035926020909101359150565b634e487b7160e01b600052604160045260246000fd5b604051601f8201601f1916810167ffffffffffffffff81118282101715613211576132116131d2565b604052919050565b600067ffffffffffffffff831115613233576132336131d2565b613246601f8401601f19166020016131e8565b905082815283838301111561325a57600080fd5b828260208301376000602084830101529392505050565b600082601f83011261328257600080fd5b6109be83833560208501613219565b600082601f8301126132a257600080fd5b8135602067ffffffffffffffff8211156132be576132be6131d2565b8160051b6132cd8282016131e8565b92835284810182019282810190878511156132e757600080fd5b83870192505b84831015613306578235825291830191908301906132ed565b979650505050505050565b6000806000806080858703121561332757600080fd5b843567ffffffffffffffff8082111561333f57600080fd5b61334b88838901613271565b9550602087013591508082111561336157600080fd5b61336d88838901613271565b9450604087013591508082111561338357600080fd5b61338f88838901613291565b935060608701359150808211156133a557600080fd5b506133b287828801613291565b91505092959194509250565b6000806000606084860312156133d357600080fd5b6133dc8461316a565b92506133ea6020850161316a565b9150604084013590509250925092565b6000806040838503121561340d57600080fd5b8235915061341d6020840161316a565b90509250929050565b6000806040838503121561343957600080fd5b82359150602083013567ffffffffffffffff81111561345757600080fd5b61346385828601613271565b9150509250929050565b60008060006060848603121561348257600080fd5b83359250602084013567ffffffffffffffff8111156134a057600080fd5b6134ac86828701613271565b925050604084013590509250925092565b602081528151602082015260006020830151606060408401526134e36080840182613112565b604094909401516001600160a01b0316606093909301929092525090919050565b60006020828403121561351657600080fd5b6109be8261316a565b60008060006060848603121561353457600080fd5b833592506020840135915061354b6040850161316a565b90509250925092565b6000806040838503121561356757600080fd5b6135708361316a565b91506020830135801515811461358557600080fd5b809150509250929050565b6000602082840312156135a257600080fd5b813567ffffffffffffffff8111156135b957600080fd5b6112a084828501613271565b8381526060602082015260006135de6060830185613112565b905060018060a01b0383166040830152949350505050565b6000806000806080858703121561360c57600080fd5b6136158561316a565b93506136236020860161316a565b925060408501359150606085013567ffffffffffffffff81111561364657600080fd5b8501601f8101871361365757600080fd5b6133b287823560208401613219565b6000806040838503121561367957600080fd5b823567ffffffffffffffff81111561369057600080fd5b61369c85828601613271565b95602094909401359450505050565b600080604083850312156136be57600080fd5b6136c78361316a565b915061341d6020840161316a565b6000806000606084860312156136ea57600080fd5b505081359360208301359350604090920135919050565b600181811c9082168061371557607f821691505b6020821081141561373657634e487b7160e01b600052602260045260246000fd5b50919050565b6000825161374e8184602087016130e6565b9190910192915050565b634e487b7160e01b600052603260045260246000fd5b634e487b7160e01b600052601160045260246000fd5b60006000198214156137985761379861376e565b5060010190565b60208082526031908201527f4552433732313a207472616e736665722063616c6c6572206973206e6f74206f6040820152701ddb995c881b9bdc88185c1c1c9bdd9959607a1b606082015260800190565b600082516138028184602087016130e6565b6d17b6b2ba30b230ba30973539b7b760911b920191825250600e01919050565b6000828210156138345761383461376e565b500390565b6000821982111561384c5761384c61376e565b500190565b60208082526032908201527f4552433732313a207472616e7366657220746f206e6f6e20455243373231526560408201527131b2b4bb32b91034b6b83632b6b2b73a32b960711b606082015260800190565b600083516138b58184602088016130e6565b8351908301906138c98183602088016130e6565b01949350505050565b634e487b7160e01b600052603160045260246000fd5b6001600160a01b038581168252841660208201526040810183905260806060820181905260009061391b90830184613112565b9695505050505050565b60006020828403121561393757600080fd5b81516109be816130b3565b634e487b7160e01b600052601260045260246000fd5b60008261396757613967613942565b500490565b60008261397b5761397b613942565b50069056fe696e73756666696369656e745f7065726d697373696f6e730000000000000000a2646970667358221220e6ef127dc1669cf7a4171ee65c4e7ea7adedcca532000e9b5fa0d88d4e86f16164736f6c634300080c0033",
  "linkReferences": {},
  "deployedLinkReferences": {}
}