{
  "_format": "hh-sol-artifact-1",
  "contractName": "Node",
  "sourceName": "contracts/src/Node.sol",
  "abi": [
    {
      "inputs": [],
      "stateMutability": "nonpayable",
      "type": "constructor"
    },
    {
      "anonymous": false,
      "inputs": [
        {
          "indexed": true,
          "internalType": "address",
          "name": "owner",
          "type": "address"
        },
        {
          "indexed": true,
          "internalType": "address",
          "name": "approved",
          "type": "address"
        },
        {
          "indexed": true,
          "internalType": "uint256",
          "name": "tokenId",
          "type": "uint256"
        }
      ],
      "name": "Approval",
      "type": "event"
    },
    {
      "anonymous": false,
      "inputs": [
        {
          "indexed": true,
          "internalType": "address",
          "name": "owner",
          "type": "address"
        },
        {
          "indexed": true,
          "internalType": "address",
          "name": "operator",
          "type": "address"
        },
        {
          "indexed": false,
          "internalType": "bool",
          "name": "approved",
          "type": "bool"
        }
      ],
      "name": "ApprovalForAll",
      "type": "event"
    },
    {
      "anonymous": false,
      "inputs": [
        {
          "indexed": true,
          "internalType": "uint256",
          "name": "tokenId",
          "type": "uint256"
        },
        {
          "indexed": true,
          "internalType": "int256",
          "name": "connectionFee",
          "type": "int256"
        },
        {
          "indexed": true,
          "internalType": "address",
          "name": "sender",
          "type": "address"
        }
      ],
      "name": "ConnectionFeeSet",
      "type": "event"
    },
    {
      "anonymous": false,
      "inputs": [
        {
          "indexed": true,
          "internalType": "uint256",
          "name": "forTokenId",
          "type": "uint256"
        },
        {
          "indexed": true,
          "internalType": "uint256",
          "name": "toTokenId",
          "type": "uint256"
        },
        {
          "indexed": true,
          "internalType": "address",
          "name": "sender",
          "type": "address"
        }
      ],
      "name": "DelegatePermissionsRenounced",
      "type": "event"
    },
    {
      "anonymous": false,
      "inputs": [
        {
          "indexed": true,
          "internalType": "uint256",
          "name": "from",
          "type": "uint256"
        },
        {
          "indexed": true,
          "internalType": "uint256",
          "name": "to",
          "type": "uint256"
        },
        {
          "indexed": true,
          "internalType": "address",
          "name": "sender",
          "type": "address"
        }
      ],
      "name": "NodesConnected",
      "type": "event"
    },
    {
      "anonymous": false,
      "inputs": [
        {
          "indexed": true,
          "internalType": "uint256",
          "name": "from",
          "type": "uint256"
        },
        {
          "indexed": true,
          "internalType": "uint256",
          "name": "to",
          "type": "uint256"
        },
        {
          "indexed": true,
          "internalType": "address",
          "name": "sender",
          "type": "address"
        }
      ],
      "name": "NodesDisconnected",
      "type": "event"
    },
    {
      "anonymous": false,
      "inputs": [
        {
          "indexed": true,
          "internalType": "uint256",
          "name": "tokenId",
          "type": "uint256"
        },
        {
          "indexed": false,
          "internalType": "bool",
          "name": "bypassed",
          "type": "bool"
        },
        {
          "indexed": true,
          "internalType": "address",
          "name": "sender",
          "type": "address"
        }
      ],
      "name": "PermissionsBypassSet",
      "type": "event"
    },
    {
      "anonymous": false,
      "inputs": [
        {
          "indexed": true,
          "internalType": "uint256",
          "name": "forTokenId",
          "type": "uint256"
        },
        {
          "indexed": true,
          "internalType": "uint256",
          "name": "toTokenId",
          "type": "uint256"
        },
        {
          "indexed": true,
          "internalType": "address",
          "name": "sender",
          "type": "address"
        }
      ],
      "name": "PermissionsDelegated",
      "type": "event"
    },
    {
      "anonymous": false,
      "inputs": [
        {
          "indexed": true,
          "internalType": "uint256",
          "name": "tokenId",
          "type": "uint256"
        },
        {
          "indexed": false,
          "internalType": "uint256",
          "name": "timestamp",
          "type": "uint256"
        },
        {
          "indexed": true,
          "internalType": "string",
          "name": "hash",
          "type": "string"
        },
        {
          "indexed": true,
          "internalType": "address",
          "name": "sender",
          "type": "address"
        }
      ],
      "name": "RevisionMade",
      "type": "event"
    },
    {
      "anonymous": false,
      "inputs": [
        {
          "indexed": false,
          "internalType": "uint256",
          "name": "tokenId",
          "type": "uint256"
        },
        {
          "indexed": true,
          "internalType": "uint256",
          "name": "role",
          "type": "uint256"
        },
        {
          "indexed": true,
          "internalType": "address",
          "name": "account",
          "type": "address"
        },
        {
          "indexed": true,
          "internalType": "address",
          "name": "sender",
          "type": "address"
        }
      ],
      "name": "RoleGranted",
      "type": "event"
    },
    {
      "anonymous": false,
      "inputs": [
        {
          "indexed": false,
          "internalType": "uint256",
          "name": "tokenId",
          "type": "uint256"
        },
        {
          "indexed": true,
          "internalType": "uint256",
          "name": "role",
          "type": "uint256"
        },
        {
          "indexed": true,
          "internalType": "address",
          "name": "account",
          "type": "address"
        },
        {
          "indexed": true,
          "internalType": "address",
          "name": "sender",
          "type": "address"
        }
      ],
      "name": "RoleRevoked",
      "type": "event"
    },
    {
      "anonymous": false,
      "inputs": [
        {
          "indexed": true,
          "internalType": "address",
          "name": "from",
          "type": "address"
        },
        {
          "indexed": true,
          "internalType": "address",
          "name": "to",
          "type": "address"
        },
        {
          "indexed": true,
          "internalType": "uint256",
          "name": "tokenId",
          "type": "uint256"
        }
      ],
      "name": "Transfer",
      "type": "event"
    },
    {
      "inputs": [],
      "name": "ADMIN_ROLE",
      "outputs": [
        {
          "internalType": "uint256",
          "name": "",
          "type": "uint256"
        }
      ],
      "stateMutability": "view",
      "type": "function"
    },
    {
      "inputs": [],
      "name": "EDITOR_ROLE",
      "outputs": [
        {
          "internalType": "uint256",
          "name": "",
          "type": "uint256"
        }
      ],
      "stateMutability": "view",
      "type": "function"
    },
    {
      "inputs": [],
      "name": "ERR_INSUFFICIENT_PERMISSIONS",
      "outputs": [
        {
          "internalType": "string",
          "name": "",
          "type": "string"
        }
      ],
      "stateMutability": "view",
      "type": "function"
    },
    {
      "inputs": [],
      "name": "ERR_NODE_NONEXISTENT",
      "outputs": [
        {
          "internalType": "string",
          "name": "",
          "type": "string"
        }
      ],
      "stateMutability": "view",
      "type": "function"
    },
    {
      "inputs": [],
      "name": "ERR_RECURSIVE_DELEGATION",
      "outputs": [
        {
          "internalType": "string",
          "name": "",
          "type": "string"
        }
      ],
      "stateMutability": "view",
      "type": "function"
    },
    {
      "inputs": [],
      "name": "FEE_FALLBACK",
      "outputs": [
        {
          "internalType": "int256",
          "name": "",
          "type": "int256"
        }
      ],
      "stateMutability": "view",
      "type": "function"
    },
    {
      "inputs": [
        {
          "internalType": "address",
          "name": "to",
          "type": "address"
        },
        {
          "internalType": "uint256",
          "name": "tokenId",
          "type": "uint256"
        }
      ],
      "name": "approve",
      "outputs": [],
      "stateMutability": "nonpayable",
      "type": "function"
    },
    {
      "inputs": [
        {
          "internalType": "address",
          "name": "owner",
          "type": "address"
        }
      ],
      "name": "balanceOf",
      "outputs": [
        {
          "internalType": "uint256",
          "name": "",
          "type": "uint256"
        }
      ],
      "stateMutability": "view",
      "type": "function"
    },
    {
      "inputs": [
        {
          "internalType": "uint256",
          "name": "tokenId",
          "type": "uint256"
        }
      ],
      "name": "burnNode",
      "outputs": [],
      "stateMutability": "nonpayable",
      "type": "function"
    },
    {
      "inputs": [
        {
          "internalType": "uint256",
          "name": "tokenId",
          "type": "uint256"
        },
        {
          "internalType": "address",
          "name": "account",
          "type": "address"
        }
      ],
      "name": "canEdit",
      "outputs": [
        {
          "internalType": "bool",
          "name": "",
          "type": "bool"
        }
      ],
      "stateMutability": "view",
      "type": "function"
    },
    {
      "inputs": [
        {
          "internalType": "uint256",
          "name": "from",
          "type": "uint256"
        },
        {
          "internalType": "uint256",
          "name": "to",
          "type": "uint256"
        }
      ],
      "name": "connectNodes",
      "outputs": [],
      "stateMutability": "nonpayable",
      "type": "function"
    },
    {
      "inputs": [
        {
          "internalType": "uint256",
          "name": "forTokenId",
          "type": "uint256"
        },
        {
          "internalType": "uint256",
          "name": "toTokenId",
          "type": "uint256"
        }
      ],
      "name": "delegatePermissions",
      "outputs": [],
      "stateMutability": "nonpayable",
      "type": "function"
    },
    {
      "inputs": [
        {
          "internalType": "uint256",
          "name": "from",
          "type": "uint256"
        },
        {
          "internalType": "uint256",
          "name": "to",
          "type": "uint256"
        }
      ],
      "name": "disconnectNodes",
      "outputs": [],
      "stateMutability": "nonpayable",
      "type": "function"
    },
    {
      "inputs": [
        {
          "internalType": "uint256",
          "name": "tokenId",
          "type": "uint256"
        }
      ],
      "name": "exists",
      "outputs": [
        {
          "internalType": "bool",
          "name": "",
          "type": "bool"
        }
      ],
      "stateMutability": "view",
      "type": "function"
    },
    {
      "inputs": [
        {
          "internalType": "uint256",
          "name": "tokenId",
          "type": "uint256"
        }
      ],
      "name": "getApproved",
      "outputs": [
        {
          "internalType": "address",
          "name": "",
          "type": "address"
        }
      ],
      "stateMutability": "view",
      "type": "function"
    },
    {
      "inputs": [
        {
          "internalType": "uint256",
          "name": "tokenId",
          "type": "uint256"
        },
        {
          "internalType": "string",
          "name": "label",
          "type": "string"
        }
      ],
      "name": "getBacklinkedNodeCountForNodeByLabel",
      "outputs": [
        {
          "internalType": "uint256",
          "name": "",
          "type": "uint256"
        }
      ],
      "stateMutability": "view",
      "type": "function"
    },
    {
      "inputs": [
        {
          "internalType": "uint256",
          "name": "tokenId",
          "type": "uint256"
        },
        {
          "internalType": "string",
          "name": "label",
          "type": "string"
        },
        {
          "internalType": "uint256",
          "name": "index",
          "type": "uint256"
        }
      ],
      "name": "getBacklinkedNodeForNodeByLabelAndIndex",
      "outputs": [
        {
          "internalType": "uint256",
          "name": "",
          "type": "uint256"
        }
      ],
      "stateMutability": "view",
      "type": "function"
    },
    {
      "inputs": [
        {
          "internalType": "uint256",
          "name": "tokenId",
          "type": "uint256"
        },
        {
          "internalType": "string",
          "name": "label",
          "type": "string"
        }
      ],
      "name": "getConnectedNodeCountForNodeByLabel",
      "outputs": [
        {
          "internalType": "uint256",
          "name": "",
          "type": "uint256"
        }
      ],
      "stateMutability": "view",
      "type": "function"
    },
    {
      "inputs": [
        {
          "internalType": "uint256",
          "name": "tokenId",
          "type": "uint256"
        },
        {
          "internalType": "string",
          "name": "label",
          "type": "string"
        },
        {
          "internalType": "uint256",
          "name": "index",
          "type": "uint256"
        }
      ],
      "name": "getConnectedNodeForNodeByLabelAndIndex",
      "outputs": [
        {
          "internalType": "uint256",
          "name": "",
          "type": "uint256"
        }
      ],
      "stateMutability": "view",
      "type": "function"
    },
    {
      "inputs": [
        {
          "internalType": "uint256",
          "name": "tokenId",
          "type": "uint256"
        }
      ],
      "name": "getConnectionFee",
      "outputs": [
        {
          "internalType": "int256",
          "name": "",
          "type": "int256"
        }
      ],
      "stateMutability": "view",
      "type": "function"
    },
    {
      "inputs": [
        {
          "internalType": "uint256",
          "name": "tokenId",
          "type": "uint256"
        },
        {
          "internalType": "uint256",
          "name": "index",
          "type": "uint256"
        }
      ],
      "name": "getDelegatesForAtIndex",
      "outputs": [
        {
          "internalType": "uint256",
          "name": "",
          "type": "uint256"
        }
      ],
      "stateMutability": "view",
      "type": "function"
    },
    {
      "inputs": [
        {
          "internalType": "uint256",
          "name": "tokenId",
          "type": "uint256"
        }
      ],
      "name": "getDelegatesForCount",
      "outputs": [
        {
          "internalType": "uint256",
          "name": "",
          "type": "uint256"
        }
      ],
      "stateMutability": "view",
      "type": "function"
    },
    {
      "inputs": [
        {
          "internalType": "uint256",
          "name": "tokenId",
          "type": "uint256"
        },
        {
          "internalType": "uint256",
          "name": "index",
          "type": "uint256"
        }
      ],
      "name": "getDelegatesToAtIndex",
      "outputs": [
        {
          "internalType": "uint256",
          "name": "",
          "type": "uint256"
        }
      ],
      "stateMutability": "view",
      "type": "function"
    },
    {
      "inputs": [
        {
          "internalType": "uint256",
          "name": "tokenId",
          "type": "uint256"
        }
      ],
      "name": "getDelegatesToCount",
      "outputs": [
        {
          "internalType": "uint256",
          "name": "",
          "type": "uint256"
        }
      ],
      "stateMutability": "view",
      "type": "function"
    },
    {
      "inputs": [
        {
          "internalType": "string",
          "name": "label",
          "type": "string"
        }
      ],
      "name": "getNodeCountForLabel",
      "outputs": [
        {
          "internalType": "uint256",
          "name": "",
          "type": "uint256"
        }
      ],
      "stateMutability": "view",
      "type": "function"
    },
    {
      "inputs": [
        {
          "internalType": "string",
          "name": "label",
          "type": "string"
        },
        {
          "internalType": "uint256",
          "name": "index",
          "type": "uint256"
        }
      ],
      "name": "getNodeForLabelAtIndex",
      "outputs": [
        {
          "internalType": "uint256",
          "name": "",
          "type": "uint256"
        }
      ],
      "stateMutability": "view",
      "type": "function"
    },
    {
      "inputs": [
        {
          "internalType": "uint256",
          "name": "tokenId",
          "type": "uint256"
        },
        {
          "internalType": "uint256",
          "name": "index",
          "type": "uint256"
        }
      ],
      "name": "getRevision",
      "outputs": [
        {
          "components": [
            {
              "internalType": "uint256",
              "name": "timestamp",
              "type": "uint256"
            },
            {
              "internalType": "string",
              "name": "hash",
              "type": "string"
            },
            {
              "internalType": "address",
              "name": "revisor",
              "type": "address"
            }
          ],
          "internalType": "struct Node.Revision",
          "name": "",
          "type": "tuple"
        }
      ],
      "stateMutability": "view",
      "type": "function"
    },
    {
      "inputs": [
        {
          "internalType": "uint256",
          "name": "tokenId",
          "type": "uint256"
        }
      ],
      "name": "getRevisionCount",
      "outputs": [
        {
          "internalType": "uint256",
          "name": "",
          "type": "uint256"
        }
      ],
      "stateMutability": "view",
      "type": "function"
    },
    {
      "inputs": [
        {
          "internalType": "uint256",
          "name": "tokenId",
          "type": "uint256"
        },
        {
          "internalType": "uint256",
          "name": "role",
          "type": "uint256"
        },
        {
          "internalType": "uint256",
          "name": "index",
          "type": "uint256"
        }
      ],
      "name": "getRoleMember",
      "outputs": [
        {
          "internalType": "address",
          "name": "",
          "type": "address"
        }
      ],
      "stateMutability": "view",
      "type": "function"
    },
    {
      "inputs": [
        {
          "internalType": "uint256",
          "name": "tokenId",
          "type": "uint256"
        },
        {
          "internalType": "uint256",
          "name": "role",
          "type": "uint256"
        }
      ],
      "name": "getRoleMemberCount",
      "outputs": [
        {
          "internalType": "uint256",
          "name": "",
          "type": "uint256"
        }
      ],
      "stateMutability": "view",
      "type": "function"
    },
    {
      "inputs": [
        {
          "internalType": "uint256",
          "name": "tokenId",
          "type": "uint256"
        },
        {
          "internalType": "uint256",
          "name": "role",
          "type": "uint256"
        },
        {
          "internalType": "address",
          "name": "account",
          "type": "address"
        }
      ],
      "name": "grantRole",
      "outputs": [],
      "stateMutability": "nonpayable",
      "type": "function"
    },
    {
      "inputs": [
        {
          "internalType": "uint256",
          "name": "tokenId",
          "type": "uint256"
        }
      ],
      "name": "hasPermissionsBypass",
      "outputs": [
        {
          "internalType": "bool",
          "name": "",
          "type": "bool"
        }
      ],
      "stateMutability": "view",
      "type": "function"
    },
    {
      "inputs": [
        {
          "internalType": "uint256",
          "name": "tokenId",
          "type": "uint256"
        },
        {
          "internalType": "uint256",
          "name": "role",
          "type": "uint256"
        },
        {
          "internalType": "address",
          "name": "account",
          "type": "address"
        }
      ],
      "name": "hasRole",
      "outputs": [
        {
          "internalType": "bool",
          "name": "",
          "type": "bool"
        }
      ],
      "stateMutability": "view",
      "type": "function"
    },
    {
      "inputs": [
        {
          "internalType": "address",
          "name": "owner",
          "type": "address"
        },
        {
          "internalType": "address",
          "name": "operator",
          "type": "address"
        }
      ],
      "name": "isApprovedForAll",
      "outputs": [
        {
          "internalType": "bool",
          "name": "",
          "type": "bool"
        }
      ],
      "stateMutability": "view",
      "type": "function"
    },
    {
      "inputs": [
        {
          "internalType": "uint256",
          "name": "tokenId",
          "type": "uint256"
        }
      ],
      "name": "labelFor",
      "outputs": [
        {
          "internalType": "string",
          "name": "",
          "type": "string"
        }
      ],
      "stateMutability": "view",
      "type": "function"
    },
    {
      "inputs": [
        {
          "internalType": "uint256",
          "name": "tokenId",
          "type": "uint256"
        },
        {
          "internalType": "string",
          "name": "hash",
          "type": "string"
        }
      ],
      "name": "makeRevision",
      "outputs": [],
      "stateMutability": "nonpayable",
      "type": "function"
    },
    {
      "inputs": [
        {
          "internalType": "string",
          "name": "label",
          "type": "string"
        },
        {
          "internalType": "string",
          "name": "hash",
          "type": "string"
        },
        {
          "internalType": "uint256[]",
          "name": "fromConnections",
          "type": "uint256[]"
        },
        {
          "internalType": "uint256[]",
          "name": "toConnections",
          "type": "uint256[]"
        }
      ],
      "name": "mintNode",
      "outputs": [],
      "stateMutability": "nonpayable",
      "type": "function"
    },
    {
      "inputs": [],
      "name": "name",
      "outputs": [
        {
          "internalType": "string",
          "name": "",
          "type": "string"
        }
      ],
      "stateMutability": "view",
      "type": "function"
    },
    {
      "inputs": [
        {
          "internalType": "uint256",
          "name": "tokenId",
          "type": "uint256"
        }
      ],
      "name": "ownerOf",
      "outputs": [
        {
          "internalType": "address",
          "name": "",
          "type": "address"
        }
      ],
      "stateMutability": "view",
      "type": "function"
    },
    {
      "inputs": [
        {
          "internalType": "uint256",
          "name": "forTokenId",
          "type": "uint256"
        },
        {
          "internalType": "uint256",
          "name": "toTokenId",
          "type": "uint256"
        }
      ],
      "name": "renounceDelegatePermissions",
      "outputs": [],
      "stateMutability": "nonpayable",
      "type": "function"
    },
    {
      "inputs": [
        {
          "internalType": "uint256",
          "name": "tokenId",
          "type": "uint256"
        },
        {
          "internalType": "uint256",
          "name": "role",
          "type": "uint256"
        }
      ],
      "name": "renounceRole",
      "outputs": [],
      "stateMutability": "nonpayable",
      "type": "function"
    },
    {
      "inputs": [
        {
          "internalType": "uint256",
          "name": "",
          "type": "uint256"
        },
        {
          "internalType": "uint256",
          "name": "",
          "type": "uint256"
        }
      ],
      "name": "revisions",
      "outputs": [
        {
          "internalType": "uint256",
          "name": "timestamp",
          "type": "uint256"
        },
        {
          "internalType": "string",
          "name": "hash",
          "type": "string"
        },
        {
          "internalType": "address",
          "name": "revisor",
          "type": "address"
        }
      ],
      "stateMutability": "view",
      "type": "function"
    },
    {
      "inputs": [
        {
          "internalType": "uint256",
          "name": "tokenId",
          "type": "uint256"
        },
        {
          "internalType": "uint256",
          "name": "role",
          "type": "uint256"
        },
        {
          "internalType": "address",
          "name": "account",
          "type": "address"
        }
      ],
      "name": "revokeRole",
      "outputs": [],
      "stateMutability": "nonpayable",
      "type": "function"
    },
    {
      "inputs": [
        {
          "internalType": "address",
          "name": "from",
          "type": "address"
        },
        {
          "internalType": "address",
          "name": "to",
          "type": "address"
        },
        {
          "internalType": "uint256",
          "name": "tokenId",
          "type": "uint256"
        }
      ],
      "name": "safeTransferFrom",
      "outputs": [],
      "stateMutability": "nonpayable",
      "type": "function"
    },
    {
      "inputs": [
        {
          "internalType": "address",
          "name": "from",
          "type": "address"
        },
        {
          "internalType": "address",
          "name": "to",
          "type": "address"
        },
        {
          "internalType": "uint256",
          "name": "tokenId",
          "type": "uint256"
        },
        {
          "internalType": "bytes",
          "name": "_data",
          "type": "bytes"
        }
      ],
      "name": "safeTransferFrom",
      "outputs": [],
      "stateMutability": "nonpayable",
      "type": "function"
    },
    {
      "inputs": [
        {
          "internalType": "address",
          "name": "operator",
          "type": "address"
        },
        {
          "internalType": "bool",
          "name": "approved",
          "type": "bool"
        }
      ],
      "name": "setApprovalForAll",
      "outputs": [],
      "stateMutability": "nonpayable",
      "type": "function"
    },
    {
      "inputs": [
        {
          "internalType": "uint256",
          "name": "tokenId",
          "type": "uint256"
        },
        {
          "internalType": "int256",
          "name": "connectionFee",
          "type": "int256"
        }
      ],
      "name": "setConnectionFee",
      "outputs": [],
      "stateMutability": "nonpayable",
      "type": "function"
    },
    {
      "inputs": [
        {
          "internalType": "uint256",
          "name": "tokenId",
          "type": "uint256"
        },
        {
          "internalType": "bool",
          "name": "shouldBypassPermissions",
          "type": "bool"
        }
      ],
      "name": "setPermissionsBypass",
      "outputs": [],
      "stateMutability": "nonpayable",
      "type": "function"
    },
    {
      "inputs": [
        {
          "internalType": "bytes4",
          "name": "interfaceId",
          "type": "bytes4"
        }
      ],
      "name": "supportsInterface",
      "outputs": [
        {
          "internalType": "bool",
          "name": "",
          "type": "bool"
        }
      ],
      "stateMutability": "view",
      "type": "function"
    },
    {
      "inputs": [],
      "name": "symbol",
      "outputs": [
        {
          "internalType": "string",
          "name": "",
          "type": "string"
        }
      ],
      "stateMutability": "view",
      "type": "function"
    },
    {
      "inputs": [
        {
          "internalType": "uint256",
          "name": "index",
          "type": "uint256"
        }
      ],
      "name": "tokenByIndex",
      "outputs": [
        {
          "internalType": "uint256",
          "name": "",
          "type": "uint256"
        }
      ],
      "stateMutability": "view",
      "type": "function"
    },
    {
      "inputs": [
        {
          "internalType": "address",
          "name": "owner",
          "type": "address"
        },
        {
          "internalType": "uint256",
          "name": "index",
          "type": "uint256"
        }
      ],
      "name": "tokenOfOwnerByIndex",
      "outputs": [
        {
          "internalType": "uint256",
          "name": "",
          "type": "uint256"
        }
      ],
      "stateMutability": "view",
      "type": "function"
    },
    {
      "inputs": [
        {
          "internalType": "uint256",
          "name": "tokenId",
          "type": "uint256"
        }
      ],
      "name": "tokenURI",
      "outputs": [
        {
          "internalType": "string",
          "name": "",
          "type": "string"
        }
      ],
      "stateMutability": "view",
      "type": "function"
    },
    {
      "inputs": [],
      "name": "totalSupply",
      "outputs": [
        {
          "internalType": "uint256",
          "name": "",
          "type": "uint256"
        }
      ],
      "stateMutability": "view",
      "type": "function"
    },
    {
      "inputs": [
        {
          "internalType": "address",
          "name": "from",
          "type": "address"
        },
        {
          "internalType": "address",
          "name": "to",
          "type": "address"
        },
        {
          "internalType": "uint256",
          "name": "tokenId",
          "type": "uint256"
        }
      ],
      "name": "transferFrom",
      "outputs": [],
      "stateMutability": "nonpayable",
      "type": "function"
    }
  ],
  "bytecode": "0x60806040523480156200001157600080fd5b50604051806040016040528060048152602001634e6f646560e01b815250604051806040016040528060048152602001634e4f444560e01b81525081600090805190602001906200006492919062000083565b5080516200007a90600190602084019062000083565b50505062000166565b828054620000919062000129565b90600052602060002090601f016020900481019282620000b5576000855562000100565b82601f10620000d057805160ff191683800117855562000100565b8280016001018555821562000100579182015b8281111562000100578251825591602001919060010190620000e3565b506200010e92915062000112565b5090565b5b808211156200010e576000815560010162000113565b600181811c908216806200013e57607f821691505b602082108114156200016057634e487b7160e01b600052602260045260246000fd5b50919050565b613d5280620001766000396000f3fe608060405234801561001057600080fd5b506004361061035d5760003560e01c8063742ebced116101d3578063b88d4fde11610104578063e985e9c5116100a2578063f1052ef91161007c578063f1052ef9146107da578063f18efc0f146107fd578063f9f5d7d414610810578063ff0810c71461082357600080fd5b8063e985e9c514610778578063ea559dc2146107b4578063eb31f4c5146107c757600080fd5b8063d2eefc58116100de578063d2eefc581461072c578063dbe552d61461073f578063dd33ce5d14610752578063dd888a9f1461076557600080fd5b8063b88d4fde146106fc578063c44e0e7e1461070f578063c87b56dd1461071957600080fd5b80639bf1503211610171578063a853211a1161014b578063a853211a146106ac578063a937319a146106b4578063aadf7e16146106c7578063b2dcc623146106da57600080fd5b80639bf15032146106735780639cb99aba14610686578063a22cb4651461069957600080fd5b806385d6f217116101ad57806385d6f2171461060557806392d9632514610618578063959249f31461064b57806395d89b411461066b57600080fd5b8063742ebced146105d757806375b238fc146105ea5780637873e8d6146105f257600080fd5b80633aa817cc116102ad5780634f6ccce71161024b5780636192e3e8116102255780636192e3e8146105675780636352211e1461058757806368e661eb1461059a57806370a08231146105c457600080fd5b80634f6ccce71461052e5780635587850d146105415780635ca7d7f41461055457600080fd5b806342842e0e1161028757806342842e0e146104e25780634ab37a82146104f55780634b1d6a90146105085780634f558e791461051b57600080fd5b80633aa817cc146104a95780633af7a723146104bc5780633f83c673146104cf57600080fd5b806316b3a0871161031a57806323b872dd116102f457806323b872dd146104415780632edfd661146104545780632f745c59146104675780633a06529b1461047a57600080fd5b806316b3a0871461041357806318160ddd146104265780631aa720b11461042e57600080fd5b806301ffc9a71461036257806306fdde031461038a578063081812fc1461039f578063095ea7b3146103ca5780630f873998146103df57806313b308c414610400575b600080fd5b610375610370366004613424565b610836565b60405190151581526020015b60405180910390f35b610392610847565b6040516103819190613499565b6103b26103ad3660046134ac565b6108d9565b6040516001600160a01b039091168152602001610381565b6103dd6103d83660046134e1565b610966565b005b6103f26103ed3660046134ac565b610a7c565b604051908152602001610381565b6103f261040e36600461350b565b610a93565b6103926104213660046134ac565b610ab2565b6008546103f2565b6103dd61043c36600461366c565b610b54565b6103dd61044f366004613719565b610cdb565b6103f261046236600461350b565b610d0c565b6103f26104753660046134e1565b610d24565b6103926040518060400160405280601081526020016f1b9bd91957db9bdb995e1a5cdd195b9d60821b81525081565b6103dd6104b736600461350b565b610dba565b6103756104ca366004613755565b610ea5565b6103f26104dd366004613781565b610ec5565b6103dd6104f0366004613719565b610ef9565b6103dd61050336600461350b565b610f14565b6103dd610516366004613781565b6110bc565b6103756105293660046134ac565b61127f565b6103f261053c3660046134ac565b61128a565b6103dd61054f3660046134ac565b61131d565b6103f26105623660046137c8565b6113ca565b61057a61057536600461350b565b611409565b6040516103819190613818565b6103b26105953660046134ac565b611527565b610392604051806040016040528060188152602001600080516020613cfd83398151915281525081565b6103f26105d236600461385f565b61159e565b6103f26105e53660046134ac565b611625565b6103f2600081565b6103dd61060036600461350b565b61163c565b6103f26106133660046134ac565b6116e5565b610392604051806040016040528060148152602001733932b1bab939b4bb32afb232b632b3b0ba34b7b760611b81525081565b6103f26106593660046134ac565b60009081526016602052604090205490565b610392611718565b6103dd61068136600461350b565b611727565b6103dd61069436600461387a565b611990565b6103dd6106a73660046138bf565b611aef565b6103f2600181565b6103dd6106c23660046138e9565b611afa565b6103f26106d536600461390c565b611bad565b6106ed6106e836600461350b565b611bc2565b60405161038193929190613941565b6103dd61070a366004613972565b611c9a565b6103f2620f423f81565b6103926107273660046134ac565b611ccb565b6103dd61073a36600461350b565b611cfc565b6103f261074d3660046137c8565b611eb8565b6103f26107603660046139e2565b611eda565b6103dd61077336600461350b565b611ef0565b610375610786366004613a27565b6001600160a01b03918216600090815260056020908152604080832093909416825291909152205460ff1690565b6103756107c236600461387a565b612064565b6103dd6107d536600461387a565b61210f565b6103756107e83660046134ac565b60009081526015602052604090205460ff1690565b6103f261080b366004613781565b612284565b6103f261081e36600461350b565b6122a5565b6103b2610831366004613a51565b6122c7565b6000610841826122ea565b92915050565b60606000805461085690613a7d565b80601f016020809104026020016040519081016040528092919081815260200182805461088290613a7d565b80156108cf5780601f106108a4576101008083540402835291602001916108cf565b820191906000526020600020905b8154815290600101906020018083116108b257829003601f168201915b5050505050905090565b60006108e48261230f565b61094a5760405162461bcd60e51b815260206004820152602c60248201527f4552433732313a20617070726f76656420717565727920666f72206e6f6e657860448201526b34b9ba32b73a103a37b5b2b760a11b60648201526084015b60405180910390fd5b506000908152600460205260409020546001600160a01b031690565b600061097182611527565b9050806001600160a01b0316836001600160a01b031614156109df5760405162461bcd60e51b815260206004820152602160248201527f4552433732313a20617070726f76616c20746f2063757272656e74206f776e656044820152603960f91b6064820152608401610941565b336001600160a01b03821614806109fb57506109fb8133610786565b610a6d5760405162461bcd60e51b815260206004820152603860248201527f4552433732313a20617070726f76652063616c6c6572206973206e6f74206f7760448201527f6e6572206e6f7220617070726f76656420666f7220616c6c00000000000000006064820152608401610941565b610a77838361232c565b505050565b60008181526014602052604081206108419061239a565b6000828152601360205260408120610aab90836123a4565b9392505050565b6000818152600c60205260409020805460609190610acf90613a7d565b80601f0160208091040260200160405190810160405280929190818152602001828054610afb90613a7d565b8015610b485780601f10610b1d57610100808354040283529160200191610b48565b820191906000526020600020905b815481529060010190602001808311610b2b57829003601f168201915b50505050509050919050565b610b5d846123b0565b6000610b68600b5490565b9050610b78600b80546001019055565b610b8233826123f5565b60008181526010602052604090819020600019905551610bc1908290600d90610bac908990613ab8565b9081526040519081900360200190209061240f565b506000818152600c602090815260409091208651610be19288019061333f565b506000818152601160209081526040808320838052825280832033808552908352818420805460ff1916600117905590518481529092839290917f3f9759be566576e968397b016ea9843c3e1d19bf1f59ae53cdfbd3b1a6914070910160405180910390a4610c5081856110bc565b60005b8351811015610c9157610c7f848281518110610c7157610c71613ad4565b602002602001015183610f14565b80610c8981613b00565b915050610c53565b5060005b8251811015610cd357610cc182848381518110610cb457610cb4613ad4565b6020026020010151610f14565b80610ccb81613b00565b915050610c95565b505050505050565b610ce5338261241b565b610d015760405162461bcd60e51b815260040161094190613b1b565b610a77838383612504565b6000828152601460205260408120610aab90836123a4565b6000610d2f8361159e565b8210610d915760405162461bcd60e51b815260206004820152602b60248201527f455243373231456e756d657261626c653a206f776e657220696e646578206f7560448201526a74206f6620626f756e647360a81b6064820152608401610941565b506001600160a01b03919091166000908152600660209081526040808320938352929052205490565b81610dc48161230f565b6040518060400160405280601081526020016f1b9bd91957db9bdb995e1a5cdd195b9d60821b81525090610e0b5760405162461bcd60e51b81526004016109419190613499565b50610e17838333612064565b15610e7c57600083815260116020908152604080832085845282528083203380855290835292819020805460ff1916905551858152829185917f743dd6de0118c934baddbf165685269ac4f51fe0780281fdb64ea7ca8746ceff910160405180910390a45b610e9f3360008581526012602090815260408083208784529091529020906126ab565b50505050565b6000610eb383600084612064565b80610aab5750610aab83600184612064565b6000828152600f60205260408082209051610aab9190610ee6908590613ab8565b908152602001604051809103902061239a565b610a7783838360405180602001604052806000815250611c9a565b81610f1e8161230f565b6040518060400160405280601081526020016f1b9bd91957db9bdb995e1a5cdd195b9d60821b81525090610f655760405162461bcd60e51b81526004016109419190613499565b5081610f708161230f565b6040518060400160405280601081526020016f1b9bd91957db9bdb995e1a5cdd195b9d60821b81525090610fb75760405162461bcd60e51b81526004016109419190613499565b50600083815260156020526040902054839060ff166110b557610fda8133610ea5565b604051806040016040528060188152602001600080516020613cfd8339815191528152509061101c5760405162461bcd60e51b81526004016109419190613499565b50600061102886610ab2565b9050600061103586610ab2565b905061105c87600e600089815260200190815260200160002084604051610bac9190613ab8565b5061108286600f60008a815260200190815260200160002083604051610bac9190613ab8565b506040513390879089907feaf150e9f0b6be1dd0c5430caeff7ab7f397ab6a07e3fc101d920a2cd2e2dcc190600090a450505b5050505050565b816110c68161230f565b6040518060400160405280601081526020016f1b9bd91957db9bdb995e1a5cdd195b9d60821b8152509061110d5760405162461bcd60e51b81526004016109419190613499565b50600083815260156020526040902054839060ff16610e9f576111308133610ea5565b604051806040016040528060188152602001600080516020613cfd833981519152815250906111725760405162461bcd60e51b81526004016109419190613499565b5061117c836123b0565b6016600085815260200190815260200160002060405180606001604052804281526020018581526020016111ad3390565b6001600160a01b0316905281546001818101845560009384526020938490208351600390930201918255838301518051939492936111f39392850192919091019061333f565b5060409190910151600290910180546001600160a01b0319166001600160a01b0390921691909117905561122784846126c0565b6040513390611237908590613ab8565b6040518091039020857f87e2bd723d2071701a8612fe3afcc134df220caad0d2a34e64c02b79569a2f934260405161127191815260200190565b60405180910390a450505050565b60006108418261230f565b600061129560085490565b82106112f85760405162461bcd60e51b815260206004820152602c60248201527f455243373231456e756d657261626c653a20676c6f62616c20696e646578206f60448201526b7574206f6620626f756e647360a01b6064820152608401610941565b6008828154811061130b5761130b613ad4565b90600052602060002001549050919050565b806113278161230f565b6040518060400160405280601081526020016f1b9bd91957db9bdb995e1a5cdd195b9d60821b8152509061136e5760405162461bcd60e51b81526004016109419190613499565b5061137a335b8361241b565b604051806040016040528060188152602001600080516020613cfd833981519152815250906113bc5760405162461bcd60e51b81526004016109419190613499565b506113c68261274b565b5050565b6000838152600e602052604080822090516114019184916113ec908790613ab8565b908152604051908190036020019020906123a4565b949350505050565b6114366040518060600160405280600081526020016060815260200160006001600160a01b031681525090565b600083815260166020526040902080548390811061145657611456613ad4565b90600052602060002090600302016040518060600160405290816000820154815260200160018201805461148990613a7d565b80601f01602080910402602001604051908101604052809291908181526020018280546114b590613a7d565b80156115025780601f106114d757610100808354040283529160200191611502565b820191906000526020600020905b8154815290600101906020018083116114e557829003601f168201915b5050509183525050600291909101546001600160a01b03166020909101529392505050565b6000818152600260205260408120546001600160a01b0316806108415760405162461bcd60e51b815260206004820152602960248201527f4552433732313a206f776e657220717565727920666f72206e6f6e657869737460448201526832b73a103a37b5b2b760b91b6064820152608401610941565b60006001600160a01b0382166116095760405162461bcd60e51b815260206004820152602a60248201527f4552433732313a2062616c616e636520717565727920666f7220746865207a65604482015269726f206164647265737360b01b6064820152608401610941565b506001600160a01b031660009081526003602052604090205490565b60008181526013602052604081206108419061239a565b60008281526015602052604081205483919060ff16610e9f57611660828233612064565b604051806040016040528060188152602001600080516020613cfd833981519152815250906116a25760405162461bcd60e51b81526004016109419190613499565b50600084815260106020526040808220859055513391859187917fbb20007b95b26bd38b683bc47845955ff684c507793c81548a38dffa87fd4c1e91a450505050565b6000818152601060205260408120548113156117055750620f423f919050565b5060009081526010602052604090205490565b60606001805461085690613a7d565b816117318161230f565b6040518060400160405280601081526020016f1b9bd91957db9bdb995e1a5cdd195b9d60821b815250906117785760405162461bcd60e51b81526004016109419190613499565b50816117838161230f565b6040518060400160405280601081526020016f1b9bd91957db9bdb995e1a5cdd195b9d60821b815250906117ca5760405162461bcd60e51b81526004016109419190613499565b5060008481526015602052604081205485919060ff16610cd3576117ef828233612064565b604051806040016040528060188152602001600080516020613cfd833981519152815250906118315760405162461bcd60e51b81526004016109419190613499565b506040805180820190915260148152733932b1bab939b4bb32afb232b632b3b0ba34b7b760611b60208201528686141561187e5760405162461bcd60e51b81526004016109419190613499565b5061188885611625565b6040805180820190915260148152733932b1bab939b4bb32afb232b632b3b0ba34b7b760611b602082015290156118d25760405162461bcd60e51b81526004016109419190613499565b506118dc86610a7c565b6040805180820190915260148152733932b1bab939b4bb32afb232b632b3b0ba34b7b760611b602082015290156119265760405162461bcd60e51b81526004016109419190613499565b50600086815260136020526040902061193f908661240f565b506000858152601460205260409020611958908761240f565b506040513390869088907ff756463748eb0d59b8dea527a9a6d0c7e1b813913b25797ba5d3603892b2070490600090a4505050505050565b8261199a8161230f565b6040518060400160405280601081526020016f1b9bd91957db9bdb995e1a5cdd195b9d60821b815250906119e15760405162461bcd60e51b81526004016109419190613499565b5060008481526015602052604081205485919060ff16610cd357611a06828233612064565b604051806040016040528060188152602001600080516020613cfd83398151915281525090611a485760405162461bcd60e51b81526004016109419190613499565b50611a54868686612064565b15611ac357600086815260116020908152604080832088845282528083206001600160a01b03881680855290835292819020805460ff191690555188815233929188917f743dd6de0118c934baddbf165685269ac4f51fe0780281fdb64ea7ca8746ceff910160405180910390a45b60008681526012602090815260408083208884529091529020611ae690856126ab565b50505050505050565b6113c6338383612754565b611b0682600033612064565b604051806040016040528060188152602001600080516020613cfd83398151915281525090611b485760405162461bcd60e51b81526004016109419190613499565b506000828152601560205260409020805460ff1916821515179055336001600160a01b0316827fe0b4110a3baee4f696784af62abd29a66eaa57537c9d08b1e88efa87c846180c83604051611ba1911515815260200190565b60405180910390a35050565b6000610841600d83604051610ee69190613ab8565b60166020528160005260406000208181548110611bde57600080fd5b906000526020600020906003020160009150915050806000015490806001018054611c0890613a7d565b80601f0160208091040260200160405190810160405280929190818152602001828054611c3490613a7d565b8015611c815780601f10611c5657610100808354040283529160200191611c81565b820191906000526020600020905b815481529060010190602001808311611c6457829003601f168201915b505050600290930154919250506001600160a01b031683565b611ca333611374565b611cbf5760405162461bcd60e51b815260040161094190613b1b565b610e9f84848484612823565b6060611cd682612856565b604051602001611ce69190613b6c565b6040516020818303038152906040529050919050565b81611d068161230f565b6040518060400160405280601081526020016f1b9bd91957db9bdb995e1a5cdd195b9d60821b81525090611d4d5760405162461bcd60e51b81526004016109419190613499565b5081611d588161230f565b6040518060400160405280601081526020016f1b9bd91957db9bdb995e1a5cdd195b9d60821b81525090611d9f5760405162461bcd60e51b81526004016109419190613499565b50600083815260156020526040902054839060ff166110b557611dc28133610ea5565b604051806040016040528060188152602001600080516020613cfd83398151915281525090611e045760405162461bcd60e51b81526004016109419190613499565b506000611e1086610ab2565b90506000611e1d86610ab2565b9050611e5987600e600089815260200190815260200160002084604051611e449190613ab8565b908152604051908190036020019020906129d4565b50611e7f86600f60008a815260200190815260200160002083604051611e449190613ab8565b506040513390879089907f6557fb419f8fb38db07d7d39abcf73191eef47a23c96712b48f58f1b5230ee5d90600090a450505050505050565b6000838152600f602052604080822090516114019184916113ec908790613ab8565b6000610aab82600d856040516113ec9190613ab8565b81611efa8161230f565b6040518060400160405280601081526020016f1b9bd91957db9bdb995e1a5cdd195b9d60821b81525090611f415760405162461bcd60e51b81526004016109419190613499565b5081611f4c8161230f565b6040518060400160405280601081526020016f1b9bd91957db9bdb995e1a5cdd195b9d60821b81525090611f935760405162461bcd60e51b81526004016109419190613499565b5060008481526015602052604081205485919060ff16610cd357611fb8828233612064565b604051806040016040528060188152602001600080516020613cfd83398151915281525090611ffa5760405162461bcd60e51b81526004016109419190613499565b50600086815260136020526040902061201390866129d4565b50600085815260146020526040902061202c90876129d4565b506040513390869088907fe90abaaba0ad946d1629928fb2d2e7c2c3dbac7b21e98a78cf777e1e87ef803890600090a4505050505050565b600083815260116020908152604080832085845282528083206001600160a01b038516845290915281205460ff161561209f57506001610aab565b60005b60008581526013602052604090206120b99061239a565b8110156121045760008581526013602052604090206120e3906120dc90836123a4565b8585612064565b156120f2576001915050610aab565b806120fc81613b00565b9150506120a2565b506000949350505050565b826121198161230f565b6040518060400160405280601081526020016f1b9bd91957db9bdb995e1a5cdd195b9d60821b815250906121605760405162461bcd60e51b81526004016109419190613499565b5060008481526015602052604081205485919060ff16610cd357612185828233612064565b604051806040016040528060188152602001600080516020613cfd833981519152815250906121c75760405162461bcd60e51b81526004016109419190613499565b506121d3868686612064565b61226157600086815260116020908152604080832088845282528083206001600160a01b03881684529091529020805460ff191660011790556122133390565b6001600160a01b0316846001600160a01b0316867f3f9759be566576e968397b016ea9843c3e1d19bf1f59ae53cdfbd3b1a69140708960405161225891815260200190565b60405180910390a45b60008681526012602090815260408083208884529091529020611ae690856129e0565b6000828152600e60205260408082209051610aab9190610ee6908590613ab8565b60008281526012602090815260408083208484529091528120610aab9061239a565b6000838152601260209081526040808320858452909152812061140190836123a4565b60006001600160e01b0319821663780e9d6360e01b14806108415750610841826129f5565b6000908152600260205260409020546001600160a01b0316151590565b600081815260046020526040902080546001600160a01b0319166001600160a01b038416908117909155819061236182611527565b6001600160a01b03167f8c5be1e5ebec7d5bd14f71427d1e84f3dd0314c0f7b2291e5b200ac8c7c3b92560405160405180910390a45050565b6000610841825490565b6000610aab8383612a45565b60008151116123f25760405162461bcd60e51b815260206004820152600e60248201526d696e76616c69645f737472696e6760901b6044820152606401610941565b50565b6113c6828260405180602001604052806000815250612a6f565b6000610aab8383612aa2565b60006124268261230f565b6124875760405162461bcd60e51b815260206004820152602c60248201527f4552433732313a206f70657261746f7220717565727920666f72206e6f6e657860448201526b34b9ba32b73a103a37b5b2b760a11b6064820152608401610941565b600061249283611527565b9050806001600160a01b0316846001600160a01b031614806124cd5750836001600160a01b03166124c2846108d9565b6001600160a01b0316145b8061140157506001600160a01b0380821660009081526005602090815260408083209388168352929052205460ff16949350505050565b826001600160a01b031661251782611527565b6001600160a01b03161461257b5760405162461bcd60e51b815260206004820152602560248201527f4552433732313a207472616e736665722066726f6d20696e636f72726563742060448201526437bbb732b960d91b6064820152608401610941565b6001600160a01b0382166125dd5760405162461bcd60e51b8152602060048201526024808201527f4552433732313a207472616e7366657220746f20746865207a65726f206164646044820152637265737360e01b6064820152608401610941565b6125e8838383612af1565b6125f360008261232c565b6001600160a01b038316600090815260036020526040812080546001929061261c908490613b9e565b90915550506001600160a01b038216600090815260036020526040812080546001929061264a908490613bb5565b909155505060008181526002602052604080822080546001600160a01b0319166001600160a01b0386811691821790925591518493918716917fddf252ad1be2c89b69c2b068fc378daa952ba7f163c4a11628f55a4df523b3ef91a4505050565b6000610aab836001600160a01b038416612afc565b6126c98261230f565b61272c5760405162461bcd60e51b815260206004820152602e60248201527f45524337323155524953746f726167653a2055524920736574206f66206e6f6e60448201526d32bc34b9ba32b73a103a37b5b2b760911b6064820152608401610941565b6000828152600a602090815260409091208251610a779284019061333f565b6123f281612bef565b816001600160a01b0316836001600160a01b031614156127b65760405162461bcd60e51b815260206004820152601960248201527f4552433732313a20617070726f766520746f2063616c6c6572000000000000006044820152606401610941565b6001600160a01b03838116600081815260056020908152604080832094871680845294825291829020805460ff191686151590811790915591519182527f17307eab39ab6107e8899845ad3d59bd9653f200f220920489ca2b5937696c31910160405180910390a3505050565b61282e848484612504565b61283a84848484612c2f565b610e9f5760405162461bcd60e51b815260040161094190613bcd565b60606128618261230f565b6128c75760405162461bcd60e51b815260206004820152603160248201527f45524337323155524953746f726167653a2055524920717565727920666f72206044820152703737b732bc34b9ba32b73a103a37b5b2b760791b6064820152608401610941565b6000828152600a6020526040812080546128e090613a7d565b80601f016020809104026020016040519081016040528092919081815260200182805461290c90613a7d565b80156129595780601f1061292e57610100808354040283529160200191612959565b820191906000526020600020905b81548152906001019060200180831161293c57829003601f168201915b505050505090506000612986604080518082019091526007815266697066733a2f2f60c81b602082015290565b9050805160001415612999575092915050565b8151156129cb5780826040516020016129b3929190613c1f565b60405160208183030381529060405292505050919050565b61140184612d2d565b6000610aab8383612afc565b6000610aab836001600160a01b038416612aa2565b60006001600160e01b031982166380ac58cd60e01b1480612a2657506001600160e01b03198216635b5e139f60e01b145b8061084157506301ffc9a760e01b6001600160e01b0319831614610841565b6000826000018281548110612a5c57612a5c613ad4565b9060005260206000200154905092915050565b612a798383612e13565b612a866000848484612c2f565b610a775760405162461bcd60e51b815260040161094190613bcd565b6000818152600183016020526040812054612ae957508154600181810184556000848152602080822090930184905584548482528286019093526040902091909155610841565b506000610841565b610a77838383612f52565b60008181526001830160205260408120548015612be5576000612b20600183613b9e565b8554909150600090612b3490600190613b9e565b9050818114612b99576000866000018281548110612b5457612b54613ad4565b9060005260206000200154905080876000018481548110612b7757612b77613ad4565b6000918252602080832090910192909255918252600188019052604090208390555b8554869080612baa57612baa613c4e565b600190038181906000526020600020016000905590558560010160008681526020019081526020016000206000905560019350505050610841565b6000915050610841565b612bf88161300a565b6000818152600a602052604090208054612c1190613a7d565b1590506123f2576000818152600a602052604081206123f2916133c3565b60006001600160a01b0384163b15612d2257604051630a85bd0160e11b81526001600160a01b0385169063150b7a0290612c73903390899088908890600401613c64565b6020604051808303816000875af1925050508015612cae575060408051601f3d908101601f19168201909252612cab91810190613ca1565b60015b612d08573d808015612cdc576040519150601f19603f3d011682016040523d82523d6000602084013e612ce1565b606091505b508051612d005760405162461bcd60e51b815260040161094190613bcd565b805181602001fd5b6001600160e01b031916630a85bd0160e11b149050611401565b506001949350505050565b6060612d388261230f565b612d9c5760405162461bcd60e51b815260206004820152602f60248201527f4552433732314d657461646174613a2055524920717565727920666f72206e6f60448201526e3732bc34b9ba32b73a103a37b5b2b760891b6064820152608401610941565b6000612dc2604080518082019091526007815266697066733a2f2f60c81b602082015290565b90506000815111612de25760405180602001604052806000815250610aab565b80612dec846130b1565b604051602001612dfd929190613c1f565b6040516020818303038152906040529392505050565b6001600160a01b038216612e695760405162461bcd60e51b815260206004820181905260248201527f4552433732313a206d696e7420746f20746865207a65726f20616464726573736044820152606401610941565b612e728161230f565b15612ebf5760405162461bcd60e51b815260206004820152601c60248201527f4552433732313a20746f6b656e20616c7265616479206d696e746564000000006044820152606401610941565b612ecb60008383612af1565b6001600160a01b0382166000908152600360205260408120805460019290612ef4908490613bb5565b909155505060008181526002602052604080822080546001600160a01b0319166001600160a01b03861690811790915590518392907fddf252ad1be2c89b69c2b068fc378daa952ba7f163c4a11628f55a4df523b3ef908290a45050565b6001600160a01b038316612fad57612fa881600880546000838152600960205260408120829055600182018355919091527ff3f7a9fe364faab93b216da50a3214154f22a0a2b415b23a84c8169e8b636ee30155565b612fd0565b816001600160a01b0316836001600160a01b031614612fd057612fd083826131af565b6001600160a01b038216612fe757610a778161324c565b826001600160a01b0316826001600160a01b031614610a7757610a7782826132fb565b600061301582611527565b905061302381600084612af1565b61302e60008361232c565b6001600160a01b0381166000908152600360205260408120805460019290613057908490613b9e565b909155505060008281526002602052604080822080546001600160a01b0319169055518391906001600160a01b038416907fddf252ad1be2c89b69c2b068fc378daa952ba7f163c4a11628f55a4df523b3ef908390a45050565b6060816130d55750506040805180820190915260018152600360fc1b602082015290565b8160005b81156130ff57806130e981613b00565b91506130f89050600a83613cd4565b91506130d9565b60008167ffffffffffffffff81111561311a5761311a61352d565b6040519080825280601f01601f191660200182016040528015613144576020820181803683370190505b5090505b841561140157613159600183613b9e565b9150613166600a86613ce8565b613171906030613bb5565b60f81b81838151811061318657613186613ad4565b60200101906001600160f81b031916908160001a9053506131a8600a86613cd4565b9450613148565b600060016131bc8461159e565b6131c69190613b9e565b600083815260076020526040902054909150808214613219576001600160a01b03841660009081526006602090815260408083208584528252808320548484528184208190558352600790915290208190555b5060009182526007602090815260408084208490556001600160a01b039094168352600681528383209183525290812055565b60085460009061325e90600190613b9e565b6000838152600960205260408120546008805493945090928490811061328657613286613ad4565b9060005260206000200154905080600883815481106132a7576132a7613ad4565b60009182526020808320909101929092558281526009909152604080822084905585825281205560088054806132df576132df613c4e565b6001900381819060005260206000200160009055905550505050565b60006133068361159e565b6001600160a01b039093166000908152600660209081526040808320868452825280832085905593825260079052919091209190915550565b82805461334b90613a7d565b90600052602060002090601f01602090048101928261336d57600085556133b3565b82601f1061338657805160ff19168380011785556133b3565b828001600101855582156133b3579182015b828111156133b3578251825591602001919060010190613398565b506133bf9291506133f9565b5090565b5080546133cf90613a7d565b6000825580601f106133df575050565b601f0160209004906000526020600020908101906123f291905b5b808211156133bf57600081556001016133fa565b6001600160e01b0319811681146123f257600080fd5b60006020828403121561343657600080fd5b8135610aab8161340e565b60005b8381101561345c578181015183820152602001613444565b83811115610e9f5750506000910152565b60008151808452613485816020860160208601613441565b601f01601f19169290920160200192915050565b602081526000610aab602083018461346d565b6000602082840312156134be57600080fd5b5035919050565b80356001600160a01b03811681146134dc57600080fd5b919050565b600080604083850312156134f457600080fd5b6134fd836134c5565b946020939093013593505050565b6000806040838503121561351e57600080fd5b50508035926020909101359150565b634e487b7160e01b600052604160045260246000fd5b604051601f8201601f1916810167ffffffffffffffff8111828210171561356c5761356c61352d565b604052919050565b600067ffffffffffffffff83111561358e5761358e61352d565b6135a1601f8401601f1916602001613543565b90508281528383830111156135b557600080fd5b828260208301376000602084830101529392505050565b600082601f8301126135dd57600080fd5b610aab83833560208501613574565b600082601f8301126135fd57600080fd5b8135602067ffffffffffffffff8211156136195761361961352d565b8160051b613628828201613543565b928352848101820192828101908785111561364257600080fd5b83870192505b8483101561366157823582529183019190830190613648565b979650505050505050565b6000806000806080858703121561368257600080fd5b843567ffffffffffffffff8082111561369a57600080fd5b6136a6888389016135cc565b955060208701359150808211156136bc57600080fd5b6136c8888389016135cc565b945060408701359150808211156136de57600080fd5b6136ea888389016135ec565b9350606087013591508082111561370057600080fd5b5061370d878288016135ec565b91505092959194509250565b60008060006060848603121561372e57600080fd5b613737846134c5565b9250613745602085016134c5565b9150604084013590509250925092565b6000806040838503121561376857600080fd5b82359150613778602084016134c5565b90509250929050565b6000806040838503121561379457600080fd5b82359150602083013567ffffffffffffffff8111156137b257600080fd5b6137be858286016135cc565b9150509250929050565b6000806000606084860312156137dd57600080fd5b83359250602084013567ffffffffffffffff8111156137fb57600080fd5b613807868287016135cc565b925050604084013590509250925092565b6020815281516020820152600060208301516060604084015261383e608084018261346d565b604094909401516001600160a01b0316606093909301929092525090919050565b60006020828403121561387157600080fd5b610aab826134c5565b60008060006060848603121561388f57600080fd5b83359250602084013591506138a6604085016134c5565b90509250925092565b803580151581146134dc57600080fd5b600080604083850312156138d257600080fd5b6138db836134c5565b9150613778602084016138af565b600080604083850312156138fc57600080fd5b82359150613778602084016138af565b60006020828403121561391e57600080fd5b813567ffffffffffffffff81111561393557600080fd5b611401848285016135cc565b83815260606020820152600061395a606083018561346d565b905060018060a01b0383166040830152949350505050565b6000806000806080858703121561398857600080fd5b613991856134c5565b935061399f602086016134c5565b925060408501359150606085013567ffffffffffffffff8111156139c257600080fd5b8501601f810187136139d357600080fd5b61370d87823560208401613574565b600080604083850312156139f557600080fd5b823567ffffffffffffffff811115613a0c57600080fd5b613a18858286016135cc565b95602094909401359450505050565b60008060408385031215613a3a57600080fd5b613a43836134c5565b9150613778602084016134c5565b600080600060608486031215613a6657600080fd5b505081359360208301359350604090920135919050565b600181811c90821680613a9157607f821691505b60208210811415613ab257634e487b7160e01b600052602260045260246000fd5b50919050565b60008251613aca818460208701613441565b9190910192915050565b634e487b7160e01b600052603260045260246000fd5b634e487b7160e01b600052601160045260246000fd5b6000600019821415613b1457613b14613aea565b5060010190565b60208082526031908201527f4552433732313a207472616e736665722063616c6c6572206973206e6f74206f6040820152701ddb995c881b9bdc88185c1c1c9bdd9959607a1b606082015260800190565b60008251613b7e818460208701613441565b6d17b6b2ba30b230ba30973539b7b760911b920191825250600e01919050565b600082821015613bb057613bb0613aea565b500390565b60008219821115613bc857613bc8613aea565b500190565b60208082526032908201527f4552433732313a207472616e7366657220746f206e6f6e20455243373231526560408201527131b2b4bb32b91034b6b83632b6b2b73a32b960711b606082015260800190565b60008351613c31818460208801613441565b835190830190613c45818360208801613441565b01949350505050565b634e487b7160e01b600052603160045260246000fd5b6001600160a01b0385811682528416602082015260408101839052608060608201819052600090613c979083018461346d565b9695505050505050565b600060208284031215613cb357600080fd5b8151610aab8161340e565b634e487b7160e01b600052601260045260246000fd5b600082613ce357613ce3613cbe565b500490565b600082613cf757613cf7613cbe565b50069056fe696e73756666696369656e745f7065726d697373696f6e730000000000000000a264697066735822122026e20a964aa82fa5ca55f2ff1d0ea7776f127794541ba929939228dbf72b1cc864736f6c634300080c0033",
  "linkReferences": {},
  "deployedLinkReferences": {}
}